:02000002D0002C
:1040000000400D0030A60D00000006000C00050168
:084010000401E80500000000B6
:0440180038940D00CB
:1040200009480A49884208B505D0094A824202D0A7
:10403000121A05F0CEF80748074A0021121A05F0B7
:10404000D3F8014808BD00BF84D8032074A10D0037
:1040500018DD032018DD0320F0E7032070B503F01E
:1040600085FE074C074BE41AA40800251E46A5420E
:1040700004D056F8253098470135F8E770BD00BFE9
:1040800068A10D00E0A00D0000F050BC08B500F0E4
:10409000D3FBBDE8084003F02BBE03F07BBB03F06D
:1040A00079BB000008B5034A00210C2003F0D6FAC2
:1040B000FEE700BF0D740D000078B0FA80F04009F3
:1040C000704701230370704770477047083001F054
:1040D000D3BF00007FB5024608461379956833B117
:1040E0003DB90C4904B0BDE8704003F03BBD0A4B3C
:1040F00000E00A4B167B0A4C0A49527B0292012EC1
:1041000008BF214601910095074A002103F06DFD8B
:1041100004B070BD81940D00DF9D0D0070940D0002
:1041200079940D007D940D0097940D0010B52C210D
:10413000044604F0B7FA204610BD07B502AB0122D1
:1041400003F8011D0830194601F096FF03B05DF831
:1041500004FB000010B50D4C204600F067FE204621
:10416000012101F0D5F92046012101F0D6F92046C0
:104170000522142101F0C9F92046054903F009FD83
:104180002046BDE8104000F08BBF00BF58E303207D
:10419000B5940D0070B5054614460E4603F046F979
:1041A000ADB20444284604F0F9F9B04203D003F05C
:1041B0003DF9A042F6D370BD10B584B2012120466E
:1041C00004F0D3F90A2003F021F920460021BDE8CC
:1041D000104004F0CAB9000038B5124B124D1868EF
:1041E000FFF7EAFF642201212868FFF7D3FF03F0FD
:1041F00015F96422044600212868FFF7CBFF03F07D
:104200000DF9001B07EE900ADFED086A084BF8EE87
:10421000E77A642087EEA67A83ED007ABDE838401D
:1042200003F030BD84D8032088D803200000684202
:10423000B4E1032010B507EE900A134B134CB8EE0F
:10424000E77AD3ED007A2378B4EEE77AF1EE10FA4C
:104250000CDD9BB903F08AFE0D4903F09AFC0D4A70
:10426000137883F001031370012306E033B103F0E8
:104270007DFE094903F076FC002323704FF47A7029
:10428000BDE8104003F0FEBCB4E1032029DD0320AB
:10429000C6940D00C4E30320D6940D0037B5044640
:1042A00010EE100A0D4604F0BDFC2A46CDE90001CF
:1042B0000021204603F099FC03B030BD30B5044620
:1042C00089B011EE100A8DED070A0D46CDED060AF4
:1042D00004F0A8FCDDED060ACDE9040110EE900A19
:1042E00004F0A0FC9DED070ACDE9020110EE100AD2
:1042F00004F098FC2A46CDE900010021204603F095
:1043000074FC09B030BD000013B503F02FFE1F4947
:104310001F4C03F027FC1F4A1F4B12781B78019299
:104320001E4A1278009200211D4A204603F05DFCCF
:104330001C4A1D4B12781B7801921C4A127800927D
:1043400000211B4A204603F050FC1A4B1A4993EDFA
:10435000001A1A4BD3ED000A194B204693ED000AC0
:10436000FFF7ACFF174B184A1B780021204603F0DB
:104370003CFC1649204603F00CFC154B154993ED07
:10438000000A2046FFF78AFF02B010BDDC940D0042
:104390008CE30320B9E30320BAE3032088E303207E
:1043A000F5940D00B8E3032028DD032080E303200B
:1043B00012950D007CE3032029950D002CDD0320D0
:1043C000BCE303202ADD032043950D00DF9D0D0093
:1043D000B4E103205C950D002DE9F04F884CA5B0A9
:1043E00003F024F82368C01A41F28733984240F260
:1043F000038103F01BF8206003F0B8FD814C0546F3
:104400000A22217803F0D1FB284603F0B6FB03F023
:10441000ADFD23780646254623B103F007F8616B0E
:10442000411A01E04FF0FF310A22304603F0BDFB94
:10443000304603F0A2FB2B78724C3BB102F0F6FF42
:10444000636BC01A42F20F73984210D96E4904A8E8
:1044500004F03EFF6D4B1B78002B40F0CD806B4B82
:1044600001221A7002F0E2FF694B1860C4E0204696
:1044700002F07AFC51EC100B04F03AFEDFF8D4A104
:10448000DFF8D491CAF80000204602F095FC51EC08
:10449000100B04F02DFE002584F87950C9F80000B7
:1044A000D4F88000DFF8B481DFF8B4B1594F5A4E28
:1044B00004F0A6FB0022594B04F032FD04F018FE74
:1044C000C8F8000004F1480002F0E4FC8BF800009A
:1044D00004F1480002F0E8FC387004F1480002F0F2
:1044E000F1FC84F899504E4DD4F8A030307004F1AE
:1044F00038002B7002F0C4FC04F1380002F0B4FC68
:10450000484B187004F1380002F0A2FC464B1870BA
:104510009BF80030072B5C4601D9063B00E01233C4
:10452000DFF840B1237003F021FD9BED000A3F4905
:10453000FFF7B4FE03F01AFD2B783D4A002103F08B
:1045400054FB03F013FD3278237801923A780092FD
:104550000021384A03F049FB03F008FD98ED001AEA
:10456000D9ED000A9AED000A3349FFF7A7FE274B61
:104570001B787BB1254B00221A7002F057FF244BA9
:104580001B68C31A039303F0F1FC039B2B4A012120
:1045900003F02BFB2A4800F049FC00221146284872
:1045A00000F0B3FF3278237801923A78009200212C
:1045B000244A234803F019FB98ED001AD9ED000AAC
:1045C0009AED000A20491E48FFF778FE2B781F4A13
:1045D0001B48002103F009FB1D49194803F0D9FAD3
:1045E0009BED000A11491648FFF758FE144825B004
:1045F000BDE8F04F00F054BD25B0BDE8F08F00BF1E
:10460000C0E30320B8E10320E6950D0081E3032019
:1046100084E3032080E30320B8E303200000594033
:104620002ADD032088E30320B9E303205C950D0015
:1046300074950D008F950D00A9950D00C6950D0080
:1046400058E3032012950D0029950D0043950D00A8
:10465000DF9D0D00BCE303202CDD03207CE3032061
:1046600028DD0320B4E1032008B5044603F07EFCF6
:1046700094F8603405462BB31A4903F094FA94F881
:104680006034202B03D11849284603F08CFA94F8A3
:1046900060341BB31549284603F06BFA102294F8D6
:1046A0006014284603F081FA1149284603F061FAA4
:1046B000102294F86914284603F077FA284603F08C
:1046C0005CFA0BE0E3790BB90A4905E094F83C3455
:1046D0000BB9094900E0094903F065FA02F0B6FE9A
:1046E000FCE700BFF2950D0019960D0049960D00EC
:1046F0005A960D005E960D007B960D0096960D0065
:104700000A46002103F071BA70B53C4C23788AB098
:10471000002B70D003F02AFC39493A4DFFF7F0FF27
:1047200000260023374A38498DF8046001A88DF827
:10473000056001F052FC98B16B79392B02D001333E
:104740006B71EEE72B79392B04D0302201336A717B
:104750002B71E6E703F00AFC2C4903F01AFAFEE796
:104760002B49284A09682B4840F6012301F035FC03
:1047700020B903F0FBFB284903F00BFA03F0F6FB2A
:10478000204B264A264D002103F02FFA02F046FE68
:10479000244B1860237873B303F0E8FB224903F03D
:1047A000E1F9FFF7B1FD1B4801F0DAFBE8B16B7AE4
:1047B000DB071AD44FF4FA71642003F0E6FC03F02F
:1047C00061FA00231348237001F000FC03F0CEFBD4
:1047D0001649FFF795FF4FF4FA6003F053FA03F020
:1047E000C5FB1349FFF78CFFD4E703F0BFFB11496A
:1047F000FFF786FFDEE70AB070BD00BFC4E3032009
:10480000A6960D008CD803206CE10320BE960D0007
:10481000CCE3032094E30320D5960D00DF960D0032
:104820008CE30320C8E3032079960D00F0960D0079
:10483000F7960D0011970D0008B5FFF7CDFC03F0BA
:104840001DFC03681B699847002815DD03F016FC62
:1048500003685B699847C1B2094802F0D5FC00289B
:10486000EDD003F083FB074903F093F9FFF7B4FDA4
:104870006420FFF7DFFCE2E7BDE80840FFF744BF34
:10488000B8E103201F970D007FB5214A214C00237A
:104890001370214A009204F58C66204A8DF804308A
:1048A000029201258DF80D300E226B4604F26C4108
:1048B00030468DF80C5001F027FF30B304F23C4035
:1048C000266001F083FB2946204601F0C6FD014623
:1048D00040B1104C04F23C452146284601F0A1F9B4
:1048E00098B105E0204601F0B8FD0028F1D10CE0B8
:1048F00094F83C3413F0700F07D0094B09490A486B
:104900001D60FFF7FDFE04B070BD0248FFF7ACFE6E
:10491000C4E3032030DD032054940D0080F0FA023C
:10492000CCE3032037970D008CE3032008B503F098
:104930001DFB4FF4165103F00DFB4FF4FA7003F01A
:10494000A1F9154B0121188803F0FEFD134B00213E
:10495000188803F0F9FD03F091FB4FF4165103F0B2
:1049600087FB02F063FD0E4B18600E4B0E480122D0
:104970001A7002213C2200F0C1FAFFF7EBFBFFF7AF
:1049800083FF4FF4FA7003F07DF94FF4FA70BDE83D
:10499000084003F077B900BF84D8032088D80320EB
:1049A00084E3032081E3032058E3032010B524218E
:1049B000044603F077FE204610BD000070B502F0FB
:1049C0008DFC04212348244E00F01AFA234A24497E
:1049D000204803F059FE0021012002F057FE214833
:1049E00002F01EF9204B642183F860141F49C3F8BC
:1049F0007014012183F874143168002211F001054C
:104A0000DA7183F83C2483F83D2483F86A24C3F8E0
:104A1000782483F87C2483F87D241C460AD1304610
:104A2000FFF74AFB30B12946114802F007FF304634
:104A3000FFF747FB0F480E4BC4F86C34002303729A
:104A4000437243600C4B0360044A0C49BDE870405C
:104A500003F01ABE58E303201CDD032018DD0320F9
:104A6000CB400D00B8E1032030DD032054940D004D
:104A700020DD03208CE3032060940D00C9400D006D
:104A8000F0B5447EBDF81450022C08D0032C0FD092
:104A9000012C70D10489013CA21A12B20CE04489A5
:104AA000013CA21A0489E41A611A12B209B262E046
:104AB0004489E41A611A09B2002A5BDBB0F90840A4
:104AC000944240F390800029BEBF5B181BB20021C6
:104AD000B0F90A00CC188442C4BF431A1BB2002BA1
:104AE00040F38180C9B2C8083F4F02EBC01211F0F9
:104AF0000701DBB207EB020417D0C1F10801C8B20D
:104B00003A4983420E5C3FBFC3EB000EFF2141FADE
:104B10000EF10E40B95C012D0CBF3143B14383420D
:104B2000B95460D3181AC3B28034072B17D9012D9A
:104B30000CBFFF20002004F180011A46083AD2B2CF
:104B4000072A01F8800C01F18001F7D8A3F10802CF
:104B5000C2F3C402013204EBC21403F00703002BBA
:104B600041D0234AD25C2378012D0CBF13439343D9
:104B70002370F0BDF0BD002A35DBB0F90A40944245
:104B800031DD0029BCBFC9180BB2B0F90870B8BF3D
:104B90000021CE18BE42C4BF631A1BB2002B22DD17
:104BA000D01001EBC011104802F0070201440120AF
:104BB00000FA02F28542D2B209D1013B1BB25C1C61
:104BC00011D011F8010B104301F8010CF5E7D243A5
:104BD000D2B2013B1BB2581C05D011F8010B10409A
:104BE00001F8010CF5E7F0BDA9D80320A1D80320F6
:104BF00099D80320F0B5447EBDF81450022C08D09B
:104C0000032C0FD0012C12D10489E41AA21A12B27B
:104C10006DE00489013C611A4489E41AA21A09B2C0
:104C200012B204E04489013C611A09B25FE0002934
:104C30005CDBB0F908408C4240F39180002ABCBF95
:104C4000D21813B2B0F90A00B8BF0022D4188442B7
:104C5000C4BF831A1BB2002B40F38180D4B2404EF4
:104C6000DAB2E30801EBC31114F0070406EB010309
:104C700017D0C4F10804E0B23A4C8242275C3FBF2F
:104C8000C2EB000EFF2444FA0EF42740745C012DA1
:104C90000CBF3C43BC438242745460D3101AC2B26E
:104CA0008033072A17D9012D0CBFFF24002403F1FC
:104CB000800011460839C9B2072900F8804C00F17C
:104CC0008000F7D8A2F10801C1F3C401013103EB60
:104CD000C11302F00702002A41D02349895C1A78E7
:104CE000012D0CBF0A438A431A70F0BDF0BD0029A4
:104CF00035DBB0F90A408C4231DD002ABCBFD21846
:104D000013B2B0F90870B8BF0022D618BE42C4BFB3
:104D1000A31A1BB2002B22DDC81002EBC0121048F0
:104D200001F007011044012202FA01F19542C9B2D3
:104D300009D15A1E13B25C1C11D010F8012B0A4382
:104D400000F8012CF5E7C943C9B25A1E13B25A1C28
:104D500005D010F8012B0A4000F8012CF5E7F0BD52
:104D6000A9D80320A1D8032099D80320F8B50D1E97
:104D7000064614461F463FDB00F0D4FB85423BDA73
:104D8000002C39DB304600F0D0FB844234DA304668
:104D900000F0C6FB022827D131897089013901381A
:104DA000491B001B0DB204B206E0012804D133896F
:104DB000013B1B1B2C461DB20820012F94FBF0F079
:104DC00000B20E4B04F0070205EBC01104D197406E
:104DD0005A5C17435F54F8BD585C012707FA02F28A
:104DE00020EA02025A54F8BD0328DED17389013B40
:104DF0005B1B25461CB2DFE7F8BD00BFA9D8032026
:104E000038B5402204460D46802100F09FFA064B3B
:104E10002360FF23637784F82130E377A37784F856
:104E20002050204638BD00BF5C970D004FF48062D3
:104E30000021014804F0D8B9A9D8032038B5094D9C
:104E4000296811F001040AD12846FFF735F930B17D
:104E50002146054802F0F2FC2846FFF732F90248E5
:104E600038BD00BF1CDD032020DD032038B590F9DC
:104E70001D30013304460D4628D090F92100012150
:104E800080B203F072FB94F91F00002180B203F09E
:104E90006CFB94F92100002180B203F066FB94F8CA
:104EA00022302BB1FFF7CAFF294602F0E3FD05E0EF
:104EB0002B460122A17F607F03F083FB94F9210040
:104EC000012180B2BDE8384003F04FBB03F0B6FBD0
:104ED00094F91B1003F040F903F0B0FB03680021C4
:104EE0009B68984703F0AAFB036829469B6898478C
:104EF00003F0A4FBBDE8384003F035B938B50446EB
:104F00000D46217790F91D30C276013337D090F9E4
:104F10001F00012180B203F017FB94F92100012149
:104F200080B203F011FB94F822305BB994F91D00B4
:104F3000012180B203F008FB94F91E00012180B228
:104F400003F002FB94F82230EBB194F92100012127
:104F500080B203F00AFBFFF771FF012102F089FC28
:104F6000FFF76CFF102102F061FDFFF767FF0021E2
:104F700002F090FCFFF762FF02F06AFC03E003F02E
:104F80005DFB03F0DFF894F92000012180B203F00B
:104F9000DBFA94F92000012180B203F0E6FA012047
:104FA00002F070FE94F92000002180B203F0DDFAD7
:104FB0000A2002F067FE94F92000012180B203F07C
:104FC000D4FA2046AE21FFF751FF2046D521FFF746
:104FD0004DFF20468021FFF749FF2046A821FFF71B
:104FE00045FF20463F21FFF741FF2046D321FFF731
:104FF0003DFF20460021FFF739FF20464021FFF703
:1050000035FF8D212046FFF731FF012D0CBF102108
:1050100014212046FFF72AFF20462021FFF726FF14
:1050200020460021FFF722FF2046A121FFF71EFFA7
:105030002046C821FFF71AFF2046DA21FFF716FFA6
:1050400020461221FFF712FF81212046FFF70EFFB5
:10505000012D0CBF9F21CF212046FFF707FFD9214B
:105060002046FFF703FF012D0CBF2221F12120462E
:10507000FFF7FCFE2046DB21FFF7F8FE204640212B
:10508000FFF7F4FE2046A421FFF7F0FE2046A621FC
:10509000FFF7ECFE2046AF21BDE83840FFF7E6BE43
:1050A0002DE9F04121210446FFF7E0FE00212046D2
:1050B000FFF7DCFE7F212046FFF7D8FE22212046A5
:1050C000FFF7D4FE00212046FFF7D0FE072120463F
:1050D000FFF7CCFE94F91D30DFF8BC80013335D0EA
:1050E00094F92100012180B203F03FFA94F91F00E6
:1050F000012180B203F039FA94F92100002180B235
:1051000003F033FA012002F081F9002594F82230EF
:1051100018F805602BB1FFF791FE314602F0AAFCAA
:1051200005E033460122A17F607F03F04AFA013592
:10513000B5F5806FEAD1012002F068F994F92100F9
:10514000012180B2BDE8F04103F00FBA002503F061
:1051500075FA94F91B1002F0FFFF03F06FFA036871
:1051600040219B689847002603F068FAAF1903684E
:10517000BFB29B6818F8071001369847102EF3D17C
:10518000103503F05BFAADB202F0EDFFB5F5806FBC
:10519000DDD1BDE8F08100BFA9D8032002F09EB8A0
:1051A0002DE9F04F85B01E46BDF93830BDF83CA062
:1051B00015469A1A002AB8BF52420092721A002A63
:1051C000B8BF524201920C46009A01998A42814628
:1051D00005DD32461E46134622462C461546B4428D
:1051E00005DD2A461D4613462246344616465A1BFE
:1051F000002AB8BF5242C4EB06089D42B4BF012347
:105200004FF0FF331FFA88F8029303920FFA88F7E2
:10521000022297FBF2F7B4421FDC019A009B9342F3
:10522000D9F80030C8BF2246D3F810B0C8BF29460D
:105230005346DCBF2A4621464846D847039BFF1AFF
:10524000BBB21FB2002F05DA029A08EB0307154420
:105250002DB23FB2013424B2DDE705B0BDE8F08FD6
:105260002DE9F347BDF82C600768BDF928A000962A
:105270000446FF6991460D469846B8472368009654
:105280000AF1FF324A44DF6929464346204612B2FA
:10529000B847236800969F694A46534629462046E8
:1052A000B84723680A9608F1FF3129449D694A46A8
:1052B000534609B22046AC4602B0BDE8F04760470D
:1052C00037B5013B13440468BDF8185001951BB273
:1052D000009364690B46A04703B030BD37B5BDF8F5
:1052E000185004688DE82400013B0B4464691BB22C
:1052F000A04703B030BD2DE9F347BDF92880BDF8C4
:105300002C90054617460C4601EB030A54450BDA70
:105310002B68CDF800909E69214643463A462846C0
:105320000134B04724B2F1E702B0BDE8F08713B50D
:10533000B0F90E200468019100920022B0F90C30FF
:10534000646A1146A04702B010BD704730B50181B4
:105350000024084D42818181C2814FF6FF710122F4
:10536000446005604476048244820276C182818270
:10537000827630BD94970D002DE9F04F8FB0054631
:105380000691BDF860100791BDF864100891B0F95E
:105390000C1006989DF8688081427CDDB5F90E10EE
:1053A000914278DD062111FB0800002873DD02EB35
:1053B000C80000286FDD03EB830396B20C9306F15F
:1053C00008039BB2099100240D93052C1CBF334B9D
:1053D0000C9A059616BF1B194FF0000913F802909E
:1053E00004961FFA88F30393039ABDF8183004FB60
:1053F000023213FA84F312B21BB20A9237460FFA42
:1054000088FA0B9319F0010F11D0B8F1010F2B6836
:1054100003D1D3F810B0079B14E0079A0192CDF89E
:1054200000A0D3F824B0BDF91020534618E0079B24
:10543000089A934217D0B8F1010F2B6807D1D3F81F
:1054400010B013463AB20B992846D8470BE0089A99
:105450000192CDF800A0BDF91420D3F824B0534632
:105460000A992846D847049B039A13449BB2049395
:10547000059B13449BB2013705930D9BBFB29F421E
:105480004FEA5909BED1099B013B013413F0FF03D8
:1054900064B2099399D10FB0BDE8F08FC4970D00A5
:1054A00030B50A2985B004460B4604D1027E438AF2
:1054B00003EBC20323E00D2924D0057EB0F91220AE
:1054C000B0F910100295C58A0195858A0095FFF7FD
:1054D00053FF227E238A91B201EB410003EB40038C
:1054E000A07E1BB2238268B1B4F90C006FF00505F1
:1054F00005FB0202934205DD638A03EBC10363826D
:1055000000232382012005B030BD01824282704712
:10551000002908BF012101767047C182818270474E
:10552000407E7047B0F90C007047B0F90E0070472C
:1055300001F0D4BE01F0D2BE01F0D0BE10B50446D9
:10554000243000F07BFE28B104F50C70BDE810405B
:1055500000F074BE10BD411E00F10A020020430895
:1055600043EAC01011F8013F53FA80F08A42C0B2FA
:10557000F5D170472DE9F0470378202B00F10104A5
:1055800001D12046F8E7704F886005462C1A2E4658
:1055900015F8013B0BB32F2B01D1031917E05C2B3E
:1055A00002D10020BDE8F087A3F12204E4B21D2C53
:1055B00003D827FA04F4E407F3D403F0BF043C2C27
:1055C000EFD0203B5E2BE1D9EBE72F2D05D11E4616
:1055D00013F8015B202DF8D1F9E716600319984202
:1055E000C0EB030809D013F8012D2E2AF7D0202A8A
:1055F000F5D0B8F1FF0FD4DC01E04FF00008C1F89E
:10560000048001F10C0301F11702202403F8014F7B
:105610009342FBD103461A1A13F8014B2E2CFAD0F1
:10562000202CF8D0B2FA82F4640908F1FF36731C1A
:1056300007D100274FF0070E3D46BA464FF0080944
:1056400009E0835D2E2BF4D0013EF0E7835C202B34
:1056500004D1002401324245F8DB4BE02E2B02D16D
:10566000B242F6D103E0222B17D07C2B15D0A3F148
:105670002A0CBCF1050F01D82D2B0ED1A3F13A0C49
:10568000BCF1050F09D9A3F15B0CBCF1020F04D9E1
:10569000A3F1210CBCF15D0F02D9B2420ED149E059
:1056A000B24247D0754521D8A3F1610CBCF1190F66
:1056B00008D8203BDBB249EA07070AE0754515D850
:1056C00000245F23A3F1410CBCF1190F98BF49EAF4
:1056D0000A0A05F1010C5FFA8CFC0D44BCF1060FBF
:1056E0006B7301D881F80CC06546B3E7BEF10A0FB1
:1056F00017D100244B7B202B3FF453AF3CB11AEA67
:10570000070F18BF02270F700120BDE8F0870B7B41
:105710000120087019447E234B7331238B73BDE83D
:10572000F087B242E5DC32464FF00A0E08254FF012
:1057300010098EE7BEF10A0FDBD032464FF00A0E99
:1057400008254FF0100985E7010100312DE9F843E4
:1057500091F80C9006460D4602247E2701F10D08B3
:105760006968AA6863189BB21144914206D012F886
:10577000010B03EB431343409BB2F6E7B9F1030F70
:1057800028BF4FF0030909F10402D2B203F00F0160
:10579000A818013A0929D2B294BF30313731914566
:1057A00041734FEA1313F1D305EB090300215F7333
:1057B000304600F01EFB0121304600F0FDFA0146A4
:1057C00028B97078B0FA80F04009BDE8F883037812
:1057D0004BB1C37A1B07EED40B22404603F0EAFC20
:1057E0000028E8D102E00120BDE8F8830134A4B22A
:1057F000642CB5D1BDE8F8832DE9F04F9B460B78BA
:1058000089B013F0700F05900E46914601D100202B
:10581000A0E1059B1B78002BF9D153680293137804
:105820009B0700F08D81029B0D270C33B3FBF7F72C
:105830000137FFB20021304600F0DBFA4FF00008DC
:1058400009F10D02CDF80C80434644464546CDF89B
:10585000108006927269079301213046C2F34F1AF5
:1058600000F0AAFA079B20B97378002B00F0908013
:10587000CDE70278E52A00D042B9002C08BFD04617
:10588000BC423CBF0134E4B222B981E0BC4238BF23
:10589000002403E0E52A01D10025DBE72E2AFBD016
:1058A000C17A0F2952D13DB95106D3D5437B039319
:1058B00002F01F052B4607E0013BDBB29A42EBD119
:1058C000427B03999142E7D15A1E4FF00D0C0CFB1D
:1058D00002FC029A6245DFD94FF0000EBEF1040FC0
:1058E0005FFA8EF204D800EB4E02B2F801200CE011
:1058F0000A2A95BF0EF1FF320EF1010200EB4202BF
:1059000000EB420294BFD28892880299614503D18C
:10591000002A18BF00259DE7FF2ABDD8D2B2A2F108
:1059200041011929D9F8081011F80C1098BF20323C
:105930000CF1010AA1F1410C98BFD2B2BCF1190FD0
:105940009CBF2031C9B29142A6D1FBE00907A3D484
:105950004DB1012B7FF45BAFFFF7FDFD039B83424D
:105960007FF455AF0FE00B220699079303F022FC5A
:10597000079B00287FF46EAF99F80020D20702D56C
:105980000122049266E71BF4006F00F0D1803EE72D
:105990001BF4007F3FF43BAF0BF00303013B012BF3
:1059A0003FF635AF002C08BFD046BC4202D3049B63
:1059B000CBB91FE00021304600F0FEF910B9737832
:1059C0005BB124E70134E4B2EFE7B3681B79012B44
:1059D000EDD81034E4B2A742E9D9304600F0D2F84D
:1059E0000028F2D113E749463046FFF7AFFE002802
:1059F0003FF40DAF4FEA4811304600F0FAF90028A5
:105A00003FF405AF7D1EEDB22C464FF0000A4FF07B
:105A10000F0841E00021304600F0CEF9074600288B
:105A20003FF4F5AEB26892F82430AC4243F0010383
:105A300082F824300CBF44F040022246027080F805
:105A40000B8080F80CA009F10D000392FFF783FD95
:105A5000039A787387F81AA087F81BA002F01F0238
:105A60000D23013AD9F808E05A43002302999142E4
:105A700015D91EF80210042B5FFA83FC03F1010014
:105A800013D807EB4303A3F801100D2802F101021C
:105A90000346EBD1013CE4B2002CBBD10EE014BFB5
:105AA0004FF0FF31002189B2E5E7BCF10A0F94BF46
:105AB00007EB430307EB40039980E6E77369214650
:105AC0003046C3F34F1A00F077F9074600283FF439
:105AD0009EAE2022214603F087FB4B4653F80D2F44
:105AE0003A605A687A601A893A819B7ABB7299F84F
:105AF000003003F018033B73184B1B682BB107F100
:105B00000E0107F11000984706E021233B7428237B
:105B10007B740823BC73FB733B8A7B823B83FB89CA
:105B2000FB82B26892F8243043F0010382F82430FB
:105B300000955B4652463146059800F0A3F909E00E
:105B4000012777E60EF1010EBEF10D0F3FF482AE94
:105B5000D446C3E609B0BDE8F08F00BFD0E3032010
:105B600001F0BCBB01F0BABB01F0B8BB01F0B6BBA1
:105B70008378016943F00403837000F110028068A8
:105B800000F012BC2DE9F041037803F02003044635
:105B900003F0FF050BB100262EE04269184B9A4234
:105BA000F9D8FFF7E5FF06460028F4D02169A06880
:105BB00000F08FFB0746A06805223946243000F02C
:105BC00064FB80460028E6D029464FF4007203F0BB
:105BD0000BFB0125A3681A79AA4209D94246E919A3
:105BE000186800F0CFFE0028D5D00135EDB2F1E7FE
:105BF000636903EB422363613046BDE8F08100BF77
:105C0000FFFD1F0010B5044680680A462430A169D4
:105C100000F03BFB20B1A38803F00F0300EB43101F
:105C200010BD70B5047805460E4684B9242221467D
:105C300003F0DAFAAE60F379102B03D0202B06D1F3
:105C4000402300E0202301202B70A87070BD0020AD
:105C500070BD2DE9F74F03780446894615464BB1D0
:105C60008278D10706D50CE05A46216900F037FB4F
:105C700000283DDA637843F0020363704FF0FF3091
:105C800097E01A0703D5E36962699B1A07E09A0651
:105C900008D5A3681A896369C3EB42139BB29D427E
:105CA00028BF1D462E464FF0000804F1100B002EB1
:105CB00035D022786369A06812F0200FC3F3080A78
:105CC0004FEA532102D0036A19441DE090F8058081
:105CD00001EA0808BAF1000F10D1B8F1000F0DD198
:105CE000002BC1D153064CBF036A236A236105E030
:105CF00004D1237813F0700F11D1BBE72169A0689C
:105D000000F0E7FA08EB0001A068BAF1000F35D106
:105D1000B6F5007F32D3C36A994202D12EE0A81BA8
:105D200047E0B6F5806F1BD3227897064FEA562AD4
:105D300006D40279C8EB0202D2B2924528BF92463D
:105D400099424FEA4A2707D2A06853464A4600685C
:105D500000F0D6FD60B98DE75344994221D3F3E7B3
:105D60004A46006800F084FD002883D04FF4007795
:105D700063693B44B9446361F61B98E70022243011
:105D800000F083FA00283FF475AFCAF50077B742F8
:105D900028BF374600EB0A013A46484603F019FA95
:105DA000E6E72430019100F049FA01990028CBD1AF
:105DB00060E703B0BDE8F08F37B54369C3F343151F
:105DC000044605B169B901220DF107012046FFF72C
:105DD00040FF40B2012801D0002008E063691F3372
:105DE00000E02033A0686361303000EB451003B061
:105DF00030BD2DE9F0410E460178076904460029BF
:105E000039D04569B5423AD00EB9066131E00B0789
:105E100003D5C3699E422ED807E0880605D5A3683E
:105E20001B89B6EB431F26D823E0D4F808E09EF880
:105E300006306A1E03F10900731EC240C3409A4235
:105E400000D84DB94A064CBFDEF82020226A2261F4
:105E50001D4604F110080AE09B1AF9E74246216941
:105E6000A06800F03CFA002805F1FF3503DD002DA5
:105E7000F4D1666103E027610020BDE8F0810120D4
:105E8000BDE8F081F8B50F461546002124220446EE
:105E90001E4603F0A9F9B868A06005F00F02A580BE
:105EA00000F1300152013B6AE3601144CB7A1D07D7
:105EB0004CD4831893F83B3003F017032370C97A4E
:105EC00011F0180F04BF43F0080323709DF8183039
:105ED000E37006F00303012B09D0022B05D0002B41
:105EE00034D1710532D4012302E0032300E0022300
:105EF000A370A1788B0703D5237813F0110F25D158
:105F00004BB216F4005F06F0080114BF6FF07F0774
:105F1000002719433943A170C36AA3610244750580
:105F2000B2F84410B2F84A3043EA014104D581B1D5
:105F300000F075FA68B909E02162D36CE36173047B
:105F40000CD5E1692046FFF754FF38B900202070D6
:105F5000F8BDA37843F00403A370F0E70120F8BD77
:105F600038B5037804460BB9012038BD83785A0749
:105F700023D50121FFF746FE054628B9637843F093
:105F800001036370002038BD0378E52BF6D0237839
:105F90001B0744BFE369C361238C4383638C838203
:105FA000094B1B682BB100F11601183098472B8B59
:105FB0006B82A37823F00403A370A068FFF7BEFAF6
:105FC0000028DBD0D0E700BFD0E3032010B50446A3
:105FD000FFF7C6FF0023237010BDF0B593B01F4636
:105FE00000238DF824308DF8253003780192064681
:105FF0000C460BB100203DE00B7813F0700FF9D088
:1060000013782F2B12D1019B1A782F2A02D101333A
:106010000193F8E7A1681AB93046FFF702FE29E0BC
:1060200009A8FFF7FEFD0028E4D009AC01AA03A9E6
:106030000198FFF79FFA0028DCD0019B1B789BB1E9
:10604000002303AA21463046FFF7D6FB0028D1D013
:1060500035460FCD09AC0FC40FCD0FC42B6823609C
:106060003046FFF7B3FFE0E73B4603AA2146304640
:10607000FFF7C2FB13B0F0BD2DE9F0470378894666
:1060800019070446904608D583789A0705D51B075B
:106090000BD5E169FFF7ADFE38B9637843F0010332
:1060A00063704FF0FF30BDE8F0876369DB439845CC
:1060B000F3D846464FF0000A6369002E00F0818055
:1060C000A068427912EA5325C3F308071CD1DFB94F
:1060D000216971B104F1100200F001F90028DCDB44
:1060E00040F08E802046FFF743FD002840F0888076
:1060F000D3E7236A3BB92046FFF73AFD0028CCD00E
:106100002369236200E023612169A06800F0E1F8BF
:10611000291817B9B6F5007F21D2C7F50075B54229
:1061200028BF354637B96369E269934234BF01221B
:10613000052200E00122A068243000F0A6F8002823
:10614000ABD038442A4649462F4403F042F8B7F50D
:10615000007F30D1A068243000F070F817E0B6F569
:10616000806FA06815D30279521B730AD2B2934292
:1061700028BF1346C26A91424FEA432502D31A440C
:10618000914237D3A7684A46386800F06DFC90B951
:1061900083E7C36A994202BF4FF0FF3380F824A01F
:1061A000C362A3684A46186800F0ECFB00283FF47D
:1061B00074AF4FF4007563692B446361A944761B87
:1061C0007AE7E269934201D9E36102E00F4B1B6871
:1061D0001BB1A37843F00403A37094F90230002BA1
:1061E00002DB4046BDE8F0872046FFF7B9FE0028F5
:1061F000F7D152E74FF0FF3280F824A0C262C1E726
:106200002169A06800F065F8014683E7D0E3032028
:1062100001F064B870B505460C46084649B103F074
:106220005FF82B68024621462846DB68BDE87040CF
:10623000184770BD01F052B801F050B870B503783E
:10624000DA0704461ED54368816800F10C06324621
:10625000186800F097FB054608B9002513E023787D
:106260009B0704D4237823F0010323700BE06368B9
:10627000A068196932460144186800F083FB0028C1
:10628000F0D1EAE70125284670BD70B583688B42DE
:1062900004460E46154614D0FFF7D0FF08B900207B
:1062A00070BD6B0703D500232370A66009E0636807
:1062B00004F10C023146186800F0DAFA0028F2D135
:1062C000EDE72378204605F003051D4300F80C5B3D
:1062D00070BD8379406902399940084470470129AB
:1062E00070B505460C46164602D84FF0FF3070BD1B
:1062F000C3699942F9D8C379202B10D18169022250
:1063000001EBD41100F50C70FFF7BFFF0028ECD0B3
:1063100004F07F0450F8243023F070430FE0102B7A
:10632000E3D18369C1F307210222194400F50C70FF
:10633000FFF7ABFF0028D8D0E4B230F81430EA6998
:1063400093429ABF33600120002070BD012938B507
:106350000C46154601D8002038BDC3699942FAD8C9
:10636000C379202B0ED18169032201EBD41100F5F2
:106370000C70FFF78AFF0028EDD004F07F0440F88E
:1063800024500FE0102BE6D18369C1F307210322CB
:10639000194400F50C70FFF778FF0028DBD0E4B259
:1063A00020F81450012038BD2DE9F341C4688C4217
:1063B00005460E46904607D20C460027EB6901348D
:1063C0009C4203D9CFB9EC680127F7E7A64214D065
:1063D00001AA21462846FFF782FF00280DDBEDD0F9
:1063E000019B002BEAD107B1EC606FF070422146AF
:1063F0002846FFF7ABFF074608B900270BE016B9A0
:10640000C8F8004007E0224631462846FFF79EFFC5
:106410000028F5D1F1E7384602B0BDE8F08173B548
:1064200005460C4601AA21462846FFF758FF061EDE
:1064300001DA00200FE0002221462846FFF786FF00
:106440000028F6D0EB689C429CBF04F1FF34EC605E
:10645000019C002EE6D102B070BD70B50123044648
:106460000022C3604FF0FF33C2710D46A06280F876
:106470002420C362C4F8340280F83022C0F83832D5
:10648000A1B104295DD811462430FFF7FEFE002893
:1064900057D000EB051393F8AE315B0651D11B3595
:1064A00000EB0515D5F80650002D4AD000222946EC
:1064B00004F12400FFF7E9FE002842D0B0F80B30C9
:1064C000B3F5007F3DD1037C022B3AD1C389002B69
:1064D00037D0417B21714B1E63710023A3710926C4
:1064E00001238B4207D0013E2BD0A2795B00013201
:1064F000DBB2A271F5E7C28A02B9426A2261C6899B
:106500002E44A661B0F81130238106EB42012162CE
:10651000B0F81120520102F2FF1201EB6222626117
:10652000B0F8133003B9036AAD1A2B44A57923FAE6
:1065300005F56B1CE36140F6F4739D4203D80C2310
:10654000E371002070BD4FF6F4739D4285BFC36AAE
:10655000236210232023E371012070BD00F0BEBE32
:1065600000F0BCBE00F0BABE70B50E4C0E4615462B
:1065700000F054FF2368C01A0B4B984208D900F072
:1065800055FF0A4B186001F0EDF800F047FF20605E
:1065900000F04CFF80B2801BA842D4BF0020012035
:1065A00070BD00BFD4E30320A086010030E70320C4
:1065B00038B5057A04464DB9406800F07DFA636845
:1065C0002946187D01F0D1FF0123237238BD10B593
:1065D000037A04466BB143680121187D01F0C5FFC1
:1065E000FF21606800F09AFA606800F079FA0023F1
:1065F000237210BDF8B504460D46164600F016FF8E
:1066000087B2606800F06FFAFF28607209D14FF41A
:106610007A7239462046FFF7A7FF0028F1D05523AC
:106620000BE0FE2801D0502307E03246294660687F
:1066300000F05EFA607230B1602320462370FFF7ED
:10664000C6FF0020F8BD606800F04DFA606800F0F9
:106650004AFA0120F8BD70B504460E4600F0E6FE89
:1066600085B2324629462046FFF77EFF30B9606882
:1066700000F039FAFF28F4D1012070BD002070BD70
:10668000F7B5037A019204460D460BB9FFF790FF68
:1066900025B14FF496712046FFF7DDFF45F040012C
:1066A000606800F03BFA0DF107060DF1030716F8DC
:1066B0000119606800F032FABE42F8D1002D0CBF1B
:1066C00095218721606800F029FA606800F00BFAD4
:1066D0000B25606800F007FA0306607203D5013DE0
:1066E00015F0FF05F5D103B0F0BD70B504460D46B9
:1066F000164637210022FFF7C3FF324629462046BF
:10670000BDE87040FFF7BCBF2DE9F04100250572E0
:10671000057085724160044690461E4600F086FE74
:1067200041460746606800F0CBF963684F4A1D7226
:106730004FF00108DA605D7483F810802046FFF79F
:1067400037FF63684146187D01F00FFF0A25FF21DE
:106750006068013D00F0E2F915F0FF05F7D16368CC
:106760002946187D01F001FF0A2500221146204626
:10677000FFF786FF0128804612D0013D15F0FF0586
:1067800001D1202357E0FD21606800F0C7F94FF4E4
:106790000278606800F0A7F9B8F10108F9D1E4E7E0
:1067A0004FF4D57208212046FFF76AFF052802D171
:1067B00084F80A800FE00425606800F094F9013D38
:1067C00015F0FF056072F7D1AA2802D10223A37247
:1067D00001E025232FE0A37A022B0CBF4FF0804568
:1067E0000025BFB22A4629212046FFF77EFF024638
:1067F00048B14FF4FA6239462046FFF7B5FE00284B
:10680000F0D0432317E0A37A022B0ED02046FFF7E7
:10681000DEFE6368B0683479317B727B5A74D8606D
:106820001C7219740120BDE8F0813A212046FFF75F
:1068300027FF38B1372320462370FFF7C8FE00201A
:10684000BDE8F081606800F04EF900F0C000C0289B
:1068500004BF0323A372606800F045F9606800F08C
:1068600042F9606800F03FF9D0E700BF90D0030024
:1068700038B5837A032B18BF490215460A46112101
:106880000446FFF7FDFE10B1302323700BE02946CC
:106890004FF400722046FFF7ADFE054618B12046C2
:1068A000FFF795FE03E02046FFF791FE00252846FE
:1068B00038BD10B5837A032B0A4618BF4A0212214D
:1068C0000446FFF7DDFE30B1312320462370FFF789
:1068D0007EFE002010BD012010BD10B500220C214D
:1068E0000446FFF7CDFE30B1282320462370FFF782
:1068F0006EFE002010BD2046FFF769FE012010BD8E
:10690000F8B5054616461F46FFF7D3FF98B1002499
:10691000A3B29F4206EB442108D94FF400722846E7
:10692000FFF768FE01340028F2D104E02846BDE8F4
:10693000F840FFF7D2BF0020F8BD38B50446154631
:10694000406800F0EBF84FF400722946606800F0F0
:10695000E9F8FF21606800F0E1F8FF21606800F0CD
:10696000DDF8606800F0BFF8607200F01F000528D5
:1069700006D0572320462370FFF729FE002038BD9C
:10698000012038BD70B5837A032B18BF4902154624
:106990000A4618210446FFF773FE064608B1322363
:1069A0001DE02A46FE212046FFF7C7FFC0B14FF485
:1069B000FA612046FFF74FFE054608B95A230EE05C
:1069C00032460D212046FFF75BFE38B9606800F0C3
:1069D0008AF818B92046FFF7FAFD05E0292323704D
:1069E0002046FFF7F4FD0025284670BD38B50D465A
:1069F0004FF4FA610446FFF72EFE10B95B232370B3
:106A000005E02A46FC212046FFF797FF18B92046EB
:106A1000FFF7DDFD002038BD10B5837A032B0A4651
:106A200018BF4A0219210446FFF72AFE30B133236A
:106A300020462370FFF7CBFD002010BD012010BDC4
:106A400038B54FF4FA610446FFF705FE054620B15C
:106A5000FD21606800F062F801E0562323702046B3
:106A6000FFF7B5FD284638BDF8B5054616461F4662
:106A7000FFF7D2FF70B10024BC4206EB4421284648
:106A800004D0FFF7B3FF28B10134F5E7BDE8F840C3
:106A9000FFF7D6BF2846FFF79AFD0020F8BD00F0AB
:106AA0001DBC00F01BBC00F019BC0000014B012212
:106AB0001A707047D8E30320011D006800F014BF6E
:106AC00010B504460175006800F0C2FE207D01216A
:106AD00001F03AFD207D0121BDE8104001F045BDE7
:106AE000006800F0E8BEFF21006800F0C3BF0000AE
:106AF00037B5084B00930025074C006825701346F6
:106B00000A46294600F0BCFF2378002BFCD0002069
:106B100003B030BDAD6A0D00D8E30320006800F07B
:106B2000A9BF000037B5074B00930025064C00684D
:106B3000257013462A4600F0A3FF2378002BFCD0D3
:106B400003B030BDAD6A0D00D8E3032000F0C6BB32
:106B500010B58368044613B10322014698472046C6
:106B600010BD0000024B01221A7000F0B7BB00BF3D
:106B7000D9E3032000220270427082808260027397
:106B80000282426102768283026280F824200285BA
:106B9000C26280F83020426380F8382080F83920C3
:106BA000C2630264426480F8482080F84920C264CD
:106BB0000265426580F8582080F85920C265026657
:106BC000426680F8682080F86920C26602674267E2
:106BD00080F8782080F87920C267C0F88020C0F85B
:106BE000842080F8882080F88920C0F88C20C0F8A4
:106BF0009020C0F8942080F8982080F89920C0F860
:106C00009C20C0F8A020C0F8A42080F8A82080F81C
:106C1000A920C0F8AC20C0F8B020C0F8B42070475C
:106C200010B50446FFF7A6FF04F1B800FFF7A2FF76
:106C30000023022284F8703184F8713184F88121B4
:106C400084F8823184F8833184F88431C4F888313F
:106C5000C4F88C31C4F89031C4F89431C4F8983138
:106C6000C4F89C3184F87231204610BDA1F1410373
:106C7000052B02D8A1F137007047A1F16103052B64
:106C800094BFA1F15700A1F13000704738B50578E5
:106C900004462D2D08BF0134204602F079FA642302
:106CA0005843224614F8013BA3F130010929F8D9D1
:106CB0002E2B0BD15378303B092B07D80A2101FB2F
:106CC00003009378303B092B98BFC0182D2D08BFC7
:106CD000404238BD38B504460D4602F059FA6423E7
:106CE000B0FBF3F203FB1200114B2A804343204612
:106CF0000278A2F130010929044600F10100F7D918
:106D00002E2A0BD10A490A2014F8012F303A092AF9
:106D100004D8B1FBF0F101FB0233F5E703EB830389
:106D200001330322B3FBF2F36B6000232B7238BDF7
:106D30008096980010B50346044653F81C2F426015
:106D40005A6882601B7A0373034653F8282F026146
:106D50005A6842611B7A037600F068FB0123606386
:106D60006370237010BD0000D0B50023044643704B
:106D7000806801F035FF0EA3D3E9002302F0D0F8BC
:106D80000646A0880F4601F03BFF0B4602463946F7
:106D9000304601F0E9FD237B1BB1024601F10043BF
:106DA00001E002460B4643EC102BD0BDAFF3008050
:106DB0000000000065CDCD41D0B5002304464370EE
:106DC000406901F00DFF0EA3D3E9002302F0A8F8FB
:106DD0000646208A0F4601F013FF0B46024639464D
:106DE000304601F0C1FD237E1BB1024601F1004394
:106DF00001E002460B4643EC102BD0BDAFF3008000
:106E00000000000065CDCD4110B5836843600446A5
:106E100000F00CFB0123E0606370237010BD10B51F
:106E200083684360044600F001FB0123E060637067
:106E3000237010BD10B504460846FFF727FFA06079
:106E400010BD10B50446084602F0A2F9A06010BDBE
:106E50000023437040686422B0FBF2F302FB13008E
:106E600000F5FA6080B270470023437043686420E5
:106E7000B3FBF0F3B3FBF0F200FB1230C0B270478B
:106E800000234370436842F21070B3FBF0F0C0B2CD
:106E9000704700000023437043680248B3FBF0F0E2
:106EA000C0B2704740420F0000234370436842F273
:106EB0001070B3FBF0F36420B3FBF0F200FB123070
:106EC000C0B270470023437043686420B3FBF0F303
:106ED000B3FBF0F200FB1230C0B2704710B5C368CC
:106EE0008360044600F0A2FA01236060637023709F
:106EF00010BD10B504460846FFF7C8FEE06010BD9F
:106F000010B5C3688360044600F090FA0123606006
:106F10006370237010BD10B50446084602F038F9BE
:106F2000E06010BD10B501460446103002F0D0F903
:106F300000F07CFA0123206284F8253084F82430A4
:106F400010BD102202F0D4B9F8B590F87151044682
:106F5000002D00F08B8090F87211FFF787FE94F8F7
:106F6000731102462046FFF781FE94F8703100EB62
:106F70000210C0B2834272D1D4F89C310133C4F8FC
:106F80009C3194F8843123B1D4F894310133C4F89E
:106F9000943194F88131FBB1012B4DD104F1F00013
:106FA000FFF732FF04F58070FFF739FF94F8843162
:106FB00004F1B8064BB13046FFF7BCFE04F588700B
:106FC000FFF78CFF04F5907027E084F8B83084F860
:106FD000103184F8203122E004F58070FFF71FFFA4
:106FE00094F8843104F1B8065BB13046FFF7A2FE95
:106FF00004F59870FFF772FF04F5A070FFF76EFFBD
:1070000005E084F8B83084F8303184F8403104F574
:10701000A870FFF775FF04F5B070FFF75FFF002160
:10702000084600F02BFA3146B822204602F0D1F88B
:107030000021012000F022FAD4F88C61002E00F02B
:10704000D980D4F88C31B06A996A02F037F90028F7
:1070500040F0D0803046FFF765FF366BEEE7D4F89E
:1070600098310133C4F898310025C3E090F88221AB
:1070700072BB00F5B9766049304602F01FF920B1C5
:107080005E49304602F01AF908B901230CE05C4968
:10709000304602F013F920B15A49304602F00EF999
:1070A00008B9002300E0022384F88131D4F8883144
:1070B000C4F88C31D4F88C71002F00F09B803146DD
:1070C000B86A02F0FBF8002880F290803B6BEFE793
:1070D00090F88111022971D090F87231002B6DD097
:1070E00042EA4112013A282A68D8DFE802F0152165
:1070F000242B324950575C6761676767676767672A
:107100006767676767676767676767676767151CAC
:1071100021242B32393E430000F5B97100F580700F
:10712000FFF788FE4AE0A3F14100434243412BE0D0
:1071300000F1D40108E0A3F153014B424B4180F828
:10714000DC303BE000F1E00104F5B970FFF7C2FD6F
:1071500034E0A3F157025342534180F8E8302DE068
:1071600000F5B97100F5887026E000F5B97100F5F9
:10717000907021E000F5B971F030FFF762FE1DE07C
:10718000302B94BF0023012384F8843116E000F5EE
:10719000B97100F5A870FFF7BEFE0FE000F5B971F8
:1071A00000F5B07008E000F5B97100F5987003E0E3
:1071B00000F5B97100F5A070FFF79BFED4F88C6163
:1071C00004F5B977B6B1D4F88C31B06A996A02F097
:1071D00075F878B9F26A94F882319A420ADC03D1E0
:1071E00039463046FFF7ADFE366BEBE702D00023A1
:1071F000C4F88C312846F8BDBF9C0D00C59C0D001D
:10720000CB9C0D00D19C0D0038B5D0F890312429CD
:1072100003F1010304460D46C0F890312AD090F8DE
:10722000833104D80A290CD00D2932D109E02A294A
:1072300007D02C292DD190F8702182F02C0280F8F3
:1072400070210E2B4FF0000005D8234483F8720103
:107250002046FFF779FE94F88231013384F88231B9
:10726000002384F88331A5F12A035D425D4184F84F
:10727000715138BD0020022384F8830184F8820113
:1072800084F8700184F8813184F8710184F88401F4
:1072900038BD0D2B9FBF5A1C1B1984F8832183F81E
:1072A000725194F8710128B994F870114D4084F826
:1072B000705138BD002038BD00F010B808B5024B41
:1072C0001B689B68019308BD6802030008B5024B68
:1072D0001B68DB68019308BD6802030008B5024B18
:1072E0001B681B68019308BD2C02030008B5024B04
:1072F0001B689B68019308BD2C02030008B5024B74
:107300001B68DB68019308BD2C02030008B5024B23
:107310001B681B69019308BD2C02030008B5024BD2
:107320001B685B69019308BD2C02030008B5024B82
:107330001B681B68019308BD3002030008B5024BAF
:107340001B689B68019308BD3002030008B5024B1F
:107350001B68DB68019308BD3002030008B5024BCF
:107360001B681B69019308BD3002030008B5024B7E
:107370001B685B69019308BD3002030008B5024B2E
:107380001B68DB69019308BD3002030008B5024B9E
:107390001B681B6A019308BD3002030008B5024B4D
:1073A0001B685B6A019308BD3002030008B5024BFD
:1073B0001B689B6A019308BD3002030008B5024BAD
:1073C0001B689B6B019308BD3002030008B5024B9C
:1073D0001B68DB6B019308BD3002030008B5024B4C
:1073E0001B681B6C019308BD3002030008B5024BFB
:1073F0001B685B6C019308BD3002030008B5024BAB
:107400001B685B68019308BD1802030008B5024BB6
:107410001B68DB68019308BD1802030008B5024B26
:107420001B681B69019308BD1802030008B5024BD5
:107430001B685B69019308BD1802030008B5024B85
:107440001B689B68019308BD4802030008B5024B06
:107450001B68DB68019308BD4802030008B5024BB6
:107460001B681B69019308BD4802030008B5024B65
:107470001B685B69019308BD4802030008B5024B15
:107480001B68DB69019308BD4802030008B5024B85
:107490001B685B6C019308BD4802030008B5024BF2
:1074A0001B689B6C019308BD4802030008B5024BA2
:1074B0001B685B69019308BD6402030008B5024BB9
:1074C0001B681B68019308BD3C02030008B5024B12
:1074D0001B68DB68019308BD3C02030008B5024B42
:1074E0001B681B69019308BD3C02030008B5024BF1
:1074F0001B685B69019308BD3C02030008B5024BA1
:107500001B689B69019308BD3C02030008B5024B50
:107510001B68DB69019308BD3C02030008B5024B00
:107520001B681B6A019308BD3C02030008B5024BAF
:107530001B689B6A019308BD3C02030008B5024B1F
:107540001B68DB6A019308BD3C02030008B5024BCF
:107550001B68DB68019308BD2802030008B5024BD5
:107560001B689B69019308BD2802030008B5024B04
:107570001B68DB69019308BD2802030008B5024BB4
:107580001B681B6A019308BD2802030008B5024B63
:107590001B685B6A019308BD2802030008B5024B13
:1075A0001B689B6A019308BD2802030008B5024BC3
:1075B0001B68DB6A019308BD2802030008B5024B73
:1075C0001B681B6B019308BD2802030008B5024B22
:1075D0001B685B6B019308BD2802030008B5024BD2
:1075E0001B681B6C019308BD2802030008B5024B01
:1075F0001B681B68019308BD4C02030008B5024BD1
:107600001B685B68019308BD4C02030008B5024B80
:107610001B681B69019308BD4C02030008B5024BAF
:107620001B685B69019308BD4C02030008B5024B5F
:107630001B689B69019308BD4C02030008B5024B0F
:107640001B68DB69019308BD4C02030008B5024BBF
:107650001B681B6A019308BD4C02030008B5024B6E
:107660001B685B6B019308BD6002030008B5024B09
:107670001B685B68019308BD2002030008B5024B3C
:107680001B685B69019308BD2002030008B5024B2B
:107690001B68DB6A019308BD2002030008B5034B99
:1076A0001B68D3F88830019308BD00002002030056
:1076B00008B5034B1B68D3F89430019308BD000054
:1076C0002002030008B5024B1B685B68019308BDEC
:1076D0004002030008B5024B1B689B68019308BD7C
:1076E0004002030008B5024B1B68DB68019308BD2C
:1076F0004002030008B5024B1B681B69019308BDDB
:107700004002030008B5024B1B685B69019308BD8A
:107710004002030008B5024B1B689B69019308BD3A
:107720004002030008B5024B1B68DB69019308BDEA
:107730004002030008B5024B1B681B6A019308BD99
:107740004002030008B5024B1B681B6B019308BD88
:107750004002030008B5024B1B685B6B019308BD38
:107760004002030008B5024B1B689B68019308BDEB
:107770004402030008B5024B1B68DB6B019308BD94
:107780004402030008B5024B1B681B68019308BD47
:107790001C02030008B5024B1B685B68019308BD1F
:1077A0001C02030008B5024B1B685B6A019308BD0D
:1077B0001C020300002211464068FFF7BBBF0022F5
:1077C00011464068FFF7C6BF00224068FFF7BABF06
:1077D000002281F001014068FFF7A4BF00231A4690
:1077E00019464068FFF796BF00231A4619464068BD
:1077F000FFF788BF002211464068FFF77BBF0022D9
:1078000011464068FFF766BF002202214068FFF77B
:1078100069BF00231A464068FFF754BF024B03229A
:107820005A60024A1A607047DCE30320049D0D0091
:107830000021FFF7D3BD0021FFF7D8BD10B50446E6
:1078400001700846FFF79AFD00236360204610BDD3
:1078500010B504460078FFF7EBFF48B920784FF6E3
:10786000FF71FFF763FD2078BDE81040FFF7E3BF2D
:1078700010BD38B5044600780D46FFF7D9FF40B972
:1078800020782946FFF75AFD2078BDE83840FFF7F9
:10789000D2BF38BD38B5044600780D46FFF7C8FFA3
:1078A00040B920782946FFF751FD2078BDE83840DF
:1078B000FFF7C1BF38BD0078FFF7BDBF400830B546
:1078C0001860002418688842E5B206D90134082CF3
:1078D00002D040081860F5E70725024B5B5D137086
:1078E00030BD00BF309D0D002DE9F04307468FB03D
:1078F00000780E46FFF79CFF002862DB3C781422DC
:10790000002109A801F070FC0B232046002209A9E0
:10791000ADF82430FFF742FD9DF82D4054B19DF89D
:107920002C5035B9DDF830809DF834909DF8354005
:1079300003E00024A146A0460125337905B1BBB977
:107940009D420BD1B268424508D18DF820908DF848
:107950002140BDF82010B289914209D053B10024D2
:10796000387801940094234622460121FFF72EFD2A
:10797000002026E08DF80F30B1680A9804AB0DF1B5
:107980000F02FFF79BFF317905B1B1B9A94208D0C9
:10799000002438780194747B337B9DF80F20009489
:1079A000E4E7B3684345F3D38DF820908DF8214088
:1079B000BDF82020B3899A42EAD1049B4345E7D120
:1079C000D6E70FB0BDE8F0832DE9F04188B0002381
:1079D0000446007802930E461746FFF729FF054636
:1079E00000BB94F800800146142203A801F0FCFBC0
:1079F0000B232A4603A94046ADF80C30FFF7CEFC16
:107A000002AB0DF1070207FB06F104988DF8075051
:107A1000FFF754FF20789DF80710FFF79FFC2078B0
:107A2000FFF709FF029808B0BDE8F08138B50446B9
:107A300000780D46FFF7FCFEC8B9616871B10C4BC8
:107A4000C25CAA4202D001300828F9D10130C0B28C
:107A5000C14001222046FFF7B7FF03E02946207806
:107A6000FFF77CFC2078BDE83840FFF7E4BE38BD66
:107A7000309D0D0008B50078FFF778FCC0B208BD56
:107A800030B587B004460A9D00780095FFF78EFC5C
:107A90003DB902A92078FFF791FC9DF81430DB076F
:107AA000F7D407B030BD0078FFF770BC10B50446BE
:107AB000006818B1FFF76EFE0023236010BD10B5FB
:107AC0000446FFF7F3FF204610BD000010B5094C37
:107AD00000204FF6FF732060A080A0712081638199
:107AE000FFF7C4FD2046044A0449BDE8104000F0F9
:107AF000CBBD00BFE4E3032018DD0320BF7A0D00F7
:107B000010B50446006808B1FFF7C8FC204610BD58
:107B100010B5064C002320462360FFF7B7FC204633
:107B2000034A0449BDE8104000F0AEBDF0E3032075
:107B300018DD0320017B0D00F8B506460D468F18B1
:107B40000024BD420CD0336815F8011B9B683046F9
:107B50009847002801DB0444F3E7002C08BF0446E3
:107B60002046F8BD08B5FEF755FB08BD03689B68C5
:107B7000184708B5FEF74EFB08BD38B50D21054680
:107B8000FFF7F4FF0A2104462846FFF7EFFF2044E1
:107B900038BD38B50546FEF73DFB04462846FFF7DD
:107BA000ECFF204438BDFFF7F4BF30B58BB00B4677
:107BB00000218DF82410012A98BF0A220DF1230418
:107BC000B3FBF2F505FB123303F0FF03092B94BF5F
:107BD00030333733DBB2214604F801392B46002D10
:107BE000EED1FEF717FB0BB030BD0CB42DE9F0431E
:107BF00087B000AF07F13804054654F8049B3C6099
:107C00000E4623464A461421381DFFF7CBFD1328A4
:107C100005D8391D2846FEF7FDFA044613E000F1A9
:107C2000080323F00703E846ADEB030D411C234690
:107C30004A4668463C60FFF7B5FD69462846FEF7B0
:107C4000E9FA0446C5461EB12846FFF796FF0444EC
:107C500020461C37BD46BDE8F04302B07047000027
:107C6000014B024A1A607047F4E30320AB9D0D00FC
:107C7000024B1A68024B1A60704700BFACDC03204D
:107C8000F8E303200021FFF7F9BC10B50446FEF726
:107C90005FFF204610BD00000348044A044900234A
:107CA000836000F0F1BC00BFFCE3032018DD03207B
:107CB0008B7C0D0008B50C4B33B100F057F903680D
:107CC0001B699847002809DC084B63B100F0D6F91E
:107CD00003681B699847002803DC08BDAFF30080E8
:107CE000F2E7AFF3008008BD0000000000000000D4
:107CF00008B5FFF7DFFFFFF799FB014B186008BDE0
:107D000030E703200248034A0349121A01F061BA1E
:107D100000F4032004F4032070A10D0007B5002334
:107D200000931A466FF07701FFF7C2FC03B05DF8CD
:107D300004FB000007B543880A2B08D0502B09D15B
:107D4000094B1B683BB103B05DF804EB1847FFF724
:107D5000E5FF06E0002300931A466FF07701FFF776
:107D6000A7FC03B05DF804FB0CE4032038B5104C0D
:107D7000104D2368AB42104B0CBF012200221A7039
:107D800002D0FFF7BFFF2560FFF738FB044601F084
:107D900033FA0A4B13B12046AFF3008000210748A5
:107DA000FFF7E8FC00210648BDE83840FFF776BC45
:107DB00000F403201E1C279A10E40320000000009A
:107DC000357D0D00704710B51821044600F06AFC9F
:107DD000204610BDF0B5037D062B8DB00E4600F198
:107DE00004074FF0000402D000F1080518E00CADC4
:107DF000394605F8304D2F232A460A20FFF756FB57
:107E0000284601F06DFA33680246DB6829463046A1
:107E100098470FE024B12E213046FFF7A7FE044417
:107E200015F8011D0A223046FFF7BFFEBD4204448B
:107E3000F0D120460DB0F0BD10B5054B044611221F
:107E400040F8043B002101F0CFF9204610BD00BFEF
:107E50004C9E0D000346074A10B543F8042B01F170
:107E6000100251F8044B43F8044B9142F9D10A78BF
:107E70001A7010BD4C9E0D0010B59DF8084044EAE4
:107E8000032343EA024242EA01610423416003758D
:107E900010BD37B50D788B784A78C978009129469E
:107EA000FFF7EAFF03B030BD41747047704708B573
:107EB0000021007CFFF7BAFB30EA200028BF4FF01A
:107EC000FF3008BD08B50121007CFFF7AFFB30EAA9
:107ED000200028BF4FF0FF3008BD08B5007CFFF739
:107EE0009DFB20EAE07008BD08B5007CFFF78EFB23
:107EF00020EAE07008BD007CFFF7A8BB10B5142194
:107F0000044600F0CFFB204610BD38B50446007C87
:107F10000D46FFF783FB002801DC607C28B1294671
:107F2000207CFFF78BFB20EAE07038BD10B50446DB
:107F3000002363604FF47A73A360054B2360012331
:107F40000846217463741146FFF750FB204610BDAC
:107F5000609E0D000022007CFFF750BB10B514227C
:107F60000446002101F040F9204610BD30B50E4D09
:107F700087B001A8FFF7F2FF296811F0010410D1C2
:107F80002846FCF799F860B101AA21460748FFF797
:107F9000CDFF2846FCF795F8054A0649034800F04E
:107FA00073FB024807B030BD14E4032018E403203B
:107FB00018DD0320AD7E0D0070474174704708B591
:107FC000007CFFF7B3FA20EAE07008BD08B5007C3A
:107FD000FFF784FA20EAE07008BD08B5007CFFF7DF
:107FE0008DFA30EA200028BF4FF0FF3008BD08B5F9
:107FF000007CFFF77BFA30EA200028BF4FF0FF300B
:1080000008BD007CFFF782BA10B51421044600F0C9
:1080100049FB204610BD70B5457C04460E4625B987
:10802000007CFFF783FA002805DD3146207CBDE89F
:108030007040FFF74BBA284670BD000010B50446EB
:1080400008461146002262604FF47A72A260054A27
:1080500022600122207462741A46FFF72FFA20462C
:1080600010BD00BF909E0D000023007CFFF766BA94
:108070000022FFF7F9BF007CFFF750BA38B50C4D6E
:10808000296811F0010411D12846FCF715F868B1F0
:10809000084A094B09482146FFF7D0FF2846FCF75C
:1080A00010F8074A0749054800F0EEFA034838BDC2
:1080B000C4E40320C8E4032040E403202CE40320AC
:1080C00018DD0320B97F0D007047F8B50646154648
:1080D0000C468F18BC4206D0336814F8011B9B680D
:1080E00030469847F6E72846F8BD0022007CFFF7A7
:1080F00045BA0021007CFFF749BA0021007CFFF758
:108100004DBA0021007CFFF751BA0021007CFFF737
:1081100055BA10B51421044600F0C4FA204610BD2B
:1081200010B50446002363604FF47A73A360044BD8
:108130002174084623601146FFF750FA204610BD0F
:10814000C09E0D0000231A461946007CFFF7FEB9B9
:108150000022007CFFF702BAC9B2FFF7F9BF002284
:10816000007CFFF703BA0121FFF7F9BF0021007C73
:10817000FFF72CBA10B5044630B101F065F890FB5A
:10818000F4F303FB140010BD10BD884210B5044683
:1081900004DA081AFFF7EEFF204410BD10BD0022DC
:1081A00011464068FFF7C6BA002211464068FFF743
:1081B000D1BA00224068FFF7C5BA002281F0010160
:1081C0004068FFF7AFBA00231A4601214068FFF765
:1081D000A1BA00231A4619464068FFF793BA002255
:1081E00011464068FFF786BA002211464068FFF743
:1081F00071BA002202214068FFF774BA00231A46C0
:108200004068FFF75FBA38B5054688B104684CB1DD
:10821000A3681BB10322214620469847102120461F
:1082200000F040FA28461421BDE8384000F03ABA80
:1082300038BD10B103685B681847704710B5036814
:108240000446BBB15868FFF7F9F878B923685A7C3F
:1082500012B95868FFF702F923685868FFF706F962
:1082600020680023236028B1FFF7CDFF206808B104
:10827000FFF7C9FF204610BD38B50446D0F8C40149
:1082800008B1FBF70CFFD4F8C00108B1FFF706F9FD
:10829000D4F8BC5135B12846FFF7D0FF0421284659
:1082A00000F000FA206808B1FFF7C3FF204638BD90
:1082B00010B5044B044640F8083BFFF7DDFF2046AD
:1082C00010BD00BFE89E0D0038B50E4C0E4B23606C
:1082D0000025022304F5E4706360A560C4F8C4516E
:1082E000C4F8C851FFF7D2F8084BC4F8CC5184F851
:1082F000D05123602046064A0649BDE8384000F0C8
:10830000C3B900BF4CE50320509F0D00E89E0D004F
:1083100018DD0320B1820D00002211464068FFF7EE
:10832000E9B9002211464068FFF704BA002211465D
:108330004068FFF70FBA00224068FFF703BA002237
:1083400081F001014068FFF7EDB900231A46194694
:108350004068FFF7DFB900231A4619464068FFF767
:10836000D1B9002211464068FFF7B4B900220221BA
:108370004068FFF7B7B900231A464068FFF7A2B973
:10838000024B04225A60024A1A60704720E7032019
:108390001C9F0D0000231A464068FFF793B9002286
:1083A00002214068FFF79EB9002211464068FFF79E
:1083B00091B9002211464068FFF79CB900231A4684
:1083C00019464068FFF79EB900231A4619464068CF
:1083D000FFF7A0B9002281F001014068FFF7A2B9C0
:1083E00000224068FFF7AEB9002211464068FFF74F
:1083F000B1B9002211464068FFF79CB92DE9F0435E
:10840000002495B016460D460746FFF715FD214698
:1084100020220CA8009400F0E7FE40230C93214694
:108420006B460CAA3046FEF751FF0446002844D1A3
:10843000024601216868FFF75DF902218046224665
:108440006868FFF757F9009E81462146002E34D018
:10845000002932D17368022B02D00A2B09D02AE0FE
:10846000B8F1000F27D0716938460431FFF711FDCC
:1084700020E0B9F1000F1ED07469112201A800F0AC
:10848000B3FE06238DF8143001AD04F1080318344F
:10849000186859682A4603C20833A3421546F7D123
:1084A00001A906A807ADFFF7D5FC0FCD3C1D0FC4F1
:1084B0002B6823700121F669C8E70098FEF7FEFEDD
:1084C000384615B0BDE8F083024B034A1A6000221B
:1084D0005A60704728E70320509F0D0070B5184E72
:1084E000316811F0010504460AD13046FBF7E4FD7E
:1084F00030B129461348FFF7A1F93046FBF7E1FDFB
:108500001048FFF7D0FA28B1A4F10B03022B01D8D1
:10851000002070BD00F092F8FFF728FE08B1012C92
:10852000F6D9FFF7ABFDFFF7A6FD18B1A4F10903DB
:10853000012BEDD9232C8CBF0020012070BD00BF82
:108540001CDD032020DD0320232838B504460D461A
:108550000AD8FF2908D0FFF7C1FF28B129462046D5
:10856000BDE83840FEF7C2BE38BD38B504460D46FA
:10857000FEF7C4FEFF2810D0062804D84D2323FAA6
:1085800000F0C30709D42046FFF7A8FF28B1294609
:108590002046BDE83840FEF7B9BE38BD10B50446E8
:1085A000FEF7ACFE0438C0B2012808D92046FFF718
:1085B00095FF20B12046BDE81040FEF7AFBE002079
:1085C00010BD2DE9F04190461E46072407460D4692
:1085D000B8F1000F04D1C4F1070146FA01F101E03E
:1085E00046FA04F101F001013846FFF7BEFF012110
:1085F0002846FFF7BAFF00212846FFF7B6FF14F11F
:10860000FF34E5D2BDE8F08170B5044614252A4652
:10861000094E002100F0E8FD258020253146A560A7
:108620002561284600F040F831466060284600F099
:108630003BF8E060204670BD7C9F0D0030B50E4DCC
:10864000296811F0010487B013D12846FBF734FDE7
:1086500078B101A8FFF7D8FF01AA21460748FFF724
:108660005FFD2846FBF72DFD054A0649034800F04B
:108670000BF8024807B030BD34E7032038E7032089
:1086800018DD0320C9800D000B460146184600F096
:1086900083BD0000024B1868BFF35F8F704700BFB7
:1086A0004CE70320FBF7F9BC00F000B810B5002838
:1086B00014BF044601242046FFF764F820B9FFF7F1
:1086C000E9FF08B18047F6E710BD0000184B1A68B3
:1086D000D1075CBF01221A60164B1A68D2075CBF33
:1086E00001221A60144B1A68D0075CBF01221A607D
:1086F000124B1A68D1075CBF01221A60104B1A682E
:10870000D2075CBF01221A600E4B1A68D0075CBF0B
:1087100001221A600C4B1A68D1075CBF01221A6053
:108720000A4B1A68D2075CBF01221A60704700BF6B
:108730006CE7032068E7032064E7032060E7032079
:108740005CE7032058E7032054E7032050E70320A9
:10875000244B1A68D0075CBF01221A60224B1A68AA
:10876000D1075CBF01221A60204B1A68D2075CBF98
:1087700001221A601E4B1A68D0075CBF01221A60E2
:108780001C4B1A68D1075CBF01221A601A4B1A6889
:10879000D2075CBF01221A60184B1A68D0075CBF71
:1087A00001221A60164B1A68D1075CBF01221A60B9
:1087B000144B1A68D2075CBF01221A60124B1A6868
:1087C000D0075CBF01221A60104B1A68D1075CBF4A
:1087D00001221A600E4B1A68D2075CBF01221A6090
:1087E000704700BF9CE7032098E7032094E703202D
:1087F00090E703208CE7032088E7032084E7032029
:1088000080E703207CE7032078E7032074E7032058
:1088100070E70320244B1A68D0075CBF01221A605E
:10882000224B1A68D1075CBF01221A60204B1A68DC
:10883000D2075CBF01221A601E4B1A68D0075CBFCA
:1088400001221A601C4B1A68D1075CBF01221A6012
:108850001A4B1A68D2075CBF01221A60184B1A68BB
:10886000D0075CBF01221A60164B1A68D1075CBFA3
:1088700001221A60144B1A68D2075CBF01221A60E9
:10888000124B1A68D0075CBF01221A60104B1A689D
:10889000D1075CBF01221A600E4B1A68D2075CBF79
:1088A00001221A60704700BFCCE70320C8E703200D
:1088B000C4E70320C0E70320BCE70320B8E7032098
:1088C000B4E70320B0E70320ACE70320A8E70320C8
:1088D000A4E70320A0E70320184B1A68D1075CBF68
:1088E00001221A60164B1A68D2075CBF01221A6077
:1088F000144B1A68D0075CBF01221A60124B1A6829
:10890000D1075CBF01221A60104B1A68D2075CBF06
:1089100001221A600E4B1A68D0075CBF01221A6050
:108920000C4B1A68D1075CBF01221A600A4B1A6807
:10893000D2075CBF01221A60704700BFECE703203A
:10894000E8E70320E4E70320E0E70320DCE7032077
:10895000D8E70320D4E70320D0E7032081F00041CB
:1089600002E000BF83F0004330B54FEA41044FEA14
:10897000430594EA050F08BF90EA020F1FBF54EAAF
:10898000000C55EA020C7FEA645C7FEA655C00F04B
:10899000E2804FEA5454D4EB5555B8BF6D420CDD1C
:1089A0002C4480EA020281EA030382EA000083EA9F
:1089B000010180EA020281EA0303362D88BF30BD3F
:1089C00011F0004F4FEA01314FF4801C4CEA113195
:1089D00002D0404261EB410113F0004F4FEA0333F4
:1089E0004CEA133302D0524263EB430394EA050F7F
:1089F00000F0A780A4F10104D5F1200E0DDB02FAEE
:108A00000EFC22FA05F2801841F1000103FA0EF281
:108A1000801843FA05F359410EE0A5F120050EF147
:108A2000200E012A03FA0EFC28BF4CF0020C43FA78
:108A300005F3C01851EBE37101F0004507D54FF085
:108A4000000EDCF1000C7EEB00006EEB0101B1F5D5
:108A5000801F1BD3B1F5001F0CD349085FEA30001B
:108A60004FEA3C0C04F101044FEA445212F5800F26
:108A700080F09A80BCF1004F08BF5FEA500C50F1C3
:108A8000000041EB045141EA050130BD5FEA4C0CA6
:108A9000404141EB010111F4801FA4F10104E9D12F
:108AA00091F0000F04BF01460020B1FA81F308BF26
:108AB0002033A3F10B03B3F120020CDA0C3208DDF2
:108AC00002F1140CC2F10C0201FA0CF021FA02F1CD
:108AD0000CE002F11402D8BFC2F1200C01FA02F13D
:108AE00020FA0CFCDCBF41EA0C019040E41AA2BF62
:108AF00001EB0451294330BD6FEA04041F3C1CDA2A
:108B00000C340EDC04F11404C4F1200220FA04F049
:108B100001FA02F340EA030021FA04F345EA0301F3
:108B200030BDC4F10C04C4F1200220FA02F001FAB5
:108B300004F340EA0300294630BD21FA04F0294637
:108B400030BD94F0000F83F4801306BF81F48011D0
:108B50000134013D4EE77FEA645C18BF7FEA655C43
:108B600029D094EA050F08BF90EA020F05D054EA15
:108B7000000C04BF1946104630BD91EA030F1EBF1A
:108B80000021002030BD5FEA545C05D1400049411E
:108B900028BF41F0004130BD14F580043CBF01F511
:108BA000801130BD01F0004545F0FE4141F47001F7
:108BB0004FF0000030BD7FEA645C1ABF19461046D2
:108BC0007FEA655C1CBF0B46024650EA013406BFD3
:108BD00052EA033591EA030F41F4002130BD00BF92
:108BE00090F0000F04BF0021704730B54FF480644F
:108BF00004F132044FF000054FF0000150E700BFD0
:108C000090F0000F04BF0021704730B54FF480642E
:108C100004F1320410F0004548BF40424FF000011B
:108C20003EE700BF42004FEAE2014FEA31014FEA5E
:108C300002701FBF12F07F4393F07F4F81F06051AD
:108C4000704792F0000F14BF93F07F4F704730B51C
:108C50004FF4607401F0004521F0004120E700BFAF
:108C600050EA010208BF704730B54FF000050AE036
:108C700050EA010208BF704730B511F0004502D537
:108C8000404261EB41014FF4806404F132045FEA39
:108C9000915C3FF4DCAE4FF003025FEADC0C18BFDE
:108CA00003325FEADC0C18BF033202EBDC02C2F1D4
:108CB000200300FA03FC20FA02F001FA03FE40EA66
:108CC0000E0021FA02F11444C1E600BF70B54FF066
:108CD000FF0C4CF4E06C1CEA11541DBF1CEA135548
:108CE00094EA0C0F95EA0C0F00F0DEF82C4481EAB0
:108CF000030621EA4C5123EA4C5350EA013518BFD0
:108D000052EA033541F4801143F4801338D0A0FBBC
:108D100002CE4FF00005E1FB02E506F00042E0FB69
:108D200003E54FF00006E1FB03569CF0000F18BF6F
:108D30004EF0010EA4F1FF04B6F5007F64F5407417
:108D400004D25FEA4E0E6D4146EB060642EAC621AA
:108D500041EA55514FEAC52040EA5E504FEACE2E17
:108D6000B4F1FD0C88BFBCF5E06F1ED8BEF1004F1A
:108D700008BF5FEA500E50F1000041EB045170BD96
:108D800006F0004646EA010140EA020081EA0301DA
:108D9000B4EB5C04C2BFD4EB0C0541EA045170BDD6
:108DA00041F480114FF0000E013C00F3AB8014F150
:108DB000360FDEBF002001F0004170BDC4F1000499
:108DC000203C35DA0C341BDC04F11404C4F120051A
:108DD00000FA05F320FA04F001FA05F240EA020075
:108DE00001F0004221F0004110EBD37021FA04F6AB
:108DF00042EB06015EEA430E08BF20EAD37070BD65
:108E0000C4F10C04C4F1200500FA04F320FA05F0C3
:108E100001FA04F240EA020001F0004110EBD370C5
:108E200041F100015EEA430E08BF20EAD37070BD35
:108E3000C4F1200500FA05F24EEA020E20FA04F30E
:108E400001FA05F243EA020321FA04F001F00041BD
:108E500021FA04F220EA020000EBD3705EEA430E2E
:108E600008BF20EAD37070BD94F0000F0FD101F05D
:108E70000046400041EB010111F4801F08BF013C96
:108E8000F7D041EA060195F0000F18BF704703F0D4
:108E90000046520043EB030313F4801F08BF013D5B
:108EA000F7D043EA0603704794EA0C0F0CEA135517
:108EB00018BF95EA0C0F0CD050EA410618BF52EAD1
:108EC0004306D1D181EA030101F000414FF00000D7
:108ED00070BD50EA410606BF1046194652EA4306E5
:108EE00019D094EA0C0F02D150EA013613D195EA59
:108EF0000C0F05D152EA03361CBF104619460AD1A1
:108F000081EA030101F0004141F0FE4141F47001AA
:108F10004FF0000070BD41F0FE4141F4780170BD9A
:108F200070B54FF0FF0C4CF4E06C1CEA11541DBFFF
:108F30001CEA135594EA0C0F95EA0C0F00F0A7F801
:108F4000A4EB050481EA030E52EA03354FEA01312E
:108F500000F088804FEA03334FF0805545EA131341
:108F600043EA12634FEA022245EA111545EA106509
:108F70004FEA00260EF000419D4208BF964244F1A0
:108F8000FD0404F5407402D25B084FEA3202B61ABF
:108F900065EB03055B084FEA32024FF480104FF493
:108FA000002CB6EB020E75EB030E22BFB61A754607
:108FB00040EA0C005B084FEA3202B6EB020E75EB9A
:108FC000030E22BFB61A754640EA5C005B084FEA02
:108FD0003202B6EB020E75EB030E22BFB61A7546CF
:108FE00040EA9C005B084FEA3202B6EB020E75EBDA
:108FF000030E22BFB61A754640EADC0055EA060E9B
:1090000018D04FEA051545EA16754FEA06164FEADD
:10901000C30343EA52734FEAC2025FEA1C1CC0D189
:1090200011F4801F0BD141EA00014FF000004FF016
:10903000004CB6E711F4801F04BF01430020B4F1D7
:10904000FD0C88BFBCF5E06F3FF6AFAEB5EB030C8F
:1090500004BFB6EB020C5FEA500C50F1000041EB8C
:10906000045170BD0EF0004E4EEA113114EB5C0459
:10907000C2BFD4EB0C0541EA045170BD41F480112C
:109080004FF0000E013C90E645EA060E8DE60CEA34
:10909000135594EA0C0F08BF95EA0C0F3FF43BAF51
:1090A00094EA0C0F0AD150EA01347FF434AF95EA08
:1090B0000C0F7FF425AF104619462CE795EA0C0FEC
:1090C00006D152EA03353FF4FDAE1046194622E7B9
:1090D00050EA410618BF52EA43067FF4C5AE50EA93
:1090E00041047FF40DAF52EA43057FF4EBAE12E783
:1090F0004FEA4102B2F1E04324BFB3F5001CDCF1BA
:10910000FE5C0DD901F0004C4FEAC0024CEA5070F1
:10911000B2F1004F40EB830008BF20F00100704720
:1091200011F0804F21D113F13872BCBF01F0004023
:10913000704741F480114FEA5252C2F11802C2F155
:10914000200C10FA0CF320FA02F018BF40F00100D6
:109150004FEAC1234FEAD32303FA0CFC40EA0C0088
:1091600023FA02F34FEA4303CCE77FEA625307D1C5
:1091700050EA01331EBF4FF0FE4040F440007047FC
:1091800001F0004040F0FE4040F40000704700BF96
:109190000A22002100F046B910B5054C13462CB147
:1091A0000A4601460220AFF3008010BD204610BDE4
:1091B0000000000010B501390244904207D010F8B9
:1091C000013B11F8014FA342F7D0181B10BD00203E
:1091D00010BD10B5431E0A44914204D011F8014B52
:1091E00003F8014FF8E710BD02440346934202D052
:1091F00003F8011BFAE7704738B5124B1C68A36BE4
:109200000546D3B91820FEF7BDFA43F20E33A0632A
:1092100003804AF6CD33438041F2342383804EF2FB
:109220006D63C3804DF6EC630381052343810B23FB
:10923000838101220023C0E90423A36B00221D6166
:109240005A6138BD14DD0320194B10B51C68A36B9F
:10925000D3B91820FEF796FA43F20E33A0630380C9
:109260004AF6CD33438041F2342383804EF26D635E
:10927000C3804DF6EC630381052343810B23838177
:1092800001220023C0E90423A16B0A4C0B69486941
:10929000094A5C4302FB0040A3FB02230132034462
:1092A00043F10003C1E9042323F0004010BD00BFD7
:1092B00014DD03202DF451582D7F954C10F8012B0F
:1092C00011F8013B012A28BF9A42F7D0D01A704703
:1092D000034611F8012B03F8012B002AF9D170473E
:1092E000034613F8012B002AFBD1181A01387047E6
:1092F00010B5034642B111F8014B03F8014B013A96
:10930000002CF7D11A4400E010BD934202D003F8BC
:10931000014BFAE710BD00002DE9F04780464048B8
:10932000D0F800900F463D4615F8014B09EB0400BC
:10933000407800F0080000F0FF0608B12F46F2E781
:109340002D2C03D1BD1C7C78012603E02B2C04BFFF
:109350007C78BD1C13B1102B0AD15BE0302C57D1A7
:10936000287800F0DF0058284DD16C7810230235A2
:10937000002E14BF4FF0004C6FF0004C0027BCFBD8
:10938000F3FA384603FB1ACC09EB040E9EF801E011
:109390001EF0040F01D0303C0BE01EF0030E1BD07A
:1093A000BEF1010F0CBF4FF0370E4FF0570ECEEB52
:1093B0000404A34210DDB7F1FF3F0AD0504506D8A0
:1093C00001D1644503DC03FB0040012701E04FF0BD
:1093D000FF3715F8014BD7E77B1C0CD1002E4FF05F
:1093E000220314BF4FF000406FF00040C8F8003077
:1093F0002AB9BDE8F08706B1404272B107B1691ED3
:109400001160BDE8F0873024002BB1D10823AFE70D
:109410000A23ADE7302CA3D0AAE7BDE8F08700BF50
:10942000B0DC032013460A46014602480068FFF7F5
:1094300073BF00BF14DD032021400D005D400D000F
:1094400089400D008D400D0000000000000000006C
:1094500000000000D5400D000000000000000000EA
:10946000C9400D002D410D003B410D00CD400D00C8
:1094700064656661756C7420004D5342004C534224
:10948000003C53504953657474696E67732064657A
:109490006661756C743E003C535049536574746941
:1094A0006E6773202573256C75202573204D4F44FE
:1094B0004525643E0047505320496E697469616CCC
:1094C000697A696E67006C657373207468616E20D9
:1094D000313235636D00636C656172005772697477
:1094E000696E67206461746120746F205344636106
:1094F0007264200A004461793A2025692C204D6F5E
:109500006E74682025692C205965617220256920B8
:109510000A0054696D653A20253032693A253032A7
:10952000693A25303269200A006C61742020256672
:10953000200A6C6F6E67202566200A616C742025F6
:10954000660A00536174656C6C6974657320696E9A
:1095500020766965773A202569200A00446973748A
:10956000616E636520696E20434D3A2025302E32AE
:1095700066200A00256920736174656C6C697465E6
:109580007320696E2076696577202D2D2D2000547B
:10959000696D653A20253032693A253032693A25BD
:1095A000303269202D2D2D20006C61743A20256603
:1095B0002C206C6F6E673A2025662C20616C743A03
:1095C000202566200A00256C75206D696C6C697316
:1095D00065636F6E647320746F20676574204750F5
:1095E0005320666978006E6F206C6F636174696FD9
:1095F0006E0043616E27742061636365737320534B
:109600004420636172642E20446F206E6F74207258
:1096100065666F726D61742E004E6F2063617264B7
:109620002C2077726F6E6720636869702073656C99
:109630006563742070696E2C206F7220535049202E
:1096400070726F626C656D3F005344206572726F7B
:1096500072436F64653A203058002C305800496ED0
:1096600076616C696420666F726D61742C2072651E
:10967000666F726D61742053442E0043616E2774CF
:10968000206F70656E20726F6F74206469726563FD
:10969000746F72792E004E6F206572726F72206641
:1096A0006F756E642E005374617274696E67204426
:1096B000617461204C6F6767696E67200A004361BF
:1096C0006E2774206372656174652066696C65201D
:1096D0006E616D650066696C652E6F70656E004C1D
:1096E0006F6767696E6720746F3A202573200A00E0
:1096F000446F6E65200A00526561647920666F725E
:10970000206E6578742064617461206C6F67200A34
:10971000007772697465206572726F72200A004D5D
:1097200061646520697420686572652C20617474B9
:10973000656D707420310054696D655374616D708E
:109740002C2052616E646F6D204461746120256924
:10975000200A00000000000000000000CB400D00C7
:10976000AD490D00A1540D00397B0D006D4D0D006C
:10977000A1510D00F54B0D00814A0D0061520D0005
:10978000F7520D002F530D004B530D000000000049
:10979000000000000000000000000000A1540D00C7
:1097A000397B0D00A5400D00A1510D00C1520D00E7
:1097B000DD520D0061520D00F7520D002F530D00C8
:1097C0004B530D0000000000003E5B4F5B3E3E6BC4
:1097D0004F6B3E1C3E7C3E1C183C7E3C181C577D4B
:1097E000571C1C5E7F5E1C00183C1800FFE7C3E797
:1097F000FF0018241800FFE7DBE7FF30483A060EA9
:109800002629792926407F050507407F05253F5AEF
:109810003CE73C5A7F3E1C1C08081C1C3E7F14225F
:109820007F22145F5F005F5F06097F017F0066890A
:10983000956A606060606094A2FFA29408047E0450
:109840000810207E201008082A1C08081C2A080876
:109850001E101010100C1E0C1E0C30383E38300636
:109860000E3E0E06000000000000005F0000000732
:10987000000700147F147F14242A7F2A1223130860
:10988000646236495620500008070300001C22413C
:10989000000041221C002A1C7F1C2A08083E0808E0
:1098A0000080703000080808080800006060002090
:1098B000100804023E5149453E00427F4000724973
:1098C0004949462141494D331814127F1027454517
:1098D00045393C4A4949314121110907364949492D
:1098E00036464949291E000014000000403400009B
:1098F0000008142241141414141400412214080204
:10990000015909063E415D594E7C1211127C7F4976
:109910004949363E414141227F4141413E7F4949CB
:1099200049417F090909013E414151737F080808F7
:109930007F00417F41002040413F017F08142241C8
:109940007F404040407F021C027F7F0408107F3E22
:109950004141413E7F090909063E4151215E7F098F
:10996000192946264949493203017F01033F4040F6
:10997000403F1F2040201F3F4038403F63140814E1
:109980006303047804036159494D43007F41414119
:109990000204081020004141417F040201020440FA
:1099A00040404040000307080020545478407F287E
:1099B0004444383844444428384444287F38545474
:1099C000541800087E090218A4A49C787F08040497
:1099D0007800447D40002040403D007F1028440036
:1099E00000417F40007C047804787C0804047838C7
:1099F00044444438FC1824241818242418FC7C08F7
:109A0000040408485454542404043F44243C404073
:109A1000207C1C2040201C3C4030403C4428102826
:109A2000444C9090907C4464544C4400083641006F
:109A30000000770000004136080002010204023CE9
:109A40002623263C1EA1A161123A4040207A3854B8
:109A50005455592155557941215454784121555433
:109A6000784020545579400C1E5272123955555584
:109A700059395454545939555454580000457C416F
:109A80000002457D420001457C40F0292429F0F088
:109A9000282528F07C545545002054547C547C0AD9
:109AA000097F4932494949323248484832324A48A6
:109AB00048303A4141217A3A42402078009DA0A0A6
:109AC0007D39444444393D4040403D3C24FF2424FA
:109AD000487E4943662B2FFC2F2BFF0929F620C017
