:02000004080AE8
:1000000000000A085C1E0A08000006000600050140
:080010000402E80500000000F5
:04001800D81A0A08E0
:10001C0009480A4908B5884205D0094A824202D0EB
:10002C00121A01F00FFD0748074A0021121A01F0BD
:10003C0014FD064808BD00BF00000020C41D0A08BE
:10004C007000002070000020F8050020F80500204A
:10005C0070B500F0B9FB074B074C1E46E41AA40818
:10006C000025A54204D056F8253098470135F8E70D
:10007C0070BD00BF901D0A08C01D0A0800F011B821
:10008C0008B500F03DF8BDE8084000F05FBB00F09B
:10009C0019BA0078B0FA80F0400970470123037058
:1000AC00704708B500F090FC4FF4165100F072FC4C
:1000BC00BDE808404FF4FA7000F0F6BA70B505468A
:1000CC0014460E4600F0A8F8ADB20444284600F0E1
:1000DC00C0FEB04203D000F09FF8A042F6D370BD32
:1000EC0010B584B20121204600F09AFE0A2000F0DF
:1000FC0083F82046BDE81040002100F091BE0000BE
:10010C007FB51B4B1B4C1868FFF7EAFF64220121DB
:10011C002068FFF7D3FF00F077F864220021054632
:10012C002068FFF7CBFF00F06FF8401B01F0D8FA06
:10013C001149064601F0DCFB104C206000F044FC39
:10014C000546206801F0BEF9CDE90201304601F008
:10015C00B9F90B4ACDE900010021284600F052FA0A
:10016C0040F6B83004B0BDE8704000F09DBA00BF56
:10017C0004000020000000200000684274000020F1
:10018C00EC1A0A0800F000B808B5024B1B681B6893
:10019C00019308BDB001060808B5024B1B68DB686B
:1001AC00019308BDB001060808B5024B1B681B691A
:1001BC00019308BDB001060808B5024B1B685B69CA
:1001CC00019308BDB001060808B5024B1B68DB693A
:1001DC00019308BDB401060808B5024B1B681B6AE5
:1001EC00019308BDB401060808B5024B1B685B6897
:1001FC00019308BD9C01060808B5024B1B68DB681F
:10020C00019308BD9C01060808B5024B1B681B69CD
:10021C00019308BD9C01060808B5024B1B685B697D
:10022C00019308BD9C01060808B5024B1B685B6C6A
:10023C00019308BDD001060808B5024B1B689B6CE6
:10024C00019308BDD001060808B5024B1B689B69D9
:10025C00019308BDC401060808B5024B1B685B6A14
:10026C00019308BDC401060808B5024B1B689B6AC4
:10027C00019308BDC401060808B5024B1B68DB6A74
:10028C00019308BDC401060808B5024B1B681B6B23
:10029C00019308BDC401060808B5024B1B685B6BD3
:1002AC00019308BDC401060808B5024B1B689B6B83
:1002BC00019308BDC401060808B5024B1B681B6CF2
:1002CC00019308BDC401060808B5024B1B681B6EE0
:1002DC00019308BDAC01060808B5024B1B685B6EA8
:1002EC00019308BDAC01060808B5024B1B689B6E58
:1002FC00019308BDAC01060808B5024B1B68DB6E08
:10030C00019308BDAC01060808B5024B1B681B6FB6
:10031C00019308BDAC01060808B5024B1B685B6F66
:10032C00019308BDAC01060808B5034B1B68D3F854
:10033C008030019308BD0000AC01060808B5024BE3
:10034C001B681B68019308BDD801060808B5024B51
:10035C001B685B68019308BDD801060808B5024B01
:10036C001B681B69019308BDD801060808B5024B30
:10037C001B685B69019308BDD801060808B5024BE0
:10038C001B689B69019308BDD801060808B5024B90
:10039C001B68DB69019308BDD801060808B5024B40
:1003AC001B681B6A019308BDD801060808B5024BEF
:1003BC001B689B6C019308BDC001060808B5024B75
:1003CC001B685B68019308BDA401060808B5024BC5
:1003DC001B685B69019308BDA401060808B5034BB3
:1003EC001B68D3F89030019308BD0000A4010608E7
:1003FC0008B5034B1B68D3F89C30019308BD000073
:10040C00A401060808B5024B1B685B68019308BD84
:10041C00C801060808B5024B1B689B68019308BD10
:10042C00C801060808B5024B1B68DB68019308BDC0
:10043C00C801060808B5024B1B681B69019308BD6F
:10044C00C801060808B5024B1B685B69019308BD1F
:10045C00C801060808B5024B1B689B69019308BDCF
:10046C00C801060808B5024B1B68DB69019308BD7F
:10047C00C801060808B5024B1B681B6A019308BD2E
:10048C00C801060808B5024B1B681B6B019308BD1D
:10049C00C801060808B5024B1B685B6B019308BDCD
:1004AC00C801060808B5024B1B68DB6B019308BD3D
:1004BC00CC01060808B5024B1B681B68019308BDEC
:1004CC00A001060808B5024B1B685B68019308BDC8
:1004DC00A001060808B5024B1B685B6A019308BDB6
:1004EC00A001060870B504460E46002540F8085FCA
:1004FC00FFF79AFE30462670FFF766FE65602046D1
:10050C0070BD0078FFF768BE10B50446006818B1DE
:10051C00FFF7D8FF0023236010BD10B50446FFF78A
:10052C00F3FF204610BD00004FF6FF7310B5084CCA
:10053C0000202060A080A07120816381FFF73EFF26
:10054C002046BDE81040034A034900F0EDBC00BF53
:10055C00780000207000002027050A08F8B5064630
:10056C000D468F180024BD420CD0336815F8011BC2
:10057C009B6830469847002801DB0444F3E7002CC5
:10058C0008BF04462046F8BD70B505460C46084623
:10059C0049B101F093FA2B68024621462846BDE882
:1005AC007040DB68184770BD03689B68184738B506
:1005BC000D210546FFF7F8FF0A2104462846FFF7F0
:1005CC00F3FF204438BD012A98BF0A2230B50B46F0
:1005DC008BB000218DF824100DF12304B3FBF2F540
:1005EC0005FB1233DBB2092B94BF30333733DBB24C
:1005FC00214604F801392B46002DEFD1FFF7C4FF3B
:10060C000BB030BD0CB42DE9F04387B000AF07F14F
:10061C00380454F8049B05460E4623464A461421DA
:10062C00381D3C60FFF756FF132805D8391D2846A6
:10063C00FFF7AAFF044613E000F1080323F00703B9
:10064C00E846ADEB030D411C23464A4668463C6028
:10065C00FFF740FF69462846FFF796FF0446C5465C
:10066C001EB12846FFF7A3FF044420461C37BD46A5
:10067C00BDE8F04302B0704700231A4619464068A3
:10068C00FFF7E0BE014A024B1A6070478C1B0A0848
:10069C0084000020024B1A68024B1A60704700BF9E
:1006AC0008000020880000200021FFF78FBE10B545
:1006BC008368044613B1032201469847204610BDB7
:1006CC0010B50446FFF7F3FF204610BD0348002386
:1006DC008360034A034900F027BC00BF8C00002054
:1006EC0070000020CD060A0808B5144B33B100F099
:1006FC006BF903681B699847002816DC104B33B163
:10070C0000F020FA03681B699847002810DC0D4B99
:10071C000BB1AFF300800C4B7BB100F091F9036887
:10072C001B699847002806DC08BDAFF30080E5E79D
:10073C00AFF30080EBE7AFF3008008BD00000000D2
:10074C0000000000000000000000000008B5FFF7EA
:10075C00CBFFFFF761FD014B186008BD20050020A1
:10076C000248034A0349121A01F06CB900400240D6
:10077C0004400240C01D0A0807B5002300931A4626
:10078C006FF07701FFF734FE03B05DF804FB000057
:10079C0007B543880A2B08D0502B09D1094B1B688D
:1007AC003BB103B05DF804EB1847FFF7E5FF06E03B
:1007BC00002300931A466FF07701FFF719FE03B080
:1007CC005DF804FB9C00002038B5104C104D2368DC
:1007DC00AB42104B0CBF012200221A7002D0FFF763
:1007EC00BFFF2560FFF700FD044601F03FF90A4BFF
:1007FC0013B12046AFF3008000210748FFF752FEEB
:10080C00BDE8384000210548FFF7E8BD0040024034
:10081C001E1C279AA0000020000000009D070A085B
:10082C00704710B50446182100F08CFB204610BD13
:10083C00F8B50F4600F10806051D002416F8011D39
:10084C000A223846FFF7BFFEAE42044407D0002C04
:10085C00F4D02E213846FFF7A7FE0444EEE72046DD
:10086C00F8BD000010B50446044B112240F8043BBF
:10087C00002101F0F2F8204610BD00BF2C1C0A0824
:10088C000346074A10B543F8042B01F1100251F846
:10089C00044B914243F8044BF9D10A781A7010BDFD
:1008AC002C1C0A08024A416002600422027570473F
:1008BC002C1C0A0810B59DF8084044EA032343EAAF
:1008CC00024242EA016104234160037510BD00003D
:1008DC0037B5044D05609DF818500095FFF7EAFFF9
:1008EC0003B030BD2C1C0A0841747047704708B522
:1008FC000021007CFFF742FD30EA200028BF4FF0BA
:10090C00FF3008BD08B50121007CFFF737FD30EA48
:10091C00200028BF4FF0FF3008BD08B5007CFFF762
:10092C0025FD20EAE07008BD08B5007CFFF716FD38
:10093C0020EAE07008BD007CFFF730BD10B504461E
:10094C00142100F0FFFA204610BD38B50446007C97
:10095C000D46FFF70BFD002801DC607C28B1294611
:10096C00207CFFF713FD20EAE07038BD10B504467B
:10097C00002363604FF47A73A360054B0846236031
:10098C000123217463741146FFF7D8FC204610BD77
:10099C00401C0A080022007CFFF7D8BC10B50446A6
:1009AC001422002101F059F8054B20466360054BD9
:1009BC00E36040F2011323818123238210BD00BF29
:1009CC0029010020A800002030B50E4D87B001A8E9
:1009DC00FFF7E4FF296811F0010410D12846FFF756
:1009EC0058FB60B101AA21460748FFF7BFFF284614
:1009FC00FFF754FB054A0649034800F095FA0248F4
:100A0C0007B030BDA40000202C0200207000002094
:100A1C00F9080A0810B504461422002101F01DF84B
:100A2C00054B20466360054BE36040F201132381C4
:100A3C008123238210BD00BFDC0200204402002071
:100A4C0010B50E4C86B001A8FFF7E4FF2368DB0756
:100A5C0010D42046FFF71DFB60B101AA0121084804
:100A6C00FFF784FF2046FFF719FB064A06490448A6
:100A7C0000F05AFA024806B010BD00BF4002002038
:100A8C00C802002070000020F9080A087047417461
:100A9C00704708B5007CFFF70FFC20EAE07008BD3A
:100AAC0008B5007CFFF7E0FB20EAE07008BD08B554
:100ABC00007CFFF7E9FB30EA200028BF4FF0FF3045
:100ACC0008BD08B5007CFFF7D7FB30EA200028BF33
:100ADC004FF0FF3008BD007CFFF7DEBB10B50446BD
:100AEC00142100F02FFA204610BD70B5457C044649
:100AFC000E4625B9007CFFF7DFFB002805DD3146EB
:100B0C00207CBDE87040FFF7A7BB284670BD0000F5
:100B1C0010B5044608461146002262604FF47A7202
:100B2C00A260054A20742260012262741A46FFF703
:100B3C008BFB204610BD00BF701C0A08007CFFF721
:100B4C00B3BB000038B50C4D296811F0010411D16C
:100B5C002846FFF79EFA68B1084A2146084B094817
:100B6C00FFF7D6FF2846FFF799FA074A07490548C9
:100B7C0000F0DAF9034838BD780400207C0400202A
:100B8C00F4030020E003002070000020990A0A08FA
:100B9C007047F8B5064615460C468F18BC4206D071
:100BAC00336814F8011B9B6830469847F6E72846D3
:100BBC00F8BD0022007CFFF787BB0021007CFFF70B
:100BCC008BBB0021007CFFF78FBB0021007CFFF763
:100BDC0093BB0021007CFFF797BB10B50446142192
:100BEC0000F0B0F9204610BD10B504460023636038
:100BFC004FF47A73A360044B2174084623601146AA
:100C0C00FFF792FB204610BDA01C0A080021007CB7
:100C1C00FFF782BB002211464068FFF70BBCF0B512
:100C2C00164689B011220F460446002103A800F095
:100C3C0014FF304600F042FF0025009581B27B681E
:100C4C0003AA3046FFF7B2FB20B129462046FFF736
:100C5C0029FE03E003A92046FFF712FE204609B047
:100C6C00F0BD002211464068FFF704BC002211467B
:100C7C004068FFF70FBC00224068FFF703BC00225E
:100C8C0081F001014068FFF7EDBB00231A461946BD
:100C9C004068FFF7DFBB002211464068FFF7BABB84
:100CAC00002202214068FFF7BDBB00231A464068B2
:100CBC00FFF7A8BB024B04225A60024A1A60704725
:100CCC0000050020C81C0A0800231A464068FFF7DC
:100CDC0099BB002202214068FFF7A4BB00221146F9
:100CEC004068FFF797BB002211464068FFF7A2BB94
:100CFC0000231A4619464068FFF7A4BB00231A4686
:100D0C0019464068FFF7A6BB002281F0010140683C
:100D1C00FFF7A8BB00224068FFF7B4BB00221146C6
:100D2C004068FFF7B7BB002211464068FFF7A2BB33
:100D3C0070B516468EB0044608A8FFF793FD112235
:100D4C00002103A800F089FE304600F0B7FE002514
:100D5C000A4B009581B25B6803AA3046FFF726FB6D
:100D6C0020B129462046FFF79DFD03E003A920464C
:100D7C00FFF786FD20460EB070BD00BF00050020B9
:100D8C00024B034A1A6000225A6070470805002083
:100D9C00FC1C0A0810B50446806808B1FFF74CFA31
:100DAC00204610BD70B51A4E0446316811F001058D
:100DBC000FD13046FFF76DF958B129461548FFF7AA
:100DCC0091FB3046FFF76AF9134A1449114800F0B9
:100DDC00ABF81048FFF795FB28B1A4F10D03022BDB
:100DEC0001D8002070BD00F079F8FFF70FFF08B1B3
:100DFC00012CF6D9FFF7A6FEFFF7A0FE18B1A4F15F
:100E0C001203012BEDD9172C8CBF0020012070BDD3
:100E1C00100500201405002070000020A10D0A0808
:100E2C0038B504460D46FFF7B7F9FF2810D0062851
:100E3C0004D84D2323FA00F0C30709D42046FFF74A
:100E4C00B1FF28B129462046BDE83840FFF7ACB9C0
:100E5C0038BD10B50446FFF79FF90438C0B201281D
:100E6C0008D92046FFF79EFF20B12046BDE8104070
:100E7C00FFF7A2B9002010BD13B5084C00231A4689
:100E8C00194600932046FFF723FD2046044A0549E6
:100E9C0002B0BDE8104000F047B800BF24050020A8
:100EAC00700000202D080A0870B5044614252A4647
:100EBC00094E002100F0D1FD258020253146A5608A
:100ECC002561284600F040F831466060284600F065
:100EDC003BF8E060204670BD281D0A0830B50E4D69
:100EEC0087B0296811F0010413D12846FFF7D1F817
:100EFC0078B101A8FFF7D8FF01AA21460748FFF7F0
:100F0C0073FE2846FFF7CAF8054A0649034800F065
:100F1C000BF8024807B030BD3C050020400500200E
:100F2C00700000209D0B0A080B460146184600F085
:100F3C007BBD0000024B1868BFF35F8F704700BF8A
:100F4C0054050020FFF7A3B800F000B810B5002836
:100F5C0014BF044601242046FFF7ACFA20B9FFF772
:100F6C00E9FF08B18047F6E710BD0000184B1A687E
:100F7C00D1075CBF01221A60164B1A68D2075CBFFE
:100F8C0001221A60144B1A68D0075CBF01221A6048
:100F9C00124B1A68D1075CBF01221A60104B1A68F9
:100FAC00D2075CBF01221A600E4B1A68D0075CBFD7
:100FBC0001221A600C4B1A68D1075CBF01221A601F
:100FCC000A4B1A68D2075CBF01221A60704700BF37
:100FDC0074050020700500206C05002068050020B9
:100FEC0064050020600500205C05002058050020E9
:100FFC00244B1A68D0075CBF01221A60224B1A6876
:10100C00D1075CBF01221A60204B1A68D2075CBF63
:10101C0001221A601E4B1A68D0075CBF01221A60AD
:10102C001C4B1A68D1075CBF01221A601A4B1A6854
:10103C00D2075CBF01221A60184B1A68D0075CBF3C
:10104C0001221A60164B1A68D1075CBF01221A6084
:10105C00144B1A68D2075CBF01221A60124B1A6833
:10106C00D0075CBF01221A60104B1A68D1075CBF15
:10107C0001221A600E4B1A68D2075CBF01221A605B
:10108C00704700BFA4050020A00500209C0500208F
:10109C009805002094050020900500208C05002068
:1010AC008805002084050020800500207C05002098
:1010BC0078050020244B1A68D0075CBF01221A6007
:1010CC00224B1A68D1075CBF01221A60204B1A68A8
:1010DC00D2075CBF01221A601E4B1A68D0075CBF96
:1010EC0001221A601C4B1A68D1075CBF01221A60DE
:1010FC001A4B1A68D2075CBF01221A60184B1A6887
:10110C00D0075CBF01221A60164B1A68D1075CBF6E
:10111C0001221A60144B1A68D2075CBF01221A60B4
:10112C00124B1A68D0075CBF01221A60104B1A6868
:10113C00D1075CBF01221A600E4B1A68D2075CBF44
:10114C0001221A60704700BFD4050020D005002092
:10115C00CC050020C8050020C4050020C0050020D7
:10116C00BC050020B8050020B4050020B005002007
:10117C00AC050020A8050020184B1A68D1075CBFED
:10118C0001221A60164B1A68D2075CBF01221A6042
:10119C00144B1A68D0075CBF01221A60124B1A68F4
:1011AC00D1075CBF01221A60104B1A68D2075CBFD2
:1011BC0001221A600E4B1A68D0075CBF01221A601C
:1011CC000C4B1A68D1075CBF01221A600A4B1A68D3
:1011DC00D2075CBF01221A60704700BFF4050020E3
:1011EC00F0050020EC050020E8050020E4050020B7
:1011FC00E0050020DC050020D805002081F000412E
:10120C0002E000BF83F0004330B54FEA41044FEADF
:10121C00430594EA050F08BF90EA020F1FBF54EA7A
:10122C00000C55EA020C7FEA645C7FEA655C00F016
:10123C00E2804FEA5454D4EB5555B8BF6D420CDDE7
:10124C002C4480EA020281EA030382EA000083EA6A
:10125C00010180EA020281EA0303362D88BF30BD0A
:10126C0011F0004F4FEA01314FF4801C4CEA113160
:10127C0002D0404261EB410113F0004F4FEA0333BF
:10128C004CEA133302D0524263EB430394EA050F4A
:10129C0000F0A780A4F10104D5F1200E0DDB02FAB9
:1012AC000EFC22FA05F2801841F1000103FA0EF24D
:1012BC00801843FA05F359410EE0A5F120050EF113
:1012CC00200E012A03FA0EFC28BF4CF0020C43FA44
:1012DC0005F3C01851EBE37101F0004507D54FF051
:1012EC00000EDCF1000C7EEB00006EEB0101B1F5A1
:1012FC00801F1BD3B1F5001F0CD349085FEA3000E7
:10130C004FEA3C0C04F101044FEA445212F5800FF1
:10131C0080F09A80BCF1004F08BF5FEA500C50F18E
:10132C00000041EB045141EA050130BD5FEA4C0C71
:10133C00404141EB010111F4801FA4F10104E9D1FA
:10134C0091F0000F04BF01460020B1FA81F308BFF1
:10135C002033A3F10B03B3F120020CDA0C3208DDBD
:10136C0002F1140CC2F10C0201FA0CF021FA02F198
:10137C000CE002F11402D8BFC2F1200C01FA02F108
:10138C0020FA0CFCDCBF41EA0C019040E41AA2BF2D
:10139C0001EB0451294330BD6FEA04041F3C1CDAF5
:1013AC000C340EDC04F11404C4F1200220FA04F015
:1013BC0001FA02F340EA030021FA04F345EA0301BF
:1013CC0030BDC4F10C04C4F1200220FA02F001FA81
:1013DC0004F340EA0300294630BD21FA04F0294603
:1013EC0030BD94F0000F83F4801306BF81F480119C
:1013FC000134013D4EE77FEA645C18BF7FEA655C0F
:10140C0029D094EA050F08BF90EA020F05D054EAE0
:10141C00000C04BF1946104630BD91EA030F1EBFE5
:10142C000021002030BD5FEA545C05D140004941E9
:10143C0028BF41F0004130BD14F580043CBF01F5DC
:10144C00801130BD01F0004545F0FE4141F47001C2
:10145C004FF0000030BD7FEA645C1ABF194610469D
:10146C007FEA655C1CBF0B46024650EA013406BF9E
:10147C0052EA033591EA030F41F4002130BD00BF5D
:10148C0090F0000F04BF0021704730B54FF480641A
:10149C0004F132044FF000054FF0000150E700BF9B
:1014AC0090F0000F04BF0021704730B54FF48064FA
:1014BC0004F1320410F0004548BF40424FF00001E7
:1014CC003EE700BF42004FEAE2014FEA31014FEA2A
:1014DC0002701FBF12F07F4393F07F4F81F0605179
:1014EC00704792F0000F14BF93F07F4F704730B5E8
:1014FC004FF4607401F0004521F0004120E700BF7B
:10150C0050EA010208BF704730B54FF000050AE001
:10151C0050EA010208BF704730B511F0004502D502
:10152C00404261EB41014FF4806404F132045FEA04
:10153C00915C3FF4DCAE4FF003025FEADC0C18BFA9
:10154C0003325FEADC0C18BF033202EBDC02C2F19F
:10155C00200300FA03FC20FA02F001FA03FE40EA31
:10156C000E0021FA02F11444C1E600BF80F00040E5
:10157C0002E000BF81F0004142001FBF5FEA41035F
:10158C0092EA030F7FEA226C7FEA236C6AD04FEA5F
:10159C001262D2EB1363C1BFD218414048404140A4
:1015AC00B8BF5B42192B88BF704710F0004F40F456
:1015BC00000020F07F4018BF404211F0004F41F472
:1015CC00000121F07F4118BF494292EA030F3FD03E
:1015DC00A2F1010241FA03FC10EB0C00C3F1200351
:1015EC0001FA03F100F0004302D5494260EB4000E0
:1015FC00B0F5000F13D3B0F1807F06D340084FEA4B
:10160C00310102F10102FE2A51D2B1F1004F40EB3F
:10161C00C25008BF20F0010040EA030070474900A7
:10162C0040EB000010F4000FA2F10102EDD1B0FA72
:10163C0080FCACF1080CB2EB0C0200FA0CF0AABF67
:10164C0000EBC25052421843BCBFD0401843704705
:10165C0092F0000F81F4000106BF80F4000001320B
:10166C00013BB5E74FEA41037FEA226C18BF7FEAE2
:10167C00236C21D092EA030F04D092F0000F08BF24
:10168C000846704790EA010F1CBF0020704712F00B
:10169C007F4F04D1400028BF40F00040704712F14A
:1016AC0000723CBF00F50000704700F0004343F0AF
:1016BC00FE4040F4000070477FEA226216BF0846E5
:1016CC007FEA23630146420206BF5FEA412390EAA8
:1016DC00010F40F4800070474FF0000304E000BF9E
:1016EC0010F0004348BF40425FEA000C08BF70474F
:1016FC0043F0964301464FF000001CE050EA010213
:10170C0008BF70474FF000030AE000BF50EA010227
:10171C0008BF704711F0004302D5404261EB410114
:10172C005FEA010C02BF84460146002043F0B64339
:10173C0008BFA3F18053A3F50003BCFA8CF2083A5E
:10174C00A3EBC25310DB01FA02FC634400FA02FC67
:10175C00C2F12002BCF1004F20FA02F243EB02006E
:10176C0008BF20F00100704702F1200201FA02FCD0
:10177C00C2F1200250EA4C0021FA02F243EB0200C3
:10178C0008BF20EADC7070474FF0FF0C1CEAD05207
:10179C001EBF1CEAD15392EA0C0F93EA0C0F6FD0C8
:1017AC001A4480EA010C400218BF5FEA41211ED0A6
:1017BC004FF0006343EA501043EA5111A0FB013192
:1017CC000CF00040B1F5000F3EBF490041EAD37167
:1017DC005B0040EA010062F17F02FD2A1DD8B3F1E3
:1017EC00004F40EBC25008BF20F00100704790F052
:1017FC00000F0CF0004C08BF49024CEA502040EAA4
:10180C0051207F3AC2BFD2F1FF0340EAC250704769
:10181C0040F400004FF00003013A5DDC12F1190FA7
:10182C00DCBF00F000407047C2F10002410021FA19
:10183C0002F1C2F1200200FA02FC5FEA310040F131
:10184C00000053EA4C0308BF20EADC70704792F0AA
:10185C00000F00F0004C02BF400010F4000F013AE2
:10186C00F9D040EA0C0093F0000F01F0004C02BFDD
:10187C00490011F4000F013BF9D041EA0C018FE74C
:10188C000CEAD15392EA0C0F18BF93EA0C0F0AD052
:10189C0030F0004C18BF31F0004CD8D180EA010078
:1018AC0000F00040704790F0000F17BF90F0004F11
:1018BC00084691F0000F91F0004F14D092EA0C0FF3
:1018CC0001D142020FD193EA0C0F03D14B0218BF86
:1018DC00084608D180EA010000F0004040F0FE40CC
:1018EC0040F40000704740F0FE4040F44000704768
:1018FC004FF0FF0C1CEAD0521EBF1CEAD15392EAE7
:10190C000C0F93EA0C0F69D0A2EB030280EA010CD6
:10191C0049024FEA402037D04FF0805343EA11116F
:10192C0043EA10130CF000408B4238BF5B0042F1CD
:10193C007D024FF4000C8B4224BF5B1A40EA0C0072
:10194C00B3EB510F24BFA3EB510340EA5C00B3EBA4
:10195C00910F24BFA3EB910340EA9C00B3EBD10F92
:10196C0024BFA3EBD10340EADC001B0118BF5FEAE4
:10197C001C1CE0D1FD2A3FF650AF8B4240EBC2500D
:10198C0008BF20F0010070470CF0004C4CEA5020CE
:10199C007F32C2BFD2F1FF0340EAC250704740F41D
:1019AC0000004FF00003013A37E792F0000F00F00F
:1019BC00004C02BF400010F4000F013AF9D040EA8D
:1019CC000C0093F0000F01F0004C02BF490011F421
:1019DC00000F013BF9D041EA0C0195E70CEAD15319
:1019EC0092EA0C0F08D142027FF47DAF93EA0C0F00
:1019FC007FF470AF084676E793EA0C0F04D14B02E4
:101A0C003FF44CAF08466EE730F0004C18BF31F095
:101A1C00004CCAD130F000427FF45CAF31F000438F
:101A2C007FF43CAF5FE700BF10B5054C13462CB1FB
:101A3C000A4601460220AFF3008010BD204610BDBF
:101A4C000000000010B5431E0A44914204D011F866
:101A5C00014B03F8014FF8E710BD034602449342D3
:101A6C0002D003F8011BFAE77047000038B5124B9F
:101A7C0005461C68A36BD3B91820FEF71BFD43F277
:101A8C000E33A06303804AF6CD33438041F23423F6
:101A9C0083804EF26D63C3804DF6EC6303810523A6
:101AAC0043810B23838101220023C0E90423A36B10
:101ABC0000221D615A6138BD6C000020034613F8EA
:101ACC00012B002AFBD1181A013870471D000A0897
:101ADC005D000A0889000A088D000A080000000051
:101AEC004475726174696F6E203D2025302E32660C
:101AFC002C2044697374616E636520696E20434DBC
:101B0C003A2025302E3266200A006261756400533B
:101B1C00657269616C0055534253657269616C3131
:101B2C00007479706500706172616D00636D6400A2
:101B3C00696400686E64007374726D0066696C741D
:101B4C00006C766C0061646448616E646C65720054
:101B5C0072656D6F766548616E646C657200656E5A
:101B6C00756D48616E646C657273004A534F4E53C9
:101B7C00747265616D4C6F6748616E646C65720060
:101B8C0061707000253031307520005D20002564B7
:101B9C00002C200028293A2000205B00636F64652C
:101BAC00203D200025690064657461696C73203DDB
:101BBC0020000D0A0066006C6E00666E00636F6498
:101BCC00650064657461696C006E6F6E650074729B
:101BDC0061636500696E666F007761726E00657295
:101BEC00726F720070616E696300616C6C005A00F8
:101BFC00252B3033643A253032750025592D256D4F
:101C0C002D25645425483A254D3A2553257A0061F3
:101C1C00736374696D650000000000000000000033
:101C2C003D080A082D080A082F080A0800000000C1
:101C3C0000000000F9080A0849090A0857090A08AF
:101C4C0069050A0835090A08FB080A0811090A0877
:101C5C0043090A0827090A08F5080A0800000000C9
:101C6C0000000000990A0A08E90A0A08F70A0A089B
:101C7C0069050A08AD0A0A08CF0A0A08BB0A0A084D
:101C8C00E30A0A089B0A0A089F0A0A0800000000D7
:101C9C00000000009D0B0A08E70B0A08BF0B0A089E
:101CAC009F0B0A08C70B0A08CF0B0A08D70B0A08A8
:101CBC00DF0B0A080000000000000000B70C0A0847
:101CCC00AD0C0A08A30C0A08210C0A0885060A08A0
:101CDC00970C0A088B0C0A08830C0A08790C0A0862
:101CEC006F0C0A082B0C0A08000000000000000012
:101CFC00D50C0A08DF0C0A08E90C0A08F30C0A08D0
:101D0C00FD0C0A08090D0A08150D0A08210D0A0810
:101D1C00290D0A08330D0A083D0D0A0800000000C1
:101D2C0000000000000000000000000000000000A7
:101D3C000000000000000000000000000000000097
:101D4C000000000000000000000000000000000087
:101D5C000000000000000000000000000000000077
:101D6C000000000000000000000000000000000067
:101D7C000000000000000000000000000000000057
:101D8C004300000091010A0835050A0891060A086B
:101D9C00A1060A08D9060A08C10C0A088D0D0A0802
:101DAC00850E0A08790F0A08FD0F0A08C1100A08E7
:041DBC0085110A087B
:041DC000000000001F
:101DC40005000000040000001B1C0A0800000000BD
:101DD4002C1D0A084C1D0A086C1D0A08000000008E
:101DE4000000000000000000000000008C1D0A0834
:101DF40000000000000000000000000000000000DF
:101E040000000000000000000000000000000000CE
:101E140000000000000000000000000000000000BE
:101E24000000000000000000000000000C00002082
:101E3400FFFFFFFF00000102030405060708090A6B
:101E44000B0C0D0E0F101112131415161718191A66
:081E54001B1C1D1E1F202800AD
:041E5C00785634126E
:04000005080A001CC9
:00000001FF
