:02000002D0002C
:1040000000400D00FC5C0D00000006000C000501E6
:084010000401E80500000000B6
:04401800F0580D004F
:10401C0009480A49884208B505D0094A824202D0AB
:10402C00121A01F01BFC0748074A0021121A01F072
:10403C0020FC014808BD00BF48E30320645C0D0070
:10404C00B8E30320B8E30320F0E7032070B500F0D9
:10405C0097FC074C074BE41AA40800251E46A54202
:10406C0004D056F8253098470135F8E770BD00BFED
:10407C005C5C0D00245C0D0000F01CB808B500F071
:10408C00D5F8BDE8084000F03DBC00F0BBBA00F02C
:10409C00B9BA0078B0FA80F0400970470123037078
:1040AC00704710B50446006808B100F0ABFA204622
:1040BC0010BD000008B500F063FD4FF4165100F080
:1040CC0053FD4FF4FA7000F0DFFB064B012118880A
:1040DC0001F016F8044B00211888BDE8084001F0E7
:1040EC000FB800BF4CE3032048E3032070B505462E
:1040FC0014460E4600F01AF9ADB20444284601F0FD
:10410C0029F8B04203D000F011F9A042F6D370BDEB
:10411C0010B584B20121204601F003F80A2000F00A
:10412C00F5F820460021BDE8104000F0FABF000071
:10413C0030B52DED028B1E4B1E4D186885B0FFF768
:10414C00E7FF642201212868FFF7D0FF00F0E6F8B2
:10415C006422002104462868FFF7C8FF00F0DEF84F
:10416C00001B07EE900A9FED147A144CB8EEE78A08
:10417C00C8EE077AC4ED007A00F002FD054620680F
:10418C0001F00AFBCDE9020118EE100A01F004FB64
:10419C000B4ACDE900010021284600F028FB4FF422
:1041AC00FA6005B0BDEC028BBDE8304000F06CBB92
:1041BC004CE3032048E3032000006842BCE30320E7
:1041CC0004590D0010B52DED028B08EE100AFFF707
:1041DC00AFFF124B124CD3ED007A2378B8EEC88A9D
:1041EC00B4EEE78AF1EE10FA07DD73B900F0C8FC03
:1041FC000C4900F0D2FA012306E033B100F0C0FC08
:10420C00094900F0B7FA00232370BDEC028B4FF480
:10421C007A70BDE8104000F037BB00BFBCE3032050
:10422C00C0E303202E590D003E590D007D20FFF7F1
:10423C00C9BF000010B50A4C00F028F80023236019
:10424C00A380A371238102204FF6FF73638100F0DA
:10425C0055F92046034A0449BDE8104000F0CEBF92
:10426C00C4E30320B8E30320AF400D0008B5024BB4
:10427C001B689B68019308BD6802030008B5024BDC
:10428C001B68DB68019308BD6802030008B5024B8C
:10429C001B681B68019308BD2C02030008B5024B78
:1042AC001B689B68019308BD2C02030008B5024BE8
:1042BC001B68DB68019308BD2C02030008B5024B98
:1042CC001B681B69019308BD2C02030008B5024B47
:1042DC001B685B69019308BD2C02030008B5024BF7
:1042EC001B68DB69019308BD3002030008B5024B63
:1042FC001B681B6A019308BD3002030008B5024B12
:10430C001B685B68019308BD1802030008B5024BDB
:10431C001B68DB68019308BD1802030008B5024B4B
:10432C001B681B69019308BD1802030008B5024BFA
:10433C001B685B69019308BD1802030008B5024BAA
:10434C001B689B68019308BD4802030008B5024B2B
:10435C001B681B69019308BD4802030008B5024B9A
:10436C001B685B69019308BD4802030008B5024B4A
:10437C001B685B6C019308BD4802030008B5024B37
:10438C001B689B6C019308BD4802030008B5024BE7
:10439C001B685B69019308BD6402030008B5024BFE
:1043AC001B681B68019308BD3C02030008B5024B57
:1043BC001B68DB68019308BD3C02030008B5024B87
:1043CC001B681B69019308BD3C02030008B5024B36
:1043DC001B685B69019308BD3C02030008B5024BE6
:1043EC001B689B69019308BD3C02030008B5024B96
:1043FC001B68DB69019308BD3C02030008B5024B46
:10440C001B681B6A019308BD3C02030008B5024BF4
:10441C001B689B6A019308BD3C02030008B5024B64
:10442C001B681B6A019308BD2802030008B5024BE8
:10443C001B685B6A019308BD2802030008B5024B98
:10444C001B689B6A019308BD2802030008B5024B48
:10445C001B68DB6A019308BD2802030008B5024BF8
:10446C001B681B6B019308BD2802030008B5024BA7
:10447C001B685B6B019308BD2802030008B5024B57
:10448C001B681B6C019308BD2802030008B5024B86
:10449C001B681B68019308BD4C02030008B5024B56
:1044AC001B685B68019308BD4C02030008B5024B06
:1044BC001B681B69019308BD4C02030008B5024B35
:1044CC001B685B69019308BD4C02030008B5024BE5
:1044DC001B689B69019308BD4C02030008B5024B95
:1044EC001B68DB69019308BD4C02030008B5024B45
:1044FC001B681B6A019308BD4C02030008B5024BF4
:10450C001B685B68019308BD2002030008B5024BD1
:10451C001B685B69019308BD2002030008B5034BBF
:10452C001B68D3F88830019308BD000020020300FB
:10453C0008B5034B1B68D3F89430019308BD0000F9
:10454C002002030008B5024B1B685B68019308BD91
:10455C004002030008B5024B1B689B68019308BD21
:10456C004002030008B5024B1B68DB68019308BDD1
:10457C004002030008B5024B1B681B69019308BD80
:10458C004002030008B5024B1B685B69019308BD30
:10459C004002030008B5024B1B689B69019308BDE0
:1045AC004002030008B5024B1B68DB69019308BD90
:1045BC004002030008B5024B1B681B6A019308BD3F
:1045CC004002030008B5024B1B681B6B019308BD2E
:1045DC004002030008B5024B1B685B6B019308BDDE
:1045EC004002030008B5024B1B68DB6B019308BD4E
:1045FC004402030008B5024B1B681B68019308BDFD
:10460C001C02030008B5024B1B685B68019308BDD4
:10461C001C02030008B5024B1B685B6A019308BDC2
:10462C001C020300002211464068FFF7C3BF0022A2
:10463C0011464068FFF7CEBF00224068FFF7C2BFAB
:10464C00002281F001014068FFF7ACBF00231A463D
:10465C0019464068FFF79EBF00231A46194640686A
:10466C00FFF790BF002211464068FFF783BF00227E
:10467C0011464068FFF76EBF002202214068FFF729
:10468C0071BF00231A464068FFF75CBF024B032240
:10469C005A60024A1A607047D0E303204C590D004F
:1046AC0010B5044601700846FFF718FE002363603E
:1046BC00204610BD0078FFF719BE000010B5094C5C
:1046CC0000204FF6FF732060A080A07120816381D1
:1046DC00FFF714FF2046044A0449BDE8104000F0DF
:1046EC008DBD00BFD8E30320B8E30320AF400D001D
:1046FC0010B50446006808B1FFF740FE204610BD17
:10470C0010B5064C002320462360FFF72FFE2046F1
:10471C00034A0449BDE8104000F070BDE4E30320F7
:10472C00B8E30320FD460D00F8B506460D468F187C
:10473C000024BD420CD0336815F8011B9B68304631
:10474C009847002801DB0444F3E7002C08BF04461B
:10475C002046F8BD70B505460C46084649B101F037
:10476C00B9F82B68024621462846DB68BDE8704044
:10477C00184770BD08B5FFF7EDFF08BD03689B68CF
:10478C00184738B50D210546FFF7F8FF0A210446F6
:10479C002846FFF7F3FF204438BD38B50546FFF730
:1047AC00D9FF04462846FFF7ECFF204438BD30B54E
:1047BC008BB00B4600218DF82410012A98BF0A22D9
:1047CC000DF12304B3FBF2F505FB123303F0FF03E9
:1047DC00092B94BF30333733DBB2214604F801394F
:1047EC002B46002DEED1FFF7B5FF0BB030BD0CB44E
:1047FC002DE9F04387B000AF07F13804054654F8B3
:10480C00049B3C600E4623464A461421381DFFF794
:10481C0001FF132805D8391D2846FFF79BFF0446D6
:10482C0013E000F1080323F00703E846ADEB030D9A
:10483C00411C23464A4668463C60FFF7EBFE69463E
:10484C002846FFF787FF0446C5461EB12846FFF7EA
:10485C0098FF044420461C37BD46BDE8F04302B027
:10486C0070470000014B024A1A607047E8E30320CE
:10487C00EB590D00024B1A68024B1A60704700BFCF
:10488C0050E30320ECE303200021FFF73FBE10B5FB
:10489C008368044613B1032201469847204610BD95
:1048AC0010B50446FFF7F3FF204610BD0348044A39
:1048BC0004490023836000F0A1BC00BFF0E3032097
:1048CC00B8E30320AD480D0008B50C4B33B100F034
:1048DC0057F903681B699847002809DC084B63B13A
:1048EC0000F0D0F903681B699847002803DC08BD69
:1048FC00AFF30080F2E7AFF3008008BD00000000CA
:10490C000000000008B5FFF7DFFFFFF70FFD014BBC
:10491C00186008BD30E703200248034A0349121A05
:10492C0000F09CBF00F4032004F40320605C0D0035
:10493C0007B5002300931A466FF07701FFF7F8FDD7
:10494C0003B05DF804FB000007B543880A2B08D0C0
:10495C00502B09D1094B1B683BB103B05DF804EB3C
:10496C001847FFF7E5FF06E0002300931A466FF0A7
:10497C007701FFF7DDFD03B05DF804FB00E40320D5
:10498C0038B5104C104D2368AB42104B0CBF0122B4
:10499C0000221A7002D0FFF7BFFF2560FFF7AEFCB4
:1049AC00044600F06FFF0A4B13B12046AFF30080B2
:1049BC0000210748FFF716FE00210648BDE83840E5
:1049CC00FFF7ACBD00F403201E1C279A04E403205F
:1049DC000000000055490D00704710B51821044621
:1049EC0000F01AFC204610BDF0B5037D062B8DB0EF
:1049FC000E4600F104074FF0000402D000F1080548
:104A0C0018E00CAD394605F8304D2F232A460A2004
:104A1C00FFF7BCFC284600F05DFF33680246DB68FC
:104A2C002946304698470FE024B12E213046FFF737
:104A3C00A5FE044415F8011D0A223046FFF7B7FE07
:104A4C00BD420444F0D120460DB0F0BD10B5054B6D
:104A5C000446112240F8043B002100F00AFF2046D6
:104A6C0010BD00BF8C5A0D000346074A10B543F821
:104A7C00042B01F1100251F8044B43F8044B914202
:104A8C00F9D10A781A7010BD8C5A0D0010B59DF82A
:104A9C00084044EA032343EA024242EA0161042348
:104AAC004160037510BD37B50D788B784A78C9789D
:104ABC0000912946FFF7EAFF03B030BD41747047FF
:104ACC00704708B50021007CFFF700FD30EA20009C
:104ADC0028BF4FF0FF3008BD08B50121007CFFF75F
:104AEC00F5FC30EA200028BF4FF0FF3008BD08B5B8
:104AFC00007CFFF7E3FC20EAE07008BD08B5007C01
:104B0C00FFF7D4FC20EAE07008BD007CFFF7EEBC98
:104B1C0010B51421044600F07FFB204610BD38B5BB
:104B2C000446007C0D46FFF7C9FC002801DC607CC4
:104B3C0028B12946207CFFF7D1FC20EAE07038BD73
:104B4C0010B50446002363604FF47A73A360054BE1
:104B5C00236001230846217463741146FFF796FC09
:104B6C00204610BDA05A0D000022007CFFF796BC19
:104B7C0010B514220446002100F07BFE204610BD27
:104B8C0030B50E4D87B001A8FFF7F2FF296811F080
:104B9C00010410D12846FFF77CFA60B101AA214626
:104BAC000748FFF7CDFF2846FFF778FA054A064974
:104BBC00034800F023FB024807B030BD08E4032093
:104BCC000CE40320B8E30320CD4A0D007047417478
:104BDC00704708B5007CFFF719FC20EAE07008BDAF
:104BEC0008B5007CFFF7EAFB20EAE07008BD08B5C9
:104BFC00007CFFF7F3FB30EA200028BF4FF0FF30BA
:104C0C0008BD08B5007CFFF7E1FB30EA200028BFA7
:104C1C004FF0FF3008BD007CFFF7E8BB10B5142146
:104C2C00044600F0F9FA204610BD70B5457C0446E8
:104C3C000E4625B9007CFFF7E9FB002805DD31465F
:104C4C00207CBDE87040FFF7B1BB284670BD00006A
:104C5C0010B5044608461146002262604FF47A7281
:104C6C00A260054A22600122207462741A46FFF782
:104C7C0095FB204610BD00BFD05A0D00007CFFF7FD
:104C8C00BDBB000038B50C4D296811F0010411D1E1
:104C9C002846FFF7FEF968B1084A094B0948214636
:104CAC00FFF7D6FF2846FFF7F9F9074A07490548E9
:104CBC0000F0A4FA034838BDB8E40320BCE4032098
:104CCC0034E4032020E40320B8E30320D94B0D0087
:104CDC007047F8B5064615460C468F18BC4206D0F0
:104CEC00336814F8011B9B6830469847F6E7284652
:104CFC00F8BD0022007CFFF791BB0021007CFFF780
:104D0C0095BB0021007CFFF799BB0021007CFFF7CD
:104D1C009DBB0021007CFFF7A1BB10B514210446FC
:104D2C0000F07AFA204610BD10B5044600236360EB
:104D3C004FF47A73A360044B217408462360114628
:104D4C00FFF79CFB204610BD005B0D000021007C92
:104D5C00FFF78CBB002211464068FFF72BBC0022EA
:104D6C0011464068FFF736BC00224068FFF72ABCAA
:104D7C00002281F001014068FFF714BC00231A46A1
:104D8C0001214068FFF706BC00231A46194640680B
:104D9C00FFF7F8BB002211464068FFF7EBBB00227F
:104DAC0011464068FFF7D6BB002202214068FFF78E
:104DBC00D9BB00231A464068FFF7C4BB38B505467B
:104DCC0088B104684CB1A3681BB10322214620466C
:104DDC0098471021204600F01FFA28461421BDE800
:104DEC00384000F019BA38BD10B103685B68184739
:104DFC00704710B503680446BBB15868FFF79EFABC
:104E0C0078B923685A7C12B95868FFF79FFA23685F
:104E1C005868FFF7A3FA20680023236028B1FFF736
:104E2C00CDFF206808B1FFF7C9FF204610BD38B58B
:104E3C000446D0F8C40108B1FFF729F9D4F8C00131
:104E4C0008B1FFF79BFAD4F8BC5135B12846FFF7EF
:104E5C00D0FF0421284600F0DFF9206808B1FFF7E5
:104E6C00C3FF204638BD000010B5044B044640F883
:104E7C00083BFFF7DCFF204610BD00BF285B0D0090
:104E8C0038B50E4C0E4B23600025022304F5E4705C
:104E9C006360A560C4F8C451C4F8C851FFF766FA42
:104EAC00084BC4F8CC5184F8D05123602046064AF4
:104EBC000649BDE8384000F0A1B900BF40E5032029
:104ECC00905B0D00285B0D00B8E30320754E0D00C0
:104EDC00002211464068FFF74DBB00221146406886
:104EEC00FFF768BB002211464068FFF773BB002236
:104EFC004068FFF767BB002281F001014068FFF7B3
:104F0C0051BB00231A4619464068FFF743BB0023E8
:104F1C001A4619464068FFF735BB00221146406817
:104F2C00FFF718BB002202214068FFF71BBB0023D0
:104F3C001A464068FFF706BB024B04225A60024A2D
:104F4C001A60704714E703205C5B0D0000231A46BF
:104F5C004068FFF7F7BA002202214068FFF702BB56
:104F6C00002211464068FFF7F5BA0022114640684E
:104F7C00FFF700BB00231A4619464068FFF702BB37
:104F8C0000231A4619464068FFF704BB002281F043
:104F9C0001014068FFF706BB00224068FFF712BB17
:104FAC00002211464068FFF715BB002211464068ED
:104FBC00FFF700BB2DE9F043002495B016460D46D3
:104FCC000746FFF743FD214620220CA8009400F071
:104FDC0050FC40230C9321466B460CAA3046FFF73D
:104FEC004DF90446002844D1024601216868FFF7B8
:104FFC00C1FA0221804622466868FFF7BBFA009E80
:10500C0081462146002E34D0002932D17368022B00
:10501C0002D00A2B09D02AE0B8F1000F27D0716911
:10502C0038460431FFF73FFD20E0B9F1000F1ED0E8
:10503C007469112201A800F01CFC06238DF81430B1
:10504C0001AD04F108031834186859682A4603C2E4
:10505C000833A3421546F7D101A906A807ADFFF7FF
:10506C0003FD0FCD3C1D0FC42B6823700121F66985
:10507C00C8E70098FFF7FAF8384615B0BDE8F0839A
:10508C00024B034A1A6000225A6070471CE7032047
:10509C00905B0D0070B5184E316811F00105044697
:1050AC000AD13046FEF7F5FF30B129461348FFF719
:1050BC00F7FA3046FEF7F2FF1048FFF7FBFA28B17B
:1050CC00A4F10B03022B01D8002070BD00F070F886
:1050DC00FFF73CFE08B1012CF6D9FFF7D3FDFFF723
:1050EC00CDFD18B1A4F10903012BEDD9232C8CBFF4
:1050FC000020012070BD00BF24E7032028E7032017
:10510C00232838B504460D460AD8FF2908D0FFF7E6
:10511C00C1FF28B129462046BDE83840FFF7BEB88C
:10512C0038BD38B504460D46FFF7C0F8FF2810D03F
:10513C00062804D84D2323FA00F0C30709D42046CF
:10514C00FFF7A8FF28B129462046BDE83840FFF7F5
:10515C00B5B838BD10B50446FFF7A8F80438C0B28E
:10516C00012808D92046FFF795FF20B12046BDE85D
:10517C001040FFF7ABB8002010BD000070B504461E
:10518C0014252A46094E002100F073FB25802025AA
:10519C003146A5602561284600F040F83146606034
:1051AC00284600F03BF8E060204670BDBC5B0D006B
:1051BC0030B50E4D296811F0010487B013D1284683
:1051CC00FEF767FF78B101A8FFF7D8FF01AA2146C7
:1051DC000748FFF7A9FD2846FEF760FF054A064978
:1051EC00034800F00BF8024807B030BD34E7032049
:1051FC0038E70320B8E30320DD4C0D000B460146D5
:10520C00184600F01DBB0000024B1868BFF35F8FFF
:10521C00704700BF4CE70320FEF737BF00F000B823
:10522C0010B5002814BF044601242046FFF7E2F90C
:10523C0020B9FFF7E9FF08B18047F6E710BD000081
:10524C00184B1A68D1075CBF01221A60164B1A68FA
:10525C00D2075CBF01221A60144B1A68D0075CBFDE
:10526C0001221A60124B1A68D1075CBF01221A6026
:10527C00104B1A68D2075CBF01221A600E4B1A68D9
:10528C00D0075CBF01221A600C4B1A68D1075CBFB7
:10529C0001221A600A4B1A68D2075CBF01221A60FD
:1052AC00704700BF6CE7032068E7032064E7032026
:1052BC0060E703205CE7032058E7032054E7032052
:1052CC0050E70320244B1A68D0075CBF01221A60F8
:1052DC00224B1A68D1075CBF01221A60204B1A6856
:1052EC00D2075CBF01221A601E4B1A68D0075CBF44
:1052FC0001221A601C4B1A68D1075CBF01221A608C
:10530C001A4B1A68D2075CBF01221A60184B1A6834
:10531C00D0075CBF01221A60164B1A68D1075CBF1C
:10532C0001221A60144B1A68D2075CBF01221A6062
:10533C00124B1A68D0075CBF01221A60104B1A6816
:10534C00D1075CBF01221A600E4B1A68D2075CBFF2
:10535C0001221A60704700BF9CE7032098E70320E6
:10536C0094E7032090E703208CE7032088E70320D1
:10537C0084E7032080E703207CE7032078E7032001
:10538C0074E7032070E70320244B1A68D0075CBF36
:10539C0001221A60224B1A68D1075CBF01221A60E5
:1053AC00204B1A68D2075CBF01221A601E4B1A6888
:1053BC00D0075CBF01221A601C4B1A68D1075CBF76
:1053CC0001221A601A4B1A68D2075CBF01221A60BC
:1053DC00184B1A68D0075CBF01221A60164B1A686A
:1053EC00D1075CBF01221A60144B1A68D2075CBF4C
:1053FC0001221A60124B1A68D0075CBF01221A6096
:10540C00104B1A68D1075CBF01221A600E4B1A6848
:10541C00D2075CBF01221A60704700BFCCE70320A3
:10542C00C8E70320C4E70320C0E70320BCE7032040
:10543C00B8E70320B4E70320B0E70320ACE7032070
:10544C00A8E70320A4E70320A0E70320184B1A6861
:10545C00D1075CBF01221A60164B1A68D2075CBFD9
:10546C0001221A60144B1A68D0075CBF01221A6023
:10547C00124B1A68D1075CBF01221A60104B1A68D4
:10548C00D2075CBF01221A600E4B1A68D0075CBFB2
:10549C0001221A600C4B1A68D1075CBF01221A60FA
:1054AC000A4B1A68D2075CBF01221A60704700BF12
:1054BC00ECE70320E8E70320E4E70320E0E7032020
:1054CC00DCE70320D8E70320D4E70320D0E7032050
:1054DC0081F0004102E000BF83F0004330B54FEA99
:1054EC0041044FEA430594EA050F08BF90EA020F06
:1054FC001FBF54EA000C55EA020C7FEA645C7FEA99
:10550C00655C00F0E2804FEA5454D4EB5555B8BFBB
:10551C006D420CDD2C4480EA020281EA030382EA2C
:10552C00000083EA010180EA020281EA0303362DBE
:10553C0088BF30BD11F0004F4FEA01314FF4801C91
:10554C004CEA113102D0404261EB410113F0004FA3
:10555C004FEA03334CEA133302D0524263EB43035A
:10556C0094EA050F00F0A780A4F10104D5F1200EF8
:10557C000DDB02FA0EFC22FA05F2801841F1000153
:10558C0003FA0EF2801843FA05F359410EE0A5F127
:10559C0020050EF1200E012A03FA0EFC28BF4CF058
:1055AC00020C43FA05F3C01851EBE37101F000450E
:1055BC0007D54FF0000EDCF1000C7EEB00006EEB1B
:1055CC000101B1F5801F1BD3B1F5001F0CD34908A5
:1055DC005FEA30004FEA3C0C04F101044FEA4452FC
:1055EC0012F5800F80F09A80BCF1004F08BF5FEA83
:1055FC00500C50F1000041EB045141EA050130BD63
:10560C005FEA4C0C404141EB010111F4801FA4F105
:10561C000104E9D191F0000F04BF01460020B1FA5A
:10562C0081F308BF2033A3F10B03B3F120020CDA92
:10563C000C3208DD02F1140CC2F10C0201FA0CF070
:10564C0021FA02F10CE002F11402D8BFC2F1200CD5
:10565C0001FA02F120FA0CFCDCBF41EA0C0190408B
:10566C00E41AA2BF01EB0451294330BD6FEA0404D4
:10567C001F3C1CDA0C340EDC04F11404C4F12002BF
:10568C0020FA04F001FA02F340EA030021FA04F3D1
:10569C0045EA030130BDC4F10C04C4F1200220FA28
:1056AC0002F001FA04F340EA0300294630BD21FA66
:1056BC0004F0294630BD94F0000F83F4801306BF2C
:1056CC0081F480110134013D4EE77FEA645C18BF20
:1056DC007FEA655C29D094EA050F08BF90EA020FB7
:1056EC0005D054EA000C04BF1946104630BD91EAAF
:1056FC00030F1EBF0021002030BD5FEA545C05D1B2
:10570C004000494128BF41F0004130BD14F58004F0
:10571C003CBF01F5801130BD01F0004545F0FE4164
:10572C0041F470014FF0000030BD7FEA645C1ABF99
:10573C00194610467FEA655C1CBF0B46024650EAD0
:10574C00013406BF52EA033591EA030F41F40021FC
:10575C0030BD00BF90F0000F04BF0021704730B582
:10576C004FF4806404F132044FF000054FF0000157
:10577C0050E700BF90F0000F04BF0021704730B518
:10578C004FF4806404F1320410F0004548BF4042ED
:10579C004FF000013EE700BF42004FEAE2014FEA42
:1057AC0031014FEA02701FBF12F07F4393F07F4F1D
:1057BC0081F06051704792F0000F14BF93F07F4F4F
:1057CC00704730B54FF4607401F0004521F0004192
:1057DC0020E700BF50EA010208BF704730B54FF018
:1057EC0000050AE050EA010208BF704730B511F01D
:1057FC00004502D5404261EB41014FF4806404F155
:10580C0032045FEA915C3FF4DCAE4FF003025FEAD6
:10581C00DC0C18BF03325FEADC0C18BF033202EB5E
:10582C00DC02C2F1200300FA03FC20FA02F001FAB8
:10583C0003FE40EA0E0021FA02F11444C1E600BF57
:10584C0010B5054C13462CB10A4601460220AFF3A5
:10585C00008010BD204610BD0000000010B5431E96
:10586C000A44914204D011F8014B03F8014FF8E7B8
:10587C0010BD02440346934202D003F8011BFAE721
:10588C007047000038B5124B1C68A36B0546D3B9A2
:10589C001820FEF7AFFE43F20E33A06303804AF6E6
:1058AC00CD33438041F2342383804EF26D63C38049
:1058BC004DF6EC630381052343810B238381012285
:1058CC000023C0E90423A36B00221D615A6138BD7B
:1058DC00B4E30320034613F8012B002AFBD1181A5A
:1058EC00013870471D400D0059400D0085400D00DA
:1058FC0089400D00000000004475726174696F6E80
:10590C00203D2025302E32662C2044697374616E44
:10591C00636520696E20434D3A2025302E32662077
:10592C000A006C657373207468616E2031323563C4
:10593C006D00636C656172000000000000000000E7
:10594C008F460D0085460D007B460D0071460D00FF
:10595C0065460D0059460D004D460D0045460D009F
:10596C003B460D0031460D00C14F0D006261756460
:10597C000053657269616C0053657269616C31002A
:10598C007479706500706172616D00636D6400699B
:10599C006400686E64007374726D0066696C7400E8
:1059AC006C766C0061646448616E646C6572007244
:1059BC00656D6F766548616E646C657200656E75B9
:1059CC006D48616E646C657273004A534F4E53742C
:1059DC007265616D4C6F6748616E646C65720061D5
:1059EC00707000253031307520005D20002564007A
:1059FC002C200028293A2000205B00636F6465206E
:105A0C003D200025690064657461696C73203D203C
:105A1C00000D0A0066006C6E00666E00636F6465B4
:105A2C000064657461696C006E6F6E650074726100
:105A3C00636500696E666F007761726E00657272E5
:105A4C006F720070616E696300616C6C005A0025A6
:105A5C002B3033643A253032750025592D256D2DA8
:105A6C0025645425483A254D3A2553257A0061730F
:105A7C006374696D65000000000000000000000008
:105A8C00F5490D00E5490D00E7490D000000000047
:105A9C0000000000CD4A0D001D4B0D002B4B0D00DE
:105AAC0035470D00094B0D00CF4A0D00E54A0D009E
:105ABC00174B0D00FB4A0D00C94A0D0000000000F9
:105ACC0000000000D94B0D00294C0D00374C0D0087
:105ADC0035470D00ED4B0D000F4C0D00FB4B0D0031
:105AEC00234C0D00DB4B0D00DF4B0D0000000000C4
:105AFC0000000000DD4C0D00274D0D00FF4C0D008B
:105B0C00DF4C0D00074D0D000F4D0D00174D0D0016
:105B1C001F4D0D000000000000000000BF4D0D00E7
:105B2C00B54D0D00AB4D0D00A14D0D00954D0D006B
:105B3C00894D0D007D4D0D00754D0D006B4D0D000B
:105B4C00614D0D00C14F0D00000000000000000071
:105B5C003B4F0D00314F0D00274F0D00DD4E0D005A
:105B6C001B4F0D000F4F0D00034F0D00FB4E0D0092
:105B7C00F14E0D00E74E0D00C14F0D00000000006E
:105B8C0000000000594F0D00634F0D006D4F0D00CC
:105B9C00774F0D00814F0D008D4F0D00994F0D006B
:105BAC00A54F0D00AD4F0D00B74F0D00C14F0D00AF
:105BBC0000000000000000000000000000000000D9
:105BCC0000000000000000000000000000000000C9
:105BDC0000000000000000000000000000000000B9
:105BEC0000000000000000000000000000000000A9
:105BFC000000000000000000000000000000000099
:105C0C000000000000000000000000000000000088
:105C1C00000000004300000041420D0099460D00B9
:105C2C00C9460D000D470D0071480D0081480D004F
:105C3C00B9480D008D4E0D00454F0D008D500D00D7
:105C4C004D520D00D1520D0095530D0059540D00BD
:045C5C000000000044
:045C60000000000040
:105C640005000000040000007A5A0D000000000046
:105C7400C05B0D00E05B0D00005C0D000000000047
:105C8400000000000000000000000000205C0D0087
:105C94000000000000000000000000000000000000
:105CA40000000000000000000000000000000000F0
:105CB40000000000000000000000000000000000E0
:105CC40000000000000000000000000054E3032076
:105CD400FFFFFFFF00000102030405060708090A8D
:105CE4000B0C0D0E0F101112131415161718191A88
:085CF4001B1C1D1E1F202800CF
:045CFC007856341290
:04000003D000401CCD
:00000001FF
