:02000002D0002C
:1040000000400D00A0A10D00000006000C000501FD
:084010000401E80500000000B6
:0440180048950D00BA
:1040200009480A49884208B505D0094A824202D0A7
:10403000121A05F03AF90748074A0021121A05F04A
:104040005AF9014808BD00BF64DC0320F4A00D004C
:10405000E8DC0320E8DC0320F0E7032070B503F080
:1040600049FC074C074BE41AA40800251E46A5424C
:1040700004D056F8253098470135F8E770BD00BFE9
:10408000E8A00D005CA00D0000F0C4BC08B500F075
:10409000FBFBBDE8084003F0EFBB03F097B903F06A
:1040A0009DB903F09BB9000008B5034A00210C201C
:1040B00003F0E0F8FEE700BFE56F0D000078B0FA0E
:1040C00080F04009704701230370704770477047C4
:1040D0007FB5024608461379956833B13DB90C495E
:1040E00004B0BDE8704003F0F9BA0A4B00E00A4B97
:1040F000167B0A4C0A49527B0292012E08BF2146C8
:1041000001910095074A002103F02BFB04B070BD1C
:1041100091950D00F1990D0080950D0089950D0088
:104120008D950D00A7950D00083001F017BE10B554
:104130002C21044604F022FB204610BD08B503F0F4
:104140002DF920B10020BDE8084003F02FB908BDCB
:1041500038B584690A4B036005467CB16368013B4E
:1041600063605BB9236820469B689847A368013B5E
:10417000A3601BB923682046DB689847284638BDF2
:10418000349E0D0007B502AB012203F8011D083073
:10419000194601F0E3FD03B05DF804FB10B50446D9
:1041A000FFF7D6FF20461C2104F0E8FA204610BD98
:1041B00038B5174800F02CFD40BB03F0B1FC1549A1
:1041C00003F08CFA124800F0A8FF0446B8B103F0DF
:1041D000A7FC214605460E4800F054FE014628463D
:1041E00003F093FA03F09CFC0B4903F08EFA0848A5
:1041F00000F056FE41F2883003F000FBE2E703F0E6
:104200008FFC0649BDE8384003F07FBA38BD00BFD7
:10421000A8E10320C5950D00DC950D0005960D0065
:104220002DE9F04F7B4CA9B002F0ECFE2368C01AD8
:1042300041F28733984240F2E98002F0E3FE2060C9
:1042400003F06EFC744C05460A22217803F069FAEB
:10425000284603F04EFA03F063FC23780646254611
:1042600023B102F0CFFE616B411A01E04FF0FF3144
:104270000A22304603F055FA304603F03AFA2B781A
:10428000654CDFF89CA13BB102F0BCFE636BC01A29
:1042900042F20F73984210D9604908A805F0A0F8BF
:1042A0009AF80030002B40F0B1805D4B01221A706B
:1042B00002F0A8FE5B4B1860A8E0204602F08CFBE1
:1042C00051EC100B04F080FFDFF89091DFF8908143
:1042D000C9F80000204602F0A7FB51EC100B04F0D7
:1042E00073FF002584F87950C8F80000D4F88000E6
:1042F0004D4FDFF870B14D4E04F0EEFC4C4B0022F8
:1043000004F07AFE04F060FF386004F1480002F027
:10431000F9FB484A0792107004F1480002F0FCFBD8
:104320008BF8000004F1480002F004FC84F8895086
:10433000414DD4F89030307004F138002B7002F009
:10434000D7FB04F1380002F0C7FB3C4B187004F1B6
:10435000380002F0B5FB3A4B079A18701378072B18
:10436000144601D9063B00E01233237003F0D8FB5A
:10437000344A0790106804F0C1FC079B324ACDE92B
:1043800000010021184603F0ECF903F0C9FB2B787B
:104390002E4A002103F0E5F903F0C2FB32782378BE
:1043A00001929BF8002000920021294A03F0D9F9DC
:1043B00003F0B6FB0446386804F0A0FCCDE9040124
:1043C000D8F8000004F09AFCCDE90201D9F8000009
:1043D00004F094FC1F4ACDE900010021204603F0BF
:1043E000C0F99AF800308BB10D4B00221A7002F020
:1043F00009FE0C4B1C68041B03F092FB164A234673
:10440000012129B0BDE8F04F03F0ABB929B0BDE8F8
:10441000F08F00BFC4E3032080E203209F960D00CD
:104420006EE3032070E3032068E30320C8E3032066
:104430000000594088E10320C9E303208AE10320FA
:10444000BCE303207CE2032015960D002D960D00A1
:1044500048960D0062960D007F960D00C0E3032084
:104460008CE103206DE3032070B5054614460E462B
:1044700002F0C8FDADB20444284604F01DF9B04274
:1044800003D002F0BFFDA042F6D370BD10B584B2D8
:104490000121204604F0F7F80A2002F0A3FD20468F
:1044A0000021BDE8104004F0EEB8000038B5124B12
:1044B000124D1868FFF7EAFF642201212868FFF710
:1044C000D3FF02F097FD6422044600212868FFF71D
:1044D000CBFF02F08FFD001B07EE900ADFED086AAC
:1044E000084BF8EEE77A642087EEA67A83ED007A2F
:1044F000BDE8384003F082B964DC032068DC0320A7
:10450000000068427CE2032010B507EE900A134BCE
:10451000134CB8EEE77AD3ED007A2378B4EEE77A5D
:10452000F1EE10FA0CDD9BB903F0FAFA0D4903F035
:10453000ECF80D4A137883F001031370012306E0B1
:1045400033B103F0EDFA094903F0C8F800232370F2
:104550004FF47A70BDE8104003F050B97CE20320BC
:1045600089E10320AB960D006CE30320BB960D00A0
:1045700010B586B003F0D4FA2649274C03F0AEF804
:10458000264A274B12781B780192264A127800920D
:104590000021254A204603F0E4F8244A244B1278EF
:1045A0001B780192234A127800920021224A204669
:1045B00003F0D7F8214B186804F0A0FBCDE9040103
:1045C0001F4B186804F09AFBCDE902011D4B1868D7
:1045D00004F094FB1C4ACDE900010021204603F0C1
:1045E000C0F81A4B1A4A1B780021204603F0B9F88C
:1045F0001849204603F089F8174B186804F07EFB31
:10460000164ACDE900010021204603F0AAF806B0C1
:1046100010BD00BFC1960D0074E30320BCE303206E
:10462000BDE303208AE10320DA960D00C8E30320EE
:1046300088E103206DE30320F7960D0068E3032073
:104640008CE10320C0E303200E970D00C9E3032093
:1046500028970D00F1990D007CE2032015960D00BE
:104660000A46002103F07DB808B502F0CBFC02F049
:10467000C9FC0C4B984213D903F052FA0A49FFF7D0
:10468000EFFF0121094800F01FFC48B903F048FA88
:104690000749FFF7E5FF0548BDE8084000F000BC0A
:1046A00008BD00BFC0D4010041970D00A8E1032060
:1046B00050970D0008B502F0A5FC42F21073984225
:1046C00034D91B4800F022FB60B31A4B186804F081
:1046D00015FB41EC100B0221174800F07DFD174B34
:1046E000186804F00BFB41EC100B0221144800F099
:1046F00073FD144B186804F001FB41EC100B022110
:10470000114800F069FD114B186804F0F7FA41EC0C
:10471000100B02210E4800F05FFD03F001FA0D4975
:10472000FFF79EFFBDE8084002F06CBC08BD00BF6B
:10473000A8E10320C0E3032058E303208CE1032019
:1047400090E1032068E303209CE103207CE2032046
:104750007CE1032060970D0070B53C4C23788AB053
:10476000002B70D003F0DCF939493A4DFFF778FFA0
:1047700000260023374A38498DF8046001A88DF8D7
:10478000056001F09CFA98B16B79392B02D00133A6
:104790006B71EEE72B79392B04D0302201336A712B
:1047A0002B71E6E703F0BCF92C4902F0AEFFFEE7FF
:1047B0002B49284A09682B4840F6012301F07FFA6B
:1047C00020B903F0ADF9284902F09FFF03F0A8F9E2
:1047D000204B264A264D002102F0C3FF02F00AFCBE
:1047E000244B1860237873B303F09AF9224902F03E
:1047F00075FFFFF7BDFE1B4801F024FAE8B16B7AA4
:10480000DB071AD44FF4FA71642003F084FA02F043
:10481000F5FF00231348237001F04AFA03F080F9F2
:104820001649FFF71DFF4FF4FA6002F0E7FF03F0AF
:1048300077F91349FFF714FFD4E703F071F9114931
:10484000FFF70EFFDEE70AB070BD00BF6CE3032088
:1048500072970D006CDC032034E103208A970D0071
:10486000CCE303207CE30320A1970D00AB970D0060
:1048700074E3032064E3032003960D00BC970D004E
:10488000C3970D00DD970D0008B5FFF7EDFEFFF7AC
:104890008FFCFFF70BFE03F0CBF903681B69984709
:1048A000002812DD03F0C4F903685B699847C1B2C0
:1048B000084802F0A5FA0028EDD0FFF7B1FCFFF799
:1048C000F9FE6420FFF720FEE5E7BDE80840FFF7AA
:1048D00043BF00BF80E2032008B5044603F020F97F
:1048E00094F8603405462BB31A4902F018FF94F887
:1048F0006034202B03D11849284602F010FF94F8A9
:1049000060341BB31549284602F0EFFE102294F8DC
:104910006014284602F005FF1149284602F0E5FE22
:10492000102294F86914284602F0FBFE284602F093
:10493000E0FE0BE0E3790BB90A4905E094F83C345A
:104940000BB9094900E0094902F0E9FE02F06AFBEF
:10495000FCE700BFEB970D0012980D0042980D0088
:1049600053980D0057980D0074980D008F980D0006
:104970007FB5214A214C00231370214A009204F58F
:104980008C66204A8DF80430029201258DF80D3096
:104990000E226B4604F26C4130468DF80C5001F04B
:1049A00025FD30B304F23C40266001F081F9294630
:1049B000204601F0C4FB014640B1104C04F23C45D6
:1049C0002146284600F09FFF98B105E0204601F0FF
:1049D000B6FB0028F1D10CE094F83C3413F0700FD2
:1049E00007D0094B09490A481D60FFF739FE04B09A
:1049F00070BD0248FFF770FF6CE30320F8DC032072
:104A000064950D0080F0FA02CCE303209F980D001E
:104A100074E3032008B503F083F84FF4165103F054
:104A200073F84FF4FA7002F0E9FE194B012118886F
:104A300003F018FE174B0021188803F013FE03F053
:104A4000F7F84FF4165103F0EDF802F0DBFA124BD1
:104A50001860124B01221A70FFF770FBFFF76EFB14
:104A600090B1FFF76BFBFFF783FF4FF4FA7002F092
:104A7000C5FE03F055F80A4902F047FE4FF4FA70FC
:104A8000BDE8084002F0BABE02F080FCE6E700BFD5
:104A900064DC032068DC032070E303206EE3032062
:104AA000BB980D0010B5D421044603F067FE2046E4
:104AB00010BD000073B53B4D3B4C3C4E02F00AFA72
:104AC0000021012002F0F6FB284603F095FC384A4D
:104AD0003849284603F044FE374B009340F25B729E
:104AE000364B3749204600F047F9364B304A3649B5
:104AF00023602046C4F8D05003F032FE2146002344
:104B0000324A334800F062FB21460023314A3248E2
:104B100000F05CFB21460023304A314800F056FB90
:104B2000214600232F4A304800F050FB2F4801F067
:104B300081FE2F4B642183F860142E49C3F8701452
:104B4000012183F874143168002211F00105DA7133
:104B500083F83C2483F83D2483F86A24C3F878243E
:104B600083F87C2483F87D241C460AD13046FFF765
:104B7000A5FA30B12946204802F094FC3046FFF7F0
:104B8000A2FA1E481C4BC4F86C3400230372437213
:104B90004360074A1A4B1B49036002B0BDE87040EE
:104BA00003F0DEBDA0E30320A8E10320ECDC03203A
:104BB000E8DC032051410D00E1980D00C6980D007E
:104BC000D1980D007C990D00CF400D0002990D0089
:104BD00058E303201C990D0090E1032037990D0044
:104BE0009CE1032051990D007CE1032080E2032029
:104BF000F8DC032064950D00F0DC032074E303204F
:104C000070950D00CD400D0002F064B902F062B95C
:104C100008B5D0F8D00003681B6B9847003018BF68
:104C2000012008BDF8B506460F461446C4B1D6F8B3
:104C3000D00003681B6B984708B90020F8BDD6F870
:104C4000D000FA2C03682546A8BFFA25DB682A465F
:104C50003946984780B2241A8542A4B2E6D0ECE7E0
:104C60000120F8BD2DE9F8430646884691461F46C7
:104C70001D460024D6F8D00003681B6B9847D0B1BE
:104C8000002D18DBD6F8D00003681B69984760B187
:104C9000D6F8D00003685B69984708F8040001342F
:104CA000A4B24C4507D03D46ECE70A3D0A202DB2A0
:104CB00002F0A4FDDEE72046BDE8F88370B50446A7
:104CC00000F1220596220021284604F014FB6168B9
:104CD000284604F085FBD4F8D000228903682946D1
:104CE0005E6A0023B047003018BF012070BD10B5C8
:104CF0000446D0F8D00003681B6B984720B1D4F865
:104D0000D0000368DB6A9847012010BD70B50368C6
:104D10009B6804469847C8B9204600F0FEF9042570
:104D200070B1013D15F0FF050AD0204600F0B8F83B
:104D300041F2883002F062FD204600F0EEF9EFE724
:104D4000236820469B68BDE87040184770BD02F09C
:104D5000C1B870B5044608460E4604F049FB03127C
:104D60002370607085B202342A463146204604F032
:104D700047FB601970BD000030B50361039B0D4D0A
:104D8000028143610C4A056000234160C260C0F8A3
:104D9000BC30C0F8C030C0F8C430C0F8C830C0F86B
:104DA000CC308361C36180F8203080F82130A0F8D6
:104DB000B83030BDA0990D00F1990D002DE9F74FE5
:104DC0000FFA83FA036801929D6901225346064651
:104DD0000C46A847C0B2012801D0002034E0651C71
:104DE00004F1050B80464FF0000933689B690122EE
:104DF0001F46294653463046B847C0B20128ECD179
:104E000015F8013B03F07F025D4502FB08994FEA6C
:104E1000C818E2D01B06E8D4019B2C1B1B1B013BCE
:104E20009945336806D9019A9F69013A121B534686
:104E300092B203E09F691FFA89F253462946304631
:104E4000B847C0B2204480B203B0BDE8F08F000084
:104E5000F8B505460C4616461F463B4696222146A7
:104E60002846FFF7ABFF48B12378B6EB131F05D0F8
:104E700002F056FE024902F048FCEEE7F8BD00BF22
:104E8000F2990D000231C9B209299ABF024B53F8B9
:104E900021000248704700BFBC990D00039A0D0025
:104EA00010B5E02380F82230002380F82330036817
:104EB00004465B69022200F12201984723682046DC
:104EC0001B69BDE8104018472DE9F84304460D461C
:104ED0004FF000084FF0C00900F12207D5B1236858
:104EE00084F8229084F823805B69022239462046A8
:104EF0009847064610B9013DEDB2EFE74FF4FA735B
:104F00000D2239462046FFF7A3FF94F82230D02B1C
:104F1000F1D100E02E463046BDE8F88338B50446AE
:104F20000846102300F8023B0D462949FFF711FF00
:104F30000423037002234370A369ABB11B789BB1B8
:104F40000623437094F82030012B01D10E2302E098
:104F5000022B01D11E23437094F82130012B02BF94
:104F6000437843F02003437023691B781BB14378D7
:104F700063F07F03437063691B781BB1437843F090
:104F800040034370012383702C23C370E1680B78C6
:104F90001BB10430FFF7DDFE02E003714371063000
:104FA000A16931B10B7823B1FFF7D3FEE169FFF7B7
:104FB000D0FE21690B780BB1FFF7CBFE61690B784E
:104FC0000BB1FFF7C6FE401BC0B2831E6B7038BD2D
:104FD000119A0D002DE9F843054610460E469146FC
:104FE0001F4604F005FA9DF82480BDF8204080B2E9
:104FF000B8F1000F01D1831C00E0031D4FEA480205
:1050000030469BB242F03002234400F8012B9BB2A1
:1050100003F07F02DB0918BF42F0800200F8012B89
:10502000002BF5D14946FFF794FE0346B8F1000F77
:105030000CD0B5F8B820120A0270B5F8B82042704A
:10504000B5F8B82001320233A5F8B8202246394617
:10505000184604F035F92044801B80B2BDE8F8837F
:1050600073B59DF8186000F1220504468DE84800EC
:1050700013460A462946FFF7ADFF236802465B69DF
:1050800029462046984708B9002017E0B6B14FF4EA
:10509000FA73962229462046FFF790FE0428F3D1A2
:1050A00094F822301B11042BEED1A38CB4F8B80075
:1050B0005BBA01339BB2C31A5842584102B070BD6B
:1050C000F7B5054610461F460E46144604F090F903
:1050D000009783B2224631462846FFF7C1FF03B04E
:1050E000F0BD38B51D4682230B700C46B0F8B810E1
:1050F000090AA170B0F8B830E370B0F8B810013107
:10510000A0F8B8101146201DFFF723FE00F8015B40
:10511000001BC0B2831E637038BD2DE9F0410368E7
:10512000DB680446984718B94FF0FF30BDE8F081BE
:1051300004F1220529462046FFF7F0FE236882B2DB
:105140005B692946204698470028EDD041F27073EC
:10515000962229462046FFF731FEC0B20428E3D14B
:10516000638CB3F5087FDFD194F8250010B140B20D
:10517000BDE8F08104F1B80704F1CC0857F8043F0A
:10518000FBB103263A682946137912682046FFF7D7
:10519000A8FF236882B25B69294620469847002809
:1051A000C2D04FF4FA73092229462046FFF750FE79
:1051B00038B9013E16F0FF06E4D16FF00100BDE8FA
:1051C000F0814745DAD10020BDE8F08110B580E8D4
:1051D0000600037210BD000010B592B004460B46E5
:1051E00000220B4902A88DED000B02F0FFF89DEDA7
:1051F000000B02A953EC102B07A802F0F7F8237A52
:1052000007AA94E80300FFF75BFF12B010BD00BFD0
:10521000169A0D0001F05EBE01F05CBE01F05ABEB0
:1052200010B50446243000F07BFE28B104F50C7064
:10523000BDE8104000F074BE10BD411E00F10A022E
:105240000020430843EAC01011F8013F53FA80F0F0
:105250008A42C0B2F5D170472DE9F0470378202B80
:1052600000F1010401D12046F8E7704F886005463F
:105270002C1A2E4615F8013B0BB32F2B01D1031925
:1052800017E05C2B02D10020BDE8F087A3F12204D7
:10529000E4B21D2C03D827FA04F4E407F3D403F096
:1052A000BF043C2CEFD0203B5E2BE1D9EBE72F2D48
:1052B00005D11E4613F8015B202DF8D1F9E71660E1
:1052C00003199842C0EB030809D013F8012D2E2AC8
:1052D000F7D0202AF5D0B8F1FF0FD4DC01E04FF071
:1052E0000008C1F8048001F10C0301F11702202429
:1052F00003F8014F9342FBD103461A1A13F8014BEE
:105300002E2CFAD0202CF8D0B2FA82F4640908F1DD
:10531000FF36731C07D100274FF0070E3D46BA46F3
:105320004FF0080909E0835D2E2BF4D0013EF0E731
:10533000835C202B04D1002401324245F8DB4BE092
:105340002E2B02D1B242F6D103E0222B17D07C2BB8
:1053500015D0A3F12A0CBCF1050F01D82D2B0ED1CD
:10536000A3F13A0CBCF1050F09D9A3F15B0CBCF118
:10537000020F04D9A3F1210CBCF15D0F02D9B24296
:105380000ED149E0B24247D0754521D8A3F1610C56
:10539000BCF1190F08D8203BDBB249EA07070AE045
:1053A000754515D800245F23A3F1410CBCF1190FFA
:1053B00098BF49EA0A0A05F1010C5FFA8CFC0D441A
:1053C000BCF1060F6B7301D881F80CC06546B3E7DA
:1053D000BEF10A0F17D100244B7B202B3FF453AFB3
:1053E0003CB11AEA070F18BF02270F700120BDE871
:1053F000F0870B7B0120087019447E234B73312307
:105400008B73BDE8F087B242E5DC32464FF00A0EFE
:1054100008254FF010098EE7BEF10A0FDBD03246A7
:105420004FF00A0E08254FF0100985E70101003101
:105430002DE9F84391F80C9006460D4602247E278C
:1054400001F10D086968AA6863189BB21144914282
:1054500006D012F8010B03EB431343409BB2F6E76F
:10546000B9F1030F28BF4FF0030909F10402D2B2CA
:1054700003F00F01A818013A0929D2B294BF3031C4
:105480003731914541734FEA1313F1D305EB09030B
:1054900000215F73304600F01EFB0121304600F012
:1054A000FDFA014628B97078B0FA80F04009BDE8ED
:1054B000F88303784BB1C37A1B07EED40B22404626
:1054C00003F0E4FE0028E8D102E00120BDE8F88303
:1054D0000134A4B2642CB5D1BDE8F8832DE9F04FB6
:1054E0009B460B7889B013F0700F05900E469146DD
:1054F00001D10020A0E1059B1B78002BF9D1536856
:10550000029313789B0700F08D81029B0D270C33CB
:10551000B3FBF7F70137FFB20021304600F0DBFAAA
:105520004FF0000809F10D02CDF80C8043464446C7
:105530004546CDF8108006927269079301213046E6
:10554000C2F34F1A00F0AAFA079B20B97378002B18
:1055500000F09080CDE70278E52A00D042B9002C17
:1055600008BFD046BC423CBF0134E4B222B981E05E
:10557000BC4238BF002403E0E52A01D10025DBE767
:105580002E2AFBD0C17A0F2952D13DB95106D3D56D
:10559000437B039302F01F052B4607E0013BDBB280
:1055A0009A42EBD1427B03999142E7D15A1E4FF0C8
:1055B0000D0C0CFB02FC029A6245DFD94FF0000E85
:1055C000BEF1040F5FFA8EF204D800EB4E02B2F87F
:1055D00001200CE00A2A95BF0EF1FF320EF1010204
:1055E00000EB420200EB420294BFD28892880299FB
:1055F000614503D1002A18BF00259DE7FF2ABDD8C9
:10560000D2B2A2F141011929D9F8081011F80C10F1
:1056100098BF20320CF1010AA1F1410C98BFD2B21F
:10562000BCF1190F9CBF2031C9B29142A6D1FBE059
:105630000907A3D44DB1012B7FF45BAFFFF7FDFD4C
:10564000039B83427FF455AF0FE00B22069907932B
:1056500003F01CFE079B00287FF46EAF99F8002032
:10566000D20702D50122049266E71BF4006F00F016
:10567000D1803EE71BF4007F3FF43BAF0BF0030308
:10568000013B012B3FF635AF002C08BFD046BC4292
:1056900002D3049BCBB91FE00021304600F0FEF995
:1056A00010B973785BB124E70134E4B2EFE7B36873
:1056B0001B79012BEDD81034E4B2A742E9D930466A
:1056C00000F0D2F80028F2D113E749463046FFF740
:1056D000AFFE00283FF40DAF4FEA4811304600F00E
:1056E000FAF900283FF405AF7D1EEDB22C464FF0CD
:1056F000000A4FF00F0841E00021304600F0CEF9DB
:10570000074600283FF4F5AEB26892F82430AC4268
:1057100043F0010382F824300CBF44F040022246DB
:10572000027080F80B8080F80CA009F10D00039244
:10573000FFF783FD039A787387F81AA087F81BA0F8
:1057400002F01F020D23013AD9F808E05A43002362
:105750000299914215D91EF80210042B5FFA83FCBE
:1057600003F1010013D807EB4303A3F801100D2840
:1057700002F101020346EBD1013CE4B2002CBBD1A3
:105780000EE014BF4FF0FF31002189B2E5E7BCF114
:105790000A0F94BF07EB430307EB40039980E6E74A
:1057A000736921463046C3F34F1A00F077F9074674
:1057B00000283FF49EAE2022214603F09CFD4B467C
:1057C00053F80D2F3A605A687A601A893A819B7AA9
:1057D000BB7299F8003003F018033B73184B1B6839
:1057E0002BB107F10E0107F11000984706E02123C5
:1057F0003B7428237B740823BC73FB733B8A7B8236
:105800003B83FB89FB82B26892F8243043F00103AA
:1058100082F8243000955B4652463146059800F0E8
:10582000A3F909E0012777E60EF1010EBEF10D0F95
:105830003FF482AED446C3E609B0BDE8F08F00BFA6
:10584000D0E3032001F046BB01F044BB01F042BBB2
:1058500001F040BB8378016943F00403837000F1D9
:105860001002806800F012BC2DE9F041037803F0CB
:105870002003044603F0FF050BB100262EE0426929
:10588000184B9A42F9D8FFF7E5FF06460028F4D0F6
:105890002169A06800F08FFB0746A0680522394601
:1058A000243000F064FB80460028E6D029464FF4FF
:1058B000007203F020FD0125A3681A79AA4209D9D4
:1058C0004246E919186800F0CFFE0028D5D001350E
:1058D000EDB2F1E7636903EB422363613046BDE853
:1058E000F08100BFFFFD1F0010B5044680680A4626
:1058F0002430A16900F03BFB20B1A38803F00F0323
:1059000000EB431010BD70B5047805460E4684B90F
:105910002422214603F0EFFCAE60F379102B03D074
:10592000202B06D1402300E0202301202B70A870FB
:1059300070BD002070BD2DE9F74F037804468946FD
:1059400015464BB18278D10706D50CE05A4621693D
:1059500000F037FB00283DDA637843F00203637000
:105960004FF0FF3097E01A0703D5E36962699B1A8D
:1059700007E09A0608D5A3681A896369C3EB421346
:105980009BB29D4228BF1D462E464FF0000804F1F1
:10599000100B002E35D022786369A06812F0200F1A
:1059A000C3F3080A4FEA532102D0036A19441DE0E9
:1059B00090F8058001EA0808BAF1000F10D1B8F19B
:1059C000000F0DD1002BC1D153064CBF036A236ACF
:1059D000236105E004D1237813F0700F11D1BBE7E8
:1059E0002169A06800F0E7FA08EB0001A068BAF1AD
:1059F000000F35D1B6F5007F32D3C36A994202D188
:105A00002EE0A81B47E0B6F5806F1BD322789706DF
:105A10004FEA562A06D40279C8EB0202D2B2924566
:105A200028BF924699424FEA4A2707D2A0685346B8
:105A30004A46006800F0D6FD60B98DE753449942AC
:105A400021D3F3E74A46006800F084FD002883D0A4
:105A50004FF4007763693B44B9446361F61B98E7F0
:105A60000022243000F083FA00283FF475AFCAF515
:105A70000077B74228BF374600EB0A013A4648464E
:105A800003F013FCE6E72430019100F049FA019994
:105A90000028CBD160E703B0BDE8F08F37B543698C
:105AA000C3F34315044605B169B901220DF107019D
:105AB0002046FFF740FF40B2012801D0002008E057
:105AC00063691F3300E02033A0686361303000EB6E
:105AD000451003B030BD2DE9F0410E46017807694D
:105AE0000446002939D04569B5423AD00EB906615D
:105AF00031E00B0703D5C3699E422ED807E0880624
:105B000005D5A3681B89B6EB431F26D823E0D4F83C
:105B100008E09EF806306A1E03F10900731EC240B9
:105B2000C3409A4200D84DB94A064CBFDEF8202047
:105B3000226A22611D4604F110080AE09B1AF9E767
:105B400042462169A06800F03CFA002805F1FF35C3
:105B500003DD002DF4D1666103E027610020BDE87C
:105B6000F0810120BDE8F081F8B50F46154600210F
:105B7000242204461E4603F0BEFBB868A06005F070
:105B80000F02A58000F1300152013B6AE36011442D
:105B9000CB7A1D074CD4831893F83B3003F01703DE
:105BA0002370C97A11F0180F04BF43F00803237063
:105BB0009DF81830E37006F00303012B09D0022B87
:105BC00005D0002B34D1710532D4012302E0032328
:105BD00000E00223A370A1788B0703D5237813F08C
:105BE000110F25D14BB216F4005F06F0080114BF67
:105BF0006FF07F07002719433943A170C36AA3617F
:105C000002447505B2F84410B2F84A3043EA014143
:105C100004D581B100F075FA68B909E02162D36C4E
:105C2000E36173040CD5E1692046FFF754FF38B9EE
:105C300000202070F8BDA37843F00403A370F0E7C0
:105C40000120F8BD38B5037804460BB9012038BDF2
:105C500083785A0723D50121FFF746FE054628B968
:105C6000637843F001036370002038BD0378E52BAF
:105C7000F6D023781B0744BFE369C361238C4383B9
:105C8000638C8382094B1B682BB100F1160118301D
:105C900098472B8B6B82A37823F00403A370A06832
:105CA000FFF7BEFA0028DBD0D0E700BFD0E3032027
:105CB00010B50446FFF7C6FF0023237010BDF0B5F2
:105CC00093B01F4600238DF824308DF825300378DB
:105CD000019206460C460BB100203DE00B7813F014
:105CE000700FF9D013782F2B12D1019B1A782F2A1D
:105CF00002D101330193F8E7A1681AB93046FFF7E2
:105D000002FE29E009A8FFF7FEFD0028E4D009AC57
:105D100001AA03A90198FFF79FFA0028DCD0019B94
:105D20001B789BB1002303AA21463046FFF7D6FB20
:105D30000028D1D035460FCD09AC0FC40FCD0FC40C
:105D40002B6823603046FFF7B3FFE0E73B4603AA2A
:105D500021463046FFF7C2FB13B0F0BD2DE9F047F6
:105D60000378894619070446904608D583789A0730
:105D700005D51B070BD5E169FFF7ADFE38B9637890
:105D800043F0010363704FF0FF30BDE8F0876369B3
:105D9000DB439845F3D846464FF0000A6369002E6E
:105DA00000F08180A068427912EA5325C3F3080706
:105DB0001CD1DFB9216971B104F1100200F001F9C1
:105DC0000028DCDB40F08E802046FFF743FD0028F2
:105DD00040F08880D3E7236A3BB92046FFF73AFDBD
:105DE0000028CCD02369236200E023612169A068E8
:105DF00000F0E1F8291817B9B6F5007F21D2C7F5F0
:105E00000075B54228BF354637B96369E2699342E8
:105E100034BF0122052200E00122A068243000F0F6
:105E2000A6F80028ABD038442A4649462F4403F050
:105E30003CFAB7F5007F30D1A068243000F070F84C
:105E400017E0B6F5806FA06815D30279521B730A6C
:105E5000D2B2934228BF1346C26A91424FEA432509
:105E600002D31A44914237D3A7684A46386800F0F3
:105E70006DFC90B983E7C36A994202BF4FF0FF33CC
:105E800080F824A0C362A3684A46186800F0ECFBBF
:105E900000283FF474AF4FF4007563692B446361CD
:105EA000A944761B7AE7E269934201D9E36102E0F3
:105EB0000F4B1B681BB1A37843F00403A37094F944
:105EC0000230002B02DB4046BDE8F0872046FFF79A
:105ED000B9FE0028F7D152E74FF0FF3280F824A036
:105EE000C262C1E72169A06800F065F8014683E756
:105EF000D0E3032000F0EEBF70B505460C4608461F
:105F000049B103F075FA2B68024621462846DB6842
:105F1000BDE87040184770BD00F0DCBF00F0DABF8C
:105F200070B50378DA0704461ED54368816800F12E
:105F30000C063246186800F097FB054608B90025A4
:105F400013E023789B0704D4237823F00103237004
:105F50000BE06368A068196932460144186800F0D4
:105F600083FB0028F0D1EAE70125284670BD70B513
:105F700083688B4204460E46154614D0FFF7D0FFC7
:105F800008B9002070BD6B0703D500232370A660FD
:105F900009E0636804F10C023146186800F0DAFA8F
:105FA0000028F2D1EDE72378204605F003051D43D4
:105FB00000F80C5B70BD8379406902399940084450
:105FC0007047012970B505460C46164602D84FF0B9
:105FD000FF3070BDC3699942F9D8C379202B10D125
:105FE0008169022201EBD41100F50C70FFF7BFFFAD
:105FF0000028ECD004F07F0450F8243023F07043E4
:106000000FE0102BE3D18369C1F307210222194469
:1060100000F50C70FFF7ABFF0028D8D0E4B230F8E1
:106020001430EA6993429ABF33600120002070BDAA
:10603000012938B50C46154601D8002038BDC36982
:106040009942FAD8C379202B0ED18169032201EB42
:10605000D41100F50C70FFF78AFF0028EDD004F092
:106060007F0440F824500FE0102BE6D18369C1F380
:1060700007210322194400F50C70FFF778FF002870
:10608000DBD0E4B220F81450012038BD2DE9F341F3
:10609000C4688C4205460E46904607D20C4600273F
:1060A000EB6901349C4203D9CFB9EC680127F7E7CB
:1060B000A64214D001AA21462846FFF782FF0028F5
:1060C0000DDBEDD0019B002BEAD107B1EC606FF046
:1060D000704221462846FFF7ABFF074608B9002764
:1060E0000BE016B9C8F8004007E0224631462846C2
:1060F000FFF79EFF0028F5D1F1E7384602B0BDE872
:10610000F08173B505460C4601AA21462846FFF7E3
:1061100058FF061E01DA00200FE000222146284623
:10612000FFF786FF0028F6D0EB689C429CBF04F185
:10613000FF34EC60019C002EE6D102B070BD70B55A
:10614000012304460022C3604FF0FF33C2710D46A5
:10615000A06280F82420C362C4F8340280F83022A0
:10616000C0F83832A1B104295DD811462430FFF7B8
:10617000FEFE002857D000EB051393F8AE315B0606
:1061800051D11B3500EB0515D5F80650002D4AD02E
:106190000022294604F12400FFF7E9FE002842D03E
:1061A000B0F80B30B3F5007F3DD1037C022B3AD120
:1061B000C389002B37D0417B21714B1E63710023B3
:1061C000A371092601238B4207D0013E2BD0A2796F
:1061D0005B000132DBB2A271F5E7C28A02B9426A02
:1061E0002261C6892E44A661B0F81130238106EBE6
:1061F00042012162B0F81120520102F2FF1201EBBC
:1062000062226261B0F8133003B9036AAD1A2B44FD
:10621000A57923FA05F56B1CE36140F6F4739D4202
:1062200003D80C23E371002070BD4FF6F4739D4238
:1062300085BFC36A236210232023E371012070BD50
:1062400000F048BE00F046BE00F044BE70B50E4CF3
:106250000E46154600F0CEFE2368C01A0B4B98423E
:1062600008D900F0CFFE0A4B186001F08FF800F05B
:10627000C1FE206000F0C6FE80B2801BA842D4BFE1
:106280000020012070BD00BFD4E30320A0860100E0
:1062900030E7032038B5057A04464DB9406800F070
:1062A0007DFA63682946187D02F0EDF90123237217
:1062B00038BD10B5037A04466BB143680121187DDF
:1062C00002F0E1F9FF21606800F09AFA606800F0DE
:1062D00079FA0023237210BDF8B504460D46164620
:1062E00000F090FE87B2606800F06FFAFF286072DD
:1062F00009D14FF47A7239462046FFF7A7FF0028EC
:10630000F1D055230BE0FE2801D0502307E03246A0
:106310002946606800F05EFA607230B16023204662
:106320002370FFF7C6FF0020F8BD606800F04DFA4B
:10633000606800F04AFA0120F8BD70B504460E46C8
:1063400000F060FE85B2324629462046FFF77EFF08
:1063500030B9606800F039FAFF28F4D1012070BD2F
:10636000002070BDF7B5037A019204460D460BB9C3
:10637000FFF790FF25B14FF496712046FFF7DDFF40
:1063800045F04001606800F03BFA0DF107060DF1A1
:10639000030716F80119606800F032FABE42F8D11E
:1063A000002D0CBF95218721606800F029FA6068F4
:1063B00000F00BFA0B25606800F007FA0306607224
:1063C00003D5013D15F0FF05F5D103B0F0BD70B563
:1063D00004460D46164637210022FFF7C3FF32461A
:1063E00029462046BDE87040FFF7BCBF2DE9F041CB
:1063F00000250572057085724160044690461E4670
:1064000000F000FE41460746606800F0CBF9636883
:106410004F4A1D724FF00108DA605D7483F81080F6
:106420002046FFF737FF63684146187D02F02BF9DD
:106430000A25FF216068013D00F0E2F915F0FF0533
:10644000F7D163682946187D02F01DF90A2500225C
:1064500011462046FFF786FF0128804612D0013DF5
:1064600015F0FF0501D1202357E0FD21606800F001
:10647000C7F94FF40278606800F0A7F9B8F1010895
:10648000F9D1E4E74FF4D57208212046FFF76AFFFF
:10649000052802D184F80A800FE00425606800F026
:1064A00094F9013D15F0FF056072F7D1AA2802D1D9
:1064B0000223A37201E025232FE0A37A022B0CBF55
:1064C0004FF080450025BFB22A4629212046FFF71C
:1064D0007EFF024648B14FF4FA6239462046FFF784
:1064E000B5FE0028F0D0432317E0A37A022B0ED08C
:1064F0002046FFF7DEFE6368B0683479317B727B3B
:106500005A74D8601C7219740120BDE8F0813A21D8
:106510002046FFF727FF38B1372320462370FFF7C7
:10652000C8FE0020BDE8F081606800F04EF900F080
:10653000C000C02804BF0323A372606800F045F9BF
:10654000606800F042F9606800F03FF9D0E700BFF2
:1065500090D0030038B5837A032B18BF4902154643
:106560000A4611210446FFF7FDFE10B130232370C7
:106570000BE029464FF400722046FFF7ADFE0546BA
:1065800018B12046FFF795FE03E02046FFF791FE85
:106590000025284638BD10B5837A032B0A4618BF5C
:1065A0004A0212210446FFF7DDFE30B131232046B6
:1065B0002370FFF77EFE002010BD012010BD10B536
:1065C00000220C210446FFF7CDFE30B128232046DF
:1065D0002370FFF76EFE002010BD2046FFF769FE16
:1065E000012010BDF8B5054616461F46FFF7D3FF3C
:1065F00098B10024A3B29F4206EB442108D94FF47E
:1066000000722846FFF768FE01340028F2D104E04A
:106610002846BDE8F840FFF7D2BF0020F8BD38B5E6
:1066200004461546406800F0EBF84FF40072294626
:10663000606800F0E9F8FF21606800F0E1F8FF21F0
:10664000606800F0DDF8606800F0BFF8607200F08C
:106650001F00052806D0572320462370FFF729FE88
:10666000002038BD012038BD70B5837A032B18BFD8
:10667000490215460A4618210446FFF773FE0646EE
:1066800008B132231DE02A46FE212046FFF7C7FF4E
:10669000C0B14FF4FA612046FFF74FFE054608B936
:1066A0005A230EE032460D212046FFF75BFE38B933
:1066B000606800F08AF818B92046FFF7FAFD05E097
:1066C000292323702046FFF7F4FD0025284670BDDE
:1066D00038B50D464FF4FA610446FFF72EFE10B9A7
:1066E0005B23237005E02A46FC212046FFF797FF35
:1066F00018B92046FFF7DDFD002038BD10B5837ABC
:10670000032B0A4618BF4A0219210446FFF72AFE46
:1067100030B1332320462370FFF7CBFD002010BD9E
:10672000012010BD38B54FF4FA610446FFF705FEAD
:10673000054620B1FD21606800F062F801E05623B3
:1067400023702046FFF7B5FD284638BDF8B505464D
:1067500016461F46FFF7D2FF70B10024BC4206EB7D
:106760004421284604D0FFF7B3FF28B10134F5E7F0
:10677000BDE8F840FFF7D6BF2846FFF79AFD002096
:10678000F8BD00F0A7BB00F0A5BB00F0A3BB000064
:10679000014B01221A707047D8E30320011D0068E5
:1067A00000F0B4BE10B504460175006800F084FE28
:1067B000207D012101F056FF207D0121BDE8104020
:1067C00001F061BF006800F088BEFF21006800F0A2
:1067D0000DBF000037B5084B00930025074C00683B
:1067E000257013460A46294600F006FF2378002B41
:1067F000FCD0002003B030BD91670D00D8E303202A
:10680000006800F0F3BE000037B5074B0093002589
:10681000064C0068257013462A4600F0EDFE2378EA
:10682000002BFCD003B030BD91670D00D8E30320EE
:1068300000F050BB00220221027042708280826010
:1068400002730282426102768283026280F824200F
:106850000285C26280F8302080F8382080F8392024
:10686000C26380F8482080F84920C26480F858202C
:1068700080F85920026680F8682080F86920026755
:1068800080F8782080F87920C0F8802080F888206F
:1068900080F88920C0F8902080F8982080F899200E
:1068A000C0F8A02080F8A82080F8A92080F8B910AE
:1068B00080F8BA2080F8BB2080F8BC20C0F8C02047
:1068C000C0F8C420C0F8C820C0F8CC20C0F8D02040
:1068D000C0F8D42080F8AA207047A1F14103052B0D
:1068E00002D8A1F137007047A1F16103052B94BFD5
:1068F000A1F15700A1F13000704738B50578044682
:106900002D2D08BF0134204602F0AEFC642358430D
:10691000224614F8013BA3F130010929F8D92E2BA6
:106920000BD15378303B092B07D80A2101FB030018
:106930009378303B092B98BFC0182D2D08BF4042DB
:1069400038BD000038B504460D4602F08DFC6423C6
:10695000B0FBF3F203FB1200114B2A8043432046A5
:106960000278A2F130010929044600F10100F7D9AB
:106970002E2A0BD10A490A2014F8012F303A092A8D
:1069800004D8B1FBF0F101FB0233F5E703EB83031D
:1069900001330322B3FBF2F36B6000232B7238BD8B
:1069A0008096980010B50346044653F81C2F4260A9
:1069B0005A6882601B7A0373034653F8282F0261DA
:1069C0005A6842611B7A037600F01CFB0123606366
:1069D0006370237010BD0000D0B5002304464370DF
:1069E000806802F069F90EA3D3E9002302F004FBEA
:1069F0000646A0880F4602F06FF90B46024639465C
:106A0000304602F01DF8237B1BB1024601F1004322
:106A100001E002460B4643EC102BD0BDAFF30080E3
:106A20000000000065CDCD41D0B500230446437081
:106A3000406902F041F90EA3D3E9002302F0DCFA29
:106A40000646208A0F4602F047F90B4602463946B1
:106A5000304601F0F5FF237E1BB1024601F10043F1
:106A600001E002460B4643EC102BD0BDAFF3008093
:106A70000000000065CDCD4110B583684360044639
:106A800000F0C0FA0123E0606370237010BD10B500
:106A900083684360044600F0B5FA0123E060637048
:106AA000237010BD10B504460846FFF726FFA0600E
:106AB00010BD10B50446084602F0D6FBA06010BD1C
:106AC0000023437040686422B0FBF2F302FB130022
:106AD00000F5FA6080B27047002343704368642079
:106AE000B3FBF0F3B3FBF0F200FB1230C0B270471F
:106AF00000234370436842F21070B3FBF0F0C0B261
:106B0000704700000023437043680248B3FBF0F075
:106B1000C0B2704740420F0000234370436842F206
:106B20001070B3FBF0F36420B3FBF0F200FB123003
:106B3000C0B270470023437043686420B3FBF0F396
:106B4000B3FBF0F200FB1230C0B2704710B5C3685F
:106B50008360044600F056FA01236060637023707E
:106B600010BD10B504460846FFF7C7FEE06010BD33
:106B700010B5C3688360044600F044FA01236060E6
:106B80006370237010BD10B50446084602F06CFB1C
:106B9000E06010BD10B501460446103002F020FC44
:106BA00000F030FA0123206284F8253084F8243084
:106BB00010BD102202F024BCF8B590F8A95004468C
:106BC000002D67D090F8AA10FFF787FE94F8AB105D
:106BD00002462046FFF781FE94F8A83000EB021031
:106BE000C0B283424FD1D4F8D4300133C4F8D4308A
:106BF00094F8BC3023B1D4F8CC300133C4F8CC3095
:106C000094F8B930B3B1012B2AD104F13800FFF761
:106C100033FF04F14800FFF73AFF94F8BC30FBB1B2
:106C20002046FFF7BFFE04F15800FFF78FFF04F185
:106C3000680013E004F14800FFF729FF94F8BC3026
:106C400033B12046FFF7AEFE04F17800FFF77EFF78
:106C500004F18800FFF78CFF04F19800FFF776FF3E
:106C6000D4F8C460002E00F0C580D4F8C430B06AF7
:106C7000996A02F0ABFB002840F0BC803046FFF779
:106C800089FF366BEEE7D4F8D0300133C4F8D0304A
:106C90000025AFE090F8BA202ABB00F1AA075649B8
:106CA000384602F093FB08B9012308E053493846FF
:106CB00002F08CFB10B984F8B95002E0022384F88A
:106CC000B930D4F8C030C4F8C430D4F8C460002E51
:106CD00000F090803946B06A02F078FB002880F21C
:106CE0008580336BEFE790F8B910022966D090F8F1
:106CF000AA30002B62D042EA4112013A282A5DD81C
:106D0000DFE802F01520232A31464D53575C5C5CC6
:106D10005C5C5C5C5C5C5C5C5C5C5C5C5C5C5C5CB3
:106D20005C5C5C5C151B20232A31383C400000F180
:106D3000AA014830FFF7B6FE40E0A3F1410043420C
:106D4000434129E000F11C0108E0A3F153014B424B
:106D50004B4180F8243031E000F1280104F1AA0011
:106D6000FFF7F0FD2AE0A3F157025342534180F8A8
:106D7000303023E000F1AA0158301DE000F1AA01F3
:106D8000683019E000F1AA013830FFF792FE15E0F3
:106D9000302B94BF0023012384F8BC300EE000F1B7
:106DA000AA018830FFF7EFFE08E000F1AA01983051
:106DB00002E000F1AA017830FFF7D3FED4F8C460F6
:106DC00004F1AA07B6B1D4F8C430B06A996A02F0E7
:106DD000FDFA78B9F26A94F8BA309A420ADC03D123
:106DE00039463046FFF7E5FE366BEBE702D000236D
:106DF000C4F8C4302846F8BDD89B0D00DE9B0D00BA
:106E000038B5D0F8C830242903F1010304460D46F3
:106E1000C0F8C8302AD090F8BB3004D80A290CD06A
:106E20000D2932D109E02A2907D02C292DD190F83B
:106E3000A82082F02C0280F8A8200E2B4FF0000032
:106E400005D8234483F8AA002046FFF7B5FE94F83E
:106E5000BA30013384F8BA30002384F8BB30A5F18E
:106E60002A035D425D4184F8A95038BD0020022309
:106E700084F8BB0084F8BA0084F8A80084F8B9301C
:106E800084F8A90084F8BC0038BD0D2B9FBF5A1CA4
:106E90001B1984F8BB2083F8AA5094F8A90028B9DC
:106EA00094F8A8104D4084F8A85038BD002038BD93
:106EB00000F010B808B5024B1B689B68019308BD31
:106EC0006802030008B5024B1B68DB68019308BD2C
:106ED0006802030008B5024B1B681B68019308BDDC
:106EE0002C02030008B5024B1B689B68019308BD88
:106EF0002C02030008B5024B1B68DB68019308BD38
:106F00002C02030008B5024B1B681B69019308BDE6
:106F10002C02030008B5024B1B685B69019308BD96
:106F20002C02030008B5024B1B681B68019308BDC7
:106F30003002030008B5024B1B685B69019308BD72
:106F40003002030008B5024B1B68DB69019308BDE2
:106F50003002030008B5024B1B681B6A019308BD91
:106F60003002030008B5024B1B685B6A019308BD41
:106F70003002030008B5024B1B689B6A019308BDF1
:106F80003002030008B5024B1B689B6B019308BDE0
:106F90003002030008B5024B1B68DB6B019308BD90
:106FA0003002030008B5024B1B681B6C019308BD3F
:106FB0003002030008B5024B1B685B6C019308BDEF
:106FC0003002030008B5024B1B685B69019308BDE2
:106FD0006C02030008B5024B1B685B68019308BD97
:106FE0001802030008B5024B1B68DB68019308BD5B
:106FF0001802030008B5024B1B681B69019308BD0A
:107000001802030008B5024B1B685B69019308BDB9
:107010001802030008B5024B1B689B68019308BD6A
:107020004802030008B5024B1B68DB68019308BDEA
:107030004802030008B5024B1B681B69019308BD99
:107040004802030008B5024B1B685B69019308BD49
:107050004802030008B5024B1B685B6C019308BD36
:107060004802030008B5024B1B689B6C019308BDE6
:107070004802030008B5024B1B685B69019308BD19
:107080006402030008B5024B1B681B6A019308BD2C
:107090006402030008B5024B1B689B6A019308BD9C
:1070A0006402030008B5024B1B681B68019308BD0E
:1070B0003C02030008B5024B1B68DB68019308BD66
:1070C0003C02030008B5024B1B681B69019308BD15
:1070D0003C02030008B5024B1B685B69019308BDC5
:1070E0003C02030008B5024B1B689B69019308BD75
:1070F0003C02030008B5024B1B68DB69019308BD25
:107100003C02030008B5024B1B681B6A019308BDD3
:107110003C02030008B5024B1B689B6A019308BD43
:107120003C02030008B5024B1B68DB6A019308BDF3
:107130003C02030008B5024B1B681B6A019308BDA3
:107140002802030008B5024B1B685B6A019308BD67
:107150002802030008B5024B1B689B6A019308BD17
:107160002802030008B5024B1B68DB6A019308BDC7
:107170002802030008B5024B1B681B6B019308BD76
:107180002802030008B5024B1B685B6B019308BD26
:107190002802030008B5024B1B681B6C019308BD55
:1071A0002802030008B5024B1B689B69019308BDC8
:1071B0003802030008B5024B1B68DB69019308BD68
:1071C0003802030008B5024B1B681B6A019308BD17
:1071D0003802030008B5024B1B689B6A019308BD87
:1071E0003802030008B5024B1B681B6B019308BDF6
:1071F0003802030008B5024B1B689B6B019308BD66
:107200003802030008B5024B1B681B68019308BDD8
:107210004C02030008B5024B1B685B68019308BD74
:107220004C02030008B5024B1B681B69019308BDA3
:107230004C02030008B5024B1B685B69019308BD53
:107240004C02030008B5024B1B689B69019308BD03
:107250004C02030008B5024B1B68DB69019308BDB3
:107260004C02030008B5024B1B681B6A019308BD62
:107270004C02030008B5024B1B685B6B019308BD11
:107280006002030008B5024B1B681B6D019308BD2B
:107290006002030008B5024B1B685B68019308BDE0
:1072A0002002030008B5024B1B685B69019308BD0F
:1072B0002002030008B5024B1B68DB6A019308BD7E
:1072C0002002030008B5034B1B68D3F888300193F4
:1072D00008BD00002002030008B5034B1B68D3F86B
:1072E0009430019308BD00002002030008B5024B52
:1072F0001B685B68019308BD4002030008B5024BA0
:107300001B689B68019308BD4002030008B5024B4F
:107310001B68DB68019308BD4002030008B5024BFF
:107320001B681B69019308BD4002030008B5024BAE
:107330001B685B69019308BD4002030008B5024B5E
:107340001B689B69019308BD4002030008B5024B0E
:107350001B68DB69019308BD4002030008B5024BBE
:107360001B681B6A019308BD4002030008B5024B6D
:107370001B681B6B019308BD4002030008B5024B5C
:107380001B685B6B019308BD4002030008B5024B0C
:107390001B689B68019308BD4402030008B5024BBB
:1073A0001B685B69019308BD4402030008B5024BEA
:1073B0001B68DB6A019308BD4402030008B5024B59
:1073C0001B68DB6B019308BD4402030008B5024B48
:1073D0001B681B68019308BD1C02030008B5024B23
:1073E0001B685B68019308BD1C02030008B5024BD3
:1073F0001B68DB68019308BD1C02030008B5024B43
:107400001B685B6A019308BD1C02030008B5024BB0
:107410001B68DB6B019308BD1C02030000221146B0
:107420004068FFF79BBF002211464068FFF7A6BFE8
:1074300000224068FFF79ABF002281F001014068F6
:10744000FFF784BF00231A4619464068FFF776BF4E
:1074500000231A4619464068FFF768BF002211460C
:107460004068FFF75BBF002211464068FFF746BF48
:10747000002202214068FFF749BF00231A464068F6
:10748000FFF734BF024B03225A60024A1A6070476A
:10749000DCE30320109C0D000021FFF783BD0021D9
:1074A000FFF788BD10B5044601700846FFF74AFD96
:1074B00000236360204610BD10B504460078FFF736
:1074C000EBFF48B920784FF6FF71FFF72BFD2078CE
:1074D000BDE81040FFF7E3BF10BD0078FFF7DFBF46
:1074E000400830B51860002418688842E5B206D913
:1074F0000134082C02D040081860F5E70725024B3C
:107500005B5D137030BD00BF3C9C0D002DE9F04366
:1075100007468FB000780E46FFF7BEFF002862DBFB
:107520003C781422002109A801F0E5FE0B23204637
:10753000002209A9ADF82430FFF714FD9DF82D4075
:1075400054B19DF82C5035B9DDF830809DF8349059
:107550009DF8354003E00024A146A046012533797B
:1075600005B1BBB99D420BD1B268424508D18DF837
:1075700020908DF82140BDF82010B289914209D0A9
:1075800053B1002438780194009423462246012107
:10759000FFF700FD002026E08DF80F30B1680A9853
:1075A00004AB0DF10F02FFF79BFF317905B1B1B9C3
:1075B000A94208D0002438780194747B337B9DF86D
:1075C0000F200094E4E7B3684345F3D38DF820908F
:1075D0008DF82140BDF82020B3899A42EAD1049B5E
:1075E0004345E7D1D6E70FB0BDE8F08308B5007892
:1075F000FFF7A0FCC0B208BD30B587B004460A9DB5
:1076000000780095FFF7B6FC3DB902A92078FFF796
:10761000B9FC9DF81430DB07F7D407B030BD007813
:10762000FFF798BC10B50446006818B1FFF7D6FE06
:107630000023236010BD10B50446FFF7F3FF20467A
:1076400010BD000010B5094C00204FF6FF732060FC
:10765000A080A07120816381FFF71CFE2046044AB0
:107660000449BDE8104001F07BB800BFE4E303200B
:10767000E8DC032037760D0010B50446006808B139
:10768000FFF7F0FC204610BD10B5064C0023204645
:107690002360FFF7DFFC2046034A0449BDE81040A1
:1076A00001F05EB8F0E30320E8DC032079760D00FA
:1076B000F8B506460D468F180024BD420CD033683D
:1076C00015F8011B9B6830469847002801DB0444ED
:1076D000F3E7002C08BF04462046F8BD08B5FEF7C6
:1076E0000BFC08BD03689B68184708B5FEF704FC4F
:1076F00008BD38B50D210546FFF7F4FF0A21044601
:107700002846FFF7EFFF204438BD38B50546FEF7A1
:10771000F3FB04462846FFF7ECFF204438BDFFF793
:10772000F4BF30B58BB00B4600218DF82410012A30
:1077300098BF0A220DF12304B3FBF2F505FB1233C7
:1077400003F0FF03092B94BF30333733DBB22146FC
:1077500004F801392B46002DEED1FEF7CDFB0BB01E
:1077600030BD0CB42DE9F04387B000AF07F1380409
:10777000054654F8049B3C600E4623464A461421B5
:10778000381DFFF73BFE132805D8391D2846FEF7A4
:10779000B3FB044613E000F1080323F00703E846B7
:1077A000ADEB030D411C23464A4668463C60FFF79B
:1077B00025FE69462846FEF79FFB0446C5461EB1D6
:1077C0002846FFF796FF044420461C37BD46BDE817
:1077D000F04302B070470000014B024A1A60704744
:1077E000F4E30320B79C0D00024B1A68024B1A60A9
:1077F000704700BF7CDC0320F8E303200021FFF783
:1078000051BD10B58368044613B103220146984761
:10781000204610BD10B50446FFF7F3FF204610BD0B
:107820000348044A04490023836000F099BF00BF65
:10783000FCE30320E8DC032015780D0008B50C4BB1
:1078400033B100F06DF903681B699847002809DC23
:10785000084B63B100F0ECF903681B6998470028F6
:1078600003DC08BDAFF30080F2E7AFF3008008BD92
:10787000000000000000000008B5FFF7DFFFFFF781
:10788000C1FB014B186008BD30E703200248034AE2
:107890000349121A01F009BD00F4032004F4032087
:1078A000F0A00D0007B5002300931A466FF0770192
:1078B000FFF712FD03B05DF804FB000007B5438835
:1078C0000A2B08D0502B09D1094B1B683BB103B0E0
:1078D0005DF804EB1847FFF7E5FF06E0002300938F
:1078E0001A466FF07701FFF7F7FC03B05DF804FB71
:1078F0000CE4032038B5104C104D2368AB42104BFC
:107900000CBF012200221A7002D0FFF7BFFF2560D2
:10791000FFF760FB044601F0F7FC0A4B13B1204669
:10792000AFF3008000210748FFF748FD002106481B
:10793000BDE83840FFF7C6BC00F403201E1C279AA0
:1079400010E4032000000000BD780D00704710B562
:107950001821044600F012FF204610BDF0B5037D4B
:10796000062B8DB00E4600F104074FF0000402D044
:1079700000F1080518E00CAD394605F8304D2F230D
:107980002A460A20FFF776FB284601F031FD3368CE
:107990000246DB682946304698470FE024B12E2185
:1079A0003046FFF79FFE044415F8011D0A223046B9
:1079B000FFF7B7FEBD420444F0D120460DB0F0BD44
:1079C00010B5054B0446112240F8043B002101F09C
:1079D00092FC204610BD00BF489D0D000346074A9B
:1079E00010B543F8042B01F1100251F8044B43F891
:1079F000044B9142F9D10A781A7010BD489D0D00D0
:107A0000037D042B01D1406808E0062B0AD14368AE
:107A100053B9836843B9C36833B90069003018BFEC
:107A200001207047002070470120704710B59DF875
:107A3000084044EA032343EA024242EA0161042384
:107A40004160037510BD37B50D788B784A78C978D9
:107A500000912946FFF7EAFF03B030BD417470473B
:107A6000704708B50021007CFFF7ECFB30EA2000EE
:107A700028BF4FF0FF3008BD08B50121007CFFF79B
:107A8000E1FB30EA200028BF4FF0FF3008BD08B509
:107A9000007CFFF7CFFB20EAE07008BD08B5007C52
:107AA000FFF7C0FB20EAE07008BD007CFFF7DABBFF
:107AB00010B51421044600F061FE204610BD38B513
:107AC0000446007C0D46FFF7B5FB002801DC607C16
:107AD00028B12946207CFFF7BDFB20EAE07038BDC5
:107AE00010B50446002363604FF47A73A360054B1E
:107AF000236001230846217463741146FFF782FB5B
:107B0000204610BD5C9D0D000022007CFFF782BB6B
:107B100010B514220446002101F0EDFB204610BDF3
:107B200030B50E4D87B001A8FFF7F2FF296811F0BC
:107B3000010410D12846FCF7C1FA60B101AA214620
:107B40000748FFF7CDFF2846FCF7BDFA054A06496E
:107B5000034800F005FE024807B030BD14E40320DE
:107B600018E40320E8DC0320617A0D0070474174BB
:107B7000704708B5007CFFF7CDFA20EAE07008BD39
:107B800008B5007CFFF79EFA20EAE07008BD08B552
:107B9000007CFFF7A7FA30EA200028BF4FF0FF3043
:107BA00008BD08B5007CFFF795FA30EA200028BF31
:107BB0004FF0FF3008BD007CFFF79CBA10B51421D0
:107BC000044600F0DBFD204610BD70B5457C044640
:107BD0000E4625B9007CFFF79DFA002805DD3146E9
:107BE000207CBDE87040FFF765BA284670BD0000F4
:107BF00010B5044608461146002262604FF47A72BE
:107C0000A260054A22600122207462741A46FFF7BE
:107C100049FA204610BD00BF8C9D0D000023007C5A
:107C2000FFF780BA0022FFF7F9BF007CFFF76ABABE
:107C300038B50C4D296811F0010411D12846FCF724
:107C40003DFA68B1084A094B09482146FFF7D0FFC1
:107C50002846FCF738FA074A0749054800F080FD36
:107C6000034838BDC4E40320C8E4032040E40320F3
:107C70002CE40320E8DC03206D7B0D007047F8B591
:107C8000064615460C468F18BC4206D0336814F8D9
:107C9000011B9B6830469847F6E72846F8BD00224E
:107CA000007CFFF747BA0021007CFFF74BBA0021A8
:107CB000007CFFF74FBA0021007CFFF753BA002188
:107CC000007CFFF757BA10B51421044600F056FDAA
:107CD000204610BD10B50446002363604FF47A734C
:107CE000A360044B2174084623601146FFF752FA43
:107CF000204610BDBC9D0D000021007CFFF742BA5C
:107D000010B5044630B101F027FB90FBF4F303FB00
:107D1000140010BD10BD884210B5044604DA081ADC
:107D2000FFF7EEFF204410BD10BD00221146406851
:107D3000FFF714BB002211464068FFF71FBB00226B
:107D40004068FFF713BB002281F001014068FFF794
:107D5000FDBA00231A4601214068FFF7EFBA00235D
:107D60001A4619464068FFF7E1BA002211464068FA
:107D7000FFF7D4BA002211464068FFF7BFBA0022CD
:107D800002214068FFF7C2BA00231A464068FFF795
:107D9000ADBA38B5054688B104684CB1A3681BB1CB
:107DA00003222146204698471021204600F0E6FC99
:107DB00028461421BDE8384000F0E0BC38BD10B1C1
:107DC00003685B681847704710B503680446BBB189
:107DD0005868FFF71FF978B923685A7C12B95868B8
:107DE000FFF728F923685868FFF72CF9206800236B
:107DF000236028B1FFF7CDFF206808B1FFF7C9FF66
:107E0000204610BD38B50446D0F8C40108B1FCF7CF
:107E100048F9D4F8C00108B1FFF724F9D4F8BC51EF
:107E200035B12846FFF7D0FF0421284600F0A6FC14
:107E3000206808B1FFF7C3FF204638BD10B5044BDA
:107E4000044640F8083BFFF7DDFF204610BD00BFA9
:107E5000E49D0D0038B50E4C0E4B23600025022327
:107E600004F5E4706360A560C4F8C451C4F8C85157
:107E7000FFF7F0F8084BC4F8CC5184F8D0512360D8
:107E80002046064A0649BDE8384000F069BC00BFFC
:107E90004CE50320CC9E0D00E49D0D00E8DC0320A2
:107EA0003D7E0D0037B502AC036804F8011DDD6BA3
:107EB00001224FF0FF332146A84703B030BD10B474
:107EC0000368DC6B4FF0FF33A4465DF8044B60475A
:107ED00037B502AC036804F8011DDD6B214613467B
:107EE0000122A84703B030BD704738B543691A680E
:107EF000002A044605DAB3F88620B3F884309A42A3
:107F000001D001250BE003681B699847002814BFC6
:107F10000125002503D123682046DB6A98472846BF
:107F200038BD43691868C043C00F704770470020D0
:107F3000704710B51421044600F020FC204610BD07
:107F4000FCF7ADB87FB5164600224260029203925C
:107F50005A1C04460D4608D04FF47A72B3FBF2F176
:107F6000029102FB11314A43039260690823009396
:107F700041F205026B4440F6FF710068FFF712F909
:107F8000002808DB60690023324629460068FFF7B5
:107F900029F9002804DAFFF739FA03686360002042
:107FA00004B070BD10B5036804469B689847A36889
:107FB000013BA3602BB923682046DB68BDE8104075
:107FC000184710BD70B504464D69054B44F8043B95
:107FD0008C3506460FCD0FC42B682370304670BD1C
:107FE000489D0D0010B54369B3F88620B3F884307E
:107FF0009A42044605D06269B2F884301344187975
:1080000010BD03681B6998470028F4D14FF0FF307A
:1080100010BD10B54369B3F88620B3F884309A4296
:10802000044608D06269B2F88430591C1344A2F89F
:108030008410187910BD03681B6998470028F1D196
:108040004FF0FF3010BDF8B543691746B3F88620EE
:10805000B3F884309A4205460E4606D103681B6980
:10806000984710B94FF0FF3414E06969B1F88430D3
:10807000B1F88640E41ABC4228BF3C461944224667
:108080000431304601F011F96A69B2F884302344B2
:10809000A2F884302046F8BD2DE9F04398460368E5
:1080A00093B0DB6A0D4606461746984712AB00248C
:1080B00043F8484D224621462846FEF703FF8146F5
:1080C00000283DD1009B002B56D05B69002B53D07C
:1080D00006A8FFF775FC009B5C696378022B01D151
:1080E000211D13E00A2B14D11122494601A801F0E9
:1080F00002F9A36833BBE36823BB4FF6FF70256921
:10810000FEF7C0FF85421DD104F1140106A8FFF758
:108110009AFC06A8FFF774FC00282DD0336807AD41
:10812000D3F82090184B0C930FCD0DAC0FC42B68D7
:1081300023703A4643460CA93046C84781461BE0A7
:10814000A14619E004F1080301AD18341868596814
:108150002A4603C20833A3421546F7D1062301A9D4
:108160000CA80DAD8DF81430FFF738FC0FCD07AC1F
:108170000FC42B682370CCE70098FEF79BFE48469F
:1081800013B0BDE8F08300BF489D0D004269002395
:10819000A2F884304269A2F8863070472DE9F04198
:1081A0001E4603680C468AB0DB6A054617469847A8
:1081B000237DD5F81480042B0CBF02200A20062250
:1081C0000121FFF717F8C8F800006B691B68002B46
:1081D00018DB2846FFF7DAFFD6B1002303A9F0B277
:1081E0000393ADF81030FEF7EDFE58B96869062329
:1081F000009341F20B0203AB40F6FF710068FEF7FB
:10820000D1FF28B12B682846DB6A002498473BE061
:108210001C263246002103A801F06DF8237D8DF85D
:108220000C60042B0CD1022338468DF80D30FEF77C
:1082300031FFADF80E006068FEF724FF049013E0F4
:108240000A2338468DF80D30FEF724FF05AEADF851
:108250000E00231D04F1140718685968324603C242
:108260000833BB421646F7D16B691C2203A9186874
:10827000FEF7A8FF0028C5D104340FCC6D698C35FA
:108280000FC523682B70012420460AB0BDE8F08199
:1082900010B5436904461868002801DBFEF78AFF21
:1082A00063694FF0FF321A606069112200218C303F
:1082B00001F021F82046BDE81040FFF767BF00003D
:1082C00030B54269B2F886308BB004461BB1B2F8C3
:1082D00084209A4240D06369186800283FDBB3F8D5
:1082E00086507F2D3BD8191DC5F1800208232944F3
:1082F000FEF770FF00280CDD6369B3F886200AB929
:10830000A3F884206269B2F886301844A2F8860087
:1083100025E0FFF77BF803680B2B20D0FFF776F8FA
:1083200003680B2B1BD02023002502930395FFF736
:108330006DF8036801930E4B009302AA2B460D497A
:108340003220FEF79FFF63691868FEF733FF636909
:108350004FF0FF321A6002E0FFF718FFBBE76269D7
:10836000B2F88630B2F88400181A0BB030BD00BFE6
:108370007F9E0D00789E0D0010B50023044601601D
:10838000A0F88430A0F886308830FFF719FB20462B
:1083900010BD00004FF47A7270B500238260144A59
:1083A00043600260436183610446A0200E46FBF7F0
:1083B00074FE054610B13146FFF7DEFF1420FBF7CF
:1083C0006CFE034628B1012242608260094A0260C5
:1083D0000561A0696561A36128B14368013B436001
:1083E0000BB9FFF7DFFD2046FFF7D0FE204670BD3A
:1083F000349E0D00189E0D0010B54FF0FF3104465D
:10840000FFF7C8FF204610BD10B5044600680028DD
:1084100001DBFEF7CFFE204610BD10B504692046F3
:10842000FFF7F2FF24B12046BDE81040FBF737BE4E
:1084300010BD002211464068FEF770BF00221146B1
:108440004068FEF78BBF002211464068FEF796BFDA
:1084500000224068FEF78ABF002281F001014068D7
:10846000FEF774BF00231A4619464068FEF766BF40
:1084700000231A4619464068FEF758BF00221146ED
:108480004068FEF73BBF002202214068FEF73EBF76
:1084900000231A464068FEF729BF0000024B042261
:1084A0005A60024A1A60704720E70320989E0D0028
:1084B00000231A464068FEF719BF002202214068D7
:1084C000FEF724BF002211464068FEF717BF0022C6
:1084D00011464068FEF722BF00231A46194640683D
:1084E000FEF724BF00231A4619464068FEF726BF50
:1084F000002281F001014068FEF728BF0022406899
:10850000FEF734BF002211464068FEF737BF002255
:1085100011464068FEF722BF2DE9F043002495B0D4
:1085200016460D460746FFF74BFA214620220CA8B7
:10853000009400F0E0FE40230C9321466B460CAA09
:108540003046FEF7BFFC0446002844D10246012114
:108550006868FEF7E3FE0221804622466868FEF75F
:10856000DDFE009E81462146002E34D0002932D106
:108570007368022B02D00A2B09D02AE0B8F1000F51
:1085800027D0716938460431FFF75DFA20E0B9F170
:10859000000F1ED07469112201A800F0ACFE062362
:1085A0008DF8143001AD04F10803183418685968C7
:1085B0002A4603C20833A3421546F7D101A906A8EB
:1085C00007ADFFF70BFA0FCD3C1D0FC42B682370CE
:1085D0000121F669C8E70098FEF76CFC384615B033
:1085E000BDE8F083024B034A1A6000225A607047CC
:1085F00028E70320CC9E0D0070B5184E316811F0AD
:10860000010504460AD13046FBF758FD30B1294632
:108610001348FEF747FF3046FBF755FD1048FEF7BD
:10862000FEFF28B1A4F10B03022B01D8002070BD7E
:1086300000F070F8FFF760FB08B1012CF6D9FFF7E6
:10864000F7FAFFF7F2FA18B1A4F10903012BEDD9FB
:10865000232C8CBF0020012070BD00BFECDC032068
:10866000F0DC0320232838B504460D460AD8FF293C
:1086700008D0FFF7C1FF28B129462046BDE83840A1
:10868000FEF730BC38BD38B504460D46FEF732FC67
:10869000FF2810D0062804D84D2323FA00F0C30782
:1086A00009D42046FFF7A8FF28B129462046BDE897
:1086B0003840FEF727BC38BD10B50446FEF71AFC5B
:1086C0000438C0B2012808D92046FFF795FF20B131
:1086D0002046BDE81040FEF71DBC002010BD000084
:1086E00070B5044614252A46094E002100F003FE09
:1086F000258020253146A5602561284600F040F8F8
:1087000031466060284600F03BF8E060204670BDCE
:10871000F89E0D0030B50E4D296811F0010487B0A8
:1087200013D12846FBF7CAFC78B101A8FFF7D8FFA0
:1087300001AA21460748FFF7CDFA2846FBF7C3FCFC
:10874000054A0649034800F00BF8024807B030BD5F
:1087500034E7032038E70320E8DC03207D7C0D00AC
:108760000B460146184600F083BD0000024B186816
:10877000BFF35F8F704700BF4CE70320FBF78FBC50
:1087800000F000B810B5002814BF044601242046AC
:10879000FEF71CFE20B9FFF7E9FF08B18047F6E7B6
:1087A00010BD0000184B1A68D1075CBF01221A6087
:1087B000164B1A68D2075CBF01221A60144B1A6864
:1087C000D0075CBF01221A60124B1A68D1075CBF48
:1087D00001221A60104B1A68D2075CBF01221A608E
:1087E0000E4B1A68D0075CBF01221A600C4B1A6846
:1087F000D1075CBF01221A600A4B1A68D2075CBF1E
:1088000001221A60704700BF6CE7032068E703206D
:1088100064E7032060E703205CE7032058E70320B8
:1088200054E7032050E70320244B1A68D0075CBFAD
:1088300001221A60224B1A68D1075CBF01221A601C
:10884000204B1A68D2075CBF01221A601E4B1A68BF
:10885000D0075CBF01221A601C4B1A68D1075CBFAD
:1088600001221A601A4B1A68D2075CBF01221A60F3
:10887000184B1A68D0075CBF01221A60164B1A68A1
:10888000D1075CBF01221A60144B1A68D2075CBF83
:1088900001221A60124B1A68D0075CBF01221A60CD
:1088A000104B1A68D1075CBF01221A600E4B1A6880
:1088B000D2075CBF01221A60704700BF9CE703200B
:1088C00098E7032094E7032090E703208CE7032038
:1088D00088E7032084E7032080E703207CE7032068
:1088E00078E7032074E7032070E70320244B1A681D
:1088F000D0075CBF01221A60224B1A68D1075CBF07
:1089000001221A60204B1A68D2075CBF01221A604C
:108910001E4B1A68D0075CBF01221A601C4B1A68F4
:10892000D1075CBF01221A601A4B1A68D2075CBFDC
:1089300001221A60184B1A68D0075CBF01221A6026
:10894000164B1A68D1075CBF01221A60144B1A68D3
:10895000D2075CBF01221A60124B1A68D0075CBFB5
:1089600001221A60104B1A68D1075CBF01221A60FD
:108970000E4B1A68D2075CBF01221A60704700BF15
:10898000CCE70320C8E70320C4E70320C0E70320A7
:10899000BCE70320B8E70320B4E70320B0E70320D7
:1089A000ACE70320A8E70320A4E70320A0E7032007
:1089B000184B1A68D1075CBF01221A60164B1A685F
:1089C000D2075CBF01221A60144B1A68D0075CBF43
:1089D00001221A60124B1A68D1075CBF01221A608B
:1089E000104B1A68D2075CBF01221A600E4B1A683E
:1089F000D0075CBF01221A600C4B1A68D1075CBF1C
:108A000001221A600A4B1A68D2075CBF01221A6061
:108A1000704700BFECE70320E8E70320E4E703200A
:108A2000E0E70320DCE70320D8E70320D4E70320B6
:108A3000D0E7032081F0004102E000BF83F0004353
:108A400030B54FEA41044FEA430594EA050F08BFE9
:108A500090EA020F1FBF54EA000C55EA020C7FEAAD
:108A6000645C7FEA655C00F0E2804FEA5454D4EB2A
:108A70005555B8BF6D420CDD2C4480EA020281EAF4
:108A8000030382EA000083EA010180EA020281EA2C
:108A90000303362D88BF30BD11F0004F4FEA01317E
:108AA0004FF4801C4CEA113102D0404261EB41018D
:108AB00013F0004F4FEA03334CEA133302D0524213
:108AC00063EB430394EA050F00F0A780A4F10104CF
:108AD000D5F1200E0DDB02FA0EFC22FA05F2801809
:108AE00041F1000103FA0EF2801843FA05F35941EF
:108AF0000EE0A5F120050EF1200E012A03FA0EFC6E
:108B000028BF4CF0020C43FA05F3C01851EBE37197
:108B100001F0004507D54FF0000EDCF1000C7EEBB4
:108B200000006EEB0101B1F5801F1BD3B1F5001FF2
:108B30000CD349085FEA30004FEA3C0C04F1010411
:108B40004FEA445212F5800F80F09A80BCF1004F3A
:108B500008BF5FEA500C50F1000041EB045141EABC
:108B6000050130BD5FEA4C0C404141EB010111F4BD
:108B7000801FA4F10104E9D191F0000F04BF014668
:108B80000020B1FA81F308BF2033A3F10B03B3F146
:108B900020020CDA0C3208DD02F1140CC2F10C02D6
:108BA00001FA0CF021FA02F10CE002F11402D8BF34
:108BB000C2F1200C01FA02F120FA0CFCDCBF41EA00
:108BC0000C019040E41AA2BF01EB0451294330BDCF
:108BD0006FEA04041F3C1CDA0C340EDC04F11404AC
:108BE000C4F1200220FA04F001FA02F340EA030083
:108BF00021FA04F345EA030130BDC4F10C04C4F1C9
:108C0000200220FA02F001FA04F340EA03002946A8
:108C100030BD21FA04F0294630BD94F0000F83F4F2
:108C2000801306BF81F480110134013D4EE77FEAD5
:108C3000645C18BF7FEA655C29D094EA050F08BF21
:108C400090EA020F05D054EA000C04BF1946104602
:108C500030BD91EA030F1EBF0021002030BD5FEA46
:108C6000545C05D14000494128BF41F0004130BD6E
:108C700014F580043CBF01F5801130BD01F00045C2
:108C800045F0FE4141F470014FF0000030BD7FEA35
:108C9000645C1ABF194610467FEA655C1CBF0B4630
:108CA000024650EA013406BF52EA033591EA030F47
:108CB00041F4002130BD00BF90F0000F04BF00213F
:108CC000704730B54FF4806404F132044FF0000572
:108CD0004FF0000150E700BF90F0000F04BF0021EB
:108CE000704730B54FF4806404F1320410F0004551
:108CF00048BF40424FF000013EE700BF42004FEA4C
:108D0000E2014FEA31014FEA02701FBF12F07F43C8
:108D100093F07F4F81F06051704792F0000F14BFC5
:108D200093F07F4F704730B54FF4607401F0004509
:108D300021F0004120E700BF50EA010208BF704760
:108D400030B54FF000050AE050EA010208BF704755
:108D500030B511F0004502D5404261EB41014FF4BE
:108D6000806404F132045FEA915C3FF4DCAE4FF0C2
:108D700003025FEADC0C18BF03325FEADC0C18BFA9
:108D8000033202EBDC02C2F1200300FA03FC20FAFA
:108D900002F001FA03FE40EA0E0021FA02F1144447
:108DA000C1E600BF70B54FF0FF0C4CF4E06C1CEA5C
:108DB00011541DBF1CEA135594EA0C0F95EA0C0FD1
:108DC00000F0DEF82C4481EA030621EA4C5123EA44
:108DD0004C5350EA013518BF52EA033541F4801173
:108DE00043F4801338D0A0FB02CE4FF00005E1FB26
:108DF00002E506F00042E0FB03E54FF00006E1FB70
:108E000003569CF0000F18BF4EF0010EA4F1FF04B2
:108E1000B6F5007F64F5407404D25FEA4E0E6D41F2
:108E200046EB060642EAC62141EA55514FEAC52003
:108E300040EA5E504FEACE2EB4F1FD0C88BFBCF57F
:108E4000E06F1ED8BEF1004F08BF5FEA500E50F130
:108E5000000041EB045170BD06F0004646EA0101F6
:108E600040EA020081EA0301B4EB5C04C2BFD4EB28
:108E70000C0541EA045170BD41F480114FF0000E21
:108E8000013C00F3AB8014F1360FDEBF002001F08F
:108E9000004170BDC4F10004203C35DA0C341BDC09
:108EA00004F11404C4F1200500FA05F320FA04F0DB
:108EB00001FA05F240EA020001F0004221F000410F
:108EC00010EBD37021FA04F642EB06015EEA430E82
:108ED00008BF20EAD37070BDC4F10C04C4F12005B2
:108EE00000FA04F320FA05F001FA04F240EA020065
:108EF00001F0004110EBD37041F100015EEA430E36
:108F000008BF20EAD37070BDC4F1200500FA05F255
:108F10004EEA020E20FA04F301FA05F243EA0203D4
:108F200021FA04F001F0004121FA04F220EA0200E3
:108F300000EBD3705EEA430E08BF20EAD37070BD29
:108F400094F0000F0FD101F00046400041EB010109
:108F500011F4801F08BF013CF7D041EA060195F0EB
:108F6000000F18BF704703F00046520043EB0303A5
:108F700013F4801F08BF013DF7D043EA0603704792
:108F800094EA0C0F0CEA135518BF95EA0C0F0CD09D
:108F900050EA410618BF52EA4306D1D181EA0301E3
:108FA00001F000414FF0000070BD50EA410606BFDD
:108FB0001046194652EA430619D094EA0C0F02D122
:108FC00050EA013613D195EA0C0F05D152EA033667
:108FD0001CBF104619460AD181EA030101F0004185
:108FE00041F0FE4141F470014FF0000070BD41F0CE
:108FF000FE4141F4780170BD70B54FF0FF0C4CF4A8
:10900000E06C1CEA11541DBF1CEA135594EA0C0FC6
:1090100095EA0C0F00F0A7F8A4EB050481EA030E13
:1090200052EA03354FEA013100F088804FEA0333FA
:109030004FF0805545EA131343EA12634FEA0222C8
:1090400045EA111545EA10654FEA00260EF0004189
:109050009D4208BF964244F1FD0404F5407402D2DB
:109060005B084FEA3202B61A65EB03055B084FEA6C
:1090700032024FF480104FF4002CB6EB020E75EB69
:10908000030E22BFB61A754640EA0C005B084FEA91
:109090003202B6EB020E75EB030E22BFB61A75460E
:1090A00040EA5C005B084FEA3202B6EB020E75EB59
:1090B000030E22BFB61A754640EA9C005B084FEAD1
:1090C0003202B6EB020E75EB030E22BFB61A7546DE
:1090D00040EADC0055EA060E18D04FEA051545EACD
:1090E00016754FEA06164FEAC30343EA52734FEA76
:1090F000C2025FEA1C1CC0D111F4801F0BD141EAEF
:1091000000014FF000004FF0004CB6E711F4801F53
:1091100004BF01430020B4F1FD0C88BFBCF5E06F33
:109120003FF6AFAEB5EB030C04BFB6EB020C5FEA43
:10913000500C50F1000041EB045170BD0EF0004E98
:109140004EEA113114EB5C04C2BFD4EB0C0541EACA
:10915000045170BD41F480114FF0000E013C90E6C7
:1091600045EA060E8DE60CEA135594EA0C0F08BF8B
:1091700095EA0C0F3FF43BAF94EA0C0F0AD150EA8A
:1091800001347FF434AF95EA0C0F7FF425AF10461D
:1091900019462CE795EA0C0F06D152EA03353FF445
:1091A000FDAE1046194622E750EA410618BF52EAC2
:1091B00043067FF4C5AE50EA41047FF40DAF52EA96
:1091C00043057FF4EBAE12E74FEA4102B2F1E04310
:1091D00024BFB3F5001CDCF1FE5C0DD901F0004C9E
:1091E0004FEAC0024CEA5070B2F1004F40EB8300EE
:1091F00008BF20F00100704711F0804F21D113F11A
:109200003872BCBF01F00040704741F480114FEA52
:109210005252C2F11802C2F1200C10FA0CF320FADB
:1092200002F018BF40F001004FEAC1234FEAD323F8
:1092300003FA0CFC40EA0C0023FA02F34FEA430362
:10924000CCE77FEA625307D150EA01331EBF4FF0EB
:10925000FE4040F44000704701F0004040F0FE4006
:1092600040F40000704700BF0A22002100F062B9FC
:1092700010B5054C13462CB10A4601460220AFF347
:10928000008010BD204610BD0000000010B501395F
:109290000244904207D010F8013B11F8014FA3425D
:1092A000F7D0181B10BD002010BD10B5431E0A4496
:1092B000914204D011F8014B03F8014FF8E710BDBB
:1092C000884210B501EB020301D8421E0BE0984220
:1092D000FBD28118D21AD34204D013F8014D01F801
:1092E000014DF8E710BD994204D011F8014B02F886
:1092F000014FF8E710BD02440346934202D003F841
:10930000011BFAE77047000038B5124B1C68A36BCD
:109310000546D3B91820FEF759F843F20E33A0637F
:1093200003804AF6CD33438041F2342383804EF2EA
:109330006D63C3804DF6EC630381052343810B23EA
:10934000838101220023C0E90423A36B00221D6155
:109350005A6138BDE4DC0320194B10B51C68A36BBF
:10936000D3B91820FEF732F843F20E33A06303801E
:109370004AF6CD33438041F2342383804EF26D634D
:10938000C3804DF6EC630381052343810B23838166
:1093900001220023C0E90423A16B0A4C0B69486930
:1093A000094A5C4302FB0040A3FB02230132034451
:1093B00043F10003C1E9042323F0004010BD00BFC6
:1093C000E4DC03202DF451582D7F954C10F8012B2F
:1093D00011F8013B012A28BF9A42F7D0D01A7047F2
:1093E000034611F8012B03F8012B002AF9D170472D
:1093F000034613F8012B002AFBD1181A01387047D5
:1094000010B5034642B111F8014B03F8014B013A84
:10941000002CF7D11A4400E010BD934202D003F8AB
:10942000014BFAE710BD00002DE9F04780464048A7
:10943000D0F800900F463D4615F8014B09EB0400AB
:10944000407800F0080000F0FF0608B12F46F2E770
:109450002D2C03D1BD1C7C78012603E02B2C04BFEE
:109460007C78BD1C13B1102B0AD15BE0302C57D196
:10947000287800F0DF0058284DD16C781023023591
:10948000002E14BF4FF0004C6FF0004C0027BCFBC7
:10949000F3FA384603FB1ACC09EB040E9EF801E000
:1094A0001EF0040F01D0303C0BE01EF0030E1BD069
:1094B000BEF1010F0CBF4FF0370E4FF0570ECEEB41
:1094C0000404A34210DDB7F1FF3F0AD0504506D88F
:1094D00001D1644503DC03FB0040012701E04FF0AC
:1094E000FF3715F8014BD7E77B1C0CD1002E4FF04E
:1094F000220314BF4FF000406FF00040C8F8003066
:109500002AB9BDE8F08706B1404272B107B1691EC1
:109510001160BDE8F0873024002BB1D10823AFE7FC
:109520000A23ADE7302CA3D0AAE7BDE8F08700BF3F
:1095300080DC032013460A46014602480068FFF714
:1095400073BF00BFE4DC032021400D005D400D002F
:1095500089400D008D400D0000000000000000005B
:1095600000000000D1400D000000000000000000DD
:10957000CD400D002F410D0085410D0029410D000A
:1095800064656661756C7420004D5342004C534213
:10959000003C53504953657474696E677320646569
:1095A0006661756C743E003C535049536574746930
:1095B0006E6773202573256C75202573204D4F44ED
:1095C0004525643E00436F6E6E656374696E672067
:1095D000746F204D5154542E2E2E200052657472FB
:1095E00079696E67204D51545420636F6E6E6563C8
:1095F00074696F6E20696E2035207365636F6E64C9
:10960000732E2E2E004D51545420436F6E6E6563A1
:10961000746564210044697374616E636520696ECA
:1096200020434D3A2025302E3266200A002569203D
:10963000736174656C6C6974657320696E207669FA
:109640006577202D2D2D200054696D653A20253039
:1096500032693A253032693A25303269202D2D2D74
:1096600020006C61743A2025662C206C6F6E673A7E
:109670002025662C20616C743A202566200A00257E
:109680006C75206D696C6C697365636F6E647320B3
:10969000746F206765742047505320666978006EA8
:1096A0006F206C6F636174696F6E006C65737320FB
:1096B0007468616E20313235636D00636C65617270
:1096C0000057726974696E67206461746120746FF9
:1096D00020534463617264200A004461793A202572
:1096E000692C204D6F6E74682025692C20596561A6
:1096F00072202569200A0054696D653A20253032B0
:10970000693A253032693A25303269200A006C61A5
:109710007420202566200A6C6F6E67202566200A5B
:10972000616C742025660A00536174656C6C697401
:10973000657320696E20766965773A202569200A6D
:109740000050696E67696E67204D515454200A00BD
:10975000446973636F6E6E656374696E67200A0097
:109760005075626C697368696E672044617461202A
:109770000A005374617274696E67204461746120D9
:109780004C6F6767696E67200A0043616E2774201B
:109790006372656174652066696C65206E616D65D4
:1097A0000066696C652E6F70656E004C6F67676947
:1097B0006E6720746F3A202573200A00446F6E652F
:1097C000200A00526561647920666F72206E6578A8
:1097D000742064617461206C6F67200A007772697D
:1097E0007465206572726F72200A0043616E27747F
:1097F0002061636365737320534420636172642E38
:1098000020446F206E6F74207265666F726D617494
:109810002E004E6F20636172642C2077726F6E672A
:1098200020636869702073656C6563742070696E6D
:109830002C206F72205350492070726F626C656DDE
:109840003F005344206572726F72436F64653A2023
:109850003058002C305800496E76616C696420667F
:109860006F726D61742C207265666F726D61742009
:1098700053442E0043616E2774206F70656E207212
:109880006F6F74206469726563746F72792E004E15
:109890006F206572726F7220666F756E642E005451
:1098A000696D655374616D702C2052616E646F6DCB
:1098B0002044617461202569200A00617474656D1B
:1098C0007074203139004C65655F4162657974615F
:1098D00000696F2E61646166727569742E636F6DC5
:1098E0000061696F5F61537664373034326D49646B
:1098F00041626A614D6F686D546D637533714E38A6
:1099000039004C65655F4162657974612F666565F4
:1099100064732F4C61746974756465004C65655F90
:109920004162657974612F66656564732F4C6F6E53
:10993000676974756465004C65655F41626579743B
:10994000612F66656564732F416C74697475646515
:10995000004C65655F4162657974612F6665656479
:10996000732F44697374616E636520696E20434D83
:10997000000000000000000000000000CF400D00CB
:10998000A54A0D00114C0D00BD4C0D00EF4C0D0013
:10999000254C0D00654C0D0000000000000000008B
:1099A0000000000000000000A9400D00A9400D00CB
:1099B000A9400D00A9400D00A9400D001F9A0D00FF
:1099C000339A0D00039A0D00459A0D008A9A0D00F6
:1099D000CF9A0D00EF9A0D00229B0D003C9B0D00CD
:1099E000739B0D00205B30780030005D2C20000A56
:1099F000090044726F707065642061207061636B50
:109A0000657400556E6B6E6F776E206572726F7243
:109A1000004D51545400252525642E2564660046CA
:109A200061696C656420746F207375627363726919
:109A3000626500436F6E6E656374696F6E20666168
:109A4000696C6564005468652053657276657220A0
:109A5000646F6573206E6F7420737570706F7274AD
:109A600020746865206C6576656C206F662074686C
:109A700065204D5154542070726F746F636F6C2069
:109A80007265717565737465640054686520436C14
:109A900069656E74206964656E74696669657220B3
:109AA000697320636F7272656374205554462D3854
:109AB00020627574206E6F7420616C6C6F776564C2
:109AC000206279207468652053657276657200544F
:109AD0006865204D51545420736572766963652022
