:02000002D0002C
:1040000000400D0030A20D00000006000C0005016C
:084010000401E80500000000B6
:04401800D0950D0032
:1040200009480A49884208B505D0094A824202D0A7
:10403000121A05F07EF90748074A0021121A05F006
:104040009EF9014808BD00BF98DB032084A10D0044
:104050001CDC03201CDC0320F0E7032070B503F018
:104060008DFC074C074BE41AA40800251E46A54208
:1040700004D056F8253098470135F8E770BD00BFE9
:1040800078A10D00F0A00D0000F0B0BC08B500F064
:10409000E9FBBDE8084003F033BC03F0E3B903F0EB
:1040A000E9B903F0E7B9000008B5034A00210C2084
:1040B00003F03CF9FEE700BF8D700D000078B0FA08
:1040C00080F04009704701230370704770477047C4
:1040D0007FB5024608461379956833B13DB90C495E
:1040E00004B0BDE8704003F045BB0A4B00E00A4B4A
:1040F000167B0A4C0A49527B0292012E08BF2146C8
:1041000001910095074A002103F077FB04B070BDD0
:1041100019960D00B59A0D0008960D0011960D0028
:1041200015960D002F960D00083001F0F1BA10B56C
:104130002C21044604F066FB204610BD38B5846986
:104140000A4B036005467CB16368013B63605BB961
:10415000236820469B689847A368013BA3601BB96E
:1041600023682046DB689847284638BDC89E0D0066
:1041700007B502AB012203F8011D0830194601F012
:10418000C7FA03B05DF804FB10B50446FFF7D6FF8D
:1041900020461C2104F036FB204610BD38B51748D8
:1041A00002F0D8FB40BB03F0FFFC154903F0E2FA34
:1041B000124802F054FE0446B8B103F0F5FC214663
:1041C00005460E4802F000FD0146284603F0E9FAD4
:1041D00003F0EAFC0B4903F0E4FA084802F002FDA0
:1041E00041F2883003F056FBE2E703F0DDFC0649BC
:1041F000BDE8384003F0D5BA38BD00BFDCE003208D
:104200004D960D0064960D008D960D002DE9F04F32
:104210007B4CA9B002F04AFF2368C01A41F28733F1
:10422000984240F2E98002F041FF206003F0BCFCBC
:10423000744C05460A22217803F0BFFA284603F0A1
:10424000A4FA03F0B1FC23780646254623B102F018
:104250002DFF616B411A01E04FF0FF310A22304619
:1042600003F0ABFA304603F090FA2B78654CDFF898
:104270009CA13BB102F01AFF636BC01A42F20F73AC
:10428000984210D9604908A805F0EEF89AF8003075
:10429000002B40F0B1805D4B01221A7002F006FF46
:1042A0005B4B1860A8E0204602F0AAF851EC100B16
:1042B00004F0CEFFDFF89091DFF89081C9F800009C
:1042C000204602F0C5F851EC100B04F0C1FF0025A8
:1042D00084F87950C8F80000D4F880004D4FDFF81A
:1042E00070B14D4E04F03CFD4C4B002204F0C8FE72
:1042F00004F0AEFF386004F1480002F017F9484AB4
:104300000792107004F1480002F01AF98BF80000CF
:1043100004F1480002F022F984F89950414DD4F894
:10432000A030307004F138002B7002F0F5F804F181
:10433000380002F0E5F83C4B187004F1380002F048
:10434000D3F83A4B079A18701378072B144601D903
:10435000063B00E01233237003F026FC344A07903A
:10436000106804F00FFD079B324ACDE900010021DF
:10437000184603F042FA03F017FC2B782E4A00216E
:1043800003F03BFA03F010FC3278237801929BF89B
:10439000002000920021294A03F02FFA03F004FCC8
:1043A0000446386804F0EEFCCDE90401D8F80000BA
:1043B00004F0E8FCCDE90201D9F8000004F0E2FCC9
:1043C0001F4ACDE900010021204603F016FA9AF8B1
:1043D00000308BB10D4B00221A7002F067FE0C4BBF
:1043E0001C68041B03F0E0FB164A2346012129B098
:1043F000BDE8F04F03F001BA29B0BDE8F08F00BF6F
:10440000C4E30320B4E1032027970D009CE30320BD
:104410006CE3032060E30320C8E30320000059405D
:10442000BCE00320C9E30320BEE00320BCE303207B
:10443000B0E103209D960D00B5960D00D0960D00BD
:10444000EA960D0007970D00C0E30320C0E00320AB
:1044500065E3032070B5054614460E4602F026FEBD
:10446000ADB20444284604F06BF9B04203D002F028
:104470001DFEA042F6D370BD10B584B201212046C6
:1044800004F045F90A2002F001FE20460021BDE8B3
:10449000104004F03CB9000038B5124B124D1868BA
:1044A000FFF7EAFF642201212868FFF7D3FF02F03B
:1044B000F5FD6422044600212868FFF7CBFF02F0D7
:1044C000EDFD001B07EE900ADFED086A084BF8EEE1
:1044D000E77A642087EEA67A83ED007ABDE838405B
:1044E00003F0D8B998DB03209CDB0320000068426E
:1044F000B0E1032010B507EE900A134B134CB8EE51
:10450000E77AD3ED007A2378B4EEE77AF1EE10FA89
:104510000CDD9BB903F048FB0D4903F042F90D4A4D
:10452000137883F001031370012306E033B103F025
:104530003BFB094903F01EF9002323704FF47A7006
:10454000BDE8104003F0A6B9B0E10320BDE00320B0
:1045500033970D0064E3032043970D000A460021C2
:1045600003F04BB908B502F0A1FD02F09FFD0C4B22
:10457000984213D903F018FB0A49FFF7EFFF012116
:10458000094802F043FB48B903F00EFB0749FFF767
:10459000E5FF0548BDE8084002F024BB08BD00BFA8
:1045A000C0D4010049970D00DCE0032058970D00AE
:1045B00008B5194802F04CFA60B3184B186804F0BB
:1045C000E1FB41EC100B0221154802F0A7FC154B52
:1045D000186804F0D7FB41EC100B0221124802F0DE
:1045E0009DFC124B186804F0CDFB41EC100B02212E
:1045F0000F4802F093FC0F4B186804F0C3FB41EC2A
:10460000100B02210C4802F089FC03F0CDFA0B4993
:10461000FFF7A4FF08BD00BFDCE00320C0E30320D8
:1046200054E30320C0E00320C4E0032060E3032040
:10463000D0E00320B0E10320B0E0032068970D0034
:1046400010B586B003F0B0FA2749284C03F092F871
:10465000274A284B12781B780192274A1278009239
:104660000021264A204603F0C8F8254A254B127837
:104670001B780192244A127800920021234A204696
:1046800003F0BBF8224B186804F07CFBCDE9040171
:10469000204B186804F076FBCDE902011E4B186828
:1046A00004F070FB1D4ACDE900010021204603F013
:1046B000A4F81B4B1B4A1B780021204603F09DF8F1
:1046C0001949204603F06DF8184B186804F05AFB9E
:1046D000174ACDE900010021204603F08EF806B00C
:1046E000BDE81040FFF764BF7A970D0070E3032028
:1046F000BCE30320BDE30320BEE0032093970D003D
:10470000C8E30320BCE0032065E30320B0970D005D
:1047100060E30320C0E00320C0E30320C7970D003F
:10472000C9E30320E1970D00B59A0D00B0E1032025
:104730009D960D0070B53C4C23788AB0002B70D04C
:1047400003F032FA39493A4DFFF708FF00260023FB
:10475000374A38498DF8046001A88DF8056000F0EB
:1047600088FF98B16B79392B02D001336B71EEE77A
:104770002B79392B04D0302201336A712B71E6E793
:1047800003F012FA2C4903F00CF8FEE72B49284AF3
:1047900009682B4840F6012300F06BFF20B903F0B5
:1047A00003FA284902F0FDFF03F0FEF9204B264AE8
:1047B000264D002103F021F802F070FC244B186014
:1047C000237873B303F0F0F9224902F0D3FFFFF727
:1047D00037FF1B4800F010FFE8B16B7ADB071AD4F3
:1047E0004FF4FA71642003F0DAFA03F053F800236F
:1047F0001348237000F036FF03F0D6F91649FFF78F
:10480000ADFE4FF4FA6003F045F803F0CDF913491B
:10481000FFF7A4FED4E703F0C7F91149FFF79EFEA6
:10482000DEE70AB070BD00BF64E30320FA970D0015
:10483000A0DB032068E0032012980D00CCE30320E6
:1048400078E3032029980D0033980D0070E30320CE
:1048500068E303208B960D0044980D004B980D00E3
:1048600065980D0008B5FFF77DFEFFF797FCFFF791
:1048700013FE03F021FA03681B699847002810DD36
:1048800003F01AFA03685B699847C1B2074802F05F
:1048900007F80028EDD0FFF7B9FC6420FFF72AFEE7
:1048A000E7E7BDE80840FFF745BF00BFB4E10320DC
:1048B00008B5044603F078F994F8603405462BB344
:1048C0001A4902F078FF94F86034202B03D118497C
:1048D000284602F070FF94F860341BB3154928464F
:1048E00002F04FFF102294F86014284602F065FF92
:1048F0001149284602F045FF102294F86914284611
:1049000002F05BFF284602F040FF0BE0E3790BB9B1
:104910000A4905E094F83C340BB9094900E009491B
:1049200002F049FF02F0D2FBFCE700BF73980D00D4
:104930009A980D00CA980D00DB980D00DF980D00C5
:10494000FC980D0017990D007FB5214A214C0023DA
:104950001370214A009204F58C66204A8DF80430C9
:10496000029201258DF80D300E226B4604F26C4147
:1049700030468DF80C5001F013FA30B304F23C408D
:10498000266000F06FFE2946204601F0B2F801468D
:1049900040B1104C04F23C452146284600F08DFC05
:1049A00098B105E0204601F0A4F80028F1D10CE010
:1049B00094F83C3413F0700F07D0094B09490A48AA
:1049C0001D60FFF7CBFD04B070BD0248FFF770FF1C
:1049D00064E303202CDC0320EC950D0080F0FA0248
:1049E000CCE3032027990D0070E3032008B503F002
:1049F000DBF84FF4165103F0CBF84FF4FA7002F0E5
:104A000049FF144B0121188803F070FE124B00215E
:104A1000188803F06BFE03F04FF94FF4165103F0C2
:104A200045F902F043FB0D4B18600D4B01221A7043
:104A3000FFF78AFF4FF4FA7002F02CFF03F0B4F88E
:104A4000084902F0AEFE4FF4FA70BDE8084002F0EB
:104A500021BF00BF98DB03209CDB03206CE3032015
:104A60009CE3032043990D0010B5D421044603F0C4
:104A7000C9FE204610BD000073B53B4D3B4C3C4E7B
:104A800002F07CFA0021012002F070FC284603F0BD
:104A9000F7FC384A3849284603F0A6FE374B009306
:104AA00040F25B72364B3749204602F007F8364B2E
:104AB000304A364923602046C4F8D05003F094FEB3
:104AC00021460023324A334802F022FA21460023CD
:104AD000314A324802F01CFA21460023304A31485C
:104AE00002F016FA214600232F4A304802F010FA4D
:104AF0002F4801F0E1FB2F4B642183F860142E490D
:104B0000C3F87014012183F874143168002211F085
:104B10000105DA7183F83C2483F83D2483F86A2484
:104B2000C3F8782483F87C2483F87D241C460AD1BA
:104B30003046FFF7C3FA30B12946204802F0FEFCA8
:104B40003046FFF7C0FA1E481C4BC4F86C340023F3
:104B5000037243724360074A1A4B1B49036002B059
:104B6000BDE8704003F040BEA0E30320DCE003207A
:104B700020DC03201CDC03203D410D0069990D0061
:104B80004E990D0059990D00409A0D00CF400D002F
:104B90008A990D0054E30320A4990D00C4E003207A
:104BA000BF990D00D0E00320D9990D00B0E003209B
:104BB000B4E103202CDC0320EC950D0024DC032061
:104BC00070E30320F8950D00CD400D0002F0D6B93A
:104BD00002F0D4B910B50446243000F07BFE28B1B1
:104BE00004F50C70BDE8104000F074BE10BD411E0D
:104BF00000F10A020020430843EAC01011F8013F07
:104C000053FA80F08A42C0B2F5D170472DE9F047DF
:104C10000378202B00F1010401D12046F8E7704F02
:104C2000886005462C1A2E4615F8013B0BB32F2B36
:104C300001D1031917E05C2B02D10020BDE8F087F9
:104C4000A3F12204E4B21D2C03D827FA04F4E407EC
:104C5000F3D403F0BF043C2CEFD0203B5E2BE1D912
:104C6000EBE72F2D05D11E4613F8015B202DF8D15F
:104C7000F9E7166003199842C0EB030809D013F84E
:104C8000012D2E2AF7D0202AF5D0B8F1FF0FD4DC61
:104C900001E04FF00008C1F8048001F10C0301F1BC
:104CA0001702202403F8014F9342FBD103461A1A3E
:104CB00013F8014B2E2CFAD0202CF8D0B2FA82F443
:104CC000640908F1FF36731C07D100274FF0070E67
:104CD0003D46BA464FF0080909E0835D2E2BF4D01B
:104CE000013EF0E7835C202B04D1002401324245D1
:104CF000F8DB4BE02E2B02D1B242F6D103E0222B9F
:104D000017D07C2B15D0A3F12A0CBCF1050F01D8CC
:104D10002D2B0ED1A3F13A0CBCF1050F09D9A3F14B
:104D20005B0CBCF1020F04D9A3F1210CBCF15D0FA7
:104D300002D9B2420ED149E0B24247D0754521D8DE
:104D4000A3F1610CBCF1190F08D8203BDBB249EA92
:104D500007070AE0754515D800245F23A3F1410C2D
:104D6000BCF1190F98BF49EA0A0A05F1010C5FFA74
:104D70008CFC0D44BCF1060F6B7301D881F80CC09C
:104D80006546B3E7BEF10A0F17D100244B7B202BF9
:104D90003FF453AF3CB11AEA070F18BF02270F7058
:104DA0000120BDE8F0870B7B0120087019447E23A9
:104DB0004B7331238B73BDE8F087B242E5DC32469A
:104DC0004FF00A0E08254FF010098EE7BEF10A0FCA
:104DD000DBD032464FF00A0E08254FF0100985E768
:104DE000010100312DE9F84391F80C9006460D467B
:104DF00002247E2701F10D086968AA6863189BB236
:104E00001144914206D012F8010B03EB43134340C7
:104E10009BB2F6E7B9F1030F28BF4FF0030909F180
:104E20000402D2B203F00F01A818013A0929D2B244
:104E300094BF30313731914541734FEA1313F1D3A9
:104E400005EB090300215F73304600F01EFB0121D2
:104E5000304600F0FDFA014628B97078B0FA80F0CB
:104E60004009BDE8F88303784BB1C37A1B07EED441
:104E70000B22404604F04EFA0028E8D102E001205F
:104E8000BDE8F8830134A4B2642CB5D1BDE8F88341
:104E90002DE9F04F9B460B7889B013F0700F059009
:104EA0000E46914601D10020A0E1059B1B78002B06
:104EB000F9D15368029313789B0700F08D81029B10
:104EC0000D270C33B3FBF7F70137FFB20021304653
:104ED00000F0DBFA4FF0000809F10D02CDF80C806C
:104EE000434644464546CDF81080069272690793C2
:104EF00001213046C2F34F1A00F0AAFA079B20B9ED
:104F00007378002B00F09080CDE70278E52A00D07E
:104F100042B9002C08BFD046BC423CBF0134E4B2C9
:104F200022B981E0BC4238BF002403E0E52A01D168
:104F30000025DBE72E2AFBD0C17A0F2952D13DB9DB
:104F40005106D3D5437B039302F01F052B4607E0A0
:104F5000013BDBB29A42EBD1427B03999142E7D10C
:104F60005A1E4FF00D0C0CFB02FC029A6245DFD971
:104F70004FF0000EBEF1040F5FFA8EF204D800EB82
:104F80004E02B2F801200CE00A2A95BF0EF1FF3262
:104F90000EF1010200EB420200EB420294BFD28804
:104FA00092880299614503D1002A18BF00259DE728
:104FB000FF2ABDD8D2B2A2F141011929D9F80810AF
:104FC00011F80C1098BF20320CF1010AA1F1410C2C
:104FD00098BFD2B2BCF1190F9CBF2031C9B2914227
:104FE000A6D1FBE00907A3D44DB1012B7FF45BAF41
:104FF000FFF7FDFD039B83427FF455AF0FE00B22CB
:105000000699079304F086F9079B00287FF46EAF9A
:1050100099F80020D20702D50122049266E71BF41A
:10502000006F00F0D1803EE71BF4007F3FF43BAF00
:105030000BF00303013B012B3FF635AF002C08BFFB
:10504000D046BC4202D3049BCBB91FE000213046BE
:1050500000F0FEF910B973785BB124E70134E4B2D3
:10506000EFE7B3681B79012BEDD81034E4B2A74207
:10507000E9D9304600F0D2F80028F2D113E74946CA
:105080003046FFF7AFFE00283FF40DAF4FEA48115E
:10509000304600F0FAF900283FF405AF7D1EEDB26E
:1050A0002C464FF0000A4FF00F0841E00021304637
:1050B00000F0CEF9074600283FF4F5AEB26892F84A
:1050C0002430AC4243F0010382F824300CBF44F09A
:1050D00040022246027080F80B8080F80CA009F193
:1050E0000D000392FFF783FD039A787387F81AA0E7
:1050F00087F81BA002F01F020D23013AD9F808E03F
:105100005A4300230299914215D91EF80210042B2C
:105110005FFA83FC03F1010013D807EB4303A3F804
:1051200001100D2802F101020346EBD1013CE4B26B
:10513000002CBBD10EE014BF4FF0FF31002189B22B
:10514000E5E7BCF10A0F94BF07EB430307EB40030D
:105150009980E6E7736921463046C3F34F1A00F0A1
:1051600077F9074600283FF49EAE2022214604F03E
:1051700006F94B4653F80D2F3A605A687A601A893F
:105180003A819B7ABB7299F8003003F018033B73A5
:10519000184B1B682BB107F10E0107F1100098475F
:1051A00006E021233B7428237B740823BC73FB7324
:1051B0003B8A7B823B83FB89FB82B26892F8243076
:1051C00043F0010382F8243000955B465246314695
:1051D000059800F0A3F909E0012777E60EF1010E2A
:1051E000BEF10D0F3FF482AED446C3E609B0BDE870
:1051F000F08F00BFD0E3032001F0C0BE01F0BEBEBF
:1052000001F0BCBE01F0BABE8378016943F004032B
:10521000837000F11002806800F012BC2DE9F041AB
:10522000037803F02003044603F0FF050BB10026CA
:105230002EE04269184B9A42F9D8FFF7E5FF06467F
:105240000028F4D02169A06800F08FFB0746A06811
:1052500005223946243000F064FB80460028E6D061
:1052600029464FF4007204F08AF80125A3681A79E0
:10527000AA4209D94246E919186800F0CFFE002871
:10528000D5D00135EDB2F1E7636903EB42236361E9
:105290003046BDE8F08100BFFFFD1F0010B5044699
:1052A00080680A462430A16900F03BFB20B1A38846
:1052B00003F00F0300EB431010BD70B504780546F2
:1052C0000E4684B92422214604F059F8AE60F379E1
:1052D000102B03D0202B06D1402300E020230120F7
:1052E0002B70A87070BD002070BD2DE9F74F0378BA
:1052F0000446894615464BB18278D10706D50CE0A5
:105300005A46216900F037FB00283DDA637843F004
:10531000020363704FF0FF3097E01A0703D5E3698B
:1053200062699B1A07E09A0608D5A3681A8963691F
:10533000C3EB42139BB29D4228BF1D462E464FF041
:10534000000804F1100B002E35D022786369A068A4
:1053500012F0200FC3F3080A4FEA532102D0036A68
:1053600019441DE090F8058001EA0808BAF1000F21
:1053700010D1B8F1000F0DD1002BC1D153064CBF95
:10538000036A236A236105E004D1237813F0700FC8
:1053900011D1BBE72169A06800F0E7FA08EB000132
:1053A000A068BAF1000F35D1B6F5007F32D3C36AD9
:1053B000994202D12EE0A81B47E0B6F5806F1BD3BF
:1053C000227897064FEA562A06D40279C8EB0202E1
:1053D000D2B2924528BF924699424FEA4A2707D255
:1053E000A06853464A46006800F0D6FD60B98DE7D4
:1053F0005344994221D3F3E74A46006800F084FD04
:10540000002883D04FF4007763693B44B94463615B
:10541000F61B98E70022243000F083FA00283FF4BE
:1054200075AFCAF50077B74228BF374600EB0A01CF
:105430003A46484603F07DFFE6E72430019100F04C
:1054400049FA01990028CBD160E703B0BDE8F08F9D
:1054500037B54369C3F34315044605B169B9012261
:105460000DF107012046FFF740FF40B2012801D0AF
:10547000002008E063691F3300E02033A068636107
:10548000303000EB451003B030BD2DE9F0410E4641
:10549000017807690446002939D04569B5423AD0F8
:1054A0000EB9066131E00B0703D5C3699E422ED8C1
:1054B00007E0880605D5A3681B89B6EB431F26D8ED
:1054C00023E0D4F808E09EF806306A1E03F10900D4
:1054D000731EC240C3409A4200D84DB94A064CBF21
:1054E000DEF82020226A22611D4604F110080AE03D
:1054F0009B1AF9E742462169A06800F03CFA0028AF
:1055000005F1FF3503DD002DF4D1666103E027616D
:105510000020BDE8F0810120BDE8F081F8B50F461C
:1055200015460021242204461E4603F028FFB868D1
:10553000A06005F00F02A58000F1300152013B6A26
:10554000E3601144CB7A1D074CD4831893F83B30A9
:1055500003F017032370C97A11F0180F04BF43F04A
:10556000080323709DF81830E37006F00303012B45
:1055700009D0022B05D0002B34D1710532D4012380
:1055800002E0032300E00223A370A1788B0703D578
:10559000237813F0110F25D14BB216F4005F06F0FB
:1055A000080114BF6FF07F07002719433943A1702A
:1055B000C36AA36102447505B2F84410B2F84A30D8
:1055C00043EA014104D581B100F075FA68B909E0F8
:1055D0002162D36CE36173040CD5E1692046FFF7C7
:1055E00054FF38B900202070F8BDA37843F00403BD
:1055F000A370F0E70120F8BD38B5037804460BB975
:10560000012038BD83785A0723D50121FFF746FED4
:10561000054628B9637843F001036370002038BD64
:105620000378E52BF6D023781B0744BFE369C361F9
:10563000238C4383638C8382094B1B682BB100F15D
:105640001601183098472B8B6B82A37823F0040344
:10565000A370A068FFF7BEFA0028DBD0D0E700BF38
:10566000D0E3032010B50446FFF7C6FF00232370E4
:1056700010BDF0B593B01F4600238DF824308DF88F
:1056800025300378019206460C460BB100203DE020
:105690000B7813F0700FF9D013782F2B12D1019BD8
:1056A0001A782F2A02D101330193F8E7A1681AB9B9
:1056B0003046FFF702FE29E009A8FFF7FEFD0028AB
:1056C000E4D009AC01AA03A90198FFF79FFA0028CA
:1056D000DCD0019B1B789BB1002303AA21463046F6
:1056E000FFF7D6FB0028D1D035460FCD09AC0FC44B
:1056F0000FCD0FC42B6823603046FFF7B3FFE0E700
:105700003B4603AA21463046FFF7C2FB13B0F0BD6B
:105710002DE9F0470378894619070446904608D5D5
:1057200083789A0705D51B070BD5E169FFF7ADFE16
:1057300038B9637843F0010363704FF0FF30BDE880
:10574000F0876369DB439845F3D846464FF0000A7B
:105750006369002E00F08180A068427912EA532527
:10576000C3F308071CD1DFB9216971B104F110023C
:1057700000F001F90028DCDB40F08E802046FFF7C6
:1057800043FD002840F08880D3E7236A3BB92046D8
:10579000FFF73AFD0028CCD02369236200E02361A3
:1057A0002169A06800F0E1F8291817B9B6F5007F63
:1057B00021D2C7F50075B54228BF354637B96369B0
:1057C000E269934234BF0122052200E00122A06871
:1057D000243000F0A6F80028ABD038442A464946C9
:1057E0002F4403F0A6FDB7F5007F30D1A068243028
:1057F00000F070F817E0B6F5806FA06815D3027955
:10580000521B730AD2B2934228BF1346C26A914216
:105810004FEA432502D31A44914237D3A7684A4638
:10582000386800F06DFC90B983E7C36A994202BF03
:105830004FF0FF3380F824A0C362A3684A4618687B
:1058400000F0ECFB00283FF474AF4FF4007563697F
:105850002B446361A944761B7AE7E269934201D93C
:10586000E36102E00F4B1B681BB1A37843F0040314
:10587000A37094F90230002B02DB4046BDE8F087AC
:105880002046FFF7B9FE0028F7D152E74FF0FF326C
:1058900080F824A0C262C1E72169A06800F065F821
:1058A000014683E7D0E3032001F068BB70B50546ED
:1058B0000C46084649B103F0DFFD2B68024621463D
:1058C0002846DB68BDE87040184770BD01F056BB44
:1058D00001F054BB70B50378DA0704461ED543685F
:1058E000816800F10C063246186800F097FB054607
:1058F00008B9002513E023789B0704D4237823F00C
:10590000010323700BE06368A06819693246014403
:10591000186800F083FB0028F0D1EAE7012528464B
:1059200070BD70B583688B4204460E46154614D090
:10593000FFF7D0FF08B9002070BD6B0703D5002327
:105940002370A66009E0636804F10C023146186810
:1059500000F0DAFA0028F2D1EDE72378204605F0CE
:1059600003051D4300F80C5B70BD83794069023963
:10597000994008447047012970B505460C46164603
:1059800002D84FF0FF3070BDC3699942F9D8C3798E
:10599000202B10D18169022201EBD41100F50C708B
:1059A000FFF7BFFF0028ECD004F07F0450F824304C
:1059B00023F070430FE0102BE3D18369C1F307217B
:1059C0000222194400F50C70FFF7ABFF0028D8D075
:1059D000E4B230F81430EA6993429ABF3360012090
:1059E000002070BD012938B50C46154601D80020AD
:1059F00038BDC3699942FAD8C379202B0ED1816989
:105A0000032201EBD41100F50C70FFF78AFF002888
:105A1000EDD004F07F0440F824500FE0102BE6D1C5
:105A20008369C1F307210322194400F50C70FFF7C5
:105A300078FF0028DBD0E4B220F81450012038BDF4
:105A40002DE9F341C4688C4205460E46904607D2C4
:105A50000C460027EB6901349C4203D9CFB9EC68AE
:105A60000127F7E7A64214D001AA21462846FFF7EE
:105A700082FF00280DDBEDD0019B002BEAD107B19E
:105A8000EC606FF0704221462846FFF7ABFF0746F7
:105A900008B900270BE016B9C8F8004007E0224615
:105AA00031462846FFF79EFF0028F5D1F1E738463A
:105AB00002B0BDE8F08173B505460C4601AA214647
:105AC0002846FFF758FF061E01DA00200FE00022EB
:105AD00021462846FFF786FF0028F6D0EB689C4257
:105AE0009CBF04F1FF34EC60019C002EE6D102B0B3
:105AF00070BD70B5012304460022C3604FF0FF3330
:105B0000C2710D46A06280F82420C362C4F834023A
:105B100080F83022C0F83832A1B104295DD811468E
:105B20002430FFF7FEFE002857D000EB051393F852
:105B3000AE315B0651D11B3500EB0515D5F806508B
:105B4000002D4AD00022294604F12400FFF7E9FE87
:105B5000002842D0B0F80B30B3F5007F3DD1037C74
:105B6000022B3AD1C389002B37D0417B21714B1EC8
:105B700063710023A371092601238B4207D0013EE4
:105B80002BD0A2795B000132DBB2A271F5E7C28AA9
:105B900002B9426A2261C6892E44A661B0F811306A
:105BA000238106EB42012162B0F81120520102F27A
:105BB000FF1201EB62226261B0F8133003B9036A8D
:105BC000AD1A2B44A57923FA05F56B1CE36140F669
:105BD000F4739D4203D80C23E371002070BD4FF68F
:105BE000F4739D4285BFC36A236210232023E371AF
:105BF000012070BD01F0C2B901F0C0B901F0BEB919
:105C000070B50E4C0E46154601F048FA2368C01ACE
:105C10000B4B984208D901F049FA0A4B186001F081
:105C200011FC01F03BFA206001F040FA80B2801BC9
:105C3000A842D4BF0020012070BD00BFD4E30320E0
:105C4000A086010030E7032038B5057A04464DB937
:105C5000406800F07DFA63682946187D02F057FD20
:105C60000123237238BD10B5037A04466BB1436833
:105C70000121187D02F04BFDFF21606800F09AFAC7
:105C8000606800F079FA0023237210BDF8B504466D
:105C90000D46164601F00AFA87B2606800F06FFA06
:105CA000FF28607209D14FF47A7239462046FFF717
:105CB000A7FF0028F1D055230BE0FE2801D0502388
:105CC00007E032462946606800F05EFA607230B143
:105CD000602320462370FFF7C6FF0020F8BD6068F0
:105CE00000F04DFA606800F04AFA0120F8BD70B586
:105CF00004460E4601F0DAF985B2324629462046BE
:105D0000FFF77EFF30B9606800F039FAFF28F4D160
:105D1000012070BD002070BDF7B5037A01920446E2
:105D20000D460BB9FFF790FF25B14FF49671204651
:105D3000FFF7DDFF45F04001606800F03BFA0DF130
:105D400007060DF1030716F80119606800F032FA32
:105D5000BE42F8D1002D0CBF95218721606800F06C
:105D600029FA606800F00BFA0B25606800F007FA6A
:105D70000306607203D5013D15F0FF05F5D103B0B0
:105D8000F0BD70B504460D46164637210022FFF7D8
:105D9000C3FF324629462046BDE87040FFF7BCBF2E
:105DA0002DE9F041002505720570857241600446B9
:105DB00090461E4601F07AF941460746606800F0B9
:105DC000CBF963684F4A1D724FF00108DA605D74C9
:105DD00083F810802046FFF737FF63684146187D3F
:105DE00002F095FC0A25FF216068013D00F0E2F910
:105DF00015F0FF05F7D163682946187D02F087FC8E
:105E00000A25002211462046FFF786FF012880461A
:105E100012D0013D15F0FF0501D1202357E0FD21EF
:105E2000606800F0C7F94FF40278606800F0A7F9E5
:105E3000B8F10108F9D1E4E74FF4D5720821204602
:105E4000FFF76AFF052802D184F80A800FE00425D5
:105E5000606800F094F9013D15F0FF056072F7D11C
:105E6000AA2802D10223A37201E025232FE0A37AFE
:105E7000022B0CBF4FF080450025BFB22A462921D6
:105E80002046FFF77EFF024648B14FF4FA623946DA
:105E90002046FFF7B5FE0028F0D0432317E0A37A91
:105EA000022B0ED02046FFF7DEFE6368B06834791F
:105EB000317B727B5A74D8601C7219740120BDE862
:105EC000F0813A212046FFF727FF38B137232046DB
:105ED0002370FFF7C8FE0020BDE8F081606800F085
:105EE0004EF900F0C000C02804BF0323A37260680D
:105EF00000F045F9606800F042F9606800F03FF991
:105F0000D0E700BF90D0030038B5837A032B18BFC9
:105F1000490215460A4611210446FFF7FDFE10B15D
:105F2000302323700BE029464FF400722046FFF720
:105F3000ADFE054618B12046FFF795FE03E020466A
:105F4000FFF791FE0025284638BD10B5837A032B54
:105F50000A4618BF4A0212210446FFF7DDFE30B19F
:105F6000312320462370FFF77EFE002010BD012064
:105F700010BD10B500220C210446FFF7CDFE30B154
:105F8000282320462370FFF76EFE002010BD204618
:105F9000FFF769FE012010BDF8B5054616461F46FD
:105FA000FFF7D3FF98B10024A3B29F4206EB442130
:105FB00008D94FF400722846FFF768FE0134002824
:105FC000F2D104E02846BDE8F840FFF7D2BF002038
:105FD000F8BD38B504461546406800F0EBF84FF4BC
:105FE00000722946606800F0E9F8FF21606800F05F
:105FF000E1F8FF21606800F0DDF8606800F0BFF8AC
:10600000607200F01F00052806D057232046237039
:10601000FFF729FE002038BD012038BD70B5837A16
:10602000032B18BF490215460A4618210446FFF7FC
:1060300073FE064608B132231DE02A46FE212046A3
:10604000FFF7C7FFC0B14FF4FA612046FFF74FFEDC
:10605000054608B95A230EE032460D212046FFF7C7
:106060005BFE38B9606800F08AF818B92046FFF77F
:10607000FAFD05E0292323702046FFF7F4FD0025F3
:10608000284670BD38B50D464FF4FA610446FFF757
:106090002EFE10B95B23237005E02A46FC21204622
:1060A000FFF797FF18B92046FFF7DDFD002038BD48
:1060B00010B5837A032B0A4618BF4A0219210446F9
:1060C000FFF72AFE30B1332320462370FFF7CBFDC4
:1060D000002010BD012010BD38B54FF4FA61044610
:1060E000FFF705FE054620B1FD21606800F062F86B
:1060F00001E0562323702046FFF7B5FD284638BD42
:10610000F8B5054616461F46FFF7D2FF70B10024CA
:10611000BC4206EB4421284604D0FFF7B3FF28B168
:106120000134F5E7BDE8F840FFF7D6BF2846FFF792
:106130009AFD0020F8BD00F021BF00F01FBF00F065
:106140001DBF0000014B01221A707047D8E30320E5
:10615000011D006801F026BA10B5044601750068FB
:1061600001F0F6F9207D012102F0C0FA207D012125
:10617000BDE8104002F0CBBA006801F0FAB9FF2187
:10618000006801F07FBA000037B5084B0093002586
:10619000074C0068257013460A46294601F078FA34
:1061A0002378002BFCD0002003B030BD45610D00EA
:1061B000D8E30320006801F065BA000037B5074B4B
:1061C00000930025064C0068257013462A4601F00E
:1061D0005FFA2378002BFCD003B030BD45610D0081
:1061E000D8E3032000F0CABE10B58368044613B19B
:1061F000032201469847204610BD0000024B0122B1
:106200001A7000F0BBBE00BFD9E303200022027069
:1062100042708280826002730282426102768283CF
:10622000026280F824200285C26280F83020426336
:1062300080F8382080F83920C2630264426480F814
:10624000482080F84920C2640265426580F85820E1
:1062500080F85920C2650266426680F8682080F89E
:106260006920C2660267426780F8782080F879204A
:10627000C267C0F88020C0F8842080F8882080F8A9
:106280008920C0F88C20C0F89020C0F8942080F8B5
:10629000982080F89920C0F89C20C0F8A020C0F871
:1062A000A42080F8A82080F8A920C0F8AC20C0F86D
:1062B000B020C0F8B420704710B50446FFF7A6FF21
:1062C00004F1B800FFF7A2FF0023022284F8703126
:1062D00084F8713184F8812184F8823184F8833123
:1062E00084F88431C4F88831C4F88C31C4F8903112
:1062F000C4F89431C4F89831C4F89C3184F87231F0
:10630000204610BDA1F14103052B02D8A1F13700B1
:106310007047A1F16103052B94BFA1F15700A1F1D2
:106320003000704738B5057804462D2D08BF01347C
:10633000204602F0DDFF64235843224614F8013B57
:10634000A3F130010929F8D92E2B0BD15378303B1A
:10635000092B07D80A2101FB03009378303B092B56
:1063600098BFC0182D2D08BF404238BD38B504462F
:106370000D4602F0BDFF6423B0FBF3F203FB1200F5
:10638000114B2A80434320460278A2F130010929AB
:10639000044600F10100F7D92E2A0BD10A490A2040
:1063A00014F8012F303A092A04D8B1FBF0F101FBAF
:1063B0000233F5E703EB830301330322B3FBF2F36C
:1063C0006B6000232B7238BD8096980010B5034691
:1063D000044653F81C2F42605A6882601B7A03738C
:1063E000034653F8282F02615A6842611B7A0376EC
:1063F00000F05CFE012360636370237010BD000039
:10640000D0B5002304464370806802F099FC0EA3C7
:10641000D3E9002302F034FE0646A0880F4602F0BE
:106420009FFC0B4602463946304602F04DFB237B6B
:106430001BB1024601F1004301E002460B4643EC6A
:10644000102BD0BDAFF300800000000065CDCD4122
:10645000D0B5002304464370406902F071FC0EA3DE
:10646000D3E9002302F00CFE0646208A0F4602F014
:1064700077FC0B4602463946304602F025FB237E68
:106480001BB1024601F1004301E002460B4643EC1A
:10649000102BD0BDAFF300800000000065CDCD41D2
:1064A00010B583684360044600F000FE0123E060FD
:1064B0006370237010BD10B583684360044600F01C
:1064C000F5FD0123E0606370237010BD10B5044634
:1064D0000846FFF727FFA06010BD10B50446084628
:1064E00002F006FFA06010BD0023437040686422E4
:1064F000B0FBF2F302FB130000F5FA6080B27047C4
:106500000023437043686420B3FBF0F3B3FBF0F265
:1065100000FB1230C0B2704700234370436842F260
:106520001070B3FBF0F0C0B270470000002343705E
:1065300043680248B3FBF0F0C0B2704740420F001E
:1065400000234370436842F21070B3FBF0F3642001
:10655000B3FBF0F200FB1230C0B27047002343706F
:1065600043686420B3FBF0F3B3FBF0F200FB12309E
:10657000C0B2704710B5C3688360044600F096FD52
:10658000012360606370237010BD10B50446084697
:10659000FFF7C8FEE06010BD10B5C3688360044615
:1065A00000F084FD012360606370237010BD10B59E
:1065B0000446084602F09CFEE06010BD10B501469E
:1065C0000446103002F050FF00F070FD01232062FD
:1065D00084F8253084F8243010BD102202F054BF16
:1065E000F8B590F871510446002D00F08B8090F8BA
:1065F0007211FFF787FE94F8731102462046FFF7E9
:1066000081FE94F8703100EB0210C0B2834272D167
:10661000D4F89C310133C4F89C3194F8843123B10F
:10662000D4F894310133C4F8943194F88131FBB13A
:10663000012B4DD104F1F000FFF732FF04F580701B
:10664000FFF739FF94F8843104F1B8064BB13046B6
:10665000FFF7BCFE04F58870FFF78CFF04F590701F
:1066600027E084F8B83084F8103184F8203122E033
:1066700004F58070FFF71FFF94F8843104F1B80629
:106680005BB13046FFF7A2FE04F59870FFF772FF8A
:1066900004F5A070FFF76EFF05E084F8B83084F8C9
:1066A000303184F8403104F5A870FFF775FF04F528
:1066B000B070FFF75FFF0021084600F01FFD314674
:1066C000B822204602F035FE0021012000F016FD20
:1066D000D4F88C61002E00F0D980D4F88C31B06AE7
:1066E000996A02F0B7FE002840F0D0803046FFF7EC
:1066F00065FF366BEEE7D4F898310133C4F8983172
:106700000025C3E090F8822172BB00F5B97660499C
:10671000304602F09FFE20B15E49304602F09AFEFC
:1067200008B901230CE05C49304602F093FE20B129
:106730005A49304602F08EFE08B9002300E00223D9
:1067400084F88131D4F88831C4F88C31D4F88C7154
:10675000002F00F09B803146B86A02F07BFE0028D3
:1067600080F290803B6BEFE790F88111022971D0A5
:1067700090F87231002B6DD042EA4112013A282A7A
:1067800068D8DFE802F01521242B324950575C67A6
:10679000616767676767676767676767676767678F
:1067A000676767676767151C21242B32393E4300F2
:1067B00000F5B97100F58070FFF788FE4AE0A3F19B
:1067C0004100434243412BE000F1D40108E0A3F132
:1067D00053014B424B4180F8DC303BE000F1E001DB
:1067E00004F5B970FFF7C2FD34E0A3F1570253423C
:1067F000534180F8E8302DE000F5B97100F588705C
:1068000026E000F5B97100F5907021E000F5B9714E
:10681000F030FFF762FE1DE0302B94BF0023012310
:1068200084F8843116E000F5B97100F5A870FFF71F
:10683000BEFE0FE000F5B97100F5B07008E000F59C
:10684000B97100F5987003E000F5B97100F5A0701A
:10685000FFF79BFED4F88C6104F5B977B6B1D4F894
:106860008C31B06A996A02F0F5FD78B9F26A94F851
:1068700082319A420ADC03D139463046FFF7ADFE39
:10688000366BEBE702D00023C4F88C312846F8BD04
:10689000F9990D00FF990D00059A0D000B9A0D0056
:1068A00038B5D0F89031242903F1010304460D4690
:1068B000C0F890312AD090F8833104D80A290CD03E
:1068C0000D2932D109E02A2907D02C292DD190F8A1
:1068D000702182F02C0280F870210E2B4FF0000006
:1068E00005D8234483F872012046FFF779FE94F817
:1068F0008231013384F88231002384F88331A5F199
:106900002A035D425D4184F8715138BD00200223A5
:1069100084F8830184F8820184F8700184F881315D
:1069200084F8710184F8840138BD0D2B9FBF5A1C77
:106930001B1984F8832183F8725194F8710128B9E6
:1069400094F870114D4084F8705138BD002038BD66
:1069500000F014BB08B5D0F8D00003681B6B984753
:10696000003018BF012008BDF8B506460F46144692
:10697000C4B1D6F8D00003681B6B984708B9002053
:10698000F8BDD6F8D000FA2C03682546A8BFFA2532
:10699000DB682A463946984780B2241A8542A4B259
:1069A000E6D0ECE70120F8BD2DE9F843064688461D
:1069B00091461F461D460024D6F8D00003681B6B85
:1069C0009847D0B1002D18DBD6F8D00003681B69BA
:1069D000984760B1D6F8D00003685B69984708F81B
:1069E00004000134A4B24C4507D03D46ECE70A3D13
:1069F0000A202DB200F04EFFDEE72046BDE8F88306
:106A000070B5044600F1220596220021284602F0C6
:106A1000B6FC6168284602F027FDD4F8D000228930
:106A2000036829465E6A0023B047003018BF012082
:106A300070BD10B50446D0F8D00003681B6B9847B2
:106A400020B1D4F8D0000368DB6A9847012010BD5C
:106A500070B503689B6804469847C8B9204600F0A3
:106A6000FEF9042570B1013D15F0FF050AD020465E
:106A700000F0B8F841F2883000F00CFF204600F03A
:106A8000EEF9EFE7236820469B68BDE870401847A1
:106A900070BD00F073BA70B5044608460E4602F0A9
:106AA000EBFC03122370607085B202342A46314633
:106AB000204602F0E9FC601970BD000030B50361AA
:106AC000039B0D4D028143610C4A05600023416028
:106AD000C260C0F8BC30C0F8C030C0F8C430C0F8E4
:106AE000C830C0F8CC308361C36180F8203080F8B2
:106AF0002130A0F8B83030BD649A0D00B59A0D0071
:106B00002DE9F74F0FFA83FA036801929D6901227C
:106B1000534606460C46A847C0B2012801D00020C3
:106B200034E0651C04F1050B80464FF00009336822
:106B30009B6901221F46294653463046B847C0B2DA
:106B40000128ECD115F8013B03F07F025D4502FB03
:106B500008994FEAC818E2D01B06E8D4019B2C1B09
:106B60001B1B013B9945336806D9019A9F69013A7D
:106B7000121B534692B203E09F691FFA89F25346F3
:106B800029463046B847C0B2204480B203B0BDE8C1
:106B9000F08F0000F8B505460C4616461F463B46EA
:106BA000962221462846FFF7ABFF48B12378B6EB83
:106BB000131F05D000F0F8FF024900F0F2FDEEE7E8
:106BC000F8BD00BFB69A0D000231C9B209299ABFBB
:106BD000024B53F821000248704700BF809A0D0015
:106BE000C79A0D0010B5E02380F82230002380F80A
:106BF0002330036804465B69022200F122019847B2
:106C0000236820461B69BDE8104018472DE9F8436A
:106C100004460D464FF000084FF0C00900F122076E
:106C2000D5B1236884F8229084F823805B6902221E
:106C3000394620469847064610B9013DEDB2EFE7C8
:106C40004FF4FA730D2239462046FFF7A3FF94F85C
:106C50002230D02BF1D100E02E463046BDE8F8833B
:106C600038B504460846102300F8023B0D46294972
:106C7000FFF711FF0423037002234370A369ABB134
:106C80001B789BB10623437094F82030012B01D16F
:106C90000E2302E0022B01D11E23437094F8213011
:106CA000012B02BF437843F02003437023691B7814
:106CB0001BB1437863F07F03437063691B781BB19A
:106CC000437843F040034370012383702C23C37047
:106CD000E1680B781BB10430FFF7DDFE02E00371C1
:106CE00043710630A16931B10B7823B1FFF7D3FEB0
:106CF000E169FFF7D0FE21690B780BB1FFF7CBFEFE
:106D000061690B780BB1FFF7C6FE401BC0B2831E52
:106D10006B7038BDD59A0D002DE9F8430546104635
:106D20000E4691461F4602F0A7FB9DF82480BDF851
:106D3000204080B2B8F1000F01D1831C00E0031D98
:106D40004FEA480230469BB242F03002234400F83A
:106D5000012B9BB203F07F02DB0918BF42F08002D7
:106D600000F8012B002BF5D14946FFF794FE0346AE
:106D7000B8F1000F0CD0B5F8B820120A0270B5F8BF
:106D8000B8204270B5F8B82001320233A5F8B82017
:106D900022463946184602F0D7FA2044801B80B2BA
:106DA000BDE8F88373B59DF8186000F1220504462C
:106DB0008DE8480013460A462946FFF7ADFF2368D1
:106DC00002465B6929462046984708B9002017E02B
:106DD000B6B14FF4FA73962229462046FFF790FE8B
:106DE0000428F3D194F822301B11042BEED1A38C8C
:106DF000B4F8B8005BBA01339BB2C31A5842584189
:106E000002B070BDF7B5054610461F460E46144643
:106E100002F032FB009783B2224631462846FFF744
:106E2000C1FF03B0F0BD38B51D4682230B700C4680
:106E3000B0F8B810090AA170B0F8B830E370B0F833
:106E4000B8100131A0F8B8101146201DFFF723FE3D
:106E500000F8015B001BC0B2831E637038BD2DE9D2
:106E6000F0410368DB680446984718B94FF0FF30DB
:106E7000BDE8F08104F1220529462046FFF7F0FE27
:106E8000236882B25B692946204698470028EDD0E6
:106E900041F27073962229462046FFF731FEC0B2B8
:106EA0000428E3D1638CB3F5087FDFD194F8250083
:106EB00010B140B2BDE8F08104F1B80704F1CC088C
:106EC00057F8043FFBB103263A6829461379126844
:106ED0002046FFF7A8FF236882B25B692946204657
:106EE00098470028C2D04FF4FA7309222946204659
:106EF000FFF750FE38B9013E16F0FF06E4D16FF0FF
:106F00000100BDE8F0814745DAD10020BDE8F081FD
:106F100010B580E80600037210BD000010B592B0F5
:106F200004460B4600220B4902A88DED000B00F031
:106F3000A9FA9DED000B02A953EC102B07A800F055
:106F4000A1FA237A07AA94E80300FFF75BFF12B0C7
:106F500010BD00BFDA9A0D0000F010B808B5024B62
:106F60001B689B68019308BD6802030008B5024BCB
:106F70001B68DB68019308BD6802030008B5024B7B
:106F80001B681B68019308BD2C02030008B5024B67
:106F90001B689B68019308BD2C02030008B5024BD7
:106FA0001B68DB68019308BD2C02030008B5024B87
:106FB0001B681B69019308BD2C02030008B5024B36
:106FC0001B685B69019308BD2C02030008B5024BE6
:106FD0001B681B68019308BD3002030008B5024B13
:106FE0001B685B69019308BD3002030008B5024BC2
:106FF0001B68DB69019308BD3002030008B5024B32
:107000001B681B6A019308BD3002030008B5024BE0
:107010001B685B6A019308BD3002030008B5024B90
:107020001B689B6A019308BD3002030008B5024B40
:107030001B689B6B019308BD3002030008B5024B2F
:107040001B68DB6B019308BD3002030008B5024BDF
:107050001B681B6C019308BD3002030008B5024B8E
:107060001B685B6C019308BD3002030008B5024B3E
:107070001B685B69019308BD6C02030008B5024BF5
:107080001B685B68019308BD1802030008B5024B3A
:107090001B68DB68019308BD1802030008B5024BAA
:1070A0001B681B69019308BD1802030008B5024B59
:1070B0001B685B69019308BD1802030008B5024B09
:1070C0001B689B68019308BD4802030008B5024B8A
:1070D0001B68DB68019308BD4802030008B5024B3A
:1070E0001B681B69019308BD4802030008B5024BE9
:1070F0001B685B69019308BD4802030008B5024B99
:107100001B68DB69019308BD4802030008B5024B08
:107110001B685B6C019308BD4802030008B5024B75
:107120001B689B6C019308BD4802030008B5024B25
:107130001B685B69019308BD6402030008B5024B3C
:107140001B681B6A019308BD6402030008B5024B6B
:107150001B689B6A019308BD6402030008B5024BDB
:107160001B681B68019308BD3C02030008B5024B75
:107170001B68DB68019308BD3C02030008B5024BA5
:107180001B681B69019308BD3C02030008B5024B54
:107190001B685B69019308BD3C02030008B5024B04
:1071A0001B689B69019308BD3C02030008B5024BB4
:1071B0001B68DB69019308BD3C02030008B5024B64
:1071C0001B681B6A019308BD3C02030008B5024B13
:1071D0001B689B6A019308BD3C02030008B5024B83
:1071E0001B68DB6A019308BD3C02030008B5024B33
:1071F0001B681B6A019308BD2802030008B5024BF7
:107200001B685B6A019308BD2802030008B5024BA6
:107210001B689B6A019308BD2802030008B5024B56
:107220001B68DB6A019308BD2802030008B5024B06
:107230001B681B6B019308BD2802030008B5024BB5
:107240001B685B6B019308BD2802030008B5024B65
:107250001B681B6C019308BD2802030008B5024B94
:107260001B689B69019308BD3802030008B5024BF7
:107270001B68DB69019308BD3802030008B5024BA7
:107280001B681B6A019308BD3802030008B5024B56
:107290001B689B6A019308BD3802030008B5024BC6
:1072A0001B681B6B019308BD3802030008B5024B35
:1072B0001B689B6B019308BD3802030008B5024BA5
:1072C0001B681B68019308BD4C02030008B5024B04
:1072D0001B685B68019308BD4C02030008B5024BB4
:1072E0001B681B69019308BD4C02030008B5024BE3
:1072F0001B685B69019308BD4C02030008B5024B93
:107300001B689B69019308BD4C02030008B5024B42
:107310001B68DB69019308BD4C02030008B5024BF2
:107320001B681B6A019308BD4C02030008B5024BA1
:107330001B685B6B019308BD6002030008B5024B3C
:107340001B681B6D019308BD6002030008B5024B6A
:107350001B685B68019308BD2002030008B5024B5F
:107360001B685B69019308BD2002030008B5024B4E
:107370001B68DB6A019308BD2002030008B5034BBC
:107380001B68D3F88830019308BD00002002030079
:1073900008B5034B1B68D3F89430019308BD000077
:1073A0002002030008B5024B1B685B68019308BD0F
:1073B0004002030008B5024B1B689B68019308BD9F
:1073C0004002030008B5024B1B68DB68019308BD4F
:1073D0004002030008B5024B1B681B69019308BDFE
:1073E0004002030008B5024B1B685B69019308BDAE
:1073F0004002030008B5024B1B689B69019308BD5E
:107400004002030008B5024B1B68DB69019308BD0D
:107410004002030008B5024B1B681B6A019308BDBC
:107420004002030008B5024B1B681B6B019308BDAB
:107430004002030008B5024B1B685B6B019308BD5B
:107440004002030008B5024B1B689B68019308BD0E
:107450004402030008B5024B1B68DB6B019308BDB7
:107460004402030008B5024B1B681B68019308BD6A
:107470001C02030008B5024B1B685B68019308BD42
:107480001C02030008B5024B1B68DB68019308BDB2
:107490001C02030008B5024B1B685B6A019308BD20
:1074A0001C02030008B5024B1B68DB6B019308BD8F
:1074B0001C020300002211464068FFF7ABBF002208
:1074C00011464068FFF7B6BF00224068FFF7AABF29
:1074D000002281F001014068FFF794BF00231A46A3
:1074E00019464068FFF786BF00231A4619464068D0
:1074F000FFF778BF002211464068FFF76BBF0022FC
:1075000011464068FFF756BF002202214068FFF78E
:1075100059BF00231A464068FFF744BF024B0322BD
:107520005A60024A1A607047DCE30320A49C0D00F5
:107530000021FFF78BBD0021FFF790BD10B5044679
:1075400001700846FFF752FD00236360204610BD1E
:1075500010B504460078FFF7EBFF48B920784FF6E6
:10756000FF71FFF733FD2078BDE81040FFF7E3BF60
:1075700010BD0078FFF7DFBF400830B51860002469
:1075800018688842E5B206D90134082C02D04008B8
:107590001860F5E70725024B5B5D137030BD00BF37
:1075A000D09C0D002DE9F04307468FB000780E46C1
:1075B000FFF7BEFF002862DB3C781422002109A8F7
:1075C00001F0DDFE0B232046002209A9ADF824308E
:1075D000FFF71CFD9DF82D4054B19DF82C5035B996
:1075E000DDF830809DF834909DF8354003E00024AC
:1075F000A146A0460125337905B1BBB99D420BD107
:10760000B268424508D18DF820908DF82140BDF830
:107610002010B289914209D053B1002438780194E6
:107620000094234622460121FFF708FD002026E0B2
:107630008DF80F30B1680A9804AB0DF10F02FFF717
:107640009BFF317905B1B1B9A94208D0002438783F
:107650000194747B337B9DF80F200094E4E7B368BA
:107660004345F3D38DF820908DF82140BDF82020BC
:10767000B3899A42EAD1049B4345E7D1D6E70FB0DC
:10768000BDE8F08308B50078FFF7A8FCC0B208BDDC
:1076900030B587B004460A9D00780095FFF7BEFC20
:1076A0003DB902A92078FFF7C1FC9DF81430DB0733
:1076B000F7D407B030BD0078FFF7A0BC10B5044682
:1076C000006818B1FFF7D6FE0023236010BD10B587
:1076D0000446FFF7F3FF204610BD000010B5094C2B
:1076E00000204FF6FF732060A080A071208163818D
:1076F000FFF72CFE2046044A0449BDE8104001F083
:1077000073B800BFE4E303201CDC0320CF760D0038
:1077100010B50446006808B1FFF700FD204610BD13
:1077200010B5064C002320462360FFF7EFFC2046EF
:10773000034A0449BDE8104001F056B8F0E30320C5
:107740001CDC032011770D00F8B506460D468F1896
:107750000024BD420CD0336815F8011B9B683046ED
:107760009847002801DB0444F3E7002C08BF0446D7
:107770002046F8BD08B5FEF799F808BD03689B6878
:10778000184708B5FEF792F808BD38B50D21054633
:10779000FFF7F4FF0A2104462846FFF7EFFF2044D5
:1077A00038BD38B50546FEF781F804462846FFF790
:1077B000ECFF204438BDFFF7F4BF30B58BB00B466B
:1077C00000218DF82410012A98BF0A220DF123040C
:1077D000B3FBF2F505FB123303F0FF03092B94BF53
:1077E00030333733DBB2214604F801392B46002D04
:1077F000EED1FEF75BF80BB030BD0CB42DE9F043D1
:1078000087B000AF07F13804054654F8049B3C608C
:107810000E4623464A461421381DFFF73BFE132827
:1078200005D8391D2846FEF741F8044613E000F15B
:10783000080323F00703E846ADEB030D411C234684
:107840004A4668463C60FFF725FE69462846FEF733
:107850002DF80446C5461EB12846FFF796FF04449E
:1078600020461C37BD46BDE8F04302B0704700001B
:10787000014B024A1A607047F4E303204B9D0D0050
:10788000024B1A68024B1A60704700BFB0DB03203E
:10789000F8E303200021FFF761BD10B50446FEF7B1
:1078A000A3FC204610BD00000348044A04490023FD
:1078B000836000F099BF00BFFCE303201CDC0320C1
:1078C0009B780D0008B50C4B33B100F06DF90368DF
:1078D0001B699847002809DC084B63B100F0ECF9FC
:1078E00003681B699847002803DC08BDAFF30080DC
:1078F000F2E7AFF3008008BD0000000000000000C8
:1079000008B5FFF7DFFFFFF7D1FB014B186008BD9B
:1079100030E703200248034A0349121A01F009BD67
:1079200000F4032004F4032080A10D0007B5002318
:1079300000931A466FF07701FFF72AFD03B05DF858
:1079400004FB000007B543880A2B08D0502B09D14F
:10795000094B1B683BB103B05DF804EB1847FFF718
:10796000E5FF06E0002300931A466FF07701FFF76A
:107970000FFD03B05DF804FB0CE4032038B5104C98
:10798000104D2368AB42104B0CBF012200221A702D
:1079900002D0FFF7BFFF2560FFF770FB044601F040
:1079A000F7FC0A4B13B12046AFF3008000210748D3
:1079B000FFF750FD00210648BDE83840FFF7DEBC68
:1079C00000F403201E1C279A10E40320000000008E
:1079D00045790D00704710B51821044600F012FFDC
:1079E000204610BDF0B5037D062B8DB00E4600F18C
:1079F00004074FF0000402D000F1080518E00CADB8
:107A0000394605F8304D2F232A460A20FFF78EFB12
:107A1000284601F031FD33680246DB6829463046CE
:107A200098470FE024B12E213046FFF7A7FE04440B
:107A300015F8011D0A223046FFF7BFFEBD4204447F
:107A4000F0D120460DB0F0BD10B5054B0446112213
:107A500040F8043B002101F092FC204610BD00BF1D
:107A6000DC9D0D000346074A10B543F8042B01F1D5
:107A7000100251F8044B43F8044B9142F9D10A78B3
:107A80001A7010BDDC9D0D00037D042B01D14068F0
:107A900008E0062B0AD1436853B9836843B9C36829
:107AA00033B90069003018BF0120704700207047CB
:107AB0000120704710B59DF8084044EA032343EACB
:107AC000024242EA016104234160037510BD37B5EB
:107AD0000D788B784A78C97800912946FFF7EAFF3C
:107AE00003B030BD41747047704708B50021007C79
:107AF000FFF704FC30EA200028BF4FF0FF3008BD3C
:107B000008B50121007CFFF7F9FB30EA200028BF0F
:107B10004FF0FF3008BD08B5007CFFF7E7FB20EA17
:107B2000E07008BD08B5007CFFF7D8FB20EAE070E4
:107B300008BD007CFFF7F2BB10B51421044600F02D
:107B400061FE204610BD38B50446007C0D46FFF7A7
:107B5000CDFB002801DC607C28B12946207CFFF7A2
:107B6000D5FB20EAE07038BD10B504460023636001
:107B70004FF47A73A360054B2360012308462174F8
:107B800063741146FFF79AFB204610BDF09D0D006F
:107B90000022007CFFF79ABB10B514220446002196
:107BA00001F0EDFB204610BD30B50E4D87B001A8A9
:107BB000FFF7F2FF296811F0010410D12846FCF705
:107BC0007DFA60B101AA21460748FFF7CDFF28469C
:107BD000FCF779FA054A0649034800F005FE024819
:107BE00007B030BD14E4032018E403201CDC03209C
:107BF000E97A0D0070474174704708B5007CFFF7C3
:107C0000E5FA20EAE07008BD08B5007CFFF7B6FA97
:107C100020EAE07008BD08B5007CFFF7BFFA30EA43
:107C2000200028BF4FF0FF3008BD08B5007CFFF7EB
:107C3000ADFA30EA200028BF4FF0FF3008BD007CCD
:107C4000FFF7B4BA10B51421044600F0DBFD20465E
:107C500010BD70B5457C04460E4625B9007CFFF783
:107C6000B5FA002805DD3146207CBDE87040FFF7FD
:107C70007DBA284670BD000010B50446084611467E
:107C8000002262604FF47A72A260054A22600122EB
:107C9000207462741A46FFF761FA204610BD00BFD7
:107CA000209E0D000023007CFFF798BA0022FFF70A
:107CB000F9BF007CFFF782BA38B50C4D296811F086
:107CC000010411D12846FCF7F9F968B1084A094BBB
:107CD00009482146FFF7D0FF2846FCF7F4F9074A88
:107CE0000749054800F080FD034838BDC4E403207F
:107CF000C8E4032040E403202CE403201CDC032020
:107D0000F57B0D007047F8B5064615460C468F18F2
:107D1000BC4206D0336814F8011B9B683046984774
:107D2000F6E72846F8BD0022007CFFF75FBA002185
:107D3000007CFFF763BA0021007CFFF767BA0021DF
:107D4000007CFFF76BBA0021007CFFF76FBA10B51B
:107D50001421044600F056FD204610BD10B504461F
:107D6000002363604FF47A73A360044B21740846C8
:107D700023601146FFF76AFA204610BD509E0D00A1
:107D80000021007CFFF75ABA10B5044630B101F06B
:107D900027FB90FBF4F303FB140010BD10BD8842D9
:107DA00010B5044604DA081AFFF7EEFF204410BDB0
:107DB00010BD002211464068FFF72CBB002211467F
:107DC0004068FFF737BB00224068FFF72BBB00225B
:107DD00081F001014068FFF715BB00231A4601211D
:107DE0004068FFF707BB00231A4619464068FFF7B3
:107DF000F9BA002211464068FFF7ECBA002211469A
:107E00004068FFF7D7BA002202214068FFF7DABACC
:107E100000231A464068FFF7C5BA38B5054688B151
:107E200004684CB1A3681BB1032221462046984741
:107E30001021204600F0E6FC28461421BDE8384019
:107E400000F0E0BC38BD10B103685B6818477047AC
:107E500010B503680446BBB15868FFF72FF978B92D
:107E600023685A7C12B95868FFF738F923685868B4
:107E7000FFF73CF920680023236028B1FFF7CDFF0E
:107E8000206808B1FFF7C9FF204610BD38B5044689
:107E9000D0F8C40108B1FCF704F9D4F8C00108B166
:107EA000FFF73CF9D4F8BC5135B12846FFF7D0FFB5
:107EB0000421284600F0A6FC206808B1FFF7C3FFA4
:107EC000204638BD10B5044B044640F8083BFFF788
:107ED000DDFF204610BD00BF789E0D0038B50E4C6A
:107EE0000E4B23600025022304F5E4706360A56057
:107EF000C4F8C451C4F8C851FFF708F9084BC4F8D6
:107F0000CC5184F8D05123602046064A0649BDE88A
:107F1000384000F069BC00BF4CE50320609F0D00B5
:107F2000789E0D001CDC0320C57E0D0037B502AC29
:107F3000036804F8011DDD6B01224FF0FF33214679
:107F4000A84703B030BD10B40368DC6B4FF0FF33BB
:107F5000A4465DF8044B604737B502AC036804F8EB
:107F6000011DDD6B214613460122A84703B030BD39
:107F7000704738B543691A68002A044605DAB3F831
:107F80008620B3F884309A4201D001250BE00368C3
:107F90001B699847002814BF0125002503D12368D9
:107FA0002046DB6A9847284638BD43691868C043B5
:107FB000C00F704770470020704710B51421044669
:107FC00000F020FC204610BDFCF769B87FB51646CE
:107FD00000224260029203925A1C04460D4608D0C9
:107FE0004FF47A72B3FBF2F1029102FB11314A4372
:107FF000039260690823009341F205026B4440F646
:10800000FF710068FFF72AF9002808DB6069002388
:10801000324629460068FFF741F9002804DAFFF7E5
:1080200041FA03686360002004B070BD10B50368B6
:1080300004469B689847A368013BA3602BB923685B
:108040002046DB68BDE81040184710BD70B50446F7
:108050004D69054B44F8043B8C3506460FCD0FC4E3
:108060002B682370304670BDDC9D0D0010B5436950
:10807000B3F88620B3F884309A42044605D062698A
:10808000B2F884301344187910BD03681B6998470F
:108090000028F4D14FF0FF3010BD10B54369B3F89C
:1080A0008620B3F884309A42044608D06269B2F858
:1080B0008430591C1344A2F88410187910BD036849
:1080C0001B6998470028F1D14FF0FF3010BDF8B57B
:1080D00043691746B3F88620B3F884309A420546C0
:1080E0000E4606D103681B69984710B94FF0FF345C
:1080F00014E06969B1F88430B1F88640E41ABC42F2
:1081000028BF3C46194422460431304601F011F99B
:108110006A69B2F884302344A2F884302046F8BD5E
:108120002DE9F0439846036893B0DB6A0D46064696
:108130001746984712AB002443F8484D2246214683
:108140002846FEF713FF814600283DD1009B002BF7
:1081500056D05B69002B53D006A8FFF775FC009B37
:108160005C696378022B01D1211D13E00A2B14D125
:108170001122494601A801F002F9A36833BBE36864
:1081800023BB4FF6FF702569FEF7D8FF85421DD14E
:1081900004F1140106A8FFF79AFC06A8FFF774FC87
:1081A00000282DD0336807ADD3F82090184B0C93DE
:1081B0000FCD0DAC0FC42B6823703A4643460CA973
:1081C0003046C84781461BE0A14619E004F1080388
:1081D00001AD1834186859682A4603C20833A3420F
:1081E0001546F7D1062301A90CA80DAD8DF8143062
:1081F000FFF738FC0FCD07AC0FC42B682370CCE71A
:108200000098FEF7ABFE484613B0BDE8F08300BF10
:10821000DC9D0D0042690023A2F884304269A2F877
:10822000863070472DE9F0411E4603680C468AB03F
:10823000DB6A054617469847237DD5F81480042B42
:108240000CBF02200A2006220121FFF72FF8C8F8F0
:1082500000006B691B68002B18DB2846FFF7DAFF6C
:10826000D6B1002303A9F0B20393ADF81030FEF7A6
:10827000FDFE58B968690623009341F20B0203AB77
:1082800040F6FF710068FEF7E9FF28B12B68284629
:10829000DB6A002498473BE01C263246002103A8F5
:1082A00001F06DF8237D8DF80C60042B0CD10223B6
:1082B00038468DF80D30FEF749FFADF80E006068C6
:1082C000FEF73CFF049013E00A2338468DF80D308A
:1082D000FEF73CFF05AEADF80E00231D04F11407B8
:1082E00018685968324603C20833BB421646F7D1B4
:1082F0006B691C2203A91868FEF7C0FF0028C5D1CE
:1083000004340FCC6D698C350FC523682B700124A4
:1083100020460AB0BDE8F08110B5436904461868EC
:10832000002801DBFEF7A2FF63694FF0FF321A60FD
:108330006069112200218C3001F021F82046BDE84F
:108340001040FFF767BF000030B54269B2F88630D1
:108350008BB004461BB1B2F884209A4240D06369C6
:10836000186800283FDBB3F886507F2D3BD8191DD5
:10837000C5F1800208232944FEF788FF00280CDDA0
:108380006369B3F886200AB9A3F884206269B2F859
:1083900086301844A2F8860025E0FFF783F80368CA
:1083A0000B2B20D0FFF77EF803680B2B1BD020236C
:1083B000002502930395FFF775F8036801930E4BB0
:1083C000009302AA2B460D493220FEF7B7FF6369DE
:1083D0001868FEF74BFF63694FF0FF321A6002E046
:1083E000FFF718FFBBE76269B2F88630B2F8840085
:1083F000181A0BB030BD00BF139F0D000C9F0D006D
:1084000010B5002304460160A0F88430A0F886303F
:108410008830FFF719FB204610BD00004FF47A7238
:1084200070B500238260144A436002604361836137
:108430000446A0200E46FBF730FE054610B131463B
:10844000FFF7DEFF1420FBF728FE034628B10122C8
:1084500042608260094A02600561A0696561A361AA
:1084600028B14368013B43600BB9FFF7DFFD2046AD
:10847000FFF7D0FE204670BDC89E0D00AC9E0D00DB
:1084800010B54FF0FF310446FFF7C8FF204610BD7E
:1084900010B504460068002801DBFEF7E7FE204621
:1084A00010BD10B504692046FFF7F2FF24B1204645
:1084B000BDE81040FBF7F3BD10BD00221146406837
:1084C000FEF788BF002211464068FEF7A3BF0022D6
:1084D00011464068FEF7AEBF00224068FEF7A2BF1B
:1084E000002281F001014068FEF78CBF00231A468C
:1084F00019464068FEF77EBF00231A4619464068B9
:10850000FEF770BF002211464068FEF753BF0022FD
:1085100002214068FEF756BF00231A464068FEF766
:1085200041BF0000024B04225A60024A1A607047A1
:1085300020E703202C9F0D0000231A464068FEF719
:1085400031BF002202214068FEF73CBF00221146E5
:108550004068FEF72FBF002211464068FEF73ABF81
:1085600000231A4619464068FEF73CBF00231A460E
:1085700019464068FEF73EBF002281F001014068C5
:10858000FEF740BF00224068FEF74CBF00221146B4
:108590004068FEF74FBF002211464068FEF73ABF21
:1085A0002DE9F043002495B016460D460746FFF727
:1085B0004BFA214620220CA8009400F0E0FE402354
:1085C0000C9321466B460CAA3046FEF7CFFC0446BE
:1085D000002844D1024601216868FEF7FBFE022113
:1085E000804622466868FEF7F5FE009E81462146D9
:1085F000002E34D0002932D17368022B02D00A2B0E
:1086000009D02AE0B8F1000F27D07169384604314B
:10861000FFF75DFA20E0B9F1000F1ED07469112256
:1086200001A800F0ACFE06238DF8143001AD04F172
:1086300008031834186859682A4603C20833A3424D
:108640001546F7D101A906A807ADFFF70BFA0FCD24
:108650003C1D0FC42B6823700121F669C8E7009800
:10866000FEF77CFC384615B0BDE8F083024B034AA8
:108670001A6000225A60704728E70320609F0D00AF
:1086800070B5184E316811F0010504460AD1304624
:10869000FBF714FD30B129461348FEF74FFF304673
:1086A000FBF711FD1048FFF706F828B1A4F10B0302
:1086B000022B01D8002070BD00F070F8FFF760FBBE
:1086C00008B1012CF6D9FFF7F7FAFFF7F2FA18B163
:1086D000A4F10903012BEDD9232C8CBF002001202C
:1086E00070BD00BF20DC032024DC0320232838B524
:1086F00004460D460AD8FF2908D0FFF7C1FF28B16C
:1087000029462046BDE83840FEF740BC38BD38B5A4
:1087100004460D46FEF742FCFF2810D0062804D878
:108720004D2323FA00F0C30709D42046FFF7A8FF22
:1087300028B129462046BDE83840FEF737BC38BD91
:1087400010B50446FEF72AFC0438C0B2012808D947
:108750002046FFF795FF20B12046BDE81040FEF708
:108760002DBC002010BD000070B5044614252A461B
:10877000094E002100F003FE258020253146A5602A
:108780002561284600F040F831466060284600F038
:108790003BF8E060204670BD8C9F0D0030B50E4D5B
:1087A000296811F0010487B013D12846FBF786FC35
:1087B00078B101A8FFF7D8FF01AA21460748FFF7C3
:1087C000CDFA2846FBF77FFC054A0649034800F02E
:1087D0000BF8024807B030BD34E7032038E7032028
:1087E0001CDC0320057D0D000B460146184600F0F9
:1087F00083BD0000024B1868BFF35F8F704700BF56
:108800004CE70320FBF74BBC00F000B810B5002884
:1088100014BF044601242046FEF724FE20B9FFF7CA
:10882000E9FF08B18047F6E710BD0000184B1A6851
:10883000D1075CBF01221A60164B1A68D2075CBFD1
:1088400001221A60144B1A68D0075CBF01221A601B
:10885000124B1A68D1075CBF01221A60104B1A68CC
:10886000D2075CBF01221A600E4B1A68D0075CBFAA
:1088700001221A600C4B1A68D1075CBF01221A60F2
:108880000A4B1A68D2075CBF01221A60704700BF0A
:108890006CE7032068E7032064E7032060E7032018
:1088A0005CE7032058E7032054E7032050E7032048
:1088B000244B1A68D0075CBF01221A60224B1A6849
:1088C000D1075CBF01221A60204B1A68D2075CBF37
:1088D00001221A601E4B1A68D0075CBF01221A6081
:1088E0001C4B1A68D1075CBF01221A601A4B1A6828
:1088F000D2075CBF01221A60184B1A68D0075CBF10
:1089000001221A60164B1A68D1075CBF01221A6057
:10891000144B1A68D2075CBF01221A60124B1A6806
:10892000D0075CBF01221A60104B1A68D1075CBFE8
:1089300001221A600E4B1A68D2075CBF01221A602E
:10894000704700BF9CE7032098E7032094E70320CB
:1089500090E703208CE7032088E7032084E70320C7
:1089600080E703207CE7032078E7032074E70320F7
:1089700070E70320244B1A68D0075CBF01221A60FD
:10898000224B1A68D1075CBF01221A60204B1A687B
:10899000D2075CBF01221A601E4B1A68D0075CBF69
:1089A00001221A601C4B1A68D1075CBF01221A60B1
:1089B0001A4B1A68D2075CBF01221A60184B1A685A
:1089C000D0075CBF01221A60164B1A68D1075CBF42
:1089D00001221A60144B1A68D2075CBF01221A6088
:1089E000124B1A68D0075CBF01221A60104B1A683C
:1089F000D1075CBF01221A600E4B1A68D2075CBF18
:108A000001221A60704700BFCCE70320C8E70320AB
:108A1000C4E70320C0E70320BCE70320B8E7032036
:108A2000B4E70320B0E70320ACE70320A8E7032066
:108A3000A4E70320A0E70320184B1A68D1075CBF06
:108A400001221A60164B1A68D2075CBF01221A6015
:108A5000144B1A68D0075CBF01221A60124B1A68C7
:108A6000D1075CBF01221A60104B1A68D2075CBFA5
:108A700001221A600E4B1A68D0075CBF01221A60EF
:108A80000C4B1A68D1075CBF01221A600A4B1A68A6
:108A9000D2075CBF01221A60704700BFECE70320D9
:108AA000E8E70320E4E70320E0E70320DCE7032016
:108AB000D8E70320D4E70320D0E7032081F000416A
:108AC00002E000BF83F0004330B54FEA41044FEAB3
:108AD000430594EA050F08BF90EA020F1FBF54EA4E
:108AE000000C55EA020C7FEA645C7FEA655C00F0EA
:108AF000E2804FEA5454D4EB5555B8BF6D420CDDBB
:108B00002C4480EA020281EA030382EA000083EA3D
:108B1000010180EA020281EA0303362D88BF30BDDD
:108B200011F0004F4FEA01314FF4801C4CEA113133
:108B300002D0404261EB410113F0004F4FEA033392
:108B40004CEA133302D0524263EB430394EA050F1D
:108B500000F0A780A4F10104D5F1200E0DDB02FA8C
:108B60000EFC22FA05F2801841F1000103FA0EF220
:108B7000801843FA05F359410EE0A5F120050EF1E6
:108B8000200E012A03FA0EFC28BF4CF0020C43FA17
:108B900005F3C01851EBE37101F0004507D54FF024
:108BA000000EDCF1000C7EEB00006EEB0101B1F574
:108BB000801F1BD3B1F5001F0CD349085FEA3000BA
:108BC0004FEA3C0C04F101044FEA445212F5800FC5
:108BD00080F09A80BCF1004F08BF5FEA500C50F162
:108BE000000041EB045141EA050130BD5FEA4C0C45
:108BF000404141EB010111F4801FA4F10104E9D1CE
:108C000091F0000F04BF01460020B1FA81F308BFC4
:108C10002033A3F10B03B3F120020CDA0C3208DD90
:108C200002F1140CC2F10C0201FA0CF021FA02F16B
:108C30000CE002F11402D8BFC2F1200C01FA02F1DB
:108C400020FA0CFCDCBF41EA0C019040E41AA2BF00
:108C500001EB0451294330BD6FEA04041F3C1CDAC8
:108C60000C340EDC04F11404C4F1200220FA04F0E8
:108C700001FA02F340EA030021FA04F345EA030192
:108C800030BDC4F10C04C4F1200220FA02F001FA54
:108C900004F340EA0300294630BD21FA04F02946D6
:108CA00030BD94F0000F83F4801306BF81F480116F
:108CB0000134013D4EE77FEA645C18BF7FEA655CE2
:108CC00029D094EA050F08BF90EA020F05D054EAB4
:108CD000000C04BF1946104630BD91EA030F1EBFB9
:108CE0000021002030BD5FEA545C05D140004941BD
:108CF00028BF41F0004130BD14F580043CBF01F5B0
:108D0000801130BD01F0004545F0FE4141F4700195
:108D10004FF0000030BD7FEA645C1ABF1946104670
:108D20007FEA655C1CBF0B46024650EA013406BF71
:108D300052EA033591EA030F41F4002130BD00BF30
:108D400090F0000F04BF0021704730B54FF48064ED
:108D500004F132044FF000054FF0000150E700BF6E
:108D600090F0000F04BF0021704730B54FF48064CD
:108D700004F1320410F0004548BF40424FF00001BA
:108D80003EE700BF42004FEAE2014FEA31014FEAFD
:108D900002701FBF12F07F4393F07F4F81F060514C
:108DA000704792F0000F14BF93F07F4F704730B5BB
:108DB0004FF4607401F0004521F0004120E700BF4E
:108DC00050EA010208BF704730B54FF000050AE0D5
:108DD00050EA010208BF704730B511F0004502D5D6
:108DE000404261EB41014FF4806404F132045FEAD8
:108DF000915C3FF4DCAE4FF003025FEADC0C18BF7D
:108E000003325FEADC0C18BF033202EBDC02C2F172
:108E1000200300FA03FC20FA02F001FA03FE40EA04
:108E20000E0021FA02F11444C1E600BF70B54FF004
:108E3000FF0C4CF4E06C1CEA11541DBF1CEA1355E6
:108E400094EA0C0F95EA0C0F00F0DEF82C4481EA4E
:108E5000030621EA4C5123EA4C5350EA013518BF6E
:108E600052EA033541F4801143F4801338D0A0FB5B
:108E700002CE4FF00005E1FB02E506F00042E0FB08
:108E800003E54FF00006E1FB03569CF0000F18BF0E
:108E90004EF0010EA4F1FF04B6F5007F64F54074B6
:108EA00004D25FEA4E0E6D4146EB060642EAC62149
:108EB00041EA55514FEAC52040EA5E504FEACE2EB6
:108EC000B4F1FD0C88BFBCF5E06F1ED8BEF1004FB9
:108ED00008BF5FEA500E50F1000041EB045170BD35
:108EE00006F0004646EA010140EA020081EA030179
:108EF000B4EB5C04C2BFD4EB0C0541EA045170BD75
:108F000041F480114FF0000E013C00F3AB8014F1EE
:108F1000360FDEBF002001F0004170BDC4F1000437
:108F2000203C35DA0C341BDC04F11404C4F12005B8
:108F300000FA05F320FA04F001FA05F240EA020013
:108F400001F0004221F0004110EBD37021FA04F649
:108F500042EB06015EEA430E08BF20EAD37070BD03
:108F6000C4F10C04C4F1200500FA04F320FA05F062
:108F700001FA04F240EA020001F0004110EBD37064
:108F800041F100015EEA430E08BF20EAD37070BDD4
:108F9000C4F1200500FA05F24EEA020E20FA04F3AD
:108FA00001FA05F243EA020321FA04F001F000415C
:108FB00021FA04F220EA020000EBD3705EEA430ECD
:108FC00008BF20EAD37070BD94F0000F0FD101F0FC
:108FD0000046400041EB010111F4801F08BF013C35
:108FE000F7D041EA060195F0000F18BF704703F073
:108FF0000046520043EB030313F4801F08BF013DFA
:10900000F7D043EA0603704794EA0C0F0CEA1355B5
:1090100018BF95EA0C0F0CD050EA410618BF52EA6F
:109020004306D1D181EA030101F000414FF0000075
:1090300070BD50EA410606BF1046194652EA430683
:1090400019D094EA0C0F02D150EA013613D195EAF7
:109050000C0F05D152EA03361CBF104619460AD13F
:1090600081EA030101F0004141F0FE4141F4700149
:109070004FF0000070BD41F0FE4141F4780170BD39
:1090800070B54FF0FF0C4CF4E06C1CEA11541DBF9E
:109090001CEA135594EA0C0F95EA0C0F00F0A7F8A0
:1090A000A4EB050481EA030E52EA03354FEA0131CD
:1090B00000F088804FEA03334FF0805545EA1313E0
:1090C00043EA12634FEA022245EA111545EA1065A8
:1090D0004FEA00260EF000419D4208BF964244F13F
:1090E000FD0404F5407402D25B084FEA3202B61A5E
:1090F00065EB03055B084FEA32024FF480104FF432
:10910000002CB6EB020E75EB030E22BFB61A7546A5
:1091100040EA0C005B084FEA3202B6EB020E75EB38
:10912000030E22BFB61A754640EA5C005B084FEAA0
:109130003202B6EB020E75EB030E22BFB61A75466D
:1091400040EA9C005B084FEA3202B6EB020E75EB78
:10915000030E22BFB61A754640EADC0055EA060E39
:1091600018D04FEA051545EA16754FEA06164FEA7C
:10917000C30343EA52734FEAC2025FEA1C1CC0D128
:1091800011F4801F0BD141EA00014FF000004FF0B5
:10919000004CB6E711F4801F04BF01430020B4F176
:1091A000FD0C88BFBCF5E06F3FF6AFAEB5EB030C2E
:1091B00004BFB6EB020C5FEA500C50F1000041EB2B
:1091C000045170BD0EF0004E4EEA113114EB5C04F8
:1091D000C2BFD4EB0C0541EA045170BD41F48011CB
:1091E0004FF0000E013C90E645EA060E8DE60CEAD3
:1091F000135594EA0C0F08BF95EA0C0F3FF43BAFF0
:1092000094EA0C0F0AD150EA01347FF434AF95EAA6
:109210000C0F7FF425AF104619462CE795EA0C0F8A
:1092200006D152EA03353FF4FDAE1046194622E757
:1092300050EA410618BF52EA43067FF4C5AE50EA31
:1092400041047FF40DAF52EA43057FF4EBAE12E721
:109250004FEA4102B2F1E04324BFB3F5001CDCF158
:10926000FE5C0DD901F0004C4FEAC0024CEA507090
:10927000B2F1004F40EB830008BF20F001007047BF
:1092800011F0804F21D113F13872BCBF01F00040C2
:10929000704741F480114FEA5252C2F11802C2F1F4
:1092A000200C10FA0CF320FA02F018BF40F0010075
:1092B0004FEAC1234FEAD32303FA0CFC40EA0C0027
:1092C00023FA02F34FEA4303CCE77FEA625307D164
:1092D00050EA01331EBF4FF0FE4040F4400070479B
:1092E00001F0004040F0FE4040F40000704700BF35
:1092F0000A22002100F062B910B5054C13462CB1CA
:109300000A4601460220AFF3008010BD204610BD82
:109310000000000010B501390244904207D010F857
:10932000013B11F8014FA342F7D0181B10BD0020DC
:1093300010BD10B5431E0A44914204D011F8014BF0
:1093400003F8014FF8E710BD884210B501EB0203A6
:1093500001D8421E0BE09842FBD28118D21AD342A8
:1093600004D013F8014D01F8014DF8E710BD994202
:1093700004D011F8014B02F8014FF8E710BD024488
:109380000346934202D003F8011BFAE7704700003E
:1093900038B5124B1C68A36B0546D3B91820FEF7ED
:1093A00061F843F20E33A06303804AF6CD33438065
:1093B00041F2342383804EF26D63C3804DF6EC633B
:1093C0000381052343810B23838101220023C0E90C
:1093D0000423A36B00221D615A6138BD18DC0320F1
:1093E000194B10B51C68A36BD3B91820FEF73AF8D7
:1093F00043F20E33A06303804AF6CD33438041F23B
:10940000342383804EF26D63C3804DF6EC63038199
:10941000052343810B23838101220023C0E9042318
:10942000A16B0A4C0B694869094A5C4302FB004086
:10943000A3FB02230132034443F10003C1E90423E7
:1094400023F0004010BD00BF18DC03202DF451585C
:109450002D7F954C10F8012B11F8013B012A28BFF4
:109460009A42F7D0D01A7047034611F8012B03F83F
:10947000012B002AF9D17047034613F8012B002A6B
:10948000FBD1181A0138704710B5034642B111F8E4
:10949000014B03F8014B013A002CF7D11A4400E0CC
:1094A00010BD934202D003F8014BFAE710BD000053
:1094B0002DE9F04780464048D0F800900F463D46E1
:1094C00015F8014B09EB0400407800F0080000F0AB
:1094D000FF0608B12F46F2E72D2C03D1BD1C7C7886
:1094E000012603E02B2C04BF7C78BD1C13B1102B8C
:1094F0000AD15BE0302C57D1287800F0DF005828E3
:109500004DD16C7810230235002E14BF4FF0004C63
:109510006FF0004C0027BCFBF3FA384603FB1ACC73
:1095200009EB040E9EF801E01EF0040F01D0303C60
:109530000BE01EF0030E1BD0BEF1010F0CBF4FF06D
:10954000370E4FF0570ECEEB0404A34210DDB7F1F7
:10955000FF3F0AD0504506D801D1644503DC03FB28
:109560000040012701E04FF0FF3715F8014BD7E726
:109570007B1C0CD1002E4FF0220314BF4FF0004093
:109580006FF00040C8F800302AB9BDE8F08706B196
:10959000404272B107B1691E1160BDE8F087302406
:1095A000002BB1D10823AFE70A23ADE7302CA3D0BD
:1095B000AAE7BDE8F08700BFB4DB032013460A46E4
:1095C000014602480068FFF773BF00BF18DC0320A4
:1095D00021400D005D400D0089400D008D400D00C3
:1095E000000000000000000000000000D1400D005D
:1095F0000000000000000000CD400D002F410D00D4
:1096000071410D0029410D0064656661756C74201F
:10961000004D5342004C5342003C53504953657433
:1096200074696E67732064656661756C743E003C96
:1096300053504953657474696E6773202573256CA4
:1096400075202573204D4F444525643E00436F6EC1
:109650006E656374696E6720746F204D5154542E8B
:109660002E2E20005265747279696E67204D515418
:109670005420636F6E6E656374696F6E20696E202F
:1096800035207365636F6E64732E2E2E004D51541A
:109690005420436F6E6E6563746564210044697382
:1096A00074616E636520696E20434D3A2025302E2B
:1096B0003266200A00256920736174656C6C6974D8
:1096C000657320696E2076696577202D2D2D200029
:1096D00054696D653A20253032693A253032693A4D
:1096E00025303269202D2D2D20006C61743A202503
:1096F000662C206C6F6E673A2025662C20616C7496
:109700003A202566200A00256C75206D696C6C690D
:109710007365636F6E647320746F20676574204790
:10972000505320666978006E6F206C6F63617469B6
:109730006F6E006C657373207468616E2031323512
:10974000636D00636C6561720050696E67696E6776
:10975000204D515454200A00446973636F6E6E6546
:109760006374696E67200A005075626C697368697A
:109770006E672044617461200A0057726974696ED3
:1097800067206461746120746F2053446361726464
:10979000200A004461793A2025692C204D6F6E74AF
:1097A000682025692C2059656172202569200A00EE
:1097B00054696D653A20253032693A253032693A6C
:1097C00025303269200A006C617420202566200A49
:1097D0006C6F6E67202566200A616C742025660A0E
:1097E00000536174656C6C6974657320696E2076D2
:1097F0006965773A202569200A005374617274699B
:109800006E672044617461204C6F6767696E6720E2
:109810000A0043616E277420637265617465206677
:10982000696C65206E616D650066696C652E6F7090
:10983000656E004C6F6767696E6720746F3A20250C
:1098400073200A00446F6E65200A005265616479D6
:1098500020666F72206E6578742064617461206C7C
:109860006F67200A007772697465206572726F7283
:10987000200A0043616E277420616363657373205F
:10988000534420636172642E20446F206E6F7420F5
:109890007265666F726D61742E004E6F2063617227
:1098A000642C2077726F6E6720636869702073651F
:1098B0006C6563742070696E2C206F722053504960
:1098C0002070726F626C656D3F0053442065727248
:1098D0006F72436F64653A203058002C305800494D
:1098E0006E76616C696420666F726D61742C207293
:1098F00065666F726D61742053442E0043616E275C
:1099000074206F70656E20726F6F74206469726569
:1099100063746F72792E004E6F206572726F7220C1
:10992000666F756E642E0054696D655374616D7059
:109930002C2052616E646F6D204461746120256932
:10994000200A00617474656D7074203139004C65B3
:10995000655F41626579746100696F2E616461665B
:10996000727569742E636F6D0061696F5F61537604
:1099700064373034326D496441626A614D6F686D9D
:10998000546D637533714E3839004C65655F4162C3
:10999000657974612F66656564732F4C61746974B1
:1099A000756465004C65655F4162657974612F6619
:1099B000656564732F4C6F6E676974756465004CE0
:1099C00065655F4162657974612F66656564732FB3
:1099D000416C746974756465004C65655F416265CE
:1099E0007974612F66656564732F44697374616E61
:1099F000636520696E20434D004750524D43004738
:109A00004E524D4300475047474100474E4747415C
:109A1000004E004E4E4500454E450045534500530F
:109A200053450053005353570057535700574E5751
:109A3000004E4E5700000000000000000000000033
:109A4000CF400D00694A0D0055690D00016A0D00F7
:109A5000336A0D0069690D00A9690D00000000005E
:109A6000000000000000000000000000A9400D0000
:109A7000A9400D00A9400D00A9400D00A9400D000E
:109A8000E39A0D00F79A0D00C79A0D00099B0D008F
:109A90004E9B0D00939B0D00B39B0D00E69B0D00AC
:109AA000009C0D00379C0D00205B30780030005D7D
:109AB0002C20000A090044726F70706564206120D8
:109AC0007061636B657400556E6B6E6F776E2065A9
:109AD00072726F72004D51545400252525642E2555
