:02000002D0002C
:1040000000400D0040960D00000006000C00050168
:084010000401E80500000000B6
:04401800688D0D00A2
:1040200009480A49884208B505D0094A824202D0A7
:10403000121A04F066FD0748074A0021121A04F01C
:104040006BFD014808BD00BF98DC032094950D006E
:104050001CDD03201CDD0320F0E7032070B503F016
:1040600075F8074C074BE41AA40800251E46A54224
:1040700004D056F8253098470135F8E770BD00BFE9
:1040800084950D0004950D0000F0FABB08B500F012
:1040900083FBBDE8084003F01BB802F0D3BD02F07B
:1040A000D9BD02F0D7BD0078B0FA80F04009704762
:1040B0000123037070477047083001F023BA0000F5
:1040C0007FB5024608461379956833B13DB90C496E
:1040D00004B0BDE8704002F035BF0A4B00E00A4B67
:1040E000167B0A4C0A49527B0292012E08BF2146D8
:1040F00001910095074A002102F067FF04B070BDEE
:10410000B18D0D0084910D00A08D0D00A98D0D00C5
:10411000AD8D0D00C78D0D0010B52C21044603F0A8
:1041200059FF204610BD000038B584690A4B036072
:1041300005467CB16368013B63605BB92368204638
:104140009B689847A368013BA3601BB9236820467E
:10415000DB689847284638BDDC920D0007B502ABF6
:10416000012203F8011D0830194601F0CBF903B014
:104170005DF804FB10B50446FFF7D6FF20461C216E
:1041800003F028FF204610BD2DE9F04F7B4CA9B06D
:1041900002F084FB2368C01A41F28733984240F250
:1041A000E98002F07BFB206003F0E6F8744C0546E2
:1041B0000A22217802F0E9FE284602F0CEFE03F042
:1041C000DBF823780646254623B102F067FB616BD6
:1041D000411A01E04FF0FF310A22304602F0D5FECD
:1041E000304602F0BAFE2B78654CDFF89CA13BB15B
:1041F00002F054FB636BC01A42F20F73984210D95D
:10420000604908A804F0FCFC9AF80030002B40F04C
:10421000B1805D4B01221A7002F040FB5B4B1860CD
:10422000A8E0204601F0E8FF51EC100B04F0F8FB89
:10423000DFF89091DFF89081C9F80000204602F085
:1042400003F851EC100B04F0EBFB002584F87950D7
:10425000C8F80000D4F880004D4FDFF870B14D4E23
:1042600004F066F94C4B002204F0F2FA04F0D8FB9B
:10427000386004F1480002F055F8484A079210707F
:1042800004F1480002F058F88BF8000004F14800EF
:1042900002F060F884F89950414DD4F8A0303070A5
:1042A00004F138002B7002F033F804F1380002F00A
:1042B00023F83C4B187004F1380002F011F83A4B27
:1042C000079A18701378072B144601D9063B00E0B3
:1042D0001233237003F050F8344A0790106804F04A
:1042E00039F9079B324ACDE900010021184602F056
:1042F0006CFE03F041F82B782E4A002102F065FE97
:1043000003F03AF83278237801929BF8002000926B
:104310000021294A02F059FE03F02EF804463868BD
:1043200004F018F9CDE90401D8F8000004F012F9FE
:10433000CDE90201D9F8000004F00CF91F4ACDE9DB
:1043400000010021204602F040FE9AF800308BB1B7
:104350000D4B00221A7002F0A1FA0C4B1C68041BD2
:1043600003F00AF8164A2346012129B0BDE8F04FB0
:1043700002F02BBE29B0BDE8F08F00BFC4E30320DC
:10438000DCE103206F8E0D0050DD032088E3032065
:104390007CE30320C8E30320000059402CDD032008
:1043A0002EDD03208CE30320BCE30320D8E10320AF
:1043B000E58D0D00FD8D0D00188E0D00328E0D0067
:1043C0004F8E0D00C0E3032030DD032081E3032086
:1043D00070B5054614460E4602F060FAADB20444CC
:1043E000284603F095FDB04203D002F057FAA042F0
:1043F000F6D370BD10B584B20121204603F06FFDE5
:104400000A2002F03BFA20460021BDE8104003F0EC
:1044100066BD000038B5124B124D1868FFF7EAFF71
:10442000642201212868FFF7D3FF02F02FFA6422EB
:10443000044600212868FFF7CBFF02F027FA001B93
:1044400007EE900ADFED086A084BF8EEE77A642081
:1044500087EEA67A83ED007ABDE8384002F002BE0E
:1044600098DC03209CDC032000006842D8E1032094
:1044700010B507EE900A134B134CB8EEE77AD3ED64
:10448000007A2378B4EEE77AF1EE10FA0CDD9BB9EE
:1044900002F072FF0D4902F06CFD0D4A137883F0B3
:1044A00001031370012306E033B102F065FF0949EF
:1044B00002F048FD002323704FF47A70BDE81040ED
:1044C00002F0D0BDD8E103202DDD03207B8E0D004E
:1044D00080E303208B8E0D0010B586B002F04CFFF8
:1044E0002649274C02F02EFD264A274B12781B78CE
:1044F0000192264A127800920021254A204602F0B5
:1045000064FD244A244B12781B780192234A1278C6
:1045100000920021224A204602F057FD214B1868E4
:1045200004F018F8CDE904011F4B186804F012F8E4
:10453000CDE902011D4B186804F00CF81C4ACDE9C6
:1045400000010021204602F040FD1A4B1A4A1B7858
:104550000021204602F039FD1849204602F009FDED
:10456000174B186803F0F6FF164ACDE90001002149
:10457000204602F02AFD06B010BD00BF918E0D004E
:1045800090E30320BCE30320BDE303208CE303207E
:10459000AA8E0D00C8E303202CDD032081E3032055
:1045A000C78E0D007CE3032030DD0320C0E3032031
:1045B000DE8E0D002EDD0320F88E0D0084910D009F
:1045C000D8E10320E58D0D0008B5044602F0D4FEC5
:1045D00094F8603405462BB31A4902F0D4FC94F8E1
:1045E0006034202B03D11849284602F0CCFC94F803
:1045F00060341BB31549284602F0ABFC102294F836
:104600006014284602F0C1FC1149284602F0A1FCC2
:10461000102294F86914284602F0B7FC284602F0EC
:104620009CFC0BE0E3790BB90A4905E094F83C34B3
:104630000BB9094900E0094902F0A5FC02F03EF976
:10464000FCE700BF118F0D00388F0D00688F0D0043
:10465000798F0D007D8F0D009A8F0D00B58F0D00A5
:104660000A46002102F0B1BC70B53C4C23788AB0F8
:10467000002B70D002F080FE39493A4DFFF7F0FF71
:1046800000260023374A38498DF8046001A88DF8C8
:10469000056000F0E8FE98B16B79392B02D0013348
:1046A0006B71EEE72B79392B04D0302201336A711C
:1046B0002B71E6E702F060FE2C4902F05AFCFEE79F
:1046C0002B49284A09682B4840F6012300F0CBFE0D
:1046D00020B902F051FE284902F04BFC02F04CFEDA
:1046E000204B264A264D002102F06FFC02F0CEF846
:1046F000244B1860237873B302F03EFE224902F087
:1047000021FCFFF7E9FE1B4800F070FEE8B16B7A70
:10471000DB071AD44FF4FA71642002F028FF02F08C
:10472000A1FC00231348237000F096FE02F024FE43
:104730001649FFF795FF4FF4FA6002F093FC02F080
:104740001BFE1349FFF78CFFD4E702F015FE114959
:10475000FFF786FFDEE70AB070BD00BF80E30320ED
:10476000C58F0D00A0DC032090E10320DD8F0D003C
:10477000CCE3032098E30320F48F0D00FE8F0D009F
:1047800090E3032084E30320988F0D000F900D0029
:1047900016900D0030900D0008B5FFF73BFE02F0BB
:1047A00073FE03681B699847002810DD02F06CFE59
:1047B00003685B699847C1B2074801F06DFF0028A4
:1047C000EDD0FFF7E1FC6420FFF752FEE7E7BDE81C
:1047D0000840FFF749BF00BFDCE103207FB5214A55
:1047E000214C00231370214A009204F58C66204A64
:1047F0008DF80430029201258DF80D300E226B46A3
:1048000004F26C4130468DF80C5001F0C3F930B31E
:1048100004F23C40266000F01FFE2946204601F0CD
:1048200062F8014640B1104C04F23C45214628464E
:1048300000F03DFC98B105E0204601F054F8002856
:10484000F1D10CE094F83C3413F0700F07D0094B11
:1048500009490A481D60FFF703FF04B070BD024814
:10486000FFF7B2FE80E3032054DD0320848D0D00AA
:1048700080F0FA02CCE303203E900D0090E3032089
:1048800008B502F079FD4FF4165102F069FD4FF4BE
:10489000FA7002F0E7FB144B0121188803F00EFBBD
:1048A000124B0021188803F009FB02F0EDFD4FF4D4
:1048B000165102F0E3FD01F0F1FF0D4B18600D4BB6
:1048C00001221A70FFF78AFF4FF4FA7002F0CAFB58
:1048D00002F052FD084902F04CFB4FF4FA70BDE8BB
:1048E000084002F0BFBB00BF98DC03209CDC032023
:1048F00088E3032050DD03205A900D0070B501F0CD
:1049000035FF0021012002F021F92248224E03F058
:104910009FF9224A22491F4803F04EFB214801F02B
:10492000C5FB214B642183F860142049C3F870143F
:10493000012183F874143168002211F00105DA7145
:1049400083F83C2483F83D2483F86A24C3F8782450
:1049500083F87C2483F87D241C460AD13046FFF777
:10496000A2FB30B12946124802F0D0F93046FFF7D9
:104970009FFB10480E4BC4F86C3400230372437243
:1049800043600D4B0360054A0C49BDE8704003F0DD
:1049900013BB00BF34DD032020DD03201CDD03201A
:1049A00029410D00DCE1032054DD0320848D0D003E
:1049B00024DD032090E30320908D0D00B7400D000F
:1049C00001F0D4BE01F0D2BE10B50446243000F090
:1049D0007BFE28B104F50C70BDE8104000F074BEF9
:1049E00010BD411E00F10A020020430843EAC01036
:1049F00011F8013F53FA80F08A42C0B2F5D17047F6
:104A00002DE9F0470378202B00F1010401D1204665
:104A1000F8E7704F886005462C1A2E4615F8013BC2
:104A20000BB32F2B01D1031917E05C2B02D100200F
:104A3000BDE8F087A3F12204E4B21D2C03D827FAC5
:104A400004F4E407F3D403F0BF043C2CEFD0203B84
:104A50005E2BE1D9EBE72F2D05D11E4613F8015B44
:104A6000202DF8D1F9E7166003199842C0EB03082E
:104A700009D013F8012D2E2AF7D0202AF5D0B8F14D
:104A8000FF0FD4DC01E04FF00008C1F8048001F111
:104A90000C0301F11702202403F8014F9342FBD1CC
:104AA00003461A1A13F8014B2E2CFAD0202CF8D0FA
:104AB000B2FA82F4640908F1FF36731C07D10027AB
:104AC0004FF0070E3D46BA464FF0080909E0835DF6
:104AD0002E2BF4D0013EF0E7835C202B04D1002480
:104AE00001324245F8DB4BE02E2B02D1B242F6D127
:104AF00003E0222B17D07C2B15D0A3F12A0CBCF19C
:104B0000050F01D82D2B0ED1A3F13A0CBCF1050FE6
:104B100009D9A3F15B0CBCF1020F04D9A3F1210C5C
:104B2000BCF15D0F02D9B2420ED149E0B24247D08A
:104B3000754521D8A3F1610CBCF1190F08D8203BB1
:104B4000DBB249EA07070AE0754515D800245F2360
:104B5000A3F1410CBCF1190F98BF49EA0A0A05F10B
:104B6000010C5FFA8CFC0D44BCF1060F6B7301D88D
:104B700081F80CC06546B3E7BEF10A0F17D10024D7
:104B80004B7B202B3FF453AF3CB11AEA070F18BF01
:104B900002270F700120BDE8F0870B7B0120087011
:104BA00019447E234B7331238B73BDE8F087B242E7
:104BB000E5DC32464FF00A0E08254FF010098EE76B
:104BC000BEF10A0FDBD032464FF00A0E08254FF037
:104BD000100985E7010100312DE9F84391F80C90A7
:104BE00006460D4602247E2701F10D086968AA6871
:104BF00063189BB21144914206D012F8010B03EBEB
:104C0000431343409BB2F6E7B9F1030F28BF4FF0BF
:104C1000030909F10402D2B203F00F01A818013A06
:104C20000929D2B294BF30313731914541734FEAEF
:104C30001313F1D305EB090300215F73304600F035
:104C40001EFB0121304600F0FDFA014628B97078BC
:104C5000B0FA80F04009BDE8F88303784BB1C37A1D
:104C60001B07EED40B22404603F03CFF0028E8D19E
:104C700002E00120BDE8F8830134A4B2642CB5D170
:104C8000BDE8F8832DE9F04F9B460B7889B013F00F
:104C9000700F05900E46914601D10020A0E1059BC2
:104CA0001B78002BF9D15368029313789B0700F00F
:104CB0008D81029B0D270C33B3FBF7F70137FFB251
:104CC0000021304600F0DBFA4FF0000809F10D0238
:104CD000CDF80C80434644464546CDF810800692F8
:104CE0007269079301213046C2F34F1A00F0AAFA05
:104CF000079B20B97378002B00F09080CDE70278F5
:104D0000E52A00D042B9002C08BFD046BC423CBFC7
:104D10000134E4B222B981E0BC4238BF002403E090
:104D2000E52A01D10025DBE72E2AFBD0C17A0F2925
:104D300052D13DB95106D3D5437B039302F01F05F1
:104D40002B4607E0013BDBB29A42EBD1427B039951
:104D50009142E7D15A1E4FF00D0C0CFB02FC029A57
:104D60006245DFD94FF0000EBEF1040F5FFA8EF2FC
:104D700004D800EB4E02B2F801200CE00A2A95BFDD
:104D80000EF1FF320EF1010200EB420200EB420293
:104D900094BFD28892880299614503D1002A18BF36
:104DA00000259DE7FF2ABDD8D2B2A2F14101192901
:104DB000D9F8081011F80C1098BF20320CF1010A34
:104DC000A1F1410C98BFD2B2BCF1190F9CBF2031A8
:104DD000C9B29142A6D1FBE00907A3D44DB1012B82
:104DE0007FF45BAFFFF7FDFD039B83427FF455AF7C
:104DF0000FE00B220699079303F074FE079B00282F
:104E00007FF46EAF99F80020D20702D501220492F8
:104E100066E71BF4006F00F0D1803EE71BF4007FD3
:104E20003FF43BAF0BF00303013B012B3FF635AFE3
:104E3000002C08BFD046BC4202D3049BCBB91FE074
:104E40000021304600F0FEF910B973785BB124E719
:104E50000134E4B2EFE7B3681B79012BEDD81034CD
:104E6000E4B2A742E9D9304600F0D2F80028F2D1E6
:104E700013E749463046FFF7AFFE00283FF40DAF79
:104E80004FEA4811304600F0FAF900283FF405AF28
:104E90007D1EEDB22C464FF0000A4FF00F0841E0A6
:104EA0000021304600F0CEF9074600283FF4F5AE69
:104EB000B26892F82430AC4243F0010382F8243007
:104EC0000CBF44F040022246027080F80B8080F84C
:104ED0000CA009F10D000392FFF783FD039A78738C
:104EE00087F81AA087F81BA002F01F020D23013AD1
:104EF000D9F808E05A4300230299914215D91EF8C7
:104F00000210042B5FFA83FC03F1010013D807EBB6
:104F10004303A3F801100D2802F101020346EBD16F
:104F2000013CE4B2002CBBD10EE014BF4FF0FF31C6
:104F3000002189B2E5E7BCF10A0F94BF07EB4303F8
:104F400007EB40039980E6E7736921463046C3F3D7
:104F50004F1A00F077F9074600283FF49EAE202252
:104F6000214603F0D9FD4B4653F80D2F3A605A689D
:104F70007A601A893A819B7ABB7299F8003003F003
:104F800018033B73184B1B682BB107F10E0107F197
:104F90001000984706E021233B7428237B740823E4
:104FA000BC73FB733B8A7B823B83FB89FB82B268C9
:104FB00092F8243043F0010382F8243000955B46D8
:104FC00052463146059800F0A3F909E0012777E63B
:104FD0000EF1010EBEF10D0F3FF482AED446C3E6D2
:104FE00009B0BDE8F08F00BFD0E3032001F0BEBBE5
:104FF00001F0BCBB01F0BABB01F0B8BB837801691A
:1050000043F00403837000F11002806800F012BCCA
:105010002DE9F041037803F02003044603F0FF0577
:105020000BB100262EE04269184B9A42F9D8FFF7DF
:10503000E5FF06460028F4D02169A06800F08FFB48
:105040000746A06805223946243000F064FB8046FC
:105050000028E6D029464FF4007203F05DFD0125DB
:10506000A3681A79AA4209D94246E919186800F0DA
:10507000CFFE0028D5D00135EDB2F1E7636903EB2F
:10508000422363613046BDE8F08100BFFFFD1F0091
:1050900010B5044680680A462430A16900F03BFB45
:1050A00020B1A38803F00F0300EB431010BD70B5CF
:1050B000047805460E4684B92422214603F02CFDCF
:1050C000AE60F379102B03D0202B06D1402300E0F3
:1050D000202301202B70A87070BD002070BD2DE929
:1050E000F74F03780446894615464BB18278D107BD
:1050F00006D50CE05A46216900F037FB00283DDA5E
:10510000637843F0020363704FF0FF3097E01A07B3
:1051100003D5E36962699B1A07E09A0608D5A3687C
:105120001A896369C3EB42139BB29D4228BF1D4697
:105130002E464FF0000804F1100B002E35D02278D7
:105140006369A06812F0200FC3F3080A4FEA5321E5
:1051500002D0036A19441DE090F8058001EA0808AE
:10516000BAF1000F10D1B8F1000F0DD1002BC1D151
:1051700053064CBF036A236A236105E004D12378F8
:1051800013F0700F11D1BBE72169A06800F0E7FAB6
:1051900008EB0001A068BAF1000F35D1B6F5007F29
:1051A00032D3C36A994202D12EE0A81B47E0B6F57C
:1051B000806F1BD3227897064FEA562A06D40279CD
:1051C000C8EB0202D2B2924528BF924699424FEAFA
:1051D0004A2707D2A06853464A46006800F0D6FD29
:1051E00060B98DE75344994221D3F3E74A460068FA
:1051F00000F084FD002883D04FF4007763693B44BE
:10520000B9446361F61B98E70022243000F083FA6A
:1052100000283FF475AFCAF50077B74228BF37467C
:1052200000EB0A013A46484603F06BFCE6E72430FF
:10523000019100F049FA01990028CBD160E703B051
:10524000BDE8F08F37B54369C3F34315044605B194
:1052500069B901220DF107012046FFF740FF40B276
:10526000012801D0002008E063691F3300E02033EB
:10527000A0686361303000EB451003B030BD2DE90C
:10528000F0410E46017807690446002939D0456986
:10529000B5423AD00EB9066131E00B0703D5C369B8
:1052A0009E422ED807E0880605D5A3681B89B6EB79
:1052B000431F26D823E0D4F808E09EF806306A1E83
:1052C00003F10900731EC240C3409A4200D84DB991
:1052D0004A064CBFDEF82020226A22611D4604F1F6
:1052E00010080AE09B1AF9E742462169A06800F01D
:1052F0003CFA002805F1FF3503DD002DF4D166618D
:1053000003E027610020BDE8F0810120BDE8F081C5
:10531000F8B50F4615460021242204461E4603F028
:10532000FBFBB868A06005F00F02A58000F130011A
:1053300052013B6AE3601144CB7A1D074CD48318B9
:1053400093F83B3003F017032370C97A11F0180F5C
:1053500004BF43F0080323709DF81830E37006F093
:105360000303012B09D0022B05D0002B34D171058A
:1053700032D4012302E0032300E00223A370A178CA
:105380008B0703D5237813F0110F25D14BB216F4F8
:10539000005F06F0080114BF6FF07F070027194374
:1053A0003943A170C36AA36102447505B2F8441081
:1053B000B2F84A3043EA014104D581B100F075FAF0
:1053C00068B909E02162D36CE36173040CD5E1692B
:1053D0002046FFF754FF38B900202070F8BDA378AD
:1053E00043F00403A370F0E70120F8BD38B503785B
:1053F00004460BB9012038BD83785A0723D5012113
:10540000FFF746FE054628B9637843F00103637051
:10541000002038BD0378E52BF6D023781B0744BF66
:10542000E369C361238C4383638C8382094B1B68CC
:105430002BB100F11601183098472B8B6B82A378A3
:1054400023F00403A370A068FFF7BEFA0028DBD0A6
:10545000D0E700BFD0E3032010B50446FFF7C6FF36
:105460000023237010BDF0B593B01F4600238DF8C4
:1054700024308DF825300378019206460C460BB196
:1054800000203DE00B7813F0700FF9D013782F2B2C
:1054900012D1019B1A782F2A02D101330193F8E728
:1054A000A1681AB93046FFF702FE29E009A8FFF704
:1054B000FEFD0028E4D009AC01AA03A90198FFF77A
:1054C0009FFA0028DCD0019B1B789BB1002303AA24
:1054D00021463046FFF7D6FB0028D1D035460FCD08
:1054E00009AC0FC40FCD0FC42B6823603046FFF703
:1054F000B3FFE0E73B4603AA21463046FFF7C2FB75
:1055000013B0F0BD2DE9F04703788946190704462A
:10551000904608D583789A0705D51B070BD5E16916
:10552000FFF7ADFE38B9637843F0010363704FF0C5
:10553000FF30BDE8F0876369DB439845F3D8464602
:105540004FF0000A6369002E00F08180A068427964
:1055500012EA5325C3F308071CD1DFB9216971B1E1
:1055600004F1100200F001F90028DCDB40F08E802D
:105570002046FFF743FD002840F08880D3E7236AE8
:105580003BB92046FFF73AFD0028CCD023692362BF
:1055900000E023612169A06800F0E1F8291817B93B
:1055A000B6F5007F21D2C7F50075B54228BF354654
:1055B00037B96369E269934234BF0122052200E0F2
:1055C0000122A068243000F0A6F80028ABD03844AF
:1055D0002A4649462F4403F094FAB7F5007F30D1AC
:1055E000A068243000F070F817E0B6F5806FA0686E
:1055F00015D30279521B730AD2B2934228BF1346C5
:10560000C26A91424FEA432502D31A44914237D3EA
:10561000A7684A46386800F06DFC90B983E7C36A12
:10562000994202BF4FF0FF3380F824A0C362A36801
:105630004A46186800F0ECFB00283FF474AF4FF4C2
:10564000007563692B446361A944761B7AE7E269BC
:10565000934201D9E36102E00F4B1B681BB1A378B1
:1056600043F00403A37094F90230002B02DB4046A0
:10567000BDE8F0872046FFF7B9FE0028F7D152E7D2
:105680004FF0FF3280F824A0C262C1E72169A06810
:1056900000F065F8014683E7D0E3032001F066B827
:1056A00070B505460C46084649B103F0B1FA2B68BF
:1056B000024621462846DB68BDE87040184770BDA9
:1056C00001F054B801F052B870B50378DA07044617
:1056D0001ED54368816800F10C063246186800F058
:1056E00097FB054608B9002513E023789B0704D4EF
:1056F000237823F0010323700BE06368A068196925
:1057000032460144186800F083FB0028F0D1EAE734
:105710000125284670BD70B583688B4204460E464D
:10572000154614D0FFF7D0FF08B9002070BD6B07F5
:1057300003D500232370A66009E0636804F10C021E
:105740003146186800F0DAFA0028F2D1EDE7237844
:10575000204605F003051D4300F80C5B70BD8379FE
:1057600040690239994008447047012970B50546DF
:105770000C46164602D84FF0FF3070BDC3699942FF
:10578000F9D8C379202B10D18169022201EBD41101
:1057900000F50C70FFF7BFFF0028ECD004F07F0489
:1057A00050F8243023F070430FE0102BE3D18369CD
:1057B000C1F307210222194400F50C70FFF7ABFF7B
:1057C0000028D8D0E4B230F81430EA6993429ABF86
:1057D00033600120002070BD012938B50C46154604
:1057E00001D8002038BDC3699942FAD8C379202B6B
:1057F0000ED18169032201EBD41100F50C70FFF783
:105800008AFF0028EDD004F07F0440F824500FE018
:10581000102BE6D18369C1F307210322194400F557
:105820000C70FFF778FF0028DBD0E4B220F81450AA
:10583000012038BD2DE9F341C4688C4205460E466F
:10584000904607D20C460027EB6901349C4203D9ED
:10585000CFB9EC680127F7E7A64214D001AA214688
:105860002846FFF782FF00280DDBEDD0019B002BBF
:10587000EAD107B1EC606FF0704221462846FFF78D
:10588000ABFF074608B900270BE016B9C8F800407F
:1058900007E0224631462846FFF79EFF0028F5D153
:1058A000F1E7384602B0BDE8F08173B505460C4615
:1058B00001AA21462846FFF758FF061E01DA0020FC
:1058C0000FE0002221462846FFF786FF0028F6D089
:1058D000EB689C429CBF04F1FF34EC60019C002EFD
:1058E000E6D102B070BD70B5012304460022C3604A
:1058F0004FF0FF33C2710D46A06280F82420C362CE
:10590000C4F8340280F83022C0F83832A1B104293A
:105910005DD811462430FFF7FEFE002857D000EB7B
:10592000051393F8AE315B0651D11B3500EB05151D
:10593000D5F80650002D4AD00022294604F1240053
:10594000FFF7E9FE002842D0B0F80B30B3F5007F36
:105950003DD1037C022B3AD1C389002B37D0417B48
:1059600021714B1E63710023A371092601238B4211
:1059700007D0013E2BD0A2795B000132DBB2A271CD
:10598000F5E7C28A02B9426A2261C6892E44A6613D
:10599000B0F81130238106EB42012162B0F81120EA
:1059A000520102F2FF1201EB62226261B0F8133081
:1059B00003B9036AAD1A2B44A57923FA05F56B1CCC
:1059C000E36140F6F4739D4203D80C23E371002099
:1059D00070BD4FF6F4739D4285BFC36A23621023E6
:1059E0002023E371012070BD00F0C0BE00F0BEBEF8
:1059F00000F0BCBE70B50E4C0E46154600F046FFDA
:105A00002368C01A0B4B984208D900F047FF0A4B95
:105A1000186001F007F900F039FF206000F03EFF48
:105A200080B2801BA842D4BF0020012070BD00BFFF
:105A3000D4E30320A086010030E7032038B5057ABF
:105A400004464DB9406800F07DFA63682946187D28
:105A500002F045FA0123237238BD10B5037A0446DB
:105A60006BB143680121187D02F039FAFF216068AB
:105A700000F09AFA606800F079FA0023237210BDF2
:105A8000F8B504460D46164600F008FF87B2606878
:105A900000F06FFAFF28607209D14FF47A7239462C
:105AA0002046FFF7A7FF0028F1D055230BE0FE2882
:105AB00001D0502307E032462946606800F05EFAC4
:105AC000607230B1602320462370FFF7C6FF0020CC
:105AD000F8BD606800F04DFA606800F04AFA0120F5
:105AE000F8BD70B504460E4600F0D8FE85B23246C9
:105AF00029462046FFF77EFF30B9606800F039FA8A
:105B0000FF28F4D1012070BD002070BDF7B5037AE5
:105B1000019204460D460BB9FFF790FF25B14FF4F3
:105B200096712046FFF7DDFF45F04001606800F008
:105B30003BFA0DF107060DF1030716F8011960682D
:105B400000F032FABE42F8D1002D0CBF952187211A
:105B5000606800F029FA606800F00BFA0B256068B5
:105B600000F007FA0306607203D5013D15F0FF054A
:105B7000F5D103B0F0BD70B504460D461646372189
:105B80000022FFF7C3FF324629462046BDE8704099
:105B9000FFF7BCBF2DE9F041002505720570857245
:105BA0004160044690461E4600F078FE4146074696
:105BB000606800F0CBF963684F4A1D724FF001082E
:105BC000DA605D7483F810802046FFF737FF636862
:105BD0004146187D02F083F90A25FF216068013DE6
:105BE00000F0E2F915F0FF05F7D163682946187D4A
:105BF00002F075F90A25002211462046FFF786FFBC
:105C00000128804612D0013D15F0FF0501D1202367
:105C100057E0FD21606800F0C7F94FF40278606832
:105C200000F0A7F9B8F10108F9D1E4E74FF4D57213
:105C300008212046FFF76AFF052802D184F80A8070
:105C40000FE00425606800F094F9013D15F0FF05B0
:105C50006072F7D1AA2802D10223A37201E02523A2
:105C60002FE0A37A022B0CBF4FF080450025BFB276
:105C70002A4629212046FFF77EFF024648B14FF40D
:105C8000FA6239462046FFF7B5FE0028F0D04323DC
:105C900017E0A37A022B0ED02046FFF7DEFE6368E2
:105CA000B0683479317B727B5A74D8601C72197475
:105CB0000120BDE8F0813A212046FFF727FF38B1E7
:105CC000372320462370FFF7C8FE0020BDE8F0818F
:105CD000606800F04EF900F0C000C02804BF032344
:105CE000A372606800F045F9606800F042F96068EE
:105CF00000F03FF9D0E700BF90D0030038B5837AB9
:105D0000032B18BF490215460A4611210446FFF726
:105D1000FDFE10B1302323700BE029464FF40072D2
:105D20002046FFF7ADFE054618B12046FFF795FE69
:105D300003E02046FFF791FE0025284638BD10B548
:105D4000837A032B0A4618BF4A0212210446FFF742
:105D5000DDFE30B1312320462370FFF77EFE0020A8
:105D600010BD012010BD10B500220C210446FFF724
:105D7000CDFE30B1282320462370FFF76EFE0020B1
:105D800010BD2046FFF769FE012010BDF8B505469D
:105D900016461F46FFF7D3FF98B10024A3B29F42D7
:105DA00006EB442108D94FF400722846FFF768FE3D
:105DB00001340028F2D104E02846BDE8F840FFF79E
:105DC000D2BF0020F8BD38B504461546406800F043
:105DD000EBF84FF400722946606800F0E9F8FF2103
:105DE000606800F0E1F8FF21606800F0DDF86068AD
:105DF00000F0BFF8607200F01F00052806D057239E
:105E000020462370FFF729FE002038BD012038BD51
:105E100070B5837A032B18BF490215460A4618212C
:105E20000446FFF773FE064608B132231DE02A46FA
:105E3000FE212046FFF7C7FFC0B14FF4FA612046AC
:105E4000FFF74FFE054608B95A230EE032460D21F2
:105E50002046FFF75BFE38B9606800F08AF818B991
:105E60002046FFF7FAFD05E0292323702046FFF7BF
:105E7000F4FD0025284670BD38B50D464FF4FA6193
:105E80000446FFF72EFE10B95B23237005E02A4677
:105E9000FC212046FFF797FF18B92046FFF7DDFDEC
:105EA000002038BD10B5837A032B0A4618BF4A027A
:105EB00019210446FFF72AFE30B133232046237010
:105EC000FFF7CBFD002010BD012010BD38B54FF409
:105ED000FA610446FFF705FE054620B1FD21606822
:105EE00000F062F801E0562323702046FFF7B5FD6D
:105EF000284638BDF8B5054616461F46FFF7D2FFBF
:105F000070B10024BC4206EB4421284604D0FFF7C0
:105F1000B3FF28B10134F5E7BDE8F840FFF7D6BF7D
:105F20002846FFF79AFD0020F8BD00F01FBC00F0E6
:105F30001DBC00F01BBC0000014B01221A70704711
:105F4000D8E30320011D006800F014BF10B504461B
:105F50000175006800F0E4FE207D012101F0AEFF34
:105F6000207D0121BDE8104001F0B9BF006800F0BC
:105F7000E8BEFF21006800F06DBF000037B5084B98
:105F800000930025074C0068257013460A462946F1
:105F900000F066FF2378002BFCD0002003B030BD5A
:105FA000395F0D00D8E30320006800F053BF000004
:105FB00037B5074B00930025064C00682570134643
:105FC0002A4600F04DFF2378002BFCD003B030BDF3
:105FD000395F0D00D8E3032000F0C8BB10B583681B
:105FE000044613B1032201469847204610BD000025
:105FF000024B01221A7000F0B9BB00BFD9E30320A5
:1060000000220270427082808260027302824261CA
:1060100002768283026280F824200285C26280F8C0
:106020003020426380F8382080F83920C26302644F
:10603000426480F8482080F84920C26402654265C5
:1060400080F8582080F85920C2650266426680F8C0
:10605000682080F86920C2660267426780F878206D
:1060600080F87920C267C0F88020C0F8842080F8CA
:10607000882080F88920C0F88C20C0F89020C0F8D3
:10608000942080F8982080F89920C0F89C20C0F8CF
:10609000A020C0F8A42080F8A82080F8A920C0F88B
:1060A000AC20C0F8B020C0F8B420704710B504464A
:1060B000FFF7A6FF04F1B800FFF7A2FF00230222BA
:1060C00084F8703184F8713184F8812184F8823148
:1060D00084F8833184F88431C4F88831C4F88C3171
:1060E000C4F89031C4F89431C4F89831C4F89C31A4
:1060F00084F87231204610BDA1F14103052B02D86E
:10610000A1F137007047A1F16103052B94BFA1F104
:106110005700A1F13000704738B5057804462D2DA1
:1061200008BF0134204602F0CBFC642358432246CA
:1061300014F8013BA3F130010929F8D92E2B0BD11A
:106140005378303B092B07D80A2101FB03009378D1
:10615000303B092B98BFC0182D2D08BF404238BDD9
:1061600038B504460D4602F0ABFC6423B0FBF3F2F5
:1061700003FB1200114B2A80434320460278A2F110
:1061800030010929044600F10100F7D92E2A0BD16C
:106190000A490A2014F8012F303A092A04D8B1FB21
:1061A000F0F101FB0233F5E703EB83030133032234
:1061B000B3FBF2F36B6000232B7238BD809698001E
:1061C00010B50346044653F81C2F42605A6882609B
:1061D0001B7A0373034653F8282F02615A68426101
:1061E0001B7A037600F05AFB01236063637023700F
:1061F00010BD000000000000D0B50023044643702D
:10620000806802F085F90EA3D3E9002302F020FB99
:106210000646A0880F4602F08BF90B460246394627
:10622000304602F039F8237B1BB1024601F10043EE
:1062300001E002460B4643EC102BD0BDAFF30080CB
:106240000000000065CDCD41D0B500230446437069
:10625000406902F05DF90EA3D3E9002302F0F8FAD9
:106260000646208A0F4602F063F90B46024639467D
:10627000304602F011F8237E1BB1024601F10043C3
:1062800001E002460B4643EC102BD0BDAFF300807B
:106290000000000065CDCD4110B583684360044621
:1062A00000F0FCFA0123E0606370237010BD10B5AC
:1062B00083684360044600F0F1FA0123E0606370F4
:1062C000237010BD10B504460846FFF725FFA060F7
:1062D00010BD10B50446084602F0F2FBA06010BDE8
:1062E0000023437040686422B0FBF2F302FB13000A
:1062F00000F5FA6080B27047002343704368642061
:10630000B3FBF0F3B3FBF0F200FB1230C0B2704706
:1063100000234370436842F21070B3FBF0F0C0B248
:10632000704700000023437043680248B3FBF0F05D
:10633000C0B2704740420F0000234370436842F2EE
:106340001070B3FBF0F36420B3FBF0F200FB1230EB
:10635000C0B270470023437043686420B3FBF0F37E
:10636000B3FBF0F200FB1230C0B2704710B5C36847
:106370008360044600F092FA01236060637023702A
:1063800010BD10B504460846FFF7C6FEE06010BD1C
:1063900010B5C3688360044600F080FA0123606092
:1063A0006370237010BD10B50446084602F088FBE8
:1063B000E06010BD10B501460446103002F020FC2C
:1063C00000F06CFA0123206284F8253084F8243030
:1063D00010BD102202F024BCF8B590F871510446AB
:1063E000002D00F08B8090F87211FFF785FE94F875
:1063F000731102462046FFF77FFE94F8703100EBE0
:106400000210C0B2834272D1D4F89C310133C4F877
:106410009C3194F8843123B1D4F894310133C4F819
:10642000943194F88131FBB1012B4DD104F1F0008E
:10643000FFF732FF04F58070FFF739FF94F88431DD
:1064400004F1B8064BB13046FFF7BAFE04F5887088
:10645000FFF78CFF04F5907027E084F8B83084F8DB
:10646000103184F8203122E004F58070FFF71FFF1F
:1064700094F8843104F1B8065BB13046FFF7A0FE12
:1064800004F59870FFF772FF04F5A070FFF76EFF38
:1064900005E084F8B83084F8303184F8403104F5F0
:1064A000A870FFF775FF04F5B070FFF75FFF0021DC
:1064B000084600F01BFA3146B822204602F021FBC4
:1064C0000021012000F012FAD4F88C61002E00F0B7
:1064D000D980D4F88C31B06A996A02F087FB002821
:1064E00040F0D0803046FFF765FF366BEEE7D4F81A
:1064F00098310133C4F898310025C3E090F8822127
:1065000072BB00F5B9766049304602F06FFB20B1EE
:106510005E49304602F06AFB08B901230CE05C4991
:10652000304602F063FB20B15A49304602F05EFB70
:1065300008B9002300E0022384F88131D4F88831BF
:10654000C4F88C31D4F88C71002F00F09B80314658
:10655000B86A02F04BFB002880F290803B6BEFE7BB
:1065600090F88111022971D090F87231002B6DD012
:1065700042EA4112013A282A68D8DFE802F01521E0
:10658000242B324950575C676167676767676767A5
:106590006767676767676767676767676767151C28
:1065A00021242B32393E430000F5B97100F580708B
:1065B000FFF788FE4AE0A3F14100434243412BE04C
:1065C00000F1D40108E0A3F153014B424B4180F8A4
:1065D000DC303BE000F1E00104F5B970FFF7C0FDED
:1065E00034E0A3F157025342534180F8E8302DE0E4
:1065F00000F5B97100F5887026E000F5B97100F575
:10660000907021E000F5B971F030FFF762FE1DE0F7
:10661000302B94BF0023012384F8843116E000F569
:10662000B97100F5A870FFF7BEFE0FE000F5B97173
:1066300000F5B07008E000F5B97100F5987003E05E
:1066400000F5B97100F5A070FFF79BFED4F88C61DE
:1066500004F5B977B6B1D4F88C31B06A996A02F012
:10666000C5FA78B9F26A94F882319A420ADC03D109
:1066700039463046FFF7ADFE366BEBE702D000231C
:10668000C4F88C312846F8BD65900D006B900D0064
:1066900071900D0077900D0038B5D0F89031242915
:1066A00003F1010304460D46C0F890312AD090F85A
:1066B000833104D80A290CD00D2932D109E02A29C6
:1066C00007D02C292DD190F8702182F02C0280F86F
:1066D00070210E2B4FF0000005D8234483F872017F
:1066E0002046FFF779FE94F88231013384F8823135
:1066F000002384F88331A5F12A035D425D4184F8CB
:10670000715138BD0020022384F8830184F882018E
:1067100084F8700184F8813184F8710184F884016F
:1067200038BD0D2B9FBF5A1C1B1984F8832183F899
:10673000725194F8710128B994F870114D4084F8A1
:10674000705138BD002038BD00F010B808B5024BBC
:106750001B689B68019308BD6802030008B5024BE3
:106760001B68DB68019308BD6802030008B5024B93
:106770001B681B68019308BD2C02030008B5024B7F
:106780001B689B68019308BD2C02030008B5024BEF
:106790001B68DB68019308BD2C02030008B5024B9F
:1067A0001B681B69019308BD2C02030008B5024B4E
:1067B0001B685B69019308BD2C02030008B5024BFE
:1067C0001B681B68019308BD3002030008B5024B2B
:1067D0001B685B69019308BD3002030008B5024BDA
:1067E0001B68DB69019308BD3002030008B5024B4A
:1067F0001B681B6A019308BD3002030008B5024BF9
:106800001B685B6A019308BD3002030008B5024BA8
:106810001B689B6A019308BD3002030008B5024B58
:106820001B689B6B019308BD3002030008B5024B47
:106830001B68DB6B019308BD3002030008B5024BF7
:106840001B681B6C019308BD3002030008B5024BA6
:106850001B685B6C019308BD3002030008B5024B56
:106860001B685B69019308BD6C02030008B5024B0D
:106870001B685B68019308BD1802030008B5024B52
:106880001B68DB68019308BD1802030008B5024BC2
:106890001B681B69019308BD1802030008B5024B71
:1068A0001B685B69019308BD1802030008B5024B21
:1068B0001B689B68019308BD4802030008B5024BA2
:1068C0001B68DB68019308BD4802030008B5024B52
:1068D0001B681B69019308BD4802030008B5024B01
:1068E0001B685B69019308BD4802030008B5024BB1
:1068F0001B68DB69019308BD4802030008B5024B21
:106900001B685B6C019308BD4802030008B5024B8D
:106910001B689B6C019308BD4802030008B5024B3D
:106920001B685B69019308BD6402030008B5024B54
:106930001B681B6A019308BD6402030008B5024B83
:106940001B689B6A019308BD6402030008B5024BF3
:106950001B681B68019308BD3C02030008B5024B8D
:106960001B68DB68019308BD3C02030008B5024BBD
:106970001B681B69019308BD3C02030008B5024B6C
:106980001B685B69019308BD3C02030008B5024B1C
:106990001B689B69019308BD3C02030008B5024BCC
:1069A0001B68DB69019308BD3C02030008B5024B7C
:1069B0001B681B6A019308BD3C02030008B5024B2B
:1069C0001B689B6A019308BD3C02030008B5024B9B
:1069D0001B68DB6A019308BD3C02030008B5024B4B
:1069E0001B681B6A019308BD2802030008B5024B0F
:1069F0001B685B6A019308BD2802030008B5024BBF
:106A00001B689B6A019308BD2802030008B5024B6E
:106A10001B68DB6A019308BD2802030008B5024B1E
:106A20001B681B6B019308BD2802030008B5024BCD
:106A30001B685B6B019308BD2802030008B5024B7D
:106A40001B681B6C019308BD2802030008B5024BAC
:106A50001B689B69019308BD3802030008B5024B0F
:106A60001B68DB69019308BD3802030008B5024BBF
:106A70001B681B6A019308BD3802030008B5024B6E
:106A80001B689B6A019308BD3802030008B5024BDE
:106A90001B681B6B019308BD3802030008B5024B4D
:106AA0001B689B6B019308BD3802030008B5024BBD
:106AB0001B681B68019308BD4C02030008B5024B1C
:106AC0001B685B68019308BD4C02030008B5024BCC
:106AD0001B681B69019308BD4C02030008B5024BFB
:106AE0001B685B69019308BD4C02030008B5024BAB
:106AF0001B689B69019308BD4C02030008B5024B5B
:106B00001B68DB69019308BD4C02030008B5024B0A
:106B10001B681B6A019308BD4C02030008B5024BB9
:106B20001B681B6D019308BD6002030008B5024B92
:106B30001B685B68019308BD2002030008B5024B87
:106B40001B685B69019308BD2002030008B5024B76
:106B50001B68DB6A019308BD2002030008B5034BE4
:106B60001B68D3F88830019308BD000020020300A1
:106B700008B5034B1B68D3F89430019308BD00009F
:106B80002002030008B5024B1B685B68019308BD37
:106B90004002030008B5024B1B689B68019308BDC7
:106BA0004002030008B5024B1B68DB68019308BD77
:106BB0004002030008B5024B1B681B69019308BD26
:106BC0004002030008B5024B1B685B69019308BDD6
:106BD0004002030008B5024B1B689B69019308BD86
:106BE0004002030008B5024B1B68DB69019308BD36
:106BF0004002030008B5024B1B681B6A019308BDE5
:106C00004002030008B5024B1B681B6B019308BDD3
:106C10004002030008B5024B1B685B6B019308BD83
:106C20004002030008B5024B1B689B68019308BD36
:106C30004402030008B5024B1B68DB6B019308BDDF
:106C40004402030008B5024B1B681B68019308BD92
:106C50001C02030008B5024B1B685B68019308BD6A
:106C60001C02030008B5024B1B685B6A019308BD58
:106C70001C02030008B5024B1B68DB6B019308BDC7
:106C80001C020300002211464068FFF7B3BF002238
:106C900011464068FFF7BEBF00224068FFF7B2BF51
:106CA000002281F001014068FFF79CBF00231A46D3
:106CB00019464068FFF78EBF00231A461946406800
:106CC000FFF780BF002211464068FFF773BF002224
:106CD00011464068FFF75EBF002202214068FFF7BF
:106CE00061BF00231A464068FFF74CBF024B0322E6
:106CF0005A60024A1A607047DCE30320AC900D0032
:106D00000021FFF79BBD0021FFF7A0BD10B5044691
:106D100001700846FFF762FD00236360204610BD46
:106D200010B504460078FFF7EBFF48B920784FF61E
:106D3000FF71FFF743FD2078BDE81040FFF7E3BF88
:106D400010BD0078FFF7DFBF400830B518600024A1
:106D500018688842E5B206D90134082C02D04008F0
:106D60001860F5E70725024B5B5D137030BD00BF6F
:106D7000D8900D002DE9F04307468FB000780E46FD
:106D8000FFF7BEFF002862DB3C781422002109A82F
:106D900001F0C2FE0B232046002209A9ADF82430E1
:106DA000FFF72CFD9DF82D4054B19DF82C5035B9BE
:106DB000DDF830809DF834909DF8354003E00024E4
:106DC000A146A0460125337905B1BBB99D420BD13F
:106DD000B268424508D18DF820908DF82140BDF869
:106DE0002010B289914209D053B10024387801941F
:106DF0000094234622460121FFF718FD002026E0DB
:106E00008DF80F30B1680A9804AB0DF10F02FFF74F
:106E10009BFF317905B1B1B9A94208D00024387877
:106E20000194747B337B9DF80F200094E4E7B368F2
:106E30004345F3D38DF820908DF82140BDF82020F4
:106E4000B3899A42EAD1049B4345E7D1D6E70FB014
:106E5000BDE8F08308B50078FFF7B8FCC0B208BD04
:106E600030B587B004460A9D00780095FFF7CEFC48
:106E70003DB902A92078FFF7D1FC9DF81430DB075B
:106E8000F7D407B030BD0078FFF7B0BC10B50446AA
:106E9000006818B1FFF7DEFE0023236010BD10B5B7
:106EA0000446FFF7F3FF204610BD000010B5094C63
:106EB00000204FF6FF732060A080A07120816381C5
:106EC000FFF734FE2046044A0449BDE8104001F0B3
:106ED00073B800BFE4E303201CDD03209F6E0D00A8
:106EE00010B50446006808B1FFF710FD204610BD3C
:106EF00010B5064C002320462360FFF7FFFC204618
:106F0000034A0449BDE8104001F056B8F0E30320FD
:106F10001CDD0320E16E0D00F8B506460D468F1806
:106F20000024BD420CD0336815F8011B9B68304625
:106F30009847002801DB0444F3E7002C08BF04460F
:106F40002046F8BD08B5FEF7ABFB08BD03689B689B
:106F5000184708B5FEF7A4FB08BD38B50D21054656
:106F6000FFF7F4FF0A2104462846FFF7EFFF20440D
:106F700038BD38B50546FEF793FB04462846FFF7B3
:106F8000ECFF204438BDFFF7F4BF30B58BB00B46A3
:106F900000218DF82410012A98BF0A220DF1230444
:106FA000B3FBF2F505FB123303F0FF03092B94BF8B
:106FB00030333733DBB2214604F801392B46002D3C
:106FC000EED1FEF76DFB0BB030BD0CB42DE9F043F4
:106FD00087B000AF07F13804054654F8049B3C60C5
:106FE0000E4623464A461421381DFFF73BFE132860
:106FF00005D8391D2846FEF753FB044613E000F17F
:10700000080323F00703E846ADEB030D411C2346BC
:107010004A4668463C60FFF725FE69462846FEF76B
:107020003FFB0446C5461EB12846FFF796FF0444C1
:1070300020461C37BD46BDE8F04302B07047000053
:10704000014B024A1A607047F4E3032053910D008C
:10705000024B1A68024B1A60704700BFB0DC032075
:10706000F8E303200021FFF769BD10B50446FEF7E1
:10707000B5FF204610BD00000348044A0449002320
:10708000836000F099BF00BFFCE303201CDD0320F8
:107090006B700D0008B50C4B33B100F06DF903684F
:1070A0001B699847002809DC084B63B100F0ECF934
:1070B00003681B699847002803DC08BDAFF3008014
:1070C000F2E7AFF3008008BD000000000000000000
:1070D00008B5FFF7DFFFFFF7E1FB014B186008BDC4
:1070E00030E703200248034A0349121A01F009BDA0
:1070F00000F4032004F4032090950D0007B500234D
:1071000000931A466FF07701FFF732FD03B05DF888
:1071100004FB000007B543880A2B08D0502B09D187
:10712000094B1B683BB103B05DF804EB1847FFF750
:10713000E5FF06E0002300931A466FF07701FFF7A2
:1071400017FD03B05DF804FB0CE4032038B5104CC8
:10715000104D2368AB42104B0CBF012200221A7065
:1071600002D0FFF7BFFF2560FFF780FB044601F068
:10717000DBFC0A4B13B12046AFF300800021074827
:10718000FFF758FD00210648BDE83840FFF7E6BC90
:1071900000F403201E1C279A10E4032000000000C6
:1071A00015710D00704710B51821044600F012FF4C
:1071B000204610BDF0B5037D062B8DB00E4600F1C4
:1071C00004074FF0000402D000F1080518E00CADF0
:1071D000394605F8304D2F232A460A20FFF79EFB3B
:1071E000284601F015FD33680246DB682946304623
:1071F00098470FE024B12E213046FFF7A7FE044444
:1072000015F8011D0A223046FFF7BFFEBD420444B7
:10721000F0D120460DB0F0BD10B5054B044611224B
:1072200040F8043B002101F077FC204610BD00BF70
:10723000F0910D000346074A10B543F8042B01F105
:10724000100251F8044B43F8044B9142F9D10A78EB
:107250001A7010BDF0910D00037D042B01D1406820
:1072600008E0062B0AD1436853B9836843B9C36861
:1072700033B90069003018BF012070470020704703
:107280000120704710B59DF8084044EA032343EA03
:10729000024242EA016104234160037510BD37B523
:1072A0000D788B784A78C97800912946FFF7EAFF74
:1072B00003B030BD41747047704708B50021007CB1
:1072C000FFF714FC30EA200028BF4FF0FF3008BD64
:1072D00008B50121007CFFF709FC30EA200028BF37
:1072E0004FF0FF3008BD08B5007CFFF7F7FB20EA40
:1072F000E07008BD08B5007CFFF7E8FB20EAE0700D
:1073000008BD007CFFF702BC10B51421044600F054
:1073100061FE204610BD38B50446007C0D46FFF7DF
:10732000DDFB002801DC607C28B12946207CFFF7CA
:10733000E5FB20EAE07038BD10B504460023636029
:107340004FF47A73A360054B236001230846217430
:1073500063741146FFF7AAFB204610BD04920D008E
:107360000022007CFFF7AABB10B5142204460021BE
:1073700001F0D2FB204610BD30B50E4D87B001A8FC
:10738000FFF7F2FF296811F0010410D12846FCF73D
:107390008AFE60B101AA21460748FFF7CDFF2846C3
:1073A000FCF786FE054A0649034800F005FE024840
:1073B00007B030BD14E4032018E403201CDD0320D3
:1073C000B9720D0070474174704708B5007CFFF733
:1073D000F5FA20EAE07008BD08B5007CFFF7C6FAB0
:1073E00020EAE07008BD08B5007CFFF7CFFA30EA6C
:1073F000200028BF4FF0FF3008BD08B5007CFFF724
:10740000BDFA30EA200028BF4FF0FF3008BD007CF5
:10741000FFF7C4BA10B51421044600F0DBFD204686
:1074200010BD70B5457C04460E4625B9007CFFF7BB
:10743000C5FA002805DD3146207CBDE87040FFF725
:107440008DBA284670BD000010B5044608461146A6
:10745000002262604FF47A72A260054A2260012223
:10746000207462741A46FFF771FA204610BD00BFFF
:1074700034920D000023007CFFF7A8BA0022FFF72A
:10748000F9BF007CFFF792BA38B50C4D296811F0AE
:10749000010411D12846FCF706FE68B1084A094BE1
:1074A00009482146FFF7D0FF2846FCF701FE074AAE
:1074B0000749054800F080FD034838BDC4E40320B7
:1074C000C8E4032040E403202CE403201CDD032057
:1074D000C5730D007047F8B5064615460C468F1863
:1074E000BC4206D0336814F8011B9B6830469847AD
:1074F000F6E72846F8BD0022007CFFF76FBA0021AE
:10750000007CFFF773BA0021007CFFF777BA0021F7
:10751000007CFFF77BBA0021007CFFF77FBA10B533
:107520001421044600F056FD204610BD10B5044657
:10753000002363604FF47A73A360044B2174084600
:1075400023601146FFF77AFA204610BD64920D00C1
:107550000021007CFFF76ABA10B5044630B101F093
:107560000BFB90FBF4F303FB140010BD10BD88422D
:1075700010B5044604DA081AFFF7EEFF204410BDE8
:1075800010BD002211464068FFF734BB00221146AF
:107590004068FFF73FBB00224068FFF733BB002283
:1075A00081F001014068FFF71DBB00231A4601214D
:1075B0004068FFF70FBB00231A4619464068FFF7E3
:1075C00001BB002211464068FFF7F4BA00221146C1
:1075D0004068FFF7DFBA002202214068FFF7E2BAF5
:1075E00000231A464068FFF7CDBA38B5054688B182
:1075F00004684CB1A3681BB103222146204698477A
:107600001021204600F0E6FC28461421BDE8384051
:1076100000F0E0BC38BD10B103685B6818477047E4
:1076200010B503680446BBB15868FFF73FF978B955
:1076300023685A7C12B95868FFF748F923685868DC
:10764000FFF74CF920680023236028B1FFF7CDFF36
:10765000206808B1FFF7C9FF204610BD38B50446C1
:10766000D0F8C40108B1FCF71CFDD4F8C00108B182
:10767000FFF74CF9D4F8BC5135B12846FFF7D0FFDD
:107680000421284600F0A6FC206808B1FFF7C3FFDC
:10769000204638BD10B5044B044640F8083BFFF7C0
:1076A000DDFF204610BD00BF8C920D0038B50E4C9A
:1076B0000E4B23600025022304F5E4706360A5608F
:1076C000C4F8C451C4F8C851FFF718F9084BC4F8FE
:1076D000CC5184F8D05123602046064A0649BDE8C3
:1076E000384000F069BC00BF4CE5032074930D00E6
:1076F0008C920D001CDD032095760D0037B502AC91
:10770000036804F8011DDD6B01224FF0FF332146B1
:10771000A84703B030BD10B40368DC6B4FF0FF33F3
:10772000A4465DF8044B604737B502AC036804F823
:10773000011DDD6B214613460122A84703B030BD71
:10774000704738B543691A68002A044605DAB3F869
:107750008620B3F884309A4201D001250BE00368FB
:107760001B699847002814BF0125002503D1236811
:107770002046DB6A9847284638BD43691868C043ED
:10778000C00F704770470020704710B514210446A1
:1077900000F020FC204610BDFCF781BC7FB51646EA
:1077A00000224260029203925A1C04460D4608D001
:1077B0004FF47A72B3FBF2F1029102FB11314A43AA
:1077C000039260690823009341F205026B4440F67E
:1077D000FF710068FFF73AF9002808DB60690023B1
:1077E000324629460068FFF751F9002804DAFFF70E
:1077F00041FA03686360002004B070BD10B50368EF
:1078000004469B689847A368013BA3602BB9236893
:107810002046DB68BDE81040184710BD70B504462F
:107820004D69054B44F8043B8C3506460FCD0FC41B
:107830002B682370304670BDF0910D0010B5436980
:10784000B3F88620B3F884309A42044605D06269C2
:10785000B2F884301344187910BD03681B69984747
:107860000028F4D14FF0FF3010BD10B54369B3F8D4
:107870008620B3F884309A42044608D06269B2F890
:107880008430591C1344A2F88410187910BD036881
:107890001B6998470028F1D14FF0FF3010BDF8B5B3
:1078A00043691746B3F88620B3F884309A420546F8
:1078B0000E4606D103681B69984710B94FF0FF3494
:1078C00014E06969B1F88430B1F88640E41ABC422A
:1078D00028BF3C46194422460431304601F011F9D4
:1078E0006A69B2F884302344A2F884302046F8BD97
:1078F0002DE9F0439846036893B0DB6A0D460646CF
:107900001746984712AB002443F8484D22462146BB
:107910002846FEF723FF814600283DD1009B002B1F
:1079200056D05B69002B53D006A8FFF775FC009B6F
:107930005C696378022B01D1211D13E00A2B14D15D
:107940001122494601A801F0E7F8A36833BBE368B8
:1079500023BB4FF6FF702569FEF7E8FF85421DD176
:1079600004F1140106A8FFF79AFC06A8FFF774FCBF
:1079700000282DD0336807ADD3F82090184B0C9316
:107980000FCD0DAC0FC42B6823703A4643460CA9AB
:107990003046C84781461BE0A14619E004F10803C0
:1079A00001AD1834186859682A4603C20833A34247
:1079B0001546F7D1062301A90CA80DAD8DF814309A
:1079C000FFF738FC0FCD07AC0FC42B682370CCE752
:1079D0000098FEF7BBFE484613B0BDE8F08300BF39
:1079E000F0910D0042690023A2F884304269A2F8A8
:1079F000863070472DE9F0411E4603680C468AB078
:107A0000DB6A054617469847237DD5F81480042B7A
:107A10000CBF02200A2006220121FFF73FF8C8F818
:107A200000006B691B68002B18DB2846FFF7DAFFA4
:107A3000D6B1002303A9F0B20393ADF81030FEF7DE
:107A40000DFF58B968690623009341F20B0203AB9E
:107A500040F6FF710068FEF7F9FF28B12B68284651
:107A6000DB6A002498473BE01C263246002103A82D
:107A700001F052F8237D8DF80C60042B0CD1022309
:107A800038468DF80D30FEF759FFADF80E006068EE
:107A9000FEF74CFF049013E00A2338468DF80D30B2
:107AA000FEF74CFF05AEADF80E00231D04F11407E0
:107AB00018685968324603C20833BB421646F7D1EC
:107AC0006B691C2203A91868FEF7D0FF0028C5D1F6
:107AD00004340FCC6D698C350FC523682B700124DD
:107AE00020460AB0BDE8F08110B543690446186825
:107AF000002801DBFEF7B2FF63694FF0FF321A6026
:107B00006069112200218C3001F006F82046BDE8A2
:107B10001040FFF767BF000030B54269B2F8863009
:107B20008BB004461BB1B2F884209A4240D06369FE
:107B3000186800283FDBB3F886507F2D3BD8191D0D
:107B4000C5F1800208232944FEF798FF00280CDDC8
:107B50006369B3F886200AB9A3F884206269B2F891
:107B600086301844A2F8860025E0FFF783F8036802
:107B70000B2B20D0FFF77EF803680B2B1BD02023A4
:107B8000002502930395FFF775F8036801930E4BE8
:107B9000009302AA2B460D493220FEF7BFFF63690E
:107BA0001868FEF75BFF63694FF0FF321A6002E06E
:107BB000FFF718FFBBE76269B2F88630B2F88400BD
:107BC000181A0BB030BD00BF27930D0020930D0095
:107BD00010B5002304460160A0F88430A0F8863078
:107BE0008830FFF719FB204610BD00004FF47A7271
:107BF00070B500238260144A436002604361836170
:107C00000446A0200E46FCF748FA054610B131465E
:107C1000FFF7DEFF1420FCF740FA034628B10122EB
:107C200042608260094A02600561A0696561A361E2
:107C300028B14368013B43600BB9FFF7DFFD2046E5
:107C4000FFF7D0FE204670BDDC920D00C0920D0003
:107C500010B54FF0FF310446FFF7C8FF204610BDB6
:107C600010B504460068002801DBFEF7F7FE204649
:107C700010BD10B504692046FFF7F2FF24B120467D
:107C8000BDE81040FCF70BBA10BD00221146406859
:107C9000FEF790BF002211464068FEF7ABBF0022FE
:107CA00011464068FEF7B6BF00224068FEF7AABF43
:107CB000002281F001014068FEF794BF00231A46BC
:107CC00019464068FEF786BF00231A4619464068E9
:107CD000FEF778BF002211464068FEF75BBF002226
:107CE00002214068FEF75EBF00231A464068FEF797
:107CF00049BF0000024B04225A60024A1A607047D2
:107D000020E7032040930D0000231A464068FEF749
:107D100039BF002202214068FEF744BF002211460D
:107D20004068FEF737BF002211464068FEF742BFA9
:107D300000231A4619464068FEF744BF00231A463E
:107D400019464068FEF746BF002281F001014068F5
:107D5000FEF748BF00224068FEF754BF00221146DC
:107D60004068FEF757BF002211464068FEF742BF49
:107D70002DE9F043002495B016460D460746FFF75F
:107D80004BFA214620220CA8009400F0C5FE4023A7
:107D90000C9321466B460CAA3046FEF7DFFC0446E6
:107DA000002844D1024601216868FEF703FF022142
:107DB000804622466868FEF7FDFE009E8146214609
:107DC000002E34D0002932D17368022B02D00A2B46
:107DD00009D02AE0B8F1000F27D071693846043184
:107DE000FFF75DFA20E0B9F1000F1ED0746911228F
:107DF00001A800F091FE06238DF8143001AD04F1C6
:107E000008031834186859682A4603C20833A34285
:107E10001546F7D101A906A807ADFFF70BFA0FCD5C
:107E20003C1D0FC42B6823700121F669C8E7009838
:107E3000FEF78CFC384615B0BDE8F083024B034AD0
:107E40001A6000225A60704728E7032074930D00DF
:107E500070B5184E316811F0010504460AD130465C
:107E6000FCF721F930B129461348FEF74FFF3046A1
:107E7000FCF71EF91048FFF706F828B1A4F10B0330
:107E8000022B01D8002070BD00F070F8FFF760FBF6
:107E900008B1012CF6D9FFF7F7FAFFF7F2FA18B19B
:107EA000A4F10903012BEDD9232C8CBF0020012064
:107EB00070BD00BF20DD032024DD0320232838B55A
:107EC00004460D460AD8FF2908D0FFF7C1FF28B1A4
:107ED00029462046BDE83840FEF750BC38BD38B5CD
:107EE00004460D46FEF752FCFF2810D0062804D8A1
:107EF0004D2323FA00F0C30709D42046FFF7A8FF5B
:107F000028B129462046BDE83840FEF747BC38BDB9
:107F100010B50446FEF73AFC0438C0B2012808D96F
:107F20002046FFF795FF20B12046BDE81040FEF740
:107F30003DBC002010BD000070B5044614252A4643
:107F4000094E002100F0E8FD258020253146A5607E
:107F50002561284600F040F831466060284600F070
:107F60003BF8E060204670BDA0930D0030B50E4D8B
:107F7000296811F0010487B013D12846FCF793F863
:107F800078B101A8FFF7D8FF01AA21460748FFF7FB
:107F9000CDFA2846FCF78CF8054A0649034800F05C
:107FA0000BF8024807B030BD34E7032038E7032060
:107FB0001CDD0320D5740D000B460146184600F069
:107FC00083BD0000024B1868BFF35F8F704700BF8E
:107FD0004CE70320FCF763B800F000B810B50028A8
:107FE00014BF044601242046FEF72CFE20B9FFF7FB
:107FF000E9FF08B18047F6E710BD0000184B1A688A
:10800000D1075CBF01221A60164B1A68D2075CBF09
:1080100001221A60144B1A68D0075CBF01221A6053
:10802000124B1A68D1075CBF01221A60104B1A6804
:10803000D2075CBF01221A600E4B1A68D0075CBFE2
:1080400001221A600C4B1A68D1075CBF01221A602A
:108050000A4B1A68D2075CBF01221A60704700BF42
:108060006CE7032068E7032064E7032060E7032050
:108070005CE7032058E7032054E7032050E7032080
:10808000244B1A68D0075CBF01221A60224B1A6881
:10809000D1075CBF01221A60204B1A68D2075CBF6F
:1080A00001221A601E4B1A68D0075CBF01221A60B9
:1080B0001C4B1A68D1075CBF01221A601A4B1A6860
:1080C000D2075CBF01221A60184B1A68D0075CBF48
:1080D00001221A60164B1A68D1075CBF01221A6090
:1080E000144B1A68D2075CBF01221A60124B1A683F
:1080F000D0075CBF01221A60104B1A68D1075CBF21
:1081000001221A600E4B1A68D2075CBF01221A6066
:10811000704700BF9CE7032098E7032094E7032003
:1081200090E703208CE7032088E7032084E70320FF
:1081300080E703207CE7032078E7032074E703202F
:1081400070E70320244B1A68D0075CBF01221A6035
:10815000224B1A68D1075CBF01221A60204B1A68B3
:10816000D2075CBF01221A601E4B1A68D0075CBFA1
:1081700001221A601C4B1A68D1075CBF01221A60E9
:108180001A4B1A68D2075CBF01221A60184B1A6892
:10819000D0075CBF01221A60164B1A68D1075CBF7A
:1081A00001221A60144B1A68D2075CBF01221A60C0
:1081B000124B1A68D0075CBF01221A60104B1A6874
:1081C000D1075CBF01221A600E4B1A68D2075CBF50
:1081D00001221A60704700BFCCE70320C8E70320E4
:1081E000C4E70320C0E70320BCE70320B8E703206F
:1081F000B4E70320B0E70320ACE70320A8E703209F
:10820000A4E70320A0E70320184B1A68D1075CBF3E
:1082100001221A60164B1A68D2075CBF01221A604D
:10822000144B1A68D0075CBF01221A60124B1A68FF
:10823000D1075CBF01221A60104B1A68D2075CBFDD
:1082400001221A600E4B1A68D0075CBF01221A6027
:108250000C4B1A68D1075CBF01221A600A4B1A68DE
:10826000D2075CBF01221A60704700BFECE7032011
:10827000E8E70320E4E70320E0E70320DCE703204E
:10828000D8E70320D4E70320D0E7032081F00041A2
:1082900002E000BF83F0004330B54FEA41044FEAEB
:1082A000430594EA050F08BF90EA020F1FBF54EA86
:1082B000000C55EA020C7FEA645C7FEA655C00F022
:1082C000E2804FEA5454D4EB5555B8BF6D420CDDF3
:1082D0002C4480EA020281EA030382EA000083EA76
:1082E000010180EA020281EA0303362D88BF30BD16
:1082F00011F0004F4FEA01314FF4801C4CEA11316C
:1083000002D0404261EB410113F0004F4FEA0333CA
:108310004CEA133302D0524263EB430394EA050F55
:1083200000F0A780A4F10104D5F1200E0DDB02FAC4
:108330000EFC22FA05F2801841F1000103FA0EF258
:10834000801843FA05F359410EE0A5F120050EF11E
:10835000200E012A03FA0EFC28BF4CF0020C43FA4F
:1083600005F3C01851EBE37101F0004507D54FF05C
:10837000000EDCF1000C7EEB00006EEB0101B1F5AC
:10838000801F1BD3B1F5001F0CD349085FEA3000F2
:108390004FEA3C0C04F101044FEA445212F5800FFD
:1083A00080F09A80BCF1004F08BF5FEA500C50F19A
:1083B000000041EB045141EA050130BD5FEA4C0C7D
:1083C000404141EB010111F4801FA4F10104E9D106
:1083D00091F0000F04BF01460020B1FA81F308BFFD
:1083E0002033A3F10B03B3F120020CDA0C3208DDC9
:1083F00002F1140CC2F10C0201FA0CF021FA02F1A4
:108400000CE002F11402D8BFC2F1200C01FA02F113
:1084100020FA0CFCDCBF41EA0C019040E41AA2BF38
:1084200001EB0451294330BD6FEA04041F3C1CDA00
:108430000C340EDC04F11404C4F1200220FA04F020
:1084400001FA02F340EA030021FA04F345EA0301CA
:1084500030BDC4F10C04C4F1200220FA02F001FA8C
:1084600004F340EA0300294630BD21FA04F029460E
:1084700030BD94F0000F83F4801306BF81F48011A7
:108480000134013D4EE77FEA645C18BF7FEA655C1A
:1084900029D094EA050F08BF90EA020F05D054EAEC
:1084A000000C04BF1946104630BD91EA030F1EBFF1
:1084B0000021002030BD5FEA545C05D140004941F5
:1084C00028BF41F0004130BD14F580043CBF01F5E8
:1084D000801130BD01F0004545F0FE4141F47001CE
:1084E0004FF0000030BD7FEA645C1ABF19461046A9
:1084F0007FEA655C1CBF0B46024650EA013406BFAA
:1085000052EA033591EA030F41F4002130BD00BF68
:1085100090F0000F04BF0021704730B54FF4806425
:1085200004F132044FF000054FF0000150E700BFA6
:1085300090F0000F04BF0021704730B54FF4806405
:1085400004F1320410F0004548BF40424FF00001F2
:108550003EE700BF42004FEAE2014FEA31014FEA35
:1085600002701FBF12F07F4393F07F4F81F0605184
:10857000704792F0000F14BF93F07F4F704730B5F3
:108580004FF4607401F0004521F0004120E700BF86
:1085900050EA010208BF704730B54FF000050AE00D
:1085A00050EA010208BF704730B511F0004502D50E
:1085B000404261EB41014FF4806404F132045FEA10
:1085C000915C3FF4DCAE4FF003025FEADC0C18BFB5
:1085D00003325FEADC0C18BF033202EBDC02C2F1AB
:1085E000200300FA03FC20FA02F001FA03FE40EA3D
:1085F0000E0021FA02F11444C1E600BF70B54FF03D
:10860000FF0C4CF4E06C1CEA11541DBF1CEA13551E
:1086100094EA0C0F95EA0C0F00F0DEF82C4481EA86
:10862000030621EA4C5123EA4C5350EA013518BFA6
:1086300052EA033541F4801143F4801338D0A0FB93
:1086400002CE4FF00005E1FB02E506F00042E0FB40
:1086500003E54FF00006E1FB03569CF0000F18BF46
:108660004EF0010EA4F1FF04B6F5007F64F54074EE
:1086700004D25FEA4E0E6D4146EB060642EAC62181
:1086800041EA55514FEAC52040EA5E504FEACE2EEE
:10869000B4F1FD0C88BFBCF5E06F1ED8BEF1004FF1
:1086A00008BF5FEA500E50F1000041EB045170BD6D
:1086B00006F0004646EA010140EA020081EA0301B1
:1086C000B4EB5C04C2BFD4EB0C0541EA045170BDAD
:1086D00041F480114FF0000E013C00F3AB8014F127
:1086E000360FDEBF002001F0004170BDC4F1000470
:1086F000203C35DA0C341BDC04F11404C4F12005F1
:1087000000FA05F320FA04F001FA05F240EA02004B
:1087100001F0004221F0004110EBD37021FA04F681
:1087200042EB06015EEA430E08BF20EAD37070BD3B
:10873000C4F10C04C4F1200500FA04F320FA05F09A
:1087400001FA04F240EA020001F0004110EBD3709C
:1087500041F100015EEA430E08BF20EAD37070BD0C
:10876000C4F1200500FA05F24EEA020E20FA04F3E5
:1087700001FA05F243EA020321FA04F001F0004194
:1087800021FA04F220EA020000EBD3705EEA430E05
:1087900008BF20EAD37070BD94F0000F0FD101F034
:1087A0000046400041EB010111F4801F08BF013C6D
:1087B000F7D041EA060195F0000F18BF704703F0AB
:1087C0000046520043EB030313F4801F08BF013D32
:1087D000F7D043EA0603704794EA0C0F0CEA1355EE
:1087E00018BF95EA0C0F0CD050EA410618BF52EAA8
:1087F0004306D1D181EA030101F000414FF00000AE
:1088000070BD50EA410606BF1046194652EA4306BB
:1088100019D094EA0C0F02D150EA013613D195EA2F
:108820000C0F05D152EA03361CBF104619460AD177
:1088300081EA030101F0004141F0FE4141F4700181
:108840004FF0000070BD41F0FE4141F4780170BD71
:1088500070B54FF0FF0C4CF4E06C1CEA11541DBFD6
:108860001CEA135594EA0C0F95EA0C0F00F0A7F8D8
:10887000A4EB050481EA030E52EA03354FEA013105
:1088800000F088804FEA03334FF0805545EA131318
:1088900043EA12634FEA022245EA111545EA1065E0
:1088A0004FEA00260EF000419D4208BF964244F177
:1088B000FD0404F5407402D25B084FEA3202B61A96
:1088C00065EB03055B084FEA32024FF480104FF46A
:1088D000002CB6EB020E75EB030E22BFB61A7546DE
:1088E00040EA0C005B084FEA3202B6EB020E75EB71
:1088F000030E22BFB61A754640EA5C005B084FEAD9
:108900003202B6EB020E75EB030E22BFB61A7546A5
:1089100040EA9C005B084FEA3202B6EB020E75EBB0
:10892000030E22BFB61A754640EADC0055EA060E71
:1089300018D04FEA051545EA16754FEA06164FEAB4
:10894000C30343EA52734FEAC2025FEA1C1CC0D160
:1089500011F4801F0BD141EA00014FF000004FF0ED
:10896000004CB6E711F4801F04BF01430020B4F1AE
:10897000FD0C88BFBCF5E06F3FF6AFAEB5EB030C66
:1089800004BFB6EB020C5FEA500C50F1000041EB63
:10899000045170BD0EF0004E4EEA113114EB5C0430
:1089A000C2BFD4EB0C0541EA045170BD41F4801103
:1089B0004FF0000E013C90E645EA060E8DE60CEA0B
:1089C000135594EA0C0F08BF95EA0C0F3FF43BAF28
:1089D00094EA0C0F0AD150EA01347FF434AF95EADF
:1089E0000C0F7FF425AF104619462CE795EA0C0FC3
:1089F00006D152EA03353FF4FDAE1046194622E790
:108A000050EA410618BF52EA43067FF4C5AE50EA69
:108A100041047FF40DAF52EA43057FF4EBAE12E759
:108A20004FEA4102B2F1E04324BFB3F5001CDCF190
:108A3000FE5C0DD901F0004C4FEAC0024CEA5070C8
:108A4000B2F1004F40EB830008BF20F001007047F7
:108A500011F0804F21D113F13872BCBF01F00040FA
:108A6000704741F480114FEA5252C2F11802C2F12C
:108A7000200C10FA0CF320FA02F018BF40F00100AD
:108A80004FEAC1234FEAD32303FA0CFC40EA0C005F
:108A900023FA02F34FEA4303CCE77FEA625307D19C
:108AA00050EA01331EBF4FF0FE4040F440007047D3
:108AB00001F0004040F0FE4040F40000704700BF6D
:108AC0000A22002100F046B910B5054C13462CB11E
:108AD0000A4601460220AFF3008010BD204610BDBB
:108AE0000000000010B501390244904207D010F890
:108AF000013B11F8014FA342F7D0181B10BD002015
:108B000010BD10B5431E0A44914204D011F8014B28
:108B100003F8014FF8E710BD02440346934202D028
:108B200003F8011BFAE7704738B5124B1C68A36BBA
:108B30000546D3B91820FEF785F843F20E33A0633B
:108B400003804AF6CD33438041F2342383804EF2D2
:108B50006D63C3804DF6EC630381052343810B23D2
:108B6000838101220023C0E90423A36B00221D613D
:108B70005A6138BD18DD0320194B10B51C68A36B72
:108B8000D3B91820FEF75EF843F20E33A0630380DA
:108B90004AF6CD33438041F2342383804EF26D6335
:108BA000C3804DF6EC630381052343810B2383814E
:108BB00001220023C0E90423A16B0A4C0B69486918
:108BC000094A5C4302FB0040A3FB02230132034439
:108BD00043F10003C1E9042323F0004010BD00BFAE
:108BE00018DD03202DF451582D7F954C10F8012BE2
:108BF00011F8013B012A28BF9A42F7D0D01A7047DA
:108C0000034611F8012B03F8012B002AF9D1704714
:108C1000034613F8012B002AFBD1181A01387047BC
:108C200010B5034642B111F8014B03F8014B013A6C
:108C3000002CF7D11A4400E010BD934202D003F893
:108C4000014BFAE710BD00002DE9F047804640488F
:108C5000D0F800900F463D4615F8014B09EB040093
:108C6000407800F0080000F0FF0608B12F46F2E758
:108C70002D2C03D1BD1C7C78012603E02B2C04BFD6
:108C80007C78BD1C13B1102B0AD15BE0302C57D17E
:108C9000287800F0DF0058284DD16C781023023579
:108CA000002E14BF4FF0004C6FF0004C0027BCFBAF
:108CB000F3FA384603FB1ACC09EB040E9EF801E0E8
:108CC0001EF0040F01D0303C0BE01EF0030E1BD051
:108CD000BEF1010F0CBF4FF0370E4FF0570ECEEB29
:108CE0000404A34210DDB7F1FF3F0AD0504506D877
:108CF00001D1644503DC03FB0040012701E04FF094
:108D0000FF3715F8014BD7E77B1C0CD1002E4FF035
:108D1000220314BF4FF000406FF00040C8F800304D
:108D20002AB9BDE8F08706B1404272B107B1691EA9
:108D30001160BDE8F0873024002BB1D10823AFE7E4
:108D40000A23ADE7302CA3D0AAE7BDE8F08700BF27
:108D5000B4DC032013460A46014602480068FFF7C8
:108D600073BF00BF18DD032021400D005D400D00E2
:108D700089400D008D400D00000000000000000043
:108D800000000000C1400D000000000000000000D5
:108D9000B7400D0019410D005D410D00B9400D00B7
:108DA00064656661756C7420004D5342004C5342FB
:108DB000003C53504953657474696E677320646551
:108DC0006661756C743E003C535049536574746918
:108DD0006E6773202573256C75202573204D4F44D5
:108DE0004525643E0044697374616E636520696E55
:108DF00020434D3A2025302E3266200A0025692076
:108E0000736174656C6C6974657320696E20766932
:108E10006577202D2D2D200054696D653A20253071
:108E200032693A253032693A25303269202D2D2DAC
:108E300020006C61743A2025662C206C6F6E673AB6
:108E40002025662C20616C743A202566200A0025B6
:108E50006C75206D696C6C697365636F6E647320EB
:108E6000746F206765742047505320666978006EE0
:108E70006F206C6F636174696F6E006C6573732033
:108E80007468616E20313235636D00636C656172A8
:108E90000057726974696E67206461746120746F31
:108EA00020534463617264200A004461793A2025AA
:108EB000692C204D6F6E74682025692C20596561DE
:108EC00072202569200A0054696D653A20253032E8
:108ED000693A253032693A25303269200A006C61DE
:108EE0007420202566200A6C6F6E67202566200A94
:108EF000616C742025660A00536174656C6C69743A
:108F0000657320696E20766965773A202569200AA5
:108F10000043616E2774206163636573732053445B
:108F200020636172642E20446F206E6F742072651E
:108F3000666F726D61742E004E6F20636172642CD7
:108F40002077726F6E6720636869702073656C6547
:108F500063742070696E2C206F722053504920700A
:108F6000726F626C656D3F005344206572726F7260
:108F7000436F64653A203058002C305800496E76B3
:108F8000616C696420666F726D61742C2072656615
:108F90006F726D61742053442E0043616E277420FC
:108FA0006F70656E20726F6F742064697265637490
:108FB0006F72792E004E6F206572726F7220666F2D
:108FC000756E642E005374617274696E672044611B
:108FD0007461204C6F6767696E67200A0043616E99
:108FE0002774206372656174652066696C65206E04
:108FF000616D650066696C652E6F70656E004C6F03
:109000006767696E6720746F3A202573200A0044F1
:109010006F6E65200A00526561647920666F722068
:109020006E6578742064617461206C6F67200A003B
:109030007772697465206572726F72200A005469D4
:109040006D655374616D702C2052616E646F6D207C
:1090500044617461202569200A00617474656D7033
:1090600074203139004750524D4300474E524D4312
:1090700000475047474100474E474741004E004E8A
:109080004E4500454E45004553450053534500535A
:10909000005353570057535700574E57004E4E57E3
:1090A000000000000000000000000000E36C0D0064
:1090B000D96C0D00CF6C0D00C56C0D00B96C0D00A6
:1090C000AD6C0D00A16C0D00996C0D008F6C0D0046
:1090D000856C0D00717D0D000008101820283038B7
:1090E000626175640053657269616C0053657269F1
:1090F000616C31007479706500706172616D00633C
:109100006D6400696400686E64007374726D00665B
:10911000696C74006C766C0061646448616E646CA8
:1091200065720072656D6F766548616E646C65721C
:1091300000656E756D48616E646C657273004A53AC
:109140004F4E53747265616D4C6F6748616E646C0D
:1091500065720061707000253031307520005D202F
:10916000002C200028293A2000205B00636F6465F2
:10917000203D200025690064657461696C73203DA1
:1091800020000D0A0066006C6E00666E00636F645E
:10919000650064657461696C006E6F6E6500747261
:1091A00061636500696E666F007761726E0065725B
:1091B000726F720070616E696300616C6C005A00BE
:1091C000252B3033643A253032750025592D256D15
:1091D0002D25645425483A254D3A2553257A0061BA
:1091E000736374696D6500000000000000000000FA
:1091F000B5710D00A5710D00A7710D0000000000F4
:1092000000000000B9720D0009730D0017730D0006
:10921000196F0D00F5720D00BB720D00D1720D00BB
:1092200003730D00E7720D00B5720D000000000021
:1092300000000000C5730D0015740D0023740D00AF
:10924000196F0D00D9730D00FB730D00E7730D004E
:109250000F740D00C7730D00CB730D0000000000EC
:1092600000000000D5740D001F750D00F7740D008F
:10927000D7740D00FF740D0007750D000F750D00FC
:1092800017750D000000000000000000E1750D00E2
:10929000D7750D00CD750D00C3750D00B7750D00A8
:1092A000AB750D009F750D0097750D008D750D0048
:1092B00083750D00717D0D000000000000000000AE
:1092C00085770D008B770D00737C0D0099770D006D
:1092D00087770D00000000000000000029410D000C
:1092E00075410D00FD760D0017770D00197B0D00FF
:1092F0006B780D003D780D0041770D00F5790D007C
:10930000F1780D009F780D00E97A0D0043770D008C
:109310007B770D0029770D009D770D001D780D00DE
:10932000776972696E670072656376206572726F25
:1093300072203D20256400000000000000000000B5
:10934000E97C0D00DF7C0D00D57C0D008B7C0D00D1
:10935000C97C0D00BD7C0D00B17C0D00A97C0D0009
:109360009F7C0D00957C0D00717D0D0000000000BC
:1093700000000000097D0D00137D0D001D7D0D0016
:10938000277D0D00317D0D003D7D0D00497D0D00D7
:10939000557D0D005D7D0D00677D0D00717D0D001B
:1093A00000002020202020202020202828282828D5
:1093B00020202020202020202020202020202020AD
:1093C0002020881010101010101010101010101005
:1093D0001010040404040404040404041010101005
:1093E00010101041414141414101010101010101C0
:1093F0000101010101010101010101010110101030
:109400001010104242424242420202020202020292
:109410000202020202020202020202020210101002
:10942000102000000000000000000000000000000C
:10943000000000000000000000000000000000002C
:10944000000000000000000000000000000000001C
:10945000000000000000000000000000000000000C
:1094600000000000000000000000000000000000FC
:1094700000000000000000000000000000000000EC
:1094800000000000000000000000000000000000DC
:1094900000000000000000000000000000000000CC
:1094A00000000000000000000000000000000000BC
:1094B00000000000000000000000000000000000AC
:1094C000000000000000000000000000000000009C
:1094D000000000000000000000000000000000008C
:1094E000000000000000000000000000000000007C
:1094F000000000000000000000000000000000006C
:1095000000000000FD480D00C1490D00C5490D00D7
:10951000ED4F0D00F14F0D00F54F0D00F94F0D000F
:109520009D560D00C1560D00C5560D00E9590D00A0
:10953000ED590D00F1590D002B5F0D002F5F0D004F
:10954000335F0D00D95F0D00F15F0D0049670D001D
:10955000ED6C0D00AD6E0D00F16E0D0041700D0053
:1095600051700D0079700D00AD760D00F57C0D0089
:109570003D7E0D00FD7F0D0081800D0045810D00B9
:1095800009820D0000000000000000000000000043
:0495900000000000D7
:1095940004000000050000004461746130302E6353
:1095A4007376000000000000DF910D00A1930D0010
:1095B40000000000A4940D00C4940D00E4940D0078
:1095C4000000000000000000000000000000000097
:1095D4006F900D000000000000000000000000007B
:1095E4000000000000000000000000000000000077
:1095F4000000000000000000000000000000000067
:109604000000000000000000000000000000000056
:04961400B8DC03209B
:10961800FFFFFFFF00000102030405060708090A0F
:109628000B0C0D0E0F101112131415161718191A0A
:089638001B1C1D1E1F20280051
:049640007856341212
:04000003D0004020C9
:00000001FF
