:02000002D0002C
:1040000000400D00108E0D00000006000C000501A0
:084010000401E80500000000B6
:04401800BC850D0056
:1040200009480A49884208B505D0094A824202D0A7
:10403000121A04F090F90748074A0021121A04F0F6
:1040400095F9014808BD00BF7CDD0320648D0D009B
:1040500000DE032000DE0320F0E7032070B502F04D
:104060007DFF074C074BE41AA40800251E46A54215
:1040700004D056F8253098470135F8E770BD00BFE9
:104080005C8D0D00D08C0D0000F0D4BB08B500F0A5
:104090005DFBBDE8084002F023BF02F0E3BC02F084
:1040A000E1BC0078B0FA80F040097047012303704A
:1040B00070477047083001F0FBB900007FB5024639
:1040C00008461379956833B13DB90C4904B0BDE891
:1040D000704002F037BE0A4B00E00A4B167B0A4CD8
:1040E0000A49527B0292012E08BF21460191009598
:1040F000074A002102F069FE04B070BD05860D007C
:10410000CF890D00F4850D00FD850D0001860D00A1
:104110001B860D0010B52C21044603F085FB2046BC
:1041200010BD07B502AB012203F8011D0830194686
:1041300001F0BEF903B05DF804FB00002DE9F04F7B
:104140007B4CA9B002F002FB2368C01A41F287330E
:10415000984240F2E98002F0F9FA206002F0FEFF96
:10416000744C05460A22217802F00FFE284602F020
:10417000F4FD02F0F3FF23780646254623B102F052
:10418000E5FA616B411A01E04FF0FF310A22304637
:1041900002F0FBFD304602F0E0FD2B78654CDFF8C5
:1041A0009CA13BB102F0D2FA636BC01A42F20F73CA
:1041B000984210D9604908A804F04CF99AF80030E8
:1041C000002B40F0B1805D4B01221A7002F0BEFA64
:1041D0005B4B1860A8E0204601F0AAFF51EC100BE1
:1041E00004F048F8DFF89091DFF89081C9F80000FA
:1041F000204601F0C5FF51EC100B04F03BF8002500
:1042000084F87950C8F80000D4F880004D4FDFF8EA
:1042100070B14D4E03F0B6FD4C4B002203F042FF4F
:1042200004F028F8386004F1480002F017F8484A12
:104230000792107004F1480002F01AF88BF80000A1
:1042400004F1480002F022F884F88950414DD4F876
:104250009030307004F138002B7001F0F5FF04F15C
:10426000380001F0E5FF3C4B187004F1380001F014
:10427000D3FF3A4B079A18701378072B144601D9CD
:10428000063B00E01233237002F068FF344A0790C7
:10429000106803F089FD079B324ACDE90001002137
:1042A000184602F092FD02F059FF2B782E4A0021A9
:1042B00002F08BFD02F052FF3278237801929BF8D6
:1042C000002000920021294A02F07FFD02F046FF03
:1042D0000446386803F068FDCDE90401D8F8000011
:1042E00003F062FDCDE90201D9F8000003F05CFDA6
:1042F0001F4ACDE900010021204602F066FD9AF830
:1043000000308BB10D4B00221A7002F01FFA0C4BDB
:104310001C68041B02F022FF164A2346012129B023
:10432000BDE8F04F02F051BD29B0BDE8F08F00BFED
:10433000C4E30320A4E20320C3860D0018DE03209B
:1043400088E303207CE30320C8E3032000005940F6
:1043500010DE032012DE03208CE30320BCE30320E5
:10436000A0E2032039860D0051860D006C860D00F9
:1043700086860D00A3860D00C0E3032014DE032013
:1043800081E3032070B5054614460E4602F0DEF9BF
:10439000ADB20444284603F0E5F9B04203D002F080
:1043A000D5F9A042F6D370BD10B584B201212046E4
:1043B00003F0BFF90A2002F0B9F920460021BDE858
:1043C000104003F0B6B9000038B5124B124D186812
:1043D000FFF7EAFF642201212868FFF7D3FF02F00C
:1043E000ADF96422044600212868FFF7CBFF02F0F4
:1043F000A5F9001B07EE900ADFED086A084BF8EEFE
:10440000E77A642087EEA67A83ED007ABDE838402B
:1044100002F028BD7CDD032080DD0320000068421F
:10442000A0E2032010B507EE900A134B134CB8EE30
:10443000E77AD3ED007A2378B4EEE77AF1EE10FA5A
:104440000CDD9BB902F08AFE0D4902F092FC0D4A88
:10445000137883F001031370012306E033B102F0F7
:104460007DFE094902F06EFC002323704FF47A7040
:10447000BDE8104002F0F6BCA0E2032011DE0320EC
:10448000CF860D0080E30320DF860D0010B586B0D7
:1044900002F064FE2649274C02F054FC264A274BC2
:1044A00012781B780192264A127800920021254A40
:1044B000204602F08AFC244A244B12781B78019291
:1044C000234A127800920021224A204602F07DFC05
:1044D000214B186803F068FCCDE904011F4B1868F4
:1044E00003F062FCCDE902011D4B186803F05CFC8F
:1044F0001C4ACDE900010021204602F066FC1A4B5F
:104500001A4A1B780021204602F05FFC1849204619
:1045100002F02FFC174B186803F046FC164ACDE951
:1045200000010021204602F050FC06B010BD00BF83
:10453000E5860D0090E30320BCE30320BDE30320E8
:104540008CE30320FE860D00C8E3032010DE032069
:1045500081E303201B870D007CE3032014DE03208E
:10456000C0E3032032870D0012DE03204C870D00CC
:10457000CF890D00A0E2032039860D0008B504465E
:1045800002F0ECFD94F8603405462BB31A4902F0B2
:10459000FAFB94F86034202B03D11849284602F026
:1045A000F2FB94F860341BB31549284602F0D1FBA6
:1045B000102294F86014284602F0E7FB11492846BF
:1045C00002F0C7FB102294F86914284602F0DDFBC4
:1045D000284602F0C2FB0BE0E3790BB90A4905E07B
:1045E00094F83C340BB9094900E0094902F0CBFBCF
:1045F00002F0BCF8FCE700BF65870D008C870D005A
:10460000BC870D00CD870D00D1870D00EE870D0012
:1046100009880D000A46002102F0D7BB70B53C4C5A
:1046200023788AB0002B70D002F098FD39493A4DBA
:10463000FFF7F0FF00260023374A38498DF8046061
:1046400001A88DF8056000F0E4FE98B16B79392B74
:1046500002D001336B71EEE72B79392B04D0302275
:1046600001336A712B71E6E702F078FD2C4902F004
:1046700080FBFEE72B49284A09682B4840F60123B6
:1046800000F0C7FE20B902F069FD284902F071FB75
:1046900002F064FD204B264A264D002102F095FBD6
:1046A00002F04CF8244B1860237873B302F056FDE7
:1046B000224902F047FBFFF7E9FE1B4800F06CFEC1
:1046C000E8B16B7ADB071AD44FF4FA71642002F078
:1046D00040FE02F0C7FB00231348237000F092FE57
:1046E00002F03CFD1649FFF795FF4FF4FA6002F027
:1046F000B9FB02F033FD1349FFF78CFFD4E702F05A
:104700002DFD1149FFF786FFDEE70AB070BD00BF3F
:1047100080E3032019880D0084DD032058E2032084
:1047200031880D00CCE3032098E3032048880D0076
:1047300052880D0090E3032084E30320EC870D00F2
:1047400063880D006A880D0084880D0008B5FFF7A6
:104750003BFE02F08BFD03681B699847002810DDC3
:1047600002F084FD03685B699847C1B2074801F015
:10477000F3FE0028EDD0FFF7E1FC6420FFF752FEC6
:10478000E7E7BDE80840FFF749BF00BFA4E2032008
:104790007FB5214A214C00231370214A009204F571
:1047A0008C66204A8DF80430029201258DF80D3078
:1047B0000E226B4604F26C4130468DF80C5001F02D
:1047C000BFF930B304F23C40266000F01BFE2946DE
:1047D000204601F05EF8014640B1104C04F23C4521
:1047E0002146284600F039FC98B105E0204601F04A
:1047F00050F80028F1D10CE094F83C3413F0700F1D
:1048000007D0094B09490A481D60FFF703FF04B0B0
:1048100070BD0248FFF7B2FE80E303201CDE0320D8
:10482000D8850D0080F0FA02CCE3032092880D00B9
:1048300090E3032008B502F091FC4FF4165102F00A
:1048400081FC4FF4FA7002F00DFB144B0121188823
:1048500002F05EFF124B0021188802F059FF02F0AF
:1048600005FD4FF4165102F0FBFC01F06FFF0D4BFC
:1048700018600D4B01221A70FFF78AFF4FF4FA708F
:1048800002F0F0FA02F06AFC084902F072FA4FF402
:10489000FA70BDE8084002F0E5BA00BF7CDD0320F5
:1048A00080DD032088E3032018DE0320AE880D009E
:1048B00070B501F0BBFE0021012002F04FF81E4848
:1048C0001E4E01F061FB1E4B642183F860141D49EC
:1048D000C3F87014012183F874143168002211F0B8
:1048E0000105DA7183F83C2483F83D2483F86A24B7
:1048F000C3F8782483F87C2483F87D241C460AD1ED
:104900003046FFF7CEFB30B129460F4802F0FEF8E3
:104910003046FFF7CBFB0D480B4BC4F86C3400233B
:104920000372437243600A4B03600A4A0A49BDE8B6
:10493000704002F06BBF00BFA4E2032004DE03203E
:104940001CDE0320D8850D0008DE032090E3032041
:10495000E4850D0000DE0320B3400D0001F066BECB
:1049600001F064BE01F062BE01F060BE01F05EBE07
:1049700001F05CBE10B50446243000F07BFE28B187
:1049800004F50C70BDE8104000F074BE10BD411E6F
:1049900000F10A020020430843EAC01011F8013F69
:1049A00053FA80F08A42C0B2F5D170472DE9F04742
:1049B0000378202B00F1010401D12046F8E7704F65
:1049C000886005462C1A2E4615F8013B0BB32F2B99
:1049D00001D1031917E05C2B02D10020BDE8F0875C
:1049E000A3F12204E4B21D2C03D827FA04F4E4074F
:1049F000F3D403F0BF043C2CEFD0203B5E2BE1D975
:104A0000EBE72F2D05D11E4613F8015B202DF8D1C1
:104A1000F9E7166003199842C0EB030809D013F8B0
:104A2000012D2E2AF7D0202AF5D0B8F1FF0FD4DCC3
:104A300001E04FF00008C1F8048001F10C0301F11E
:104A40001702202403F8014F9342FBD103461A1AA0
:104A500013F8014B2E2CFAD0202CF8D0B2FA82F4A5
:104A6000640908F1FF36731C07D100274FF0070EC9
:104A70003D46BA464FF0080909E0835D2E2BF4D07D
:104A8000013EF0E7835C202B04D100240132424533
:104A9000F8DB4BE02E2B02D1B242F6D103E0222B01
:104AA00017D07C2B15D0A3F12A0CBCF1050F01D82F
:104AB0002D2B0ED1A3F13A0CBCF1050F09D9A3F1AE
:104AC0005B0CBCF1020F04D9A3F1210CBCF15D0F0A
:104AD00002D9B2420ED149E0B24247D0754521D841
:104AE000A3F1610CBCF1190F08D8203BDBB249EAF5
:104AF00007070AE0754515D800245F23A3F1410C90
:104B0000BCF1190F98BF49EA0A0A05F1010C5FFAD6
:104B10008CFC0D44BCF1060F6B7301D881F80CC0FE
:104B20006546B3E7BEF10A0F17D100244B7B202B5B
:104B30003FF453AF3CB11AEA070F18BF02270F70BA
:104B40000120BDE8F0870B7B0120087019447E230B
:104B50004B7331238B73BDE8F087B242E5DC3246FC
:104B60004FF00A0E08254FF010098EE7BEF10A0F2C
:104B7000DBD032464FF00A0E08254FF0100985E7CA
:104B8000010100312DE9F84391F80C9006460D46DD
:104B900002247E2701F10D086968AA6863189BB298
:104BA0001144914206D012F8010B03EB431343402A
:104BB0009BB2F6E7B9F1030F28BF4FF0030909F1E3
:104BC0000402D2B203F00F01A818013A0929D2B2A7
:104BD00094BF30313731914541734FEA1313F1D30C
:104BE00005EB090300215F73304600F01EFB012135
:104BF000304600F0FDFA014628B97078B0FA80F02E
:104C00004009BDE8F88303784BB1C37A1B07EED4A3
:104C10000B22404603F090FB0028E8D102E001207F
:104C2000BDE8F8830134A4B2642CB5D1BDE8F883A3
:104C30002DE9F04F9B460B7889B013F0700F05906B
:104C40000E46914601D10020A0E1059B1B78002B68
:104C5000F9D15368029313789B0700F08D81029B72
:104C60000D270C33B3FBF7F70137FFB200213046B5
:104C700000F0DBFA4FF0000809F10D02CDF80C80CE
:104C8000434644464546CDF8108006927269079324
:104C900001213046C2F34F1A00F0AAFA079B20B94F
:104CA0007378002B00F09080CDE70278E52A00D0E1
:104CB00042B9002C08BFD046BC423CBF0134E4B22C
:104CC00022B981E0BC4238BF002403E0E52A01D1CB
:104CD0000025DBE72E2AFBD0C17A0F2952D13DB93E
:104CE0005106D3D5437B039302F01F052B4607E003
:104CF000013BDBB29A42EBD1427B03999142E7D16F
:104D00005A1E4FF00D0C0CFB02FC029A6245DFD9D3
:104D10004FF0000EBEF1040F5FFA8EF204D800EBE4
:104D20004E02B2F801200CE00A2A95BF0EF1FF32C4
:104D30000EF1010200EB420200EB420294BFD28866
:104D400092880299614503D1002A18BF00259DE78A
:104D5000FF2ABDD8D2B2A2F141011929D9F8081011
:104D600011F80C1098BF20320CF1010AA1F1410C8E
:104D700098BFD2B2BCF1190F9CBF2031C9B2914289
:104D8000A6D1FBE00907A3D44DB1012B7FF45BAFA3
:104D9000FFF7FDFD039B83427FF455AF0FE00B222D
:104DA0000699079303F0C8FA079B00287FF46EAFBB
:104DB00099F80020D20702D50122049266E71BF47D
:104DC000006F00F0D1803EE71BF4007F3FF43BAF63
:104DD0000BF00303013B012B3FF635AF002C08BF5E
:104DE000D046BC4202D3049BCBB91FE00021304621
:104DF00000F0FEF910B973785BB124E70134E4B236
:104E0000EFE7B3681B79012BEDD81034E4B2A74269
:104E1000E9D9304600F0D2F80028F2D113E749462C
:104E20003046FFF7AFFE00283FF40DAF4FEA4811C0
:104E3000304600F0FAF900283FF405AF7D1EEDB2D0
:104E40002C464FF0000A4FF00F0841E00021304699
:104E500000F0CEF9074600283FF4F5AEB26892F8AC
:104E60002430AC4243F0010382F824300CBF44F0FC
:104E700040022246027080F80B8080F80CA009F1F5
:104E80000D000392FFF783FD039A787387F81AA049
:104E900087F81BA002F01F020D23013AD9F808E0A1
:104EA0005A4300230299914215D91EF80210042B8F
:104EB0005FFA83FC03F1010013D807EB4303A3F867
:104EC00001100D2802F101020346EBD1013CE4B2CE
:104ED000002CBBD10EE014BF4FF0FF31002189B28E
:104EE000E5E7BCF10A0F94BF07EB430307EB400370
:104EF0009980E6E7736921463046C3F34F1A00F004
:104F000077F9074600283FF49EAE2022214603F0A1
:104F10002DFA4B4653F80D2F3A605A687A601A8979
:104F20003A819B7ABB7299F8003003F018033B7307
:104F3000184B1B682BB107F10E0107F110009847C1
:104F400006E021233B7428237B740823BC73FB7386
:104F50003B8A7B823B83FB89FB82B26892F82430D8
:104F600043F0010382F8243000955B4652463146F7
:104F7000059800F0A3F909E0012777E60EF1010E8C
:104F8000BEF10D0F3FF482AED446C3E609B0BDE8D2
:104F9000F08F00BFD0E3032001F048BB01F046BB17
:104FA00001F044BB01F042BB8378016943F0040384
:104FB000837000F11002806800F012BC2DE9F0410E
:104FC000037803F02003044603F0FF050BB100262D
:104FD0002EE04269184B9A42F9D8FFF7E5FF0646E2
:104FE0000028F4D02169A06800F08FFB0746A06874
:104FF00005223946243000F064FB80460028E6D0C4
:1050000029464FF4007203F0B1F90125A3681A791B
:10501000AA4209D94246E919186800F0CFFE0028D3
:10502000D5D00135EDB2F1E7636903EB422363614B
:105030003046BDE8F08100BFFFFD1F0010B50446FB
:1050400080680A462430A16900F03BFB20B1A388A8
:1050500003F00F0300EB431010BD70B50478054654
:105060000E4684B92422214603F080F9AE60F3791C
:10507000102B03D0202B06D1402300E02023012059
:105080002B70A87070BD002070BD2DE9F74F03781C
:105090000446894615464BB18278D10706D50CE007
:1050A0005A46216900F037FB00283DDA637843F067
:1050B000020363704FF0FF3097E01A0703D5E369EE
:1050C00062699B1A07E09A0608D5A3681A89636982
:1050D000C3EB42139BB29D4228BF1D462E464FF0A4
:1050E000000804F1100B002E35D022786369A06807
:1050F00012F0200FC3F3080A4FEA532102D0036ACB
:1051000019441DE090F8058001EA0808BAF1000F83
:1051100010D1B8F1000F0DD1002BC1D153064CBFF7
:10512000036A236A236105E004D1237813F0700F2A
:1051300011D1BBE72169A06800F0E7FA08EB000194
:10514000A068BAF1000F35D1B6F5007F32D3C36A3B
:10515000994202D12EE0A81B47E0B6F5806F1BD321
:10516000227897064FEA562A06D40279C8EB020243
:10517000D2B2924528BF924699424FEA4A2707D2B7
:10518000A06853464A46006800F0D6FD60B98DE736
:105190005344994221D3F3E74A46006800F084FD66
:1051A000002883D04FF4007763693B44B9446361BE
:1051B000F61B98E70022243000F083FA00283FF421
:1051C00075AFCAF50077B74228BF374600EB0A0132
:1051D0003A46484603F0BFF8E6E72430019100F074
:1051E00049FA01990028CBD160E703B0BDE8F08F00
:1051F00037B54369C3F34315044605B169B90122C4
:105200000DF107012046FFF740FF40B2012801D011
:10521000002008E063691F3300E02033A068636169
:10522000303000EB451003B030BD2DE9F0410E46A3
:10523000017807690446002939D04569B5423AD05A
:105240000EB9066131E00B0703D5C3699E422ED823
:1052500007E0880605D5A3681B89B6EB431F26D84F
:1052600023E0D4F808E09EF806306A1E03F1090036
:10527000731EC240C3409A4200D84DB94A064CBF83
:10528000DEF82020226A22611D4604F110080AE09F
:105290009B1AF9E742462169A06800F03CFA002811
:1052A00005F1FF3503DD002DF4D1666103E02761D0
:1052B0000020BDE8F0810120BDE8F081F8B50F467F
:1052C00015460021242204461E4603F04FF8B86814
:1052D000A06005F00F02A58000F1300152013B6A89
:1052E000E3601144CB7A1D074CD4831893F83B300C
:1052F00003F017032370C97A11F0180F04BF43F0AD
:10530000080323709DF81830E37006F00303012BA7
:1053100009D0022B05D0002B34D1710532D40123E2
:1053200002E0032300E00223A370A1788B0703D5DA
:10533000237813F0110F25D14BB216F4005F06F05D
:10534000080114BF6FF07F07002719433943A1708C
:10535000C36AA36102447505B2F84410B2F84A303A
:1053600043EA014104D581B100F075FA68B909E05A
:105370002162D36CE36173040CD5E1692046FFF729
:1053800054FF38B900202070F8BDA37843F004031F
:10539000A370F0E70120F8BD38B5037804460BB9D7
:1053A000012038BD83785A0723D50121FFF746FE37
:1053B000054628B9637843F001036370002038BDC7
:1053C0000378E52BF6D023781B0744BFE369C3615C
:1053D000238C4383638C8382094B1B682BB100F1C0
:1053E0001601183098472B8B6B82A37823F00403A7
:1053F000A370A068FFF7BEFA0028DBD0D0E700BF9B
:10540000D0E3032010B50446FFF7C6FF0023237046
:1054100010BDF0B593B01F4600238DF824308DF8F1
:1054200025300378019206460C460BB100203DE082
:105430000B7813F0700FF9D013782F2B12D1019B3A
:105440001A782F2A02D101330193F8E7A1681AB91B
:105450003046FFF702FE29E009A8FFF7FEFD00280D
:10546000E4D009AC01AA03A90198FFF79FFA00282C
:10547000DCD0019B1B789BB1002303AA2146304658
:10548000FFF7D6FB0028D1D035460FCD09AC0FC4AD
:105490000FCD0FC42B6823603046FFF7B3FFE0E762
:1054A0003B4603AA21463046FFF7C2FB13B0F0BDCE
:1054B0002DE9F0470378894619070446904608D538
:1054C00083789A0705D51B070BD5E169FFF7ADFE79
:1054D00038B9637843F0010363704FF0FF30BDE8E3
:1054E000F0876369DB439845F3D846464FF0000ADE
:1054F0006369002E00F08180A068427912EA53258A
:10550000C3F308071CD1DFB9216971B104F110029E
:1055100000F001F90028DCDB40F08E802046FFF728
:1055200043FD002840F08880D3E7236A3BB920463A
:10553000FFF73AFD0028CCD02369236200E0236105
:105540002169A06800F0E1F8291817B9B6F5007FC5
:1055500021D2C7F50075B54228BF354637B9636912
:10556000E269934234BF0122052200E00122A068D3
:10557000243000F0A6F80028ABD038442A4649462B
:105580002F4402F0E8FEB7F5007F30D1A068243048
:1055900000F070F817E0B6F5806FA06815D30279B7
:1055A000521B730AD2B2934228BF1346C26A914279
:1055B0004FEA432502D31A44914237D3A7684A469B
:1055C000386800F06DFC90B983E7C36A994202BF66
:1055D0004FF0FF3380F824A0C362A3684A461868DE
:1055E00000F0ECFB00283FF474AF4FF400756369E2
:1055F0002B446361A944761B7AE7E269934201D99F
:10560000E36102E00F4B1B681BB1A37843F0040376
:10561000A37094F90230002B02DB4046BDE8F0870E
:105620002046FFF7B9FE0028F7D152E74FF0FF32CE
:1056300080F824A0C262C1E72169A06800F065F883
:10564000014683E7D0E3032000F0F0BF70B50546C4
:105650000C46084649B102F005FF2B680246214678
:105660002846DB68BDE87040184770BD00F0DEBF1B
:1056700000F0DCBF70B50378DA0704461ED5436836
:10568000816800F10C063246186800F097FB054669
:1056900008B9002513E023789B0704D4237823F06E
:1056A000010323700BE06368A06819693246014466
:1056B000186800F083FB0028F0D1EAE701252846AE
:1056C00070BD70B583688B4204460E46154614D0F3
:1056D000FFF7D0FF08B9002070BD6B0703D500238A
:1056E0002370A66009E0636804F10C023146186873
:1056F00000F0DAFA0028F2D1EDE72378204605F031
:1057000003051D4300F80C5B70BD837940690239C5
:10571000994008447047012970B505460C46164665
:1057200002D84FF0FF3070BDC3699942F9D8C379F0
:10573000202B10D18169022201EBD41100F50C70ED
:10574000FFF7BFFF0028ECD004F07F0450F82430AE
:1057500023F070430FE0102BE3D18369C1F30721DD
:105760000222194400F50C70FFF7ABFF0028D8D0D7
:10577000E4B230F81430EA6993429ABF33600120F2
:10578000002070BD012938B50C46154601D800200F
:1057900038BDC3699942FAD8C379202B0ED18169EB
:1057A000032201EBD41100F50C70FFF78AFF0028EB
:1057B000EDD004F07F0440F824500FE0102BE6D128
:1057C0008369C1F307210322194400F50C70FFF728
:1057D00078FF0028DBD0E4B220F81450012038BD57
:1057E0002DE9F341C4688C4205460E46904607D227
:1057F0000C460027EB6901349C4203D9CFB9EC6811
:105800000127F7E7A64214D001AA21462846FFF750
:1058100082FF00280DDBEDD0019B002BEAD107B100
:10582000EC606FF0704221462846FFF7ABFF074659
:1058300008B900270BE016B9C8F8004007E0224677
:1058400031462846FFF79EFF0028F5D1F1E738469C
:1058500002B0BDE8F08173B505460C4601AA2146A9
:105860002846FFF758FF061E01DA00200FE000224D
:1058700021462846FFF786FF0028F6D0EB689C42B9
:105880009CBF04F1FF34EC60019C002EE6D102B015
:1058900070BD70B5012304460022C3604FF0FF3392
:1058A000C2710D46A06280F82420C362C4F834029D
:1058B00080F83022C0F83832A1B104295DD81146F1
:1058C0002430FFF7FEFE002857D000EB051393F8B5
:1058D000AE315B0651D11B3500EB0515D5F80650EE
:1058E000002D4AD00022294604F12400FFF7E9FEEA
:1058F000002842D0B0F80B30B3F5007F3DD1037CD7
:10590000022B3AD1C389002B37D0417B21714B1E2A
:1059100063710023A371092601238B4207D0013E46
:105920002BD0A2795B000132DBB2A271F5E7C28A0B
:1059300002B9426A2261C6892E44A661B0F81130CC
:10594000238106EB42012162B0F81120520102F2DC
:10595000FF1201EB62226261B0F8133003B9036AEF
:10596000AD1A2B44A57923FA05F56B1CE36140F6CB
:10597000F4739D4203D80C23E371002070BD4FF6F1
:10598000F4739D4285BFC36A236210232023E37111
:10599000012070BD00F04ABE00F048BE00F046BED7
:1059A00070B50E4C0E46154600F0C8FE2368C01AAE
:1059B0000B4B984208D900F0C9FE0A4B186001F061
:1059C00039F800F0BBFE206000F0C0FE80B2801B02
:1059D000A842D4BF0020012070BD00BFD4E3032043
:1059E000A086010030E7032038B5057A04464DB99A
:1059F000406800F07DFA63682946187D01F099FE41
:105A00000123237238BD10B5037A04466BB1436895
:105A10000121187D01F08DFEFF21606800F09AFAE7
:105A2000606800F079FA0023237210BDF8B50446CF
:105A30000D46164600F08AFE87B2606800F06FFAE5
:105A4000FF28607209D14FF47A7239462046FFF779
:105A5000A7FF0028F1D055230BE0FE2801D05023EA
:105A600007E032462946606800F05EFA607230B1A5
:105A7000602320462370FFF7C6FF0020F8BD606852
:105A800000F04DFA606800F04AFA0120F8BD70B5E8
:105A900004460E4600F05AFE85B23246294620469C
:105AA000FFF77EFF30B9606800F039FAFF28F4D1C3
:105AB000012070BD002070BDF7B5037A0192044645
:105AC0000D460BB9FFF790FF25B14FF496712046B4
:105AD000FFF7DDFF45F04001606800F03BFA0DF193
:105AE00007060DF1030716F80119606800F032FA95
:105AF000BE42F8D1002D0CBF95218721606800F0CF
:105B000029FA606800F00BFA0B25606800F007FACC
:105B10000306607203D5013D15F0FF05F5D103B012
:105B2000F0BD70B504460D46164637210022FFF73A
:105B3000C3FF324629462046BDE87040FFF7BCBF90
:105B40002DE9F0410025057205708572416004461B
:105B500090461E4600F0FAFD41460746606800F098
:105B6000CBF963684F4A1D724FF00108DA605D742B
:105B700083F810802046FFF737FF63684146187DA1
:105B800001F0D7FD0A25FF216068013D00F0E2F930
:105B900015F0FF05F7D163682946187D01F0C9FDAE
:105BA0000A25002211462046FFF786FF012880467D
:105BB00012D0013D15F0FF0501D1202357E0FD2152
:105BC000606800F0C7F94FF40278606800F0A7F948
:105BD000B8F10108F9D1E4E74FF4D5720821204665
:105BE000FFF76AFF052802D184F80A800FE0042538
:105BF000606800F094F9013D15F0FF056072F7D17F
:105C0000AA2802D10223A37201E025232FE0A37A60
:105C1000022B0CBF4FF080450025BFB22A46292138
:105C20002046FFF77EFF024648B14FF4FA6239463C
:105C30002046FFF7B5FE0028F0D0432317E0A37AF3
:105C4000022B0ED02046FFF7DEFE6368B068347981
:105C5000317B727B5A74D8601C7219740120BDE8C4
:105C6000F0813A212046FFF727FF38B1372320463D
:105C70002370FFF7C8FE0020BDE8F081606800F0E7
:105C80004EF900F0C000C02804BF0323A37260686F
:105C900000F045F9606800F042F9606800F03FF9F3
:105CA000D0E700BF90D0030038B5837A032B18BF2C
:105CB000490215460A4611210446FFF7FDFE10B1C0
:105CC000302323700BE029464FF400722046FFF783
:105CD000ADFE054618B12046FFF795FE03E02046CD
:105CE000FFF791FE0025284638BD10B5837A032BB7
:105CF0000A4618BF4A0212210446FFF7DDFE30B102
:105D0000312320462370FFF77EFE002010BD0120C6
:105D100010BD10B500220C210446FFF7CDFE30B1B6
:105D2000282320462370FFF76EFE002010BD20467A
:105D3000FFF769FE012010BDF8B5054616461F465F
:105D4000FFF7D3FF98B10024A3B29F4206EB442192
:105D500008D94FF400722846FFF768FE0134002886
:105D6000F2D104E02846BDE8F840FFF7D2BF00209A
:105D7000F8BD38B504461546406800F0EBF84FF41E
:105D800000722946606800F0E9F8FF21606800F0C1
:105D9000E1F8FF21606800F0DDF8606800F0BFF80E
:105DA000607200F01F00052806D05723204623709C
:105DB000FFF729FE002038BD012038BD70B5837A79
:105DC000032B18BF490215460A4618210446FFF75F
:105DD00073FE064608B132231DE02A46FE21204606
:105DE000FFF7C7FFC0B14FF4FA612046FFF74FFE3F
:105DF000054608B95A230EE032460D212046FFF72A
:105E00005BFE38B9606800F08AF818B92046FFF7E1
:105E1000FAFD05E0292323702046FFF7F4FD002555
:105E2000284670BD38B50D464FF4FA610446FFF7B9
:105E30002EFE10B95B23237005E02A46FC21204684
:105E4000FFF797FF18B92046FFF7DDFD002038BDAA
:105E500010B5837A032B0A4618BF4A02192104465B
:105E6000FFF72AFE30B1332320462370FFF7CBFD26
:105E7000002010BD012010BD38B54FF4FA61044672
:105E8000FFF705FE054620B1FD21606800F062F8CD
:105E900001E0562323702046FFF7B5FD284638BDA4
:105EA000F8B5054616461F46FFF7D2FF70B100242D
:105EB000BC4206EB4421284604D0FFF7B3FF28B1CB
:105EC0000134F5E7BDE8F840FFF7D6BF2846FFF7F5
:105ED0009AFD0020F8BD00F0A9BB00F0A7BB00F0C0
:105EE000A5BB0000014B01221A707047D8E30320C4
:105EF000011D006800F03EBE10B504460175006843
:105F000000F00EFE207D012101F002FC207D012128
:105F1000BDE8104001F00DBC006800F012BEFF218A
:105F2000006800F097BE000037B5084B00930025CD
:105F3000074C0068257013460A46294600F090FE7B
:105F40002378002BFCD0002003B030BDE55E0D00AF
:105F5000D8E30320006800F07DBE000037B5074B92
:105F600000930025064C0068257013462A4600F071
:105F700077FE2378002BFCD003B030BDE55E0D002A
:105F8000D8E3032000F052BB0022022102704270CD
:105F900082808260027302824261027682830262A0
:105FA00080F824200285C26280F8302080F83820F2
:105FB00080F83920C26380F8482080F84920C26404
:105FC00080F8582080F85920026680F8682080F810
:105FD0006920026780F8782080F87920C0F8802056
:105FE00080F8882080F88920C0F8902080F89820D8
:105FF00080F89920C0F8A02080F8A82080F8A92077
:1060000080F8B91080F8BA2080F8BB2080F8BC2056
:10601000C0F8C020C0F8C420C0F8C820C0F8CC2008
:10602000C0F8D020C0F8D42080F8AA207047A1F191
:106030004103052B02D8A1F137007047A1F161039C
:10604000052B94BFA1F15700A1F13000704738B57E
:10605000057804462D2D08BF0134204602F05AF978
:1060600064235843224614F8013BA3F13001092967
:10607000F8D92E2B0BD15378303B092B07D80A21A6
:1060800001FB03009378303B092B98BFC0182D2DDE
:1060900008BF404238BD000038B504460D4602F046
:1060A00039F96423B0FBF3F203FB1200114B2A8091
:1060B000434320460278A2F130010929044600F149
:1060C0000100F7D92E2A0BD10A490A2014F8012F12
:1060D000303A092A04D8B1FBF0F101FB0233F5E7AD
:1060E00003EB830301330322B3FBF2F36B60002362
:1060F0002B7238BD8096980010B50346044653F8BD
:106100001C2F42605A6882601B7A0373034653F85F
:10611000282F02615A6842611B7A037600F016FB51
:10612000012360636370237010BD00000000000055
:10613000D0B5002304464370806801F013FE0EA31F
:10614000D3E9002301F0AEFF0646A0880F4601F018
:1061500019FE0B4602463946304601F0C7FC237B48
:106160001BB1024601F1004301E002460B4643EC3D
:10617000102BD0BDAFF300800000000065CDCD41F5
:10618000D0B5002304464370406901F0EBFD0EA337
:10619000D3E9002301F086FF0646208A0F4601F06E
:1061A000F1FD0B4602463946304601F09FFC237E46
:1061B0001BB1024601F1004301E002460B4643ECED
:1061C000102BD0BDAFF300800000000065CDCD41A5
:1061D00010B583684360044600F0B8FA0123E0601C
:1061E0006370237010BD10B583684360044600F0EF
:1061F000ADFA0123E0606370237010BD10B5044652
:106200000846FFF724FFA06010BD10B504460846FD
:1062100002F080F8A06010BD002343704068642243
:10622000B0FBF2F302FB130000F5FA6080B2704796
:106230000023437043686420B3FBF0F3B3FBF0F238
:1062400000FB1230C0B2704700234370436842F233
:106250001070B3FBF0F0C0B2704700000023437031
:1062600043680248B3FBF0F0C0B2704740420F00F1
:1062700000234370436842F21070B3FBF0F36420D4
:10628000B3FBF0F200FB1230C0B270470023437042
:1062900043686420B3FBF0F3B3FBF0F200FB123071
:1062A000C0B2704710B5C3688360044600F04EFA70
:1062B000012360606370237010BD10B5044608466A
:1062C000FFF7C5FEE06010BD10B5C36883600446EB
:1062D00000F03CFA012360606370237010BD10B5BC
:1062E0000446084602F016F8E06010BD10B50146FD
:1062F0000446103002F0AEF800F028FA01232062C4
:1063000084F8253084F8243010BD102202F0B2B891
:10631000F8B590F8A9500446002D67D090F8AA105F
:10632000FFF785FE94F8AB1002462046FFF77FFE8C
:1063300094F8A83000EB0210C0B283424FD1D4F8D9
:10634000D4300133C4F8D43094F8BC3023B1D4F83D
:10635000CC300133C4F8CC3094F8B930B3B1012B50
:106360002AD104F13800FFF733FF04F14800FFF7AA
:106370003AFF94F8BC30FBB12046FFF7BDFE04F1B4
:106380005800FFF78FFF04F1680013E004F14800A4
:10639000FFF729FF94F8BC3033B12046FFF7ACFE7D
:1063A00004F17800FFF77EFF04F18800FFF78CFF0F
:1063B00004F19800FFF776FFD4F8C460002E00F0D7
:1063C000C580D4F8C430B06A996A02F039F8002860
:1063D00040F0BC803046FFF789FF366BEEE7D4F81B
:1063E000D0300133C4F8D0300025AFE090F8BA20A7
:1063F0002ABB00F1AA075649384602F021F808B92D
:10640000012308E05349384602F01AF810B984F81D
:10641000B95002E0022384F8B930D4F8C030C4F88F
:10642000C430D4F8C460002E00F090803946B06AC1
:1064300002F006F8002880F28580336BEFE790F8D1
:10644000B910022966D090F8AA30002B62D042EA37
:106450004112013A282A5DD8DFE802F01520232AEC
:1064600031464D53575C5C5C5C5C5C5C5C5C5C5CCA
:106470005C5C5C5C5C5C5C5C5C5C5C5C151B202359
:106480002A31383C400000F1AA014830FFF7B6FE3F
:1064900040E0A3F141004342434129E000F11C01E7
:1064A00008E0A3F153014B424B4180F8243031E026
:1064B00000F1280104F1AA00FFF7EEFD2AE0A3F1A4
:1064C00057025342534180F8303023E000F1AA01D3
:1064D00058301DE000F1AA01683019E000F1AA016E
:1064E0003830FFF792FE15E0302B94BF00230123D4
:1064F00084F8BC300EE000F1AA018830FFF7EFFE0F
:1065000008E000F1AA01983002E000F1AA01783019
:10651000FFF7D3FED4F8C46004F1AA07B6B1D4F8EB
:10652000C430B06A996A01F08BFF78B9F26A94F8C6
:10653000BA309A420ADC03D139463046FFF7E5FE0D
:10654000366BEBE702D00023C4F8C4302846F8BD10
:10655000B9880D00BF880D0038B5D0F8C83024299F
:1065600003F1010304460D46C0F8C8302AD090F864
:10657000BB3004D80A290CD00D2932D109E02A29D0
:1065800007D02C292DD190F8A82082F02C0280F879
:10659000A8200E2B4FF0000005D8234483F8AA0052
:1065A0002046FFF7B5FE94F8BA30013384F8BA30CC
:1065B000002384F8BB30A5F12A035D425D4184F8D5
:1065C000A95038BD0020022384F8BB0084F8BA002B
:1065D00084F8A80084F8B93084F8A90084F8BC00D5
:1065E00038BD0D2B9FBF5A1C1B1984F8BB2083F8A4
:1065F000AA5094F8A90028B994F8A8104D4084F83E
:10660000A85038BD002038BD00F010B808B5024BC6
:106610001B689B68019308BD6802030008B5024B24
:106620001B68DB68019308BD6802030008B5024BD4
:106630001B681B68019308BD2C02030008B5024BC0
:106640001B689B68019308BD2C02030008B5024B30
:106650001B68DB68019308BD2C02030008B5024BE0
:106660001B681B69019308BD2C02030008B5024B8F
:106670001B685B69019308BD2C02030008B5024B3F
:106680001B681B68019308BD3002030008B5024B6C
:106690001B685B69019308BD3002030008B5024B1B
:1066A0001B68DB69019308BD3002030008B5024B8B
:1066B0001B681B6A019308BD3002030008B5024B3A
:1066C0001B685B6A019308BD3002030008B5024BEA
:1066D0001B689B6A019308BD3002030008B5024B9A
:1066E0001B689B6B019308BD3002030008B5024B89
:1066F0001B68DB6B019308BD3002030008B5024B39
:106700001B681B6C019308BD3002030008B5024BE7
:106710001B685B6C019308BD3002030008B5024B97
:106720001B685B68019308BD1802030008B5024BA3
:106730001B68DB68019308BD1802030008B5024B13
:106740001B681B69019308BD1802030008B5024BC2
:106750001B685B69019308BD1802030008B5024B72
:106760001B689B68019308BD4802030008B5024BF3
:106770001B68DB68019308BD4802030008B5024BA3
:106780001B681B69019308BD4802030008B5024B52
:106790001B685B69019308BD4802030008B5024B02
:1067A0001B685B6C019308BD4802030008B5024BEF
:1067B0001B689B6C019308BD4802030008B5024B9F
:1067C0001B685B69019308BD6402030008B5024BB6
:1067D0001B681B68019308BD3C02030008B5024B0F
:1067E0001B68DB68019308BD3C02030008B5024B3F
:1067F0001B681B69019308BD3C02030008B5024BEE
:106800001B685B69019308BD3C02030008B5024B9D
:106810001B689B69019308BD3C02030008B5024B4D
:106820001B68DB69019308BD3C02030008B5024BFD
:106830001B681B6A019308BD3C02030008B5024BAC
:106840001B689B6A019308BD3C02030008B5024B1C
:106850001B68DB6A019308BD3C02030008B5024BCC
:106860001B681B6A019308BD2802030008B5024B90
:106870001B685B6A019308BD2802030008B5024B40
:106880001B689B6A019308BD2802030008B5024BF0
:106890001B68DB6A019308BD2802030008B5024BA0
:1068A0001B681B6B019308BD2802030008B5024B4F
:1068B0001B685B6B019308BD2802030008B5024BFF
:1068C0001B681B6C019308BD2802030008B5024B2E
:1068D0001B681B68019308BD4C02030008B5024BFE
:1068E0001B685B68019308BD4C02030008B5024BAE
:1068F0001B681B69019308BD4C02030008B5024BDD
:106900001B685B69019308BD4C02030008B5024B8C
:106910001B689B69019308BD4C02030008B5024B3C
:106920001B68DB69019308BD4C02030008B5024BEC
:106930001B681B6A019308BD4C02030008B5024B9B
:106940001B685B68019308BD2002030008B5024B79
:106950001B685B69019308BD2002030008B5024B68
:106960001B68DB6A019308BD2002030008B5034BD6
:106970001B68D3F88830019308BD00002002030093
:1069800008B5034B1B68D3F89430019308BD000091
:106990002002030008B5024B1B685B68019308BD29
:1069A0004002030008B5024B1B689B68019308BDB9
:1069B0004002030008B5024B1B68DB68019308BD69
:1069C0004002030008B5024B1B681B69019308BD18
:1069D0004002030008B5024B1B685B69019308BDC8
:1069E0004002030008B5024B1B689B69019308BD78
:1069F0004002030008B5024B1B68DB69019308BD28
:106A00004002030008B5024B1B681B6A019308BDD6
:106A10004002030008B5024B1B681B6B019308BDC5
:106A20004002030008B5024B1B685B6B019308BD75
:106A30004002030008B5024B1B689B68019308BD28
:106A40004402030008B5024B1B68DB6B019308BDD1
:106A50004402030008B5024B1B681B68019308BD84
:106A60001C02030008B5024B1B685B68019308BD5C
:106A70001C02030008B5024B1B685B6A019308BD4A
:106A80001C020300002211464068FFF7BBBF002232
:106A900011464068FFF7C6BF00224068FFF7BABF43
:106AA000002281F001014068FFF7A4BF00231A46CD
:106AB00019464068FFF796BF00231A4619464068FA
:106AC000FFF788BF002211464068FFF77BBF002216
:106AD00011464068FFF766BF002202214068FFF7B9
:106AE00069BF00231A464068FFF754BF024B0322D8
:106AF0005A60024A1A607047DCE30320F4880D00F4
:106B00000021FFF7FBBD0021FFF700BE10B50446D2
:106B100001700846FFF7C2FD00236360204610BDE8
:106B200010B504460078FFF7EBFF48B920784FF620
:106B3000FF71FFF7A3FD2078BDE81040FFF7E3BF2A
:106B400010BD0078FFF7DFBF400830B518600024A3
:106B500018688842E5B206D90134082C02D04008F2
:106B60001860F5E70725024B5B5D137030BD00BF71
:106B700020890D002DE9F04307468FB000780E46BE
:106B8000FFF7BEFF002862DB3C781422002109A831
:106B900001F0ECFB0B232046002209A9ADF82430BC
:106BA000FFF78CFD9DF82D4054B19DF82C5035B960
:106BB000DDF830809DF834909DF8354003E00024E6
:106BC000A146A0460125337905B1BBB99D420BD141
:106BD000B268424508D18DF820908DF82140BDF86B
:106BE0002010B289914209D053B100243878019421
:106BF0000094234622460121FFF778FD002026E07D
:106C00008DF80F30B1680A9804AB0DF10F02FFF751
:106C10009BFF317905B1B1B9A94208D00024387879
:106C20000194747B337B9DF80F200094E4E7B368F4
:106C30004345F3D38DF820908DF82140BDF82020F6
:106C4000B3899A42EAD1049B4345E7D1D6E70FB016
:106C5000BDE8F08308B50078FFF718FDC0B208BDA5
:106C600030B587B004460A9D00780095FFF72EFDE9
:106C70003DB902A92078FFF731FD9DF81430DB07FC
:106C8000F7D407B030BD0078FFF710BD10B504464B
:106C9000006818B1FFF7E6FE0023236010BD10B5B1
:106CA0000446FFF7F3FF204610BD000010B5094C65
:106CB00000204FF6FF732060A080A07120816381C7
:106CC000FFF73CFE2046044A0449BDE8104000F0AE
:106CD0009DBD00BFE4E3032000DE03209F6C0D0098
:106CE00010B50446006808B1FFF760FD204610BDEE
:106CF00010B5064C002320462360FFF74FFD2046C9
:106D0000034A0449BDE8104000F080BDF0E30320D1
:106D100000DE0320E16C0D00F8B506460D468F1825
:106D20000024BD420CD0336815F8011B9B68304627
:106D30009847002801DB0444F3E7002C08BF044611
:106D40002046F8BD08B5FEF781FC08BD03689B68C6
:106D5000184708B5FEF77AFC08BD38B50D21054681
:106D6000FFF7F4FF0A2104462846FFF7EFFF20440F
:106D700038BD38B50546FEF769FC04462846FFF7DE
:106D8000ECFF204438BDFFF7F4BF30B58BB00B46A5
:106D900000218DF82410012A98BF0A220DF1230446
:106DA000B3FBF2F505FB123303F0FF03092B94BF8D
:106DB00030333733DBB2214604F801392B46002D3E
:106DC000EED1FEF743FC0BB030BD0CB42DE9F0431F
:106DD00087B000AF07F13804054654F8049B3C60C7
:106DE0000E4623464A461421381DFFF743FE13285A
:106DF00005D8391D2846FEF729FC044613E000F1AA
:106E0000080323F00703E846ADEB030D411C2346BE
:106E10004A4668463C60FFF72DFE69462846FEF765
:106E200015FC0446C5461EB12846FFF796FF0444EC
:106E300020461C37BD46BDE8F04302B07047000055
:106E4000014B024A1A607047F4E303209B890D004E
:106E5000024B1A68024B1A60704700BF94DD032092
:106E6000F8E303200021FFF771BD10B583680446E5
:106E700013B1032201469847204610BD10B50446C1
:106E8000FFF7F3FF204610BD0348044A04490023DE
:106E9000836000F0BBBC00BFFCE3032000DE0320E6
:106EA0007D6E0D0008B50C4B33B100F057F9036847
:106EB0001B699847002809DC084B63B100F0D6F93C
:106EC00003681B699847002803DC08BDAFF3008006
:106ED000F2E7AFF3008008BD0000000000000000F2
:106EE00008B5FFF7DFFFFFF731FC014B186008BD65
:106EF00030E703200248034A0349121A01F02BBA73
:106F000000F4032004F40320608D0D0007B5002376
:106F100000931A466FF07701FFF732FD03B05DF87A
:106F200004FB000007B543880A2B08D0502B09D179
:106F3000094B1B683BB103B05DF804EB1847FFF742
:106F4000E5FF06E0002300931A466FF07701FFF794
:106F500017FD03B05DF804FB0CE4032038B5104CBA
:106F6000104D2368AB42104B0CBF012200221A7057
:106F700002D0FFF7BFFF2560FFF7D0FB044601F00A
:106F8000FDF90A4B13B12046AFF3008000210748FA
:106F9000FFF758FD00210648BDE83840FFF7E6BC82
:106FA00000F403201E1C279A10E4032000000000B8
:106FB000256F0D00704710B51821044600F034FC11
:106FC000204610BDF0B5037D062B8DB00E4600F1B6
:106FD00004074FF0000402D000F1080518E00CADE2
:106FE000394605F8304D2F232A460A20FFF7E6FBE5
:106FF000284601F037FA33680246DB6829463046F6
:1070000098470FE024B12E213046FFF79FFE04443D
:1070100015F8011D0A223046FFF7B7FEBD420444B1
:10702000F0D120460DB0F0BD10B5054B044611223D
:1070300040F8043B002101F099F9204610BD00BF43
:107040003C8A0D000346074A10B543F8042B01F1B2
:10705000100251F8044B43F8044B9142F9D10A78DD
:107060001A7010BD3C8A0D0010B59DF8084044EA26
:10707000032343EA024242EA0161042341600375AB
:1070800010BD37B50D788B784A78C97800912946BC
:10709000FFF7EAFF03B030BD41747047704708B591
:1070A0000021007CFFF732FC30EA200028BF4FF0BF
:1070B000FF3008BD08B50121007CFFF727FC30EA4E
:1070C000200028BF4FF0FF3008BD08B5007CFFF757
:1070D00015FC20EAE07008BD08B5007CFFF706FC4F
:1070E00020EAE07008BD007CFFF720BC10B5142139
:1070F000044600F099FB204610BD38B50446007CDC
:107100000D46FFF7FBFB002801DC607C28B1294617
:10711000207CFFF703FC20EAE07038BD10B5044680
:10712000002363604FF47A73A360054B236001234F
:107130000846217463741146FFF7C8FB204610BD52
:10714000508A0D000022007CFFF7C8BB10B5142246
:107150000446002101F00AF9204610BD30B50E4D5D
:1071600087B001A8FFF7F2FF296811F0010410D1E0
:107170002846FCF796FF60B101AA21460748FFF7B1
:10718000CDFF2846FCF792FF054A0649034800F068
:107190003DFB024807B030BD14E4032018E403208F
:1071A00000DE03209D700D0070474174704708B5E4
:1071B000007CFFF743FB20EAE07008BD08B5007CC7
:1071C000FFF714FB20EAE07008BD08B5007CFFF76C
:1071D0001DFB30EA200028BF4FF0FF3008BD08B586
:1071E000007CFFF70BFB30EA200028BF4FF0FF3098
:1071F00008BD007CFFF712BB10B51421044600F057
:1072000013FB204610BD70B5457C04460E4625B9DB
:10721000007CFFF713FB002805DD3146207CBDE82C
:107220007040FFF7DBBA284670BD000010B5044679
:1072300008461146002262604FF47A72A260054A45
:1072400022600122207462741A46FFF7BFFA2046BA
:1072500010BD00BF808A0D000023007CFFF7F6BA46
:107260000022FFF7F9BF007CFFF7E0BA38B50C4DFC
:10727000296811F0010411D12846FCF712FF68B10A
:10728000084A094B09482146FFF7D0FF2846FCF77A
:107290000DFF074A0749054800F0B8FA034838BD12
:1072A000C4E40320C8E4032040E403202CE40320CA
:1072B00000DE0320A9710D007047F8B5064615469B
:1072C0000C468F18BC4206D0336814F8011B9B682B
:1072D00030469847F6E72846F8BD0022007CFFF7C5
:1072E000BDBA0021007CFFF7C1BA0021007CFFF786
:1072F000C5BA0021007CFFF7C9BA0021007CFFF766
:10730000CDBA10B51421044600F08EFA204610BD07
:1073100010B50446002363604FF47A73A360044BF6
:107320002174084623601146FFF7C8FA204610BDB5
:10733000B08A0D000021007CFFF7B8BA10B50446F2
:1073400030B101F043F890FBF4F303FB140010BDDF
:1073500010BD884210B5044604DA081AFFF7EEFFA4
:10736000204410BD10BD002211464068FFF74ABB03
:10737000002211464068FFF755BB00224068FFF726
:1073800049BB002281F001014068FFF733BB0023B5
:107390001A4601214068FFF725BB00231A4619460B
:1073A0004068FFF717BB002211464068FFF70ABB91
:1073B000002211464068FFF7F5BA0022022140681A
:1073C000FFF7F8BA00231A464068FFF7E3BA38B56A
:1073D000054688B104684CB1A3681BB1032221465D
:1073E000204698471021204600F01EFA2846142116
:1073F000BDE8384000F018BA38BD10B103685B68CA
:107400001847704710B503680446BBB15868FFF7CA
:10741000A5F978B923685A7C12B95868FFF7AEF914
:1074200023685868FFF7B2F920680023236028B169
:10743000FFF7CDFF206808B1FFF7C9FF204610BD58
:1074400038B50446D0F8C40108B1FCF728FED4F8DA
:10745000C00108B1FFF7AAF9D4F8BC5135B12846EC
:10746000FFF7D0FF0421284600F0DEF9206808B1BC
:10747000FFF7C3FF204638BD10B5044B044640F863
:10748000083BFFF7DDFF204610BD00BFD88A0D0086
:1074900038B50E4C0E4B23600025022304F5E47032
:1074A0006360A560C4F8C451C4F8C851FFF776F909
:1074B000084BC4F8CC5184F8D05123602046064ACA
:1074C0000649BDE8384000F0A1B900BF4CE50320F3
:1074D000408B0D00D88A0D0000DE032079740D006A
:1074E000002211464068FFF76DBA0022114640683D
:1074F000FFF788BA002211464068FFF793BA0022CE
:107500004068FFF787BA002281F001014068FFF769
:1075100071BA00231A4619464068FFF763BA002380
:107520001A4619464068FFF755BA002211464068CE
:10753000FFF738BA002202214068FFF73BBA002368
:107540001A464068FFF726BA024B04225A60024AE4
:107550001A60704720E703200C8B0D0000231A46A9
:107560004068FFF717BA002202214068FFF722BAED
:10757000002211464068FFF715BA00221146406804
:10758000FFF720BA00231A4619464068FFF722BACF
:1075900000231A4619464068FFF724BA002281F0FA
:1075A00001014068FFF726BA00224068FFF732BAAF
:1075B000002211464068FFF735BA002211464068A4
:1075C000FFF720BA2DE9F043002495B016460D468A
:1075D0000746FFF729FD214620220CA8009400F061
:1075E000C5FE40230C9321466B460CAA3046FFF79C
:1075F00015F80446002844D1024601216868FFF7C7
:10760000E1F90221804622466868FFF7DBF9009E17
:1076100081462146002E34D0002932D17368022BD6
:1076200002D00A2B09D02AE0B8F1000F27D07169E7
:1076300038460431FFF725FD20E0B9F1000F1ED0D8
:107640007469112201A800F091FE06238DF8143010
:1076500001AD04F108031834186859682A4603C2BA
:107660000833A3421546F7D101A906A807ADFFF7D5
:10767000E9FC0FCD3C1D0FC42B6823700121F66976
:10768000C8E70098FEF7C2FF384615B0BDE8F083A2
:10769000024B034A1A6000225A60704728E7032011
:1076A000408B0D0070B5184E316811F0010504468D
:1076B0000AD13046FCF7F5FC30B129461348FFF7F4
:1076C00025FA3046FCF7F2FC1048FFF7DCFA28B147
:1076D000A4F10B03022B01D8002070BD00F070F85C
:1076E000FFF728FE08B1012CF6D9FFF7BFFDFFF721
:1076F000BAFD18B1A4F10903012BEDD9232C8CBFDD
:107700000020012070BD00BF04DE032008DE03203E
:10771000232838B504460D460AD8FF2908D0FFF7BC
:10772000C1FF28B129462046BDE83840FEF786BF94
:1077300038BD38B504460D46FEF788FFFF2810D047
:10774000062804D84D2323FA00F0C30709D42046A5
:10775000FFF7A8FF28B129462046BDE83840FEF7CC
:107760007DBF38BD10B50446FEF770FF0438C0B2C7
:10777000012808D92046FFF795FF20B12046BDE833
:107780001040FEF773BF002010BD000070B5044626
:1077900014252A46094E002100F0E8FD2580202509
:1077A0003146A5602561284600F040F8314660600A
:1077B000284600F03BF8E060204670BD6C8B0D0061
:1077C00030B50E4D296811F0010487B013D1284659
:1077D000FCF767FC78B101A8FFF7D8FF01AA2146A2
:1077E0000748FFF795FD2846FCF760FC054A064967
:1077F000034800F00BF8024807B030BD34E703201F
:1078000038E7032000DE0320B9720D000B46014665
:10781000184600F083BD0000024B1868BFF35F8F6D
:10782000704700BF4CE70320FCF737BC00F000B8FE
:1078300010B5002814BF044601242046FFF70AF9BA
:1078400020B9FFF7E9FF08B18047F6E710BD000057
:10785000184B1A68D1075CBF01221A60164B1A68D0
:10786000D2075CBF01221A60144B1A68D0075CBFB4
:1078700001221A60124B1A68D1075CBF01221A60FC
:10788000104B1A68D2075CBF01221A600E4B1A68AF
:10789000D0075CBF01221A600C4B1A68D1075CBF8D
:1078A00001221A600A4B1A68D2075CBF01221A60D3
:1078B000704700BF6CE7032068E7032064E70320FC
:1078C00060E703205CE7032058E7032054E7032028
:1078D00050E70320244B1A68D0075CBF01221A60CE
:1078E000224B1A68D1075CBF01221A60204B1A682C
:1078F000D2075CBF01221A601E4B1A68D0075CBF1A
:1079000001221A601C4B1A68D1075CBF01221A6061
:107910001A4B1A68D2075CBF01221A60184B1A680A
:10792000D0075CBF01221A60164B1A68D1075CBFF2
:1079300001221A60144B1A68D2075CBF01221A6038
:10794000124B1A68D0075CBF01221A60104B1A68EC
:10795000D1075CBF01221A600E4B1A68D2075CBFC8
:1079600001221A60704700BF9CE7032098E70320BC
:1079700094E7032090E703208CE7032088E70320A7
:1079800084E7032080E703207CE7032078E70320D7
:1079900074E7032070E70320244B1A68D0075CBF0C
:1079A00001221A60224B1A68D1075CBF01221A60BB
:1079B000204B1A68D2075CBF01221A601E4B1A685E
:1079C000D0075CBF01221A601C4B1A68D1075CBF4C
:1079D00001221A601A4B1A68D2075CBF01221A6092
:1079E000184B1A68D0075CBF01221A60164B1A6840
:1079F000D1075CBF01221A60144B1A68D2075CBF22
:107A000001221A60124B1A68D0075CBF01221A606B
:107A1000104B1A68D1075CBF01221A600E4B1A681E
:107A2000D2075CBF01221A60704700BFCCE7032079
:107A3000C8E70320C4E70320C0E70320BCE7032016
:107A4000B8E70320B4E70320B0E70320ACE7032046
:107A5000A8E70320A4E70320A0E70320184B1A6837
:107A6000D1075CBF01221A60164B1A68D2075CBFAF
:107A700001221A60144B1A68D0075CBF01221A60F9
:107A8000124B1A68D1075CBF01221A60104B1A68AA
:107A9000D2075CBF01221A600E4B1A68D0075CBF88
:107AA00001221A600C4B1A68D1075CBF01221A60D0
:107AB0000A4B1A68D2075CBF01221A60704700BFE8
:107AC000ECE70320E8E70320E4E70320E0E70320F6
:107AD000DCE70320D8E70320D4E70320D0E7032026
:107AE00081F0004102E000BF83F0004330B54FEA6F
:107AF00041044FEA430594EA050F08BF90EA020FDC
:107B00001FBF54EA000C55EA020C7FEA645C7FEA6E
:107B1000655C00F0E2804FEA5454D4EB5555B8BF91
:107B20006D420CDD2C4480EA020281EA030382EA02
:107B3000000083EA010180EA020281EA0303362D94
:107B400088BF30BD11F0004F4FEA01314FF4801C67
:107B50004CEA113102D0404261EB410113F0004F79
:107B60004FEA03334CEA133302D0524263EB430330
:107B700094EA050F00F0A780A4F10104D5F1200ECE
:107B80000DDB02FA0EFC22FA05F2801841F1000129
:107B900003FA0EF2801843FA05F359410EE0A5F1FD
:107BA00020050EF1200E012A03FA0EFC28BF4CF02E
:107BB000020C43FA05F3C01851EBE37101F00045E4
:107BC00007D54FF0000EDCF1000C7EEB00006EEBF1
:107BD0000101B1F5801F1BD3B1F5001F0CD349087B
:107BE0005FEA30004FEA3C0C04F101044FEA4452D2
:107BF00012F5800F80F09A80BCF1004F08BF5FEA59
:107C0000500C50F1000041EB045141EA050130BD38
:107C10005FEA4C0C404141EB010111F4801FA4F1DB
:107C20000104E9D191F0000F04BF01460020B1FA30
:107C300081F308BF2033A3F10B03B3F120020CDA68
:107C40000C3208DD02F1140CC2F10C0201FA0CF046
:107C500021FA02F10CE002F11402D8BFC2F1200CAB
:107C600001FA02F120FA0CFCDCBF41EA0C01904061
:107C7000E41AA2BF01EB0451294330BD6FEA0404AA
:107C80001F3C1CDA0C340EDC04F11404C4F1200295
:107C900020FA04F001FA02F340EA030021FA04F3A7
:107CA00045EA030130BDC4F10C04C4F1200220FAFE
:107CB00002F001FA04F340EA0300294630BD21FA3C
:107CC00004F0294630BD94F0000F83F4801306BF02
:107CD00081F480110134013D4EE77FEA645C18BFF6
:107CE0007FEA655C29D094EA050F08BF90EA020F8D
:107CF00005D054EA000C04BF1946104630BD91EA85
:107D0000030F1EBF0021002030BD5FEA545C05D187
:107D10004000494128BF41F0004130BD14F58004C6
:107D20003CBF01F5801130BD01F0004545F0FE413A
:107D300041F470014FF0000030BD7FEA645C1ABF6F
:107D4000194610467FEA655C1CBF0B46024650EAA6
:107D5000013406BF52EA033591EA030F41F40021D2
:107D600030BD00BF90F0000F04BF0021704730B558
:107D70004FF4806404F132044FF000054FF000012D
:107D800050E700BF90F0000F04BF0021704730B5EE
:107D90004FF4806404F1320410F0004548BF4042C3
:107DA0004FF000013EE700BF42004FEAE2014FEA18
:107DB00031014FEA02701FBF12F07F4393F07F4FF3
:107DC00081F06051704792F0000F14BF93F07F4F25
:107DD000704730B54FF4607401F0004521F0004168
:107DE00020E700BF50EA010208BF704730B54FF0EE
:107DF00000050AE050EA010208BF704730B511F0F3
:107E0000004502D5404261EB41014FF4806404F12A
:107E100032045FEA915C3FF4DCAE4FF003025FEAAC
:107E2000DC0C18BF03325FEADC0C18BF033202EB34
:107E3000DC02C2F1200300FA03FC20FA02F001FA8E
:107E400003FE40EA0E0021FA02F11444C1E600BF2D
:107E500070B54FF0FF0C4CF4E06C1CEA11541DBFE0
:107E60001CEA135594EA0C0F95EA0C0F00F0DEF8AB
:107E70002C4481EA030621EA4C5123EA4C5350EA90
:107E8000013518BF52EA033541F4801143F48013E1
:107E900038D0A0FB02CE4FF00005E1FB02E506F072
:107EA0000042E0FB03E54FF00006E1FB03569CF0C7
:107EB000000F18BF4EF0010EA4F1FF04B6F5007FCD
:107EC00064F5407404D25FEA4E0E6D4146EB06063F
:107ED00042EAC62141EA55514FEAC52040EA5E50C8
:107EE0004FEACE2EB4F1FD0C88BFBCF5E06F1ED872
:107EF000BEF1004F08BF5FEA500E50F1000041EBA9
:107F0000045170BD06F0004646EA010140EA020055
:107F100081EA0301B4EB5C04C2BFD4EB0C0541EA77
:107F2000045170BD41F480114FF0000E013C00F38C
:107F3000AB8014F1360FDEBF002001F0004170BDB0
:107F4000C4F10004203C35DA0C341BDC04F11404C9
:107F5000C4F1200500FA05F320FA04F001FA05F255
:107F600040EA020001F0004221F0004110EBD37022
:107F700021FA04F642EB06015EEA430E08BF20EA4E
:107F8000D37070BDC4F10C04C4F1200500FA04F3F1
:107F900020FA05F001FA04F240EA020001F0004183
:107FA00010EBD37041F100015EEA430E08BF20EAF6
:107FB000D37070BDC4F1200500FA05F24EEA020E3E
:107FC00020FA04F301FA05F243EA020321FA04F06D
:107FD00001F0004121FA04F220EA020000EBD37024
:107FE0005EEA430E08BF20EAD37070BD94F0000F24
:107FF0000FD101F00046400041EB010111F4801F58
:1080000008BF013CF7D041EA060195F0000F18BF08
:10801000704703F00046520043EB030313F4801F44
:1080200008BF013DF7D043EA0603704794EA0C0FFE
:108030000CEA135518BF95EA0C0F0CD050EA410614
:1080400018BF52EA4306D1D181EA030101F0004191
:108050004FF0000070BD50EA410606BF10461946B9
:1080600052EA430619D094EA0C0F02D150EA0136C5
:1080700013D195EA0C0F05D152EA03361CBF104606
:1080800019460AD181EA030101F0004141F0FE41A5
:1080900041F470014FF0000070BD41F0FE4141F429
:1080A000780170BD70B54FF0FF0C4CF4E06C1CEA29
:1080B00011541DBF1CEA135594EA0C0F95EA0C0FDE
:1080C00000F0A7F8A4EB050481EA030E52EA033599
:1080D0004FEA013100F088804FEA03334FF08055BA
:1080E00045EA131343EA12634FEA022245EA1115E7
:1080F00045EA10654FEA00260EF000419D4208BF98
:10810000964244F1FD0404F5407402D25B084FEA44
:108110003202B61A65EB03055B084FEA32024FF4F0
:1081200080104FF4002CB6EB020E75EB030E22BF4D
:10813000B61A754640EA0C005B084FEA3202B6EB0D
:10814000020E75EB030E22BFB61A754640EA5C00BC
:108150005B084FEA3202B6EB020E75EB030E22BF4C
:10816000B61A754640EA9C005B084FEA3202B6EB4D
:10817000020E75EB030E22BFB61A754640EADC000C
:1081800055EA060E18D04FEA051545EA16754FEA6E
:1081900006164FEAC30343EA52734FEAC2025FEA8C
:1081A0001C1CC0D111F4801F0BD141EA00014FF01B
:1081B00000004FF0004CB6E711F4801F04BF0143EC
:1081C0000020B4F1FD0C88BFBCF5E06F3FF6AFAE08
:1081D000B5EB030C04BFB6EB020C5FEA500C50F198
:1081E000000041EB045170BD0EF0004E4EEA11311B
:1081F00014EB5C04C2BFD4EB0C0541EA045170BD22
:1082000041F480114FF0000E013C90E645EA060E65
:108210008DE60CEA135594EA0C0F08BF95EA0C0F93
:108220003FF43BAF94EA0C0F0AD150EA01347FF4DB
:1082300034AF95EA0C0F7FF425AF104619462CE7B2
:1082400095EA0C0F06D152EA03353FF4FDAE104615
:10825000194622E750EA410618BF52EA43067FF466
:10826000C5AE50EA41047FF40DAF52EA43057FF4F6
:10827000EBAE12E74FEA4102B2F1E04324BFB3F59F
:10828000001CDCF1FE5C0DD901F0004C4FEAC0028D
:108290004CEA5070B2F1004F40EB830008BF20F071
:1082A0000100704711F0804F21D113F13872BCBF2B
:1082B00001F00040704741F480114FEA5252C2F180
:1082C0001802C2F1200C10FA0CF320FA02F018BFC9
:1082D00040F001004FEAC1234FEAD32303FA0CFC1C
:1082E00040EA0C0023FA02F34FEA4303CCE77FEAAB
:1082F000625307D150EA01331EBF4FF0FE4040F4F5
:108300004000704701F0004040F0FE4040F40000A3
:10831000704700BF0A22002100F046B910B5054C95
:1083200013462CB10A4601460220AFF3008010BD6F
:10833000204610BD0000000010B5013902449042F3
:1083400007D010F8013B11F8014FA342F7D0181BDA
:1083500010BD002010BD10B5431E0A44914204D048
:1083600011F8014B03F8014FF8E710BD0244034632
:10837000934202D003F8011BFAE7704738B5124B5D
:108380001C68A36B0546D3B91820FEF763FB43F2C4
:108390000E33A06303804AF6CD33438041F2342389
:1083A00083804EF26D63C3804DF6EC630381052339
:1083B00043810B23838101220023C0E90423A36BA3
:1083C00000221D615A6138BDFCDD0320194B10B538
:1083D0001C68A36BD3B91820FEF73CFB43F20E33A5
:1083E000A06303804AF6CD33438041F23423838077
:1083F0004EF26D63C3804DF6EC6303810523438128
:108400000B23838101220023C0E90423A16B0A4CC2
:108410000B694869094A5C4302FB0040A3FB022345
:108420000132034443F10003C1E9042323F0004077
:1084300010BD00BFFCDD03202DF451582D7F954C5D
:1084400010F8012B11F8013B012A28BF9A42F7D0FE
:10845000D01A7047034611F8012B03F8012B002AAC
:10846000F9D17047034613F8012B002AFBD1181AE3
:108470000138704710B5034642B111F8014B03F8BB
:10848000014B013A002CF7D11A4400E010BD934291
:1084900002D003F8014BFAE710BD00002DE9F047C8
:1084A00080464048D0F800900F463D4615F8014BF5
:1084B00009EB0400407800F0080000F0FF0608B166
:1084C0002F46F2E72D2C03D1BD1C7C78012603E05A
:1084D0002B2C04BF7C78BD1C13B1102B0AD15BE0A0
:1084E000302C57D1287800F0DF0058284DD16C7817
:1084F00010230235002E14BF4FF0004C6FF0004CDB
:108500000027BCFBF3FA384603FB1ACC09EB040E38
:108510009EF801E01EF0040F01D0303C0BE01EF08D
:10852000030E1BD0BEF1010F0CBF4FF0370E4FF002
:10853000570ECEEB0404A34210DDB7F1FF3F0AD083
:10854000504506D801D1644503DC03FB00400127F8
:1085500001E04FF0FF3715F8014BD7E77B1C0CD13A
:10856000002E4FF0220314BF4FF000406FF0004088
:10857000C8F800302AB9BDE8F08706B1404272B1B0
:1085800007B1691E1160BDE8F0873024002BB1D11E
:108590000823AFE70A23ADE7302CA3D0AAE7BDE854
:1085A000F08700BF98DD032013460A4601460248C3
:1085B0000068FFF773BF00BFFCDD032021400D0002
:1085C0005D400D0089400D008D400D000000000051
:1085D0000000000000000000BD400D000000000091
:1085E00000000000B3400D0015410D0023410D00B7
:1085F000B5400D0064656661756C7420004D534292
:10860000004C5342003C53504953657474696E6783
:10861000732064656661756C743E003C5350495329
:10862000657474696E6773202573256C75202573D6
:10863000204D4F444525643E0044697374616E6368
:108640006520696E20434D3A2025302E3266200A7F
:1086500000256920736174656C6C697465732069A9
:108660006E2076696577202D2D2D200054696D656B
:108670003A20253032693A253032693A253032695C
:10868000202D2D2D20006C61743A2025662C206C45
:108690006F6E673A2025662C20616C743A2025663F
:1086A000200A00256C75206D696C6C697365636FB9
:1086B0006E647320746F2067657420475053206682
:1086C0006978006E6F206C6F636174696F6E006C07
:1086D000657373207468616E20313235636D006399
:1086E0006C6561720057726974696E6720646174A9
:1086F0006120746F20534463617264200A004461F6
:10870000793A2025692C204D6F6E74682025692CDC
:108710002059656172202569200A0054696D653A07
:1087200020253032693A253032693A2530326920C5
:108730000A006C617420202566200A6C6F6E672029
:108740002566200A616C742025660A0053617465F1
:108750006C6C6974657320696E20766965773A2060
:108760002569200A0043616E277420616363657385
:108770007320534420636172642E20446F206E6F17
:1087800074207265666F726D61742E004E6F206387
:108790006172642C2077726F6E6720636869702045
:1087A00073656C6563742070696E2C206F72205342
:1087B00050492070726F626C656D3F0053442065B4
:1087C00072726F72436F64653A203058002C3058D3
:1087D00000496E76616C696420666F726D61742CFD
:1087E000207265666F726D61742053442E00436180
:1087F0006E2774206F70656E20726F6F74206469CD
:10880000726563746F72792E004E6F206572726F9D
:108810007220666F756E642E005374617274696E97
:10882000672044617461204C6F6767696E67200A36
:108830000043616E27742063726561746520666908
:108840006C65206E616D650066696C652E6F706584
:108850006E004C6F6767696E6720746F3A202573EE
:10886000200A00446F6E65200A0052656164792019
:10887000666F72206E6578742064617461206C6F1D
:1088800067200A007772697465206572726F7220C2
:108890000A0054696D655374616D702C2052616ECD
:1088A000646F6D2044617461202569200A00617441
:1088B00074656D7074203139004750524D43004744
:1088C00050474741004E004E4E4500454E4500453D
:1088D00053450053534500530053535700575357C4
:1088E00000574E57004E4E57000000000000000099
:1088F00000000000E36A0D00D96A0D00CF6A0D0088
:10890000C56A0D00B96A0D00AD6A0D00A16A0D00BF
:10891000996A0D008F6A0D00856A0D00C5750D00FE
:1089200000081018202830386261756400536572A1
:1089300069616C0053657269616C310074797065AE
:1089400000706172616D00636D6400696400686E3F
:1089500064007374726D0066696C74006C766C00F0
:1089600061646448616E646C65720072656D6F76F7
:108970006548616E646C657200656E756D48616E08
:10898000646C657273004A534F4E53747265616D27
:108990004C6F6748616E646C657200617070002591
:1089A0003031307520005D20002564002C20002827
:1089B000293A2000205B00636F6465203D2000257C
:1089C000690064657461696C73203D20000D0A00C4
:1089D00066006C6E00666E00636F646500646574AB
:1089E00061696C006E6F6E65007472616365006929
:1089F0006E666F007761726E006572726F720070E2
:108A0000616E696300616C6C005A00252B30336421
:108A10003A253032750025592D256D2D25645425B4
:108A2000483A254D3A2553257A0061736374696D80
:108A3000650000000000000000000000C56F0D0090
:108A4000B56F0D00B76F0D000000000000000000C2
:108A50009D700D00ED700D00FB700D00196D0D0087
:108A6000D9700D009F700D00B5700D00E7700D00FE
:108A7000CB700D0099700D00000000000000000098
:108A8000A9710D00F9710D0007720D00196D0D002F
:108A9000BD710D00DF710D00CB710D00F3710D0084
:108AA000AB710D00AF710D00000000000000000070
:108AB000B9720D0003730D00DB720D00BB720D0067
:108AC000E3720D00EB720D00F3720D00FB720D00EE
:108AD0000000000000000000C5730D00BB730D0016
:108AE000B1730D00A7730D009B730D008F730D0004
:108AF00083730D007B730D0071730D0067730D00A0
:108B0000C5750D0000000000000000003F750D005D
:108B100035750D002B750D00E1740D001F750D00EE
:108B200013750D0007750D00FF740D00F5740D0031
:108B3000EB740D00C5750D00000000000000000082
:108B40005D750D0067750D0071750D007B750D006D
:108B500085750D0091750D009D750D00A9750D00B1
:108B6000B1750D00BB750D00C5750D00000020200E
:108B700020202020202020282828282820202020CD
:108B8000202020202020202020202020202088108D
:108B900010101010101010101010101010100404ED
:108BA00004040404040404041010101010101041F4
:108BB0004141414141010101010101010101010165
:108BC00001010101010101010110101010101042FA
:108BD0004242424242020202020202020202020235
:108BE0000202020202020202021010101020000013
:108BF0000000000000000000000000000000000075
:108C00000000000000000000000000000000000064
:108C10000000000000000000000000000000000054
:108C20000000000000000000000000000000000044
:108C30000000000000000000000000000000000034
:108C40000000000000000000000000000000000024
:108C50000000000000000000000000000000000014
:108C60000000000000000000000000000000000004
:108C700000000000000000000000000000000000F4
:108C800000000000000000000000000000000000E4
:108C900000000000000000000000000000000000D4
:108CA00000000000000000000000000000000000C4
:108CB00000000000000000000000000000000000B4
:108CC00000000000000000000000000000000000A4
:108CD000B1480D005D490D0061490D0065490D0069
:108CE00069490D006D490D0071490D00994F0D0046
:108CF0009D4F0D00A14F0D00A54F0D0049560D00D1
:108D00006D560D0071560D0095590D0099590D00C5
:108D10009D590D00D75E0D00DB5E0D00DF5E0D007E
:108D2000855F0D0009660D00ED6A0D00AD6C0D004C
:108D3000F16C0D00416E0D00516E0D00896E0D003D
:108D400091740D0049750D0091760D0051780D005C
:108D5000D5780D0099790D005D7A0D0000000000B6
:048D6000000000000F
:108D640004000000050000004461746130302E638B
:108D740073760000000000002A8A0D006D8B0D0040
:108D840000000000708C0D00908C0D00B08C0D0064
:108D940000000000000000000000000000000000CF
:108DA400BD880D000000000000000000000000006D
:108DB40000000000000000000000000000000000AF
:108DC400000000000000000000000000000000009F
:108DD400000000000000000000000000000000008F
:048DE4009CDD0320EF
:108DE800FFFFFFFF00000102030405060708090A48
:108DF8000B0C0D0E0F101112131415161718191A43
:088E08001B1C1D1E1F20280089
:048E1000785634124A
:04000003D0004020C9
:00000001FF
