:02000002D0002C
:1040000000400D00DCAF0D00000006000C000501B3
:084010000401E80500000000B6
:0440180028940D00DB
:10401C0009480A49884208B505D0094A824202D0AB
:10402C00121A04F00DF80748074A0021121A04F07E
:10403C0012F8014808BD00BF80490320F4AE0D0002
:10404C00404A0320404A0320F0E7032070B502F0F9
:10405C0005FE074C074BE41AA40800251E46A54292
:10406C0004D056F8253098470135F8E770BD00BFED
:10407C00E8AE0D0068AE0D0000F090BD08B500F084
:10408C0019FEBDE8084002F0ABBD02F025B802F005
:10409C002BB802F029B8000008B5034A00210C2007
:1040AC0001F046FFFEE700BF4D5C0D000078B0FA52
:1040BC0080F040097047012303707047704700007F
:1040CC001FB504460B49684602F019F969462046AB
:1040DC0002F075F90446684602F0CAF8064B1CB1AA
:1040EC00064A1A60012002E0054A1A60204604B014
:1040FC0010BD00BF59A10D008049032085420D0061
:10410C0059420D0010B5036804469B689847A36894
:10411C00013BA3602BB923682046DB68BDE8104047
:10412C00184710BD10B590F824315A1CD2B2034474
:10413C00202A80F82421044683F8041107D100F5C5
:10414C008271383003F08FF8002384F82431012079
:10415C0010BD10B51821044603F0D0FC204610BD4C
:10416C0010B5064B03600446806928B14368013BD7
:10417C0043600BB9FFF7C6FF204610BDC4A80D0065
:10418C00094B10B5044640F8383BFFF7E9FF2046D1
:10419C00064B40F8083F02F0B9FB04F11C00FFF796
:1041AC00DFFF204610BD00BF94970D00B4A70D0093
:1041BC0010B50446FFF7E4FF20464FF4947103F06A
:1041CC009DFC204610BD000010B5034B0360044657
:1041DC00FFF7C6FF204610BD44A40D0010B50446E1
:1041EC00FFF7BEFF20461C2103F088FC204610BDC3
:1041FC000EB400B58CB00DAA202352F8041B039208
:10420C008DE8060004930168002304AA012005939D
:10421C0001F09EFE0CB05DF804EB03B070470EB4D9
:10422C0000B58CB00DAA202352F8041B03928DE824
:10423C00060004930168002304AA1E20059301F0D4
:10424C0087FE0CB05DF804EB03B0704770B50B46FD
:10425C0005460C4606480749FFF7E1FF02F044FE0D
:10426C00036822462946DB68BDE87040184700BF4A
:10427C00B0E203205DA10D002DE9F041194E88B08C
:10428C000F468046184902A8144602F0B3F833686A
:10429C000193029B009322463B4614491448FFF7B6
:1042AC00BEFF02A801F0E4FF3068B8B1114802F07B
:1042BC00F0FF864668B9104D104B02930FCD03AC3E
:1042CC000FC42B68237032880A48734602A903F086
:1042DC0039F93A464146074801F0DCF908B0BDE827
:1042EC00F08100BFC44B03207CE203207CA10D00B5
:1042FC00B0E20320904B032080E20320D8A70D00EE
:10430C00F0B504468FB01F491F48204F204EFFF7D1
:10431C006FFF22681F491C48FFF76AFF07AB019328
:10432C0006AB00930397029605AB04AA1A492068C2
:10433C0001F0F2FE042822DD9DF81C009DF81830D7
:10434C009DF814209DF81010009009AD08A802F0FB
:10435C0055FD0FCD114C0FC421462B6801F81439B3
:10436C0008A802F047F83368089A0D4906480097E8
:10437C00FFF755FF08A801F07BFF306800E0002034
:10438C000FB0F0BD97950D00B0E2032058E203206A
:10439C00C44B03209EA10D00B5A10D0080E20320AB
:1043AC00C9A10D0070B5104B002504460E464560A2
:1043BC00114640F8083B2A4602F07EFA04F1380018
:1043CC0003F0EEF9094B666584F87850E567C4F89C
:1043DC00B430C4F8B83084F8FC50C4F8005184F8F8
:1043EC002451204670BD00BF94970D000D460D0062
:1043FC0090F8FC30072B10B508D800EBC304013340
:10440C00C4F8BC1080F8FC30C4F8C02010BD10B546
:10441C0090F8243104466BB1142002F0B3F994F8EF
:10442C00242104F5827104F1380002F01CFF0023F2
:10443C0084F8243110BD70B504460D461646FFF7BE
:10444C00E6FF142002F09EF93246294604F13800AA
:10445C00BDE8704002F007BF0A4601460148FFF76D
:10446C00EABF00BF484A032070B5044614200D462D
:10447C00164602F087F92368324629462046DB6847
:10448C00BDE87040184770B50D460446142002F084
:10449C0079F9284604F044FB236802462946204655
:1044AC00DB68BDE870401847014901F0EFBF00BF61
:1044BC0073A20D002DE9F04F14788DB006460F460F
:1044CC0098461CB12F2C7FD1547834B9D6F8B8400B
:1044DC003F4A43463946304604E03F2C04D1D0F8DD
:1044EC00B8400232A0476DE0541C3F21204603F037
:1044FC00E3FD814620B9204604F012FB85B201E0B1
:10450C00051BADB219F1000996F8FCB018BF4FF0BD
:10451C0001094FF0000A5FFA8AF39B451ED906EB9E
:10452C00CA03D3F8BC100391084604F0F9FA85428B
:10453C00039910D12A46204604F0FAFA58B906EB32
:10454C00CA0A09EB05024346DAF8C0502244394640
:10455C003046A84736E00AF1010ADCE7D6F800013C
:10456C0098B32022002104A803F075FD00226255A7
:10457C0004EB050E04942146012310468E450A4691
:10458C0015D912782F2A01F10101F7D10A78002AE6
:10459C00F4D05A1C0DF1300CD2B20CEB8303082A68
:1045AC0001F8010C43F8201C01D01346E6E709EB97
:1045BC000503CDF80080D6F80051234404AA3946EF
:1045CC003046A847012000E000200DB0BDE8F08F78
:1045DC0075A20D0010B507490446FFF754FF20469D
:1045EC000549FFF750FF20460449BDE81040FFF78E
:1045FC004ABF00BF4B940D0061970D00CC950D0088
:10460C00FFF7E8BF70B504460E4610491546FFF794
:10461C003AFF0F492046FFF736FF0E492046FFF7B9
:10462C0032FF3146204601F031FF2046FFF73CFFB8
:10463C0035B12946204601F029FF2046FFF734FF0B
:10464C002046BDE87040FFF72FBF00BFB1970D00AB
:10465C0061970D00C3970D0038B500220D46064931
:10466C000446FFF7CFFF022D05D020460349BDE8D5
:10467C003840FFF708BF38BDF5A10D00AF950D0010
:10468C0038B5084A0D4608490446FFF7BBFF022D12
:10469C0006D02046C6220549BDE83840FFF7E4BEE7
:1046AC0038BD00BF00A20D0020A20D00D1940D005A
:1046BC004B1C0ED090F87820531CDBB2202B0244FC
:1046CC0080F8783008BF1F2382F8581008BF80F894
:1046DC007830704710B5002300F1380480F878303A
:1046EC00204602F0D5FD2046BDE8104002F0A4BFE4
:1046FC00F8B500F138060546304602F0E6FD10B973
:10470C004FF0FF30F8BD95F878301BBB01F0A0FAE4
:10471C0000F57A77304602F0BCFD0028F0D095F811
:10472C00B33013B1EB6F002BEAD0304602F045FEEC
:10473C00431C044606D095F8B3309BB1EB6F013B9C
:10474C00EB670FE001F084FAB842E3D92846FFF793
:10475C00C1FF07E0013BDBB285F878301D4495F8CA
:10476C005800F8BD2046F8BD70B505460E460C46FF
:10477C0023789BB12846FFF7BBFF14F8013B984206
:10478C000146F5D02846FFF793FF013CB44207D011
:10479C0014F8011D2846FFF78BFFF7E7012070BDC9
:1047AC00002070BD00232DE9F04105460C460B603E
:1047BC002846FFF79DFF2028FAD00928F8D02D288D
:1047CC0004D12846FFF794FF012700E000270026BC
:1047DC004FF00A08A0F13003092B09D8236808FB15
:1047EC000300303820602846FFF782FF0126F1E7EE
:1047FC0001462846FFF75CFF17B123685B42236034
:10480C003046BDE8F08170B50D46064600212846BD
:10481C00144603F020FC013C3046FFF769FF2028CA
:10482C00FAD00928F8D0012CC8BF28703046C4BF74
:10483C0004F1FF340135FFF75BFF0D28F3D101467E
:10484C003046BDE87040FFF733BF2DE9F04F85B01F
:10485C0091460E9FDDF83C800D681A468A46484604
:10486C0000219B4603F0F7FB42460021384603F03B
:10487C00F2FB2B78002B54D00026334628782628C0
:10488C0005F1010449D004D8002845D0252805D0CD
:10489C004AE02B2847D03D2817D045E06A788DF8A0
:1048AC000C20002A39D0AA788DF80D200AB9AC1C3E
:1048BC0033E01022002103A88DF80E30019304F090
:1048CC006DFAEC1CC0B2019B2EE06B782BB3234627
:1048DC0000251878252804F1010409D002D878BBEA
:1048EC001C461AE0262818D02B2808BF202027E0C9
:1048FC005A788DF80C2082B19A788DF80D200AB96F
:10490C009C1C0AE01022002103A8DC1C8DF80E5020
:10491C0004F044FAC0B213E02C46CAF8004030460A
:10492C001FE004201DE02020BBF1010F06DD89F8FB
:10493C0000000BF1FF3B09F101090EE001260CE030
:10494C00B8F1010F04DD387008F1FF38013706E0CB
:10495C00002E0CBF0226032601E025468EE72346D7
:10496C00B7E705B0BDE8F08FF8B51E461B68013BF4
:10497C00336000230C460B70224905461746FFF79F
:10498C00F3FE08B101230CE01F492846FFF7ECFEAB
:10499C0008B1022305E01D492846FFF7E5FE20B1CA
:1049AC000323237044F6010420E019492846FFF73D
:1049BC00DBFE08B10423F4E716492846FFF7D4FEC2
:1049CC0008B10523EDE714492846FFF7CDFEC0B129
:1049DC000623E6E724FA03F3DB070FD43368002B36
:1049EC00C8BF07F8010B3368013B33602846FFF75B
:1049FC007FFE431C0E2BEDD92028EFD100233B70FA
:104A0C00F8BDF8BD2DA20D0032A20D0038A20D008C
:104A1C003EA20D0043A20D004BA20D00002310B5C9
:104A2C00044680F8803013492046FFF79DFE28B1DC
:104A3C0004F17C012046FFF7B5FEF4E70E49204651
:104A4C00FFF792FE30B1332204F180012046FFF7CC
:104A5C00DAFEE8E709492046FFF786FE18B1012384
:104A6C0084F8B33010BD2046FFF742FE0130DAD196
:104A7C0010BD00BF52A20D0062A20D0071A20D006C
:104A8C002DE9F043044689B0406D0D46174604F0FD
:104A9C0047F804F10801804601A802F007F8029BD0
:104AAC00E363039B2364049B6364059BA364069BE1
:104ABC00E364079E236D9E4204F138090CD016B1B5
:104ACC00736801337360206D28B14368013B436008
:104ADC000BB9FFF717FB266501A8FFF741FB48460A
:104AEC0002F0F3FB002851D0002384F8B3308DF88A
:104AFC0004302B702A463B4601A92046FFF734FFB1
:104B0C009DF804602EB14246616D284604F010F801
:104B1C0048B13B68D4F8B470DB43DB0F2A4631460E
:104B2C002046B8472CE02046FFF778FF1949284665
:104B3C0003F0D0FA9DF8046020B931462046FFF707
:104B4C008BFD1DE01449284603F0C4FA20B9314608
:104B5C002046FFF795FD13E03B68DB43DB0F05EBCD
:104B6C00080231462046FFF7A5FC48B93B68D4F84B
:104B7C00B4609DF80410DB43DB0F2A462046B04797
:104B8C002046FFF744FC2046FFF7A4FD09B0BDE822
:104B9C00F08300BF76A20D0082A20D0010B5324C3E
:104BAC008AB0B0EE000A01F0E9FC304A30492046E8
:104BBC0002F096F82F4A3049204602F091F82F4A1D
:104BCC002F49204602F08CF82E4C0121072002F0D0
:104BDC001DFF2D4A2D492E48FFF70AFBA06902F054
:104BEC0008FA642001F0CEFDA0694FF4E13102F027
:104BFC00FDF9A168A06901F085FC642001F0C2FDFB
:104C0C00204600F095FF234B234C58680022114698
:104C1C0001F0DAF9811C04A802F0BAF804A968467C
:104C2C0001F0E8FB00991022204603F096FF68463D
:104C3C0001F01EFB2146194C19480023042201F0F7
:104C4C001BFA184A1849C4F8B8202046FFF7D0FBC5
:104C5C00164A17492046FFF7CBFB04F1080001F078
:104C6C0061FE0AB010BD00BFC16C0D009EA20D000C
:104C7C000D430D00A8A20D00CD400D00B2A20D00F9
:104C8C00E1510D00744B032087970D00B7A20D0066
:104C9C00B0E20320ECE50320B44B0320484A032088
:104CAC00C3A20D00714E0D00C6A20D00F9530D00EC
:104CBC00D1A20D0000B593B012AA402342F8443D96
:104CCC0002A90348FFF7DCFE13B05DF804FB00BF3C
:104CDC00484A03202DE9F347574F82460D460720DB
:104CEC00012116461C4602F0A2FE384600F038FDA3
:104CFC003C21384600F0D8FE002800F08D804F494A
:104D0C004F48FFF775FA019600962B4600220121B9
:104D1C00384600F0A7FE002800F081804949484839
:104D2C00FFF766FA4FF000099DF82C3000932246ED
:104D3C009DF82830CDF804901421384600F092FEEE
:104D4C00414B1A68012A0446984613D13F493C4806
:104D5C00FFF74EFACDF80490CDF800904B46524632
:104D6C000521384600F07EFE0446B86801F00AFDC5
:104D7C00002C57D001F0F5FC354B072D186013D1E2
:104D8C0034492F482C4CFFF733FA022200238DE8CC
:104D9C000C0006210822204600F064FE002844D0B6
:104DAC004FF4007020820446013EC8F800A02A4946
:104DBC002A4B082E1CD8DFE806F01B1B051B091B11
:104DCC000E141800A0220A60782214E04FF4A0728E
:104DDC000A60F0220FE04FF420720A604FF4F07278
:104DEC0009E080220A60602205E080220A6002E06D
:104DFC0050220A603C22033D1A60052D18D8DFE8CA
:104E0C0005F0071717050305182202E0102200E031
:104E1C000822134B1A600BE04FF0FF3009E06FF0E3
:104E2C00010006E06FF0020003E06FF0030000E009
:104E3C00204602B0BDE8F087744B032078970D0034
:104E4C00B0E20320CA940D0084490320A4970D00FE
:104E5C0054E20320FA950D00C84B0320444A03206A
:104E6C00704B03202DE9F04FF7B0002480460D461F
:104E7C006A486B490B92FFF7BBF940F2631221466B
:104E8C001DA81C9403F0E7F801F06AFB099001F0EF
:104E9C0068FC22460A9063494046FFF7B3FB022D9B
:104EAC0000F0B9800B9B1B78002B00F0A4804FF016
:104EBC00FF37A346A24608973E46B9460B9B1B7884
:104ECC00002B4CD0202314AD019300950CAA0BA9F8
:104EDC004046FFF7BAFC0428F0D053490CA803F065
:104EEC00F9F848B9284602F0A1FFB0F107090646C7
:104EFC0018BF4FF00109E1E74C490CA803F0EAF8A0
:104F0C0020B9284602F092FF0890D7E748490CA830
:104F1C0003F0E0F820B9284602F088FF0746CDE7F9
:104F2C0044490CA803F0D6F820B9284602F07EFFBD
:104F3C008246C3E740490CA803F0CCF820B92846B8
:104F4C0002F074FF8346B9E73C490CA803F0C2F8A1
:104F5C000028B3D1284602F069FF0446AEE7072EBD
:104F6C0006D0B9F1FF3F18D0002E16DD089A03E0E9
:104F7C00B9F1FF3F11D03A46002A0EDD002302930F
:104F8C00E3B201935FFA8BF30093D2B25FFA8AF328
:104F9C00F1B25FFA89F0FFF79DFE099B0A9A284946
:104FAC009D1A284A284B126814A801F087FB3C2153
:104FBC0095FBF1F3002BB8BF5B4293FBF1F201FBC5
:104FCC00123307934FF4616395FBF3F5149B059330
:104FDC00089B009306950494CDF80CB0CDF808A06E
:104FEC0001973346194A40F267111CA801F0A4F846
:104FFC0014A801F03DF916494046FFF744FA15494B
:10500C004046FFF740FA1CA9404601F03FFA12490E
:10501C004046FFF738FA77B0BDE8F08FB0E20320D6
:10502C004EA10D00DBA20D00F4A20D00F7A20D00A5
:10503C00FAA20D00FDA20D0002A30D0007A30D00A6
:10504C00C0E2032054E203200CA30D0009960D00CE
:10505C0066940D00F2970D003C940D002DE9FF476E
:10506C000C9E0D4604465849584898469146FFF701
:10507C00BFF8082EDDBF0127B31C9F40002707F1A6
:10508C00460AAA4500F29B800E220021204602F01F
:10509C00E2FF0E9AC4F80AA0422323704D236370DA
:1050AC00082396FBF3F309FB0323002508FB03A35A
:1050BC004FF0380AC4F802305246294604F10E006B
:1050CC0002F0C9FF01230322082EE57325746574D1
:1050DC00C8F10008E57684F8222084F823504FF0BC
:1050EC00100284F8245084F8255084F8265084F853
:1050FC00285084F8295084F82A5084F82C5084F8CD
:10510C002D50D8BF03FA06F5102E84F80EA0C4F863
:10511C001290C4F81680A376A68384F8272084F80E
:10512C002B20C4F83250C4F82E501ED16FF0070259
:10513C0084F837206FF01F0284F83A2007220023EE
:10514C0084F83B201F2284F8363084F8383084F8F9
:10515C00393084F83C3084F83D3084F83E2084F8B3
:10516C003F3084F8403084F8413004F1460100208F
:10517C00FF25D4F82E30834201F104010FD9C0EB86
:10518C000022013BB2FBF3F3DBB201F8043C01F863
:10519C00033C01F8023C01F8015C0130E9E7D4F86A
:1051AC0002300293D4F80A30019308480097382350
:1051BC000E220749FFF71CF8D4F80A0000E0002083
:1051CC0004B0BDE8F08700BFC0940D00B0E203202E
:1051DC0012A30D002DE9F04373498DB004467348BA
:1051EC00FFF706F8724904A801F089F804A92046D3
:1051FC0001F0E5F870B96F4908A801F080F808A92A
:10520C00204601F0DCF8051C08A818BF012501F0A8
:10521C002FF800E0012504A801F02AF8664F45B1EB
:10522C003B6802930722022301930093114600204E
:10523C003BE0624908A801F062F808A9204601F099
:10524C00BEF8054608A801F013F83DB13B6802937F
:10525C000223019300930322062125E0584904A858
:10526C0001F04DF804A9204601F0A9F870B9554990
:10527C0008A801F044F808A9204601F0A0F8041C85
:10528C0008A818BF012400F0F3FF00E0012404A8D3
:10529C0000F0EEFF3A68029202230193009303227E
:1052AC000CB1082100E011460120FFF713FD002886
:1052BC0076DD454D45482978454E00F04FFC0446B7
:1052CC003060002868D0024642493848FEF7A7FFF4
:1052DC002D68DDB9DFF8008149F2864933689D42BB
:1052EC004FDA4D454FF0FF3329460093A8BF49468E
:1052FC003B6836484FF400720029ACBF414408F1BA
:10530C00000100F083FA002848D13AE0336849F2F2
:10531C0086618B4235D80024DFF8CC90029401943E
:10532C00D9F8003000932C4D2C4B2D4A1B68126879
:10533C002846FFF793FE05442346804632682348EF
:10534C00294600F0EFFAD9F80030102B044612D1A0
:10535C003368294608EB03024346934201F10201EC
:10536C0009DA11F8020C11F8015C01F8025C01F881
:10537C00010C0233F1E731683B68174800224144C5
:10538C009847184801F085FF10B1164802F054F9FF
:10539C000021072002F04BFB204601E005449DE76D
:1053AC000DB0BDE8F08300BFB3940D00B0E2032054
:1053BC0048A30D004CA30D008049032051A30D0000
:1053CC0057A30D005EA30D0084490320744B0320EA
:1053DC0094E2032067A30D00CC4B0320444A032026
:1053EC00C84B0320904B0320704B03202DE9F04356
:1053FC00524C5349534D85B080465348FEF7F8FE46
:10540C002178524800F0AAFB02462860002800F0E0
:10541C0091804F494C48FEF702FF2468E4B94D498E
:10542C0049484D4EFEF7FBFE2B689C4279DA49F257
:10543C008641A142A8BF21464FF0FF3300934FF4A1
:10544C000072464B41480029ACBF7118311C00F06A
:10545C00DDF900286CD164E02A6849F28666B24214
:10546C005AD8DFF81C913E4937483B4CFEF7D7FE23
:10547C00D9F80030009300273A4B3B4A029701972A
:10548C001B68126831462046FFF7E8FD06460246C7
:10549C0036492D483444FEF7ABFE3B462A682B4870
:1054AC00214600F03FFA3249024607462648FEF7ED
:1054BC009FFED9F80030102B11D12B682146F21821
:1054CC003346934201F1020109DA11F8020C11F88A
:1054DC00014C01F8024C01F8010C0233F1E72A6887
:1054EC000192B31800930297334622491648FEF7EF
:1054FC007FFE2A68D8F800301749DB6832444046F2
:10550C0098472A680297B3180093019233461A49B8
:10551C000D48FEF76DFE04E0334618490A48FEF7C5
:10552C0067FE0021072005B0BDE8F04302F07FBA0A
:10553C00044479E705B0BDE8F08300BF844903203B
:10554C00A6950D0094E20320B0E20320744B0320D7
:10555C0067A30D0077A30D00CC4B032065440D0011
:10556C0087A30D00444A0320C84B032095A30D00CC
:10557C00AAA30D00C0A30D00EEA30D001BA40D00EB
:10558C00704B032010B50446FEF71EFE2046242166
:10559C0002F0B4FA204610BD38B51C4C1C4D00F07E
:1055AC000FFB50221B492046FEF7FCFE2A461A49E7
:1055BC00204602F095FA01F023FD184B184C1860A8
:1055CC0013225A604FF4FA729A6040210022DA607A
:1055DC0019825A821A759861204601F0CBFB20463D
:1055EC00104C11492A4602F07BFA204602F0D8F8FA
:1055FC000E4B23604FF48063E361642323622A46DD
:10560C0020460B49BDE8384002F06ABA484A0320EC
:10561C00404A03203BA40D008D410D00744B032028
:10562C007CE20320904B0320C9400D0044A40D00E4
:10563C00D5410D0000F0C4BA00F0C2BA00F0C0BAF7
:10564C0000F0BEBA00F0BCBA00F0BABA00F0B8BABA
:10565C0070B505460C46084649B103F061FA2B6853
:10566C00024621462846DB68BDE87040184770BDED
:10567C0000F0A6BA00F0A4BA00F0A2BA00F0A0BAEA
:10568C0000F09EBA00F09CBA00F09ABA00F098BAFA
:10569C0000F096BA2DE9F843154F05468846164694
:1056AC000024B44221D2EA69331B934238BFEB6128
:1056BC00EA6908EB0401284601F0D5FDEB69984234
:1056CC0001D10444EDE71030EBD100F0C1FA814672
:1056DC0000F0BEFA2B6AC9EB00009842E1D200F050
:1056EC00B7FA386000F0D8FCF2E72046BDE8F88342
:1056FC0008E6032000F064BA10B58AB08DE80C00FF
:10570C000C4620210291002103910B4602AA01684C
:10571C00204600F01DFC0AB010BD000008B506497B
:10572C000648FEF765FD00F093FA054B1860BDE8DE
:10573C00084000F0B1BC00BF79A50D00B0E2032019
:10574C0008E603200EB403B503AB282153F8042B51
:10575C000193FFF7D1FF02B05DF804EB03B0704783
:10576C0010B504460D490E48FEF742FD606800284E
:10577C0013DD012180B202F049F90021A08802F06A
:10578C0056F90A2000F0FEFFA088002102F03EF935
:10579C000A20BDE8104000F0F5BF10BD7FA50D003C
:1057AC00B0E203202DE9F04786B0154C9DF8388007
:1057BC009DF83C9016461F460D46824611492046E0
:1057CC00FEF716FDAA222B4620468DE8C0030E4993
:1057DC008DF810208DF811508DF812608DF8137023
:1057EC008DF814808DF81590FEF719FDDAF800008D
:1057FC0003680622DB6804A9984706B0BDE8F08769
:10580C00B0E2032088A40D00AEA40D002DE9FF47E3
:10581C000C9C054688464148414916469946FEF778
:10582C00E7FC00F015FA002CA8BF6C826B8A1A0AF0
:10583C00DBB200930023074601920E211A4628463C
:10584C00FFF7B0FF20B3042203A9286800F05CFE28
:10585C0004282DD19DF80F409DF80E3053EA0424F6
:10586C0027D0B44225DC2246414628689DF80C60BE
:10587C009DF80DA000F048FE84421AD1022202A924
:10588C00286800F041FE022813D146EA0A2601E0FE
:10589C0004460646B5F91030EA68063B734393425A
:1058AC001FDA00F0D5F9AB68C01B984219D230E072
:1058BC000024642000F066FF00F0CAF9074628684F
:1058CC0003685B699847002808DB00F0C1F9AB68F6
:1058DC00C01B984202D2FFF721FFF0E74FF2F0060F
:1058EC00D8E7F0230193009300231A460E21284693
:1058FC00FFF758FF4FF2EF039E4208D8B9F1000FA3
:10590C0003D0324621464046C847204603E00020DB
:10591C0001E06E82EEE704B0BDE8F087B0E2032050
:10592C0089A50D00F7B5C568954204460F461E467D
:10593C0005DC2A46006800F0E7FD854214D064209F
:10594C0000F020FF00F084F90546206803685B69CD
:10595C009847002819DB00F07BF9A368401B98429C
:10596C0013D2FFF7DBFEF0E7012300258DE82800BA
:10597C000A222B460E212046FFF714FF1EB12A46A1
:10598C00E1683846B047E06800E0002003B0F0BDA5
:10599C00F0B589B004460B4600922D480F461546CB
:1059AC002C492D4AFEF724FC0026062206A9206865
:1059BC000696ADF81C6000F0A7FD06282ED19DF8C8
:1059CC001D1003919DF81C1002919DF81B10019164
:1059DC009DF81A109DF819309DF818200091267525
:1059EC001E491B48FEF704FC9DF819209DF81C303D
:1059FC00974210D19DF81A10A94201D0FF2D0AD15F
:105A0C009DF81B0040F0807040EA03209DF81D308B
:105A1C0040EA034019E00F2A08BF2375A1680491DE
:105A2C009DF81D1003919DF81C1002919DF81B1000
:105A3C0001919DF81A10009105489DF819309DF8B8
:105A4C0018200749FFF77EFE002009B0F0BD00BF0B
:105A5C00B0E20320D5A40D0095A40D00E3A40D0025
:105A6C000BA50D002DE9F7439DF828809DF82C908F
:105A7C0004460D4616461F4609490A48FEF7B8FB70
:105A8C00324629468DE800033B462046FFF78AFE46
:105A9C002A460E21204603B0BDE8F043FFF778BF3D
:105AAC006AA50D00B0E203202DE9F34105460E4630
:105ABC001B481C49FEF79CFBD5F8088001240027E5
:105ACC00B4420CDA631DAB600023019700971A46B1
:105ADC000D212846FFF7C6FF08B90134F0E7B442A0
:105AEC00C5F8088014DA22460F490D48FEF797FBDB
:105AFC00FF220D212846FFF74BFF48B100230193ED
:105B0C0000930D220E212846FFF74CFE204604E0A0
:105B1C0003480649FFF716FE002002B0BDE8F081ED
:105B2C00B0E2032090A40D0038A50D004CA50D008B
:105B3C0010B50749074A04460748FEF759FB2046AB
:105B4C00FFF70EFE20463C21BDE81040FFF7ACBF2E
:105B5C0054A50D0065A50D00B0E2032073B500251A
:105B6C0004460E460B480C49FEF742FB0195009586
:105B7C002B46324604212046FFF774FF40B1658264
:105B8C0032460A212046FFF703FF20F07F40E060F9
:105B9C0002B070BDB0E20320A3A40D0000F010B859
:105BAC0008B5024B1B689B68019308BD6802030093
:105BBC0008B5024B1B68DB68019308BD6802030043
:105BCC0008B5024B1B681B68019308BD2C0203002F
:105BDC0008B5024B1B689B68019308BD2C0203009F
:105BEC0008B5024B1B68DB68019308BD2C0203004F
:105BFC0008B5024B1B681B69019308BD2C020300FE
:105C0C0008B5024B1B68DB69019308BD3002030029
:105C1C0008B5024B1B681B6A019308BD30020300D8
:105C2C0008B5024B1B685B69019308BD6C0203004D
:105C3C0008B5024B1B685B68019308BD1802030092
:105C4C0008B5024B1B68DB68019308BD1802030002
:105C5C0008B5024B1B685B69019308BD1802030071
:105C6C0008B5024B1B68DB69019308BD18020300E1
:105C7C0008B5024B1B689B6D019308BD180203000D
:105C8C0008B5024B1B689B68019308BD48020300D2
:105C9C0008B5024B1B681B69019308BD4802030041
:105CAC0008B5024B1B685B69019308BD48020300F1
:105CBC0008B5024B1B68DB69019308BD4802030061
:105CCC0008B5024B1B685B6C019308BD48020300CE
:105CDC0008B5024B1B689B6C019308BD480203007E
:105CEC0008B5024B1B685B69019308BD6402030095
:105CFC0008B5024B1B681B6A019308BD64020300C4
:105D0C0008B5024B1B689B6A019308BD6402030033
:105D1C0008B5024B1B681B68019308BD3C020300CD
:105D2C0008B5024B1B689B68019308BD3C0203003D
:105D3C0008B5024B1B68DB68019308BD3C020300ED
:105D4C0008B5024B1B681B69019308BD3C0203009C
:105D5C0008B5024B1B685B69019308BD3C0203004C
:105D6C0008B5024B1B689B69019308BD3C020300FC
:105D7C0008B5024B1B68DB69019308BD3C020300AC
:105D8C0008B5024B1B681B6A019308BD3C0203005B
:105D9C0008B5024B1B689B6A019308BD3C020300CB
:105DAC0008B5024B1B68DB6A019308BD3C0203007B
:105DBC0008B5024B1B681B6A019308BD280203003F
:105DCC0008B5024B1B685B6A019308BD28020300EF
:105DDC0008B5024B1B689B6A019308BD280203009F
:105DEC0008B5024B1B68DB6A019308BD280203004F
:105DFC0008B5024B1B681B6B019308BD28020300FE
:105E0C0008B5024B1B685B6B019308BD28020300AD
:105E1C0008B5024B1B681B6C019308BD28020300DC
:105E2C0008B5024B1B681B68019308BD38020300C0
:105E3C0008B5024B1B685B68019308BD3802030070
:105E4C0008B5024B1B68DB68019308BD38020300E0
:105E5C0008B5024B1B689B69019308BD380203000F
:105E6C0008B5024B1B68DB69019308BD38020300BF
:105E7C0008B5024B1B681B6A019308BD380203006E
:105E8C0008B5024B1B685B6A019308BD380203001E
:105E9C0008B5024B1B689B6A019308BD38020300CE
:105EAC0008B5024B1B681B6B019308BD380203003D
:105EBC0008B5024B1B689B6B019308BD38020300AD
:105ECC0008B5024B1B68DB6B019308BD380203005D
:105EDC0008B5024B1B681B68019308BD4C020300FC
:105EEC0008B5024B1B681B69019308BD4C020300EB
:105EFC0008B5024B1B685B69019308BD4C0203009B
:105F0C0008B5024B1B689B69019308BD4C0203004A
:105F1C0008B5024B1B68DB69019308BD4C020300FA
:105F2C0008B5024B1B681B6A019308BD4C020300A9
:105F3C0008B5024B1B685B6B019308BD6002030044
:105F4C0008B5024B1B681B6D019308BD6002030072
:105F5C0008B5024B1B685B6D019308BD6002030022
:105F6C0008B5024B1B681B68019308BD2002030097
:105F7C0008B5024B1B685B68019308BD2002030047
:105F8C0008B5024B1B685B69019308BD2002030036
:105F9C0008B5024B1B689B6D019308BD20020300E2
:105FAC0008B5034B1B68D3F88830019308BD00007B
:105FBC002002030008B5034B1B68D3F894300193FF
:105FCC0008BD00002002030008B5024B1B681B68CB
:105FDC00019308BD4002030008B5024B1B685B68C7
:105FEC00019308BD4002030008B5024B1B689B6877
:105FFC00019308BD4002030008B5024B1B68DB6827
:10600C00019308BD4002030008B5024B1B681B69D5
:10601C00019308BD4002030008B5024B1B685B6985
:10602C00019308BD4002030008B5024B1B689B6935
:10603C00019308BD4002030008B5024B1B68DB69E5
:10604C00019308BD4002030008B5024B1B681B6A94
:10605C00019308BD4002030008B5024B1B681B6B83
:10606C00019308BD4002030008B5024B1B685B6B33
:10607C00019308BD4002030008B5024B1B681B6866
:10608C00019308BD4402030008B5024B1B685B6812
:10609C00019308BD4402030008B5024B1B689B68C2
:1060AC00019308BD4402030008B5024B1B685B69F1
:1060BC00019308BD4402030008B5024B1B681B6B1F
:1060CC00019308BD4402030008B5024B1B68DB6B4F
:1060DC00019308BD4402030008B5024B1B681B6802
:1060EC00019308BD1C02030008B5024B1B685B68DA
:1060FC00019308BD1C02030008B5024B1B689B688A
:10610C00019308BD1C02030008B5024B1B681B69F8
:10611C00019308BD1C02030008B5024B1B685B69A8
:10612C00019308BD1C02030008B5024B1B689B6958
:10613C00019308BD1C02030008B5024B1B68DB6908
:10614C00019308BD1C02030008B5024B1B681B6AB7
:10615C00019308BD1C02030008B5024B1B681B6BA6
:10616C00019308BD1C02030008B5024B1B68DB6BD6
:10617C00019308BD1C020300002211464068FFF782
:10618C0063BF002211464068FFF76EBF00224068D3
:10619C00FFF762BF002281F001014068FFF74CBF9E
:1061AC0000231A4619464068FFF73EBF00231A46E3
:1061BC0019464068FFF730BF002211464068FFF7D0
:1061CC0023BF002211464068FFF70EBF00220221B8
:1061DC004068FFF711BF00231A464068FFF7FCBE6A
:1061EC00024B03225A60024A1A60704798E203205D
:1061FC00A0A50D0010B5044601700846FFF700FD80
:10620C0000236360204610BD0078FFF701BD10B578
:10621C000446006818B1FFF767FF0023236010BD28
:10622C0010B50446FFF7F3FF204610BD10B5094C1E
:10623C0000204FF6FF732060A080A0712081638145
:10624C00FFF796FE2046044A0449BDE8104001F0D1
:10625C0047BC00BFA0E20320404A03202D620D0082
:10626C00704710B50C21044601F048FC204610BDC7
:10627C0010B504460068FFF737FF204610BD10B577
:10628C000446006808B1FFF72FFF00232360A360CA
:10629C00636010BD38B504460D4600680131FFF748
:1062AC002BFF10B184E82100012038BD10B5036824
:1062BC00044613B143688B4207D22046FFF7EAFF2E
:1062CC0020B1A3680BB922681370012010BD70B502
:1062DC000E46114604461546FFF7E8FF18B920464E
:1062EC00FFF7CDFF09E02A463146A560206801F092
:1062FC00A7FE2268A3680021D154204670BD38B592
:10630C000023044603604360836003730D4639B178
:10631C00084602F005FC294602462046FFF7D7FF47
:10632C00204638BD884210B50B46044607D0096894
:10633C0019B19A68FFF7CBFF01E0FFF7A0FF2046E9
:10634C0010BD10B5002304460360436083600373E3
:10635C00FFF7E8FF204610BD70B504460E4609B99C
:10636C00002070BD6AB18368D5182946FFF79EFFDF
:10637C000028F5D02068A3683146184401F0B4FE1B
:10638C00A560012070BD38B5044680688568FFF7AC
:10639C00E3FFA3689868401B38BD07B500238DF850
:1063AC000410012201A98DF80530FFF7D5FF03B0C9
:1063BC005DF804FB08B58068FFF7EFFF08BD884265
:1063CC0070B515D083688A6893420FD183B1046885
:1063DC000D68013C14F8010F50B102F0F9FC0646AF
:1063EC0015F8010B02F0F4FC8642F3D0002070BDCE
:1063FC00012070BD30B585B000230D4602930360BB
:10640C004360836003731421064B0193044603908D
:10641C00FFF74CFF2B6801A91B68284698472046BC
:10642C0005B030BDD4A50D0010B50446006808B108
:10643C00FFF74EFC204610BD10B5064C002320463D
:10644C002360FFF73DFC2046034A0449BDE8104099
:10645C0001F046BBACE20320404A032035640D003A
:10646C00F8B506460D468F180024BD420CD0336893
:10647C0015F8011B9B6830469847002801DB044443
:10648C00F3E7002C08BF04462046F8BD08B5FFF71B
:10649C00DFF808BD03689B68184730B58BB00B4616
:1064AC0000218DF82410012A98BF0A220DF1230433
:1064BC00B3FBF2F505FB123303F0FF03092B94BF7A
:1064CC0030333733DBB2214604F801392B46002D2B
:1064DC00EED1FFF7BDF80BB030BD10B50446FFF799
:1064EC00B7FBE060236820465B699847002808DA10
:1064FC00FFF7AEFBE368C01AA3689842F2D34FF0E3
:10650C00FF3010BD816070472DE9F04180460D468B
:10651C008F180C46BC42A4EB050607D04046FFF78B
:10652C00DCFF002802DB04F8010BF3E73046BDE882
:10653C00F0810000014B024A1A607047B0E2032060
:10654C0068A60D0008B50020FFF7B6FD28B1FFF7CF
:10655C00ABFD80F00100C0B208BD012008BD0000F9
:10656C0008B5FFF77DFB034B1B681844024B1B68F7
:10657C00184408BDBCE20320B8E20320FAEE087A06
:10658C00B4EEE70AF1EE10FA0FD4F2EE0C7AB4EE98
:10659C00E70AF1EE10FA08DCDFED047A044B20EE8A
:1065AC00270ABDEEC00A83ED000A70470000614562
:1065BC00BCE2032037B50E4B1B6819440D4B1B680E
:1065CC00044602A8194440F8041D01F041FC01F0F6
:1065DC00F1FB054602F0A4FA2844002300F8013C24
:1065EC0029462046FFF78BFE204603B030BD00BF86
:1065FC00BCE20320B8E203202DE9F047A4B014ACB0
:10660C0007468946204611463F221D4602F0A5FA50
:10661C00002320468DF88F3002F082FA804625B98F
:10662C00244903A801F060FD13E03C2195FBF1F235
:10663C00002AB8BF524292FBF1F301FB13220092E5
:10664C004FF461631C4A95FBF3F3102103A8FFF789
:10665C0073FD25462E1B08F1FF3AB2451BD92B784A
:10666C00252B16D16B787A2B13D103A802F058FA8C
:10667C0080463044C6EB0A02A91C204401F0E0FC21
:10668C00424603A9284601F0DBFC204602F048FAFA
:10669C0080460135DEE74B462246322107A801F041
:1066AC008BFD07A93846FFF72AFE384624B0BDE813
:1066BC00F08700BF2DAE0D00D0A60D00F7B5054636
:1066CC0001921C4613B9124B1C682CB1114B20467D
:1066DC00196801F0FFFC20B901992846FFF76AFF01
:1066EC0013E00D4F019A3B680C4E1A44336802A814
:1066FC00134440F8043D01F0ABFB3A6833680146A3
:10670C00134428462246FFF777FF284603B0F0BD16
:10671C00B4E2032088490320BCE20320B8E2032042
:10672C0010B50020FFF7A4FA044668B9FFF718FC6F
:10673C0001280BD12046FFF72BFC38B9FFF702FFDD
:10674C0030B9FFF7A9FCF9E7012010BD002010BDFE
:10675C00FFF7F8FE0020FFF78BFA003018BF01207E
:10676C0010BD08B5FFF7DCFFBDE80840FFF778BAAD
:10677C00024B1A68024B1A60704700BF884903200D
:10678C00B4E203200021FFF7FBBB37B502AC036872
:10679C0004F8011D9D69214613460122A84703B048
:1067AC0030BD13B502AB026803F8011DD46819465D
:1067BC000122A04702B010BD10B403689C694FF0D1
:1067CC00FF33A4465DF8044B604710B50446002027
:1067DC00A06104F1140000F089FDA369636010BD91
:1067EC0010B5036804469B689847A368013BA360F7
:1067FC002BB923682046DB68BDE81040184710BD54
:10680C0070B51C2494B00D46064600F0B3FA22462F
:10681C0000210DA801F01FFC14AA6B6942F84C4D25
:10682C000DA91868FFF70CFB014668BB9DF83530C5
:10683C00022B01D10EA924E00A2B25D102AC112286
:10684C00204601F008FC0F9B43B9109B33B94FF65F
:10685C00FF70119DFFF74CFA854211D00FAB0FCB97
:10686C0008AD84E80F000623214607A88DF81830E0
:10687C0000F08EFA0FCD341D0FC42B68237003E08B
:10688C0012A9304600F0C6FA304614B070BD0000B4
:10689C0010B5034B03600446FDF762FC204610BDA7
:1068AC0068A70D0010B50446FFF7F2FF20461C2127
:1068BC0001F024F9204610BDF8B50025114B0360FA
:1068CC004FF0FF36C26045600181066131460446D7
:1068DC00143000F033FF29462846FFF7E9F90A4B3C
:1068EC001A681D4642B91C20FDF7CFFB074610B1B4
:1068FC00314600F023FF2F6000210120FFF7D8F96B
:10690C002046F8BDB4A70D00C4E2032010B5044620
:10691C00143000F091FE2069FFF7A2FA4FF0FF331C
:10692C00236110BD70B504468CB0FFF7EFFF2369EF
:10693C00002B5ADA1C252A46002105A801F08BFBF6
:10694C008DF8145020890A258DF81550FFF7D8F9C9
:10695C000622ADF8160001212846FFF7A9FA0028F7
:10696C00206130DB0CAB0122042643F8282D40F6C5
:10697C00FF7100963246FFF76BFA054618BB0246CC
:10698C0003212069FFF79CFA021E1CDB42F0010276
:10699C0031462069FFF794FA002814DBE068B8B19F
:1069AC0003A9C0B20395ADF81050FFF739F950B9EF
:1069BC000623009341F20B0203AB40F6FF712069F2
:1069CC00FFF746FA20B120460025FFF79FFF0DE0A8
:1069DC001C2205A92069FFF72BFA0028F3D1052109
:1069EC002069FFF74DFA0028EDD1012528460CB09F
:1069FC0070BD000038B50446054B44F8143B054601
:106A0C00FFF784FF2046FDF7ABFB284638BD00BFDF
:106A1C00B4A70D0010B50446FFF7ECFF204630215B
:106A2C0001F06CF8204610BD38B54B6843608B689C
:106A3C008360CB68C3600B6903614B6943618D69EB
:106A4C0083699D4204460CD015B16B6801336B60B1
:106A5C00A06928B14368013B43600BB9FFF7C0FE46
:106A6C00A561204638BD00000C4B03604B684360A9
:106A7C000B4B03608B688360CB68C360094B03606E
:106A8C000B690361084B03604B6943618B6983613C
:106A9C0013B15A6801325A60704700BFECA50D0063
:106AAC0000A70D0028A70D00C4A80D002DE9F0418A
:106ABC000B69002B96B007460C4603DA0B680846A8
:106ACC001B6998472569002D04F1140605DA244B3F
:106ADC0030461968FFF7A8FF36E04FF01C08424615
:106AEC00002108A801F0B7FA16AA08A942F8548D9B
:106AFC002846FFF795F9011E0FDA194B3046196835
:106B0C00FFF792FFFFF730FB03680B2B1CD0FFF74E
:106B1C002BFB03680B2B1FD116E00FA800F00EFE09
:106B2C0003AD104B0F930FA902A8149CFFF768FE3E
:106B3C000FCD8C340FC42B6823700FA93046FFF790
:106B4C0073FF0FA8FFF7A4FE31463846FFF78CFF02
:106B5C00384616B0BDE8F0812046FFF7D7FEF3E7C4
:106B6C00C4E2032068A70D0010B58368044613B176
:106B7C00032201469847204610BD10B50446FFF786
:106B8C00F3FF204610BD00000348044A04490023CB
:106B9C00836000F0A5BF00BFC8E20320404A032079
:106BAC00876B0D0008B50C4B33B100F09DF90368F1
:106BBC001B699847002809DC084B63B100F020FAE8
:106BCC0003681B699847002803DC08BDAFF30080FD
:106BDC00F2E7AFF3008008BD0000000000000000E9
:106BEC0008B5FFF7DFFFFFF733F8014B186008BD5E
:106BFC0008E603200248034A0349121A01F020BA9E
:106C0C0000F4032004F40320F0AE0D0007B50023BC
:106C1C0000931A466FF07701FFF7CCF903B05DF8DB
:106C2C0004FB000007B543880A2B08D0502B09D170
:106C3C00094B1B683BB103B05DF804EB1847FFF739
:106C4C00E5FF06E0002300931A466FF07701FFF78B
:106C5C00B1F903B05DF804FBD8E2032038B5104C51
:106C6C00104D2368AB42104B0CBF012200221A704E
:106C7C0002D0FFF7BFFF2560FEF7DAFF044601F0F4
:106C8C00F3F90A4B13B12046AFF3008000210748FB
:106C9C00FFF71AFA00210648BDE83840FFF780B923
:106CAC0000F403201E1C279ADCE2032000000000E5
:106CBC00316C0D0010B588B004466846FFF71FFB19
:106CCC00694604A8FFF73DFB04A8A047044604A8A6
:106CDC00FFF7CEFA6846FFF7CBFA204608B010BD96
:106CEC00F0B5102485B007460E4615460021224605
:106CFC00684601F0B0F9002269461046ADF8004034
:106D0C00029703960195FFF7BFF905B0F0BDF0B5FA
:106D1C00037D062B8DB00E4600F104074FF00004E6
:106D2C0002D000F1080518E00CAD394605F8304DDD
:106D3C002F232A460A20FEF7D3FF284601F0F0FE47
:106D4C0033680246DB682946304698470FE024B189
:106D5C002E213046FFF79EFB044415F8011D0A2234
:106D6C003046FFF79AFBBD420444F0D120460DB0EB
:106D7C00F0BD000010B5054B0446112240F8043B51
:106D8C00002101F068F9204610BD00BFD8A70D0006
:106D9C000346074A10B543F8042B01F1100251F8D1
:106DAC00044B43F8044B9142F9D10A781A7010BD88
:106DBC00D8A70D00037D042B01D1406808E0062BF9
:106DCC000AD1436853B9836843B9C36833B90069BE
:106DDC00003018BF01207047002070470120704719
:106DEC0010B59DF8084044EA032343EA024242EA04
:106DFC00016104234160037510BD000037B5044DDB
:106E0C0005609DF818500095FFF7EAFF03B030BD00
:106E1C00D8A70D0037B50D788B784A78C9780091D2
:106E2C002946FFF7DDFF03B030BD41747047704752
:106E3C0008B50021007CFFF763F830EA200028BF7A
:106E4C004FF0FF3008BD08B50121007CFFF758F862
:106E5C0030EA200028BF4FF0FF3008BD08B5007C99
:106E6C00FFF746F820EAE07008BD08B5007CFFF794
:106E7C0037F820EAE07008BD007CFFF751B810B578
:106E8C001421044600F03AFE204610BD38B50446E5
:106E9C00007C0D46FFF72CF8002801DC607C28B143
:106EAC002946207CFFF734F820EAE07038BD00005A
:106EBC0010B50446002363604FF47A73A360054B4E
:106ECC00236001230846217463741146FFF700F810
:106EDC00204610BDECA70D0010B51422044600216D
:106EEC0001F0B9F8204610BD30B50E4D87B001A8A1
:106EFC00FFF7F2FF296811F0010410D12846FDF7C5
:106F0C00D5F860B101AA21460748FFF7D1FF284602
:106F1C00FDF7D1F8054A0649034800F0E1FD0248A7
:106F2C0007B030BDE0E20320E4E20320404A032036
:106F3C003B6E0D0070474174704708B5007CFEF73E
:106F4C0027FF20EAE07008BD08B5007CFEF7F8FECC
:106F5C0020EAE07008BD08B5007CFEF701FF30EABE
:106F6C00200028BF4FF0FF3008BD08B5007CFEF7AD
:106F7C00EFFE30EA200028BF4FF0FF3008BD007C48
:106F8C00FEF7F6BE10B51421044600F0B7FD2046FE
:106F9C0010BD70B5457C04460E4625B9007CFEF745
:106FAC00F7FE002805DD3146207CBDE87040FEF779
:106FBC00BFBE284670BD000010B5044608461146F9
:106FCC00002262604FF47A72A260054A22600122AC
:106FDC00207462741A46FEF79BFE204610BD00BF5B
:106FEC001CA80D000023007CFEF7DABE0022FFF780
:106FFC00F9BF007CFEF794BE007CFEF7C1BE00001A
:10700C0038B50C4D296811F0010411D12846FDF753
:10701C004DF868B1084A094B09482146FFF7CCFFE7
:10702C002846FDF748F8074A0749054800F058FD7F
:10703C00034838BD90E3032094E303200CE30320C2
:10704C00F8E20320404A0320416F0D007047F8B569
:10705C00064615460C468F18BC4206D0336814F809
:10706C00011B9B6830469847F6E72846F8BD00227E
:10707C00007CFEF79DBE0021007CFEF7A1BE002126
:10708C00007CFEF7A5BE0021007CFEF7A9BE002106
:10709C00007CFEF7ADBE10B51421044600F02EFDA9
:1070AC00204610BD10B50446002363604FF47A737C
:1070BC00A360044B2174084623601146FEF7A8FE1A
:1070CC00204610BD4CA80D000021007CFEF798BE98
:1070DC00002211464068FEF7B7BF002211464068F7
:1070EC00FEF7C2BF00224068FEF7B6BF002281F057
:1070FC0001014068FEF7A0BF00231A460121406839
:10710C00FEF792BF00231A4619464068FEF784BF6B
:10711C00002211464068FEF777BF002211464068F6
:10712C00FEF762BF002202214068FEF765BF002314
:10713C001A464068FEF750BF38B5054688B104685A
:10714C004CB1A3681BB1032221462046984710215D
:10715C00204600F0D3FC28461421BDE8384000F04E
:10716C00CDBC38BD10B103685B681847704710B5CB
:10717C0003680446BBB15868FEF782FD78B92368F2
:10718C005A7C12B95868FEF783FD23685868FEF7DD
:10719C0087FD20680023236028B1FFF7CDFF20680E
:1071AC0008B1FFF7C9FF204610BD38B50446D0F82A
:1071BC00C40108B1FCF76DFFD4F8C00108B1FEF7AB
:1071CC0087FDD4F8BC5135B12846FFF7D0FF042118
:1071DC00284600F093FC206808B1FFF7C3FF204657
:1071EC0038BD000010B5044B044640F8083BFFF7CF
:1071FC00DCFF204610BD00BF74A80D0038B50E4C46
:10720C000E4B23600025022304F5E4706360A56037
:10721C00C4F8C451C4F8C851FEF752FD084BC4F869
:10722C00CC5184F8D05123602046064A0649BDE86B
:10723C00384000F055BC00BF18E403205CA90D00D9
:10724C0074A80D00404A0320F1710D0037B502AC53
:10725C00036804F8011DDD6B01224FF0FF3321465A
:10726C00A84703B030BD10B40368DC6B4FF0FF339C
:10727C00A4465DF8044B604737B502AC036804F8CC
:10728C00011DDD6B214613460122A84703B030BD1A
:10729C00704738B543691A68002A044605DAB3F812
:1072AC008620B3F884309A4201D001250BE00368A4
:1072BC001B699847002814BF0125002503D12368BA
:1072CC002046DB6A9847284638BD43691868C04396
:1072DC00C00F704770470020704710B5142104464A
:1072EC0000F00CFC204610BDFCF7D1BE7FB5164655
:1072FC0000224260029203925A1C04460D4608D0AA
:10730C004FF47A72B3FBF2F1029102FB11314A4352
:10731C00039260690823009341F205026B4440F626
:10732C00FF710068FEF794FD002808DB60690023FC
:10733C00324629460068FEF7B3FD002804DAFEF752
:10734C0013FF03686360002004B070BD10B50368C0
:10735C0004469B689847A368013BA3602BB923683C
:10736C002046DB68BDE81040184710BD70B50446D8
:10737C004D69054B44F8043B8C3506460FCD0FC4C4
:10738C002B682370304670BDD8A70D0010B543692B
:10739C00B3F88620B3F884309A42044605D062696B
:1073AC00B2F884301344187910BD03681B699847F0
:1073BC000028F4D14FF0FF3010BD10B54369B3F87D
:1073CC008620B3F884309A42044608D06269B2F839
:1073DC008430591C1344A2F88410187910BD03682A
:1073EC001B6998470028F1D14FF0FF3010BDF8B55C
:1073FC0043691746B3F88620B3F884309A420546A1
:10740C000E4606D103681B69984710B94FF0FF343C
:10741C0014E06969B1F88430B1F88640E41ABC42D2
:10742C0028BF3C46194422460431304600F008FE81
:10743C006A69B2F884302344A2F884302046F8BD3F
:10744C002DE9F0439846036893B0DB6A0D46064677
:10745C001746984712AB002443F8484D2246214664
:10746C002846FEF7A5FB814600283DD1009B002B4A
:10747C0056D05B69002B53D006A8FFF77BFC009B12
:10748C005C696378022B01D1211D13E00A2B14D106
:10749C001122494601A800F0DEFDA36833BBE36866
:1074AC0023BB4FF6FF702569FEF722FC85421DD1E8
:1074BC0004F1140106A8FFF7ADFC06A8FFF77AFC4F
:1074CC0000282DD0336807ADD3F82090184B0C93BF
:1074DC000FCD0DAC0FC42B6823703A4643460CA954
:1074EC003046C84781461BE0A14619E004F1080369
:1074FC0001AD1834186859682A4603C20833A342F0
:10750C001546F7D1062301A90CA80DAD8DF8143042
:10751C00FFF73EFC0FCD07AC0FC42B682370CCE7F4
:10752C000098FEF73DFB484613B0BDE8F08300BF62
:10753C00D8A70D0042690023A2F884304269A2F852
:10754C00863070472DE9F0411E4603680C468AB020
:10755C00DB6A054617469847237DD5F81480042B23
:10756C000CBF02200A2006220121FEF7A1FCC8F85C
:10757C0000006B691B68002B18DB2846FFF7DAFF4D
:10758C00D6B1002303A9F0B20393ADF81030FEF787
:10759C0047FB58B968690623009341F20B0203AB11
:1075AC0040F6FF710068FEF753FC28B12B682846A3
:1075BC00DB6A002498473BE01C263246002103A8D6
:1075CC0000F049FD237D8DF80C60042B0CD10223B7
:1075DC0038468DF80D30FEF793FBADF80E00606861
:1075EC00FEF786FB049013E00A2338468DF80D3025
:1075FC00FEF786FB05AEADF80E00231D04F1140753
:10760C0018685968324603C20833BB421646F7D194
:10761C006B691C2203A91868FEF72AFC0028C5D147
:10762C0004340FCC6D698C350FC523682B70012485
:10763C0020460AB0BDE8F08110B5436904461868CD
:10764C00002801DBFEF70CFC63694FF0FF321A6077
:10765C006069112200218C3000F0FDFC2046BDE851
:10766C001040FFF767BF000030B54269B2F88630B2
:10767C008BB004461BB1B2F884209A4240D06369A7
:10768C00186800283FDBB3F886507F2D3BD8191DB6
:10769C00C5F1800208232944FEF7FAFB00280CDD13
:1076AC006369B3F886200AB9A3F884206269B2F83A
:1076BC0086301844A2F8860025E0FEF755FD0368D5
:1076CC000B2B20D0FEF750FD03680B2B1BD0202377
:1076DC00002502930395FEF747FD036801930E4BBB
:1076EC00009302AA2B460D493220FEF729FC636950
:1076FC001868FEF7B5FB63694FF0FF321A6002E0C1
:10770C00FFF718FFBBE76269B2F88630B2F8840065
:10771C00181A0BB030BD00BF0FA90D0008A90D0041
:10772C0010B5002304460160A0F88430A0F8863020
:10773C008830FFF71FFB204610BD00004FF47A7213
:10774C0070B500238260144A436002604361836118
:10775C000446A0200E46FCF798FC054610B13146B5
:10776C00FFF7DEFF1420FCF790FC034628B1012242
:10777C0042608260094A02600561A0696561A3618B
:10778C0028B14368013B43600BB9FFF7DFFD20468E
:10779C00FFF7D0FE204670BDC4A80D00A8A80D00B0
:1077AC0010B54FF0FF310446FFF7C8FF204610BD5F
:1077BC0010B504460068002801DBFEF751FB20469B
:1077CC0010BD10B504692046FFF7F2FF24B1204626
:1077DC00BDE81040FCF75BBC10BD002211464068B0
:1077EC00FEF712BC002211464068FEF72DBC0022A9
:1077FC0011464068FEF738BC00224068FEF72CBCEE
:10780C00002281F001014068FEF716BC00231A46E5
:10781C0019464068FEF708BC00231A461946406812
:10782C00FEF7FABB002211464068FEF7DDBB0022D2
:10783C0002214068FEF7E0BB00231A464068FEF7C1
:10784C00CBBB0000024B04225A60024A1A607047FC
:10785C00ECE5032028A90D0000231A464068FEF72A
:10786C00BBBB002202214068FEF7C6BB00221146BA
:10787C004068FEF7B9BB002211464068FEF7C4BB56
:10788C0000231A4619464068FEF7C6BB00231A4669
:10789C0019464068FEF7C8BB002281F00101406820
:1078AC00FEF7CABB00224068FEF7D6BB0022114689
:1078BC004068FEF7D9BB002211464068FEF7C4BBF6
:1078CC002DE9F043002495B016460D460746FFF708
:1078DC0051FA214620220CA8009400F0BCFB402356
:1078EC000C9321466B460CAA3046FEF761F9044610
:1078FC00002844D1024601216868FEF785FB02216D
:10790C00804622466868FEF77FFB009E8146214632
:10791C00002E34D0002932D17368022B02D00A2BEE
:10792C0009D02AE0B8F1000F27D07169384604312C
:10793C00FFF770FA20E0B9F1000F1ED07469112224
:10794C0001A800F088FB06238DF8143001AD04F17A
:10795C0008031834186859682A4603C20833A3422E
:10796C001546F7D101A906A807ADFFF711FA0FCDFF
:10797C003C1D0FC42B6823700121F669C8E70098E1
:10798C00FEF70EF9384615B0BDE8F083024B034AFA
:10799C001A6000225A607047F4E503205CA90D00C0
:1079AC0070B5184E316811F0010504460AD1304605
:1079BC00FCF77CFB30B129461348FEF71BFC304624
:1079CC00FCF779FB1048FEF71FFC28B1A4F10B0360
:1079DC00022B01D8002070BD00F05CF8FFF774FB9F
:1079EC0008B1012CF6D9FFF70BFBFFF705FB18B11B
:1079FC00A4F10903012BEDD9232C8CBF002001200D
:107A0C0070BD00BFFCE5032000E60320232838B539
:107A1C0004460D460AD8FF2908D0FFF7C1FF28B14C
:107A2C0029462046BDE83840FEF7D2B838BD38B5F7
:107A3C0004460D46FEF7D4F8FF2810D0062804D8CB
:107A4C004D2323FA00F0C30709D42046FFF7A8FF03
:107A5C0028B129462046BDE83840FEF7C9B838BDE4
:107A6C0070B5044614252A46094E002100F0F3FA9D
:107A7C00258020253146A5602561284600F040F878
:107A8C0031466060284600F03BF8E060204670BD4F
:107A9C0088A90D0030B50E4D296811F0010487B08E
:107AAC0013D12846FCF702FB78B101A8FFF7D8FFE9
:107ABC0001AA21460748FFF7F5FA2846FCF7FBFA1E
:107ACC00054A0649034800F00BF8024807B030BDE0
:107ADC000CE6032010E60320404A032059700D00E9
:107AEC000B460146184600F0A5B90000024B186879
:107AFC00BFF35F8F704700BF24E60320FCF7C7BAC3
:107B0C0000F000B810B5002814BF0446012420462C
:107B1C00FEF7E2FA20B9FFF7E9FF08B18047F6E774
:107B2C0010BD0000184B1A68D1075CBF01221A6007
:107B3C00164B1A68D2075CBF01221A60144B1A68E4
:107B4C00D0075CBF01221A60124B1A68D1075CBFC8
:107B5C0001221A60104B1A68D2075CBF01221A600E
:107B6C000E4B1A68D0075CBF01221A600C4B1A68C6
:107B7C00D1075CBF01221A600A4B1A68D2075CBF9E
:107B8C0001221A60704700BF44E6032040E6032040
:107B9C003CE6032038E6032034E6032030E60320DD
:107BAC002CE6032028E60320244B1A68D0075CBF80
:107BBC0001221A60224B1A68D1075CBF01221A609D
:107BCC00204B1A68D2075CBF01221A601E4B1A6840
:107BDC00D0075CBF01221A601C4B1A68D1075CBF2E
:107BEC0001221A601A4B1A68D2075CBF01221A6074
:107BFC00184B1A68D0075CBF01221A60164B1A6822
:107C0C00D1075CBF01221A60144B1A68D2075CBF03
:107C1C0001221A60124B1A68D0075CBF01221A604D
:107C2C00104B1A68D1075CBF01221A600E4B1A6800
:107C3C00D2075CBF01221A60704700BF74E60320B4
:107C4C0070E603206CE6032068E6032064E603205C
:107C5C0060E603205CE6032058E6032054E603208C
:107C6C0050E603204CE6032048E60320244B1A6818
:107C7C00D0075CBF01221A60224B1A68D1075CBF87
:107C8C0001221A60204B1A68D2075CBF01221A60CD
:107C9C001E4B1A68D0075CBF01221A601C4B1A6875
:107CAC00D1075CBF01221A601A4B1A68D2075CBF5D
:107CBC0001221A60184B1A68D0075CBF01221A60A7
:107CCC00164B1A68D1075CBF01221A60144B1A6854
:107CDC00D2075CBF01221A60124B1A68D0075CBF36
:107CEC0001221A60104B1A68D1075CBF01221A607E
:107CFC000E4B1A68D2075CBF01221A60704700BF96
:107D0C00A4E60320A0E603209CE6032098E60320CB
:107D1C0094E6032090E603208CE6032088E60320FB
:107D2C0084E6032080E603207CE6032078E603202B
:107D3C00184B1A68D1075CBF01221A60164B1A68DF
:107D4C00D2075CBF01221A60144B1A68D0075CBFC3
:107D5C0001221A60124B1A68D1075CBF01221A600B
:107D6C00104B1A68D2075CBF01221A600E4B1A68BE
:107D7C00D0075CBF01221A600C4B1A68D1075CBF9C
:107D8C0001221A600A4B1A68D2075CBF01221A60E2
:107D9C00704700BFC4E60320C0E60320BCE6032006
:107DAC00B8E60320B4E60320B0E60320ACE60320DB
:107DBC00A8E60320094B70B51C68256C06463DB936
:107DCC001A20FEF789F91A222064294600F043F99B
:107DDC00216C3046BDE8704000F002B8F049032039
:107DEC0010B50C4641690369826986B001F26C7169
:107DFC000491016803914168029181680191C16805
:107E0C000091074903EB43030B44064902EB420282
:107E1C000A4420460449FEF777F9204606B010BD07
:107E2C009EA90D0089A90D00C2A90D000A220021EE
:107E3C0000F02CBF10B5054C13462CB10A46014678
:107E4C000220AFF3008010BD204610BD00000000E2
:107E5C0038B5074B1C68E36B05461BB92420FEF7AD
:107E6C003BF9E063E16B2846BDE8384000F002B80E
:107E7C00F04903202DE9F0410C46804601F02CFA24
:107E8C0021460746404601F02BFA466906F26C760D
:107E9C00B307044605D1642296FBF2F302FB13638D
:107EAC004BB94FF4C87596FBF5F305FB1365B5FAA2
:107EBC0085F35B0900E001235F4A302505FB0325B0
:107ECC0001F03AF801F03AF85C4B1B68F3B17B68AF
:107EDC009E4205D13968D8F80030FA6941B90AE0F8
:107EEC00304600F081FF0028F4D14FF0FF330DE055
:107EFC00934208DB01E0934207DABA6B9342ACBFC2
:107F0C000023012302E0002300E001232362236A03
:107F1C00012B0CBFF96B396A4FF461633C2091FB68
:107F2C00F3F603FB1613616893FBF0F200FB1230BF
:107F3C002368891AA26861601B1A921B3B2B236071
:107F4C00A26003DD013161603C3B04E0002B03DAED
:107F5C00013961603C33236063683B2B03DD0132E4
:107F6C00A2603C3B04E0002B03DA013AA2603C33F4
:107F7C006360A368172B22DDE2690132E261A2691A
:107F8C000132062AC8BF0022A261E268183B013206
:107F9C00A3602369E26055F823108A4246DD013361
:107FAC000C2B0CBF63692361A2EB0102E26001BFE1
:107FBC00013300222261636108BFE26136E0002BCD
:107FCC0034DAE269013AE261A269013A48BF062259
:107FDC00A261E2681833013AE260A36032BB236904
:107FEC00013B01D423611DE00B23236163695A1EFD
:107FFC0012F0030F626103F26B7305D1642193FBE2
:10800C00F1F201FB12324AB94FF4C87193FBF1F251
:10801C0001FB1233B3FA83F35B0900E0012303F590
:10802C00B673E361236955F82330E36000F085FFF4
:10803C002046BDE8F08100BF44AB0D00E4E703200F
:10804C0010B5431E0A44914204D011F8014B03F8B9
:10805C00014FF8E710BD02440346934202D003F8E7
:10806C00011BFAE77047000038B5124B1C68A36B74
:10807C000546D3B91820FEF72FF843F20E33A06350
:10808C0003804AF6CD33438041F2342383804EF291
:10809C006D63C3804DF6EC630381052343810B2391
:1080AC00838101220023C0E90423A36B00221D61FC
:1080BC005A6138BDF0490320C9B2034610F8012BB0
:1080CC001AB19142F9D11846704700290CBF1846D5
:1080DC000020704710F8012B11F8013B012A28BF32
:1080EC009A42F7D0D01A7047034611F8012B03F8C7
:1080FC00012B002AF9D1704741698B0710B50CD1BF
:10810C00002940F26C73A8BF6FF063030B44642426
:10811C0093FBF4F204FB123383B9002940F26C7325
:10812C00A8BF6FF063034FF4C8720B4493FBF2F1DA
:10813C0002FB1133B3FA83F2520900E00122836986
:10814C00C1695B0003EB01131344212B0EDC202BC4
:10815C002FDA0D2B02DC0A2B05DB2AE0102B26DB99
:10816C00112B26DD1C3B012B23D920E041F2C662EA
:10817C0093420EDC41F2C262934216DA41F2A262E1
:10818C00934212D013DBA3F5B553123B022B0CD93F
:10819C000DE041F2D562934207D041F2D76293428F
:1081AC0003D041F2D362934201D1012010BD0020D3
:1081BC0010BD4FF0FF3010BD2DE9F04F93B00E46BF
:1081CC001D460746914600F0F3FD002306931C461E
:1081DC00731E0390029399F80030002B00F09284E8
:1081EC00252B08D0029A944280F090843B5509F1DB
:1081FC0001090134EFE799F801A0BAF1300F07D06B
:10820C00BAF12B0F04D009F101094FF0000A01E07B
:10821C0009F1020999F80030313B082B08D848467F
:10822C000A220AA900F0BAFDDDF82890804601E088
:10823C004FF0000899F80030452B01D04F2B01D19D
:10824C0009F1010999F80000A0F12503552B00F262
:10825C005D84DFE813F04A045B045B045B045B049D
:10826C005B045B045B045B045B045B045B045B040A
:10827C005B045B045B045B045B045B045B045B04FA
:10828C005B045B045B045B045B045B045B046F00DA
:10829C00A100D4001A015B043F01A00126022D02AB
:1082AC005B045B045B0460025B045B0468025B04BC
:1082BC0097021D0325033B0343038603C600A0035B
:1082CC001F045B045B045B045B045B045B045600EF
:1082DC008900BA000C010C015B04710189005B047C
:1082EC003D0226022D025D0262025B0468025B0401
:1082FC00BE009C021F032E035B047F03C20092038B
:10830C00E703AB69039A183352F82380404600F018
:10831C0007FC08F1FF383B192044844200F0EB8342
:10832C00029A944280F0F28318F8012F03F8012B83
:10833C000134F2E7AB69039A02EB8303D3F87C8038
:10834C00404600F0EDFB08F1FF383B192044844215
:10835C0000F0D183029A944280F0D88318F8012F50
:10836C0003F8012B0134F2E72B69039A52F82380AE
:10837C00404600F0D5FB08F1FF383B1920448442FD
:10838C0000F0B983029A944280F0C08318F8012F50
:10839C0003F8012B0134F2E72B69039A0C3352F8E2
:1083AC002380404600F0BCFB08F1FF383B19204409
:1083BC00844200F0A083029A944280F0A78318F8BC
:1083CC00012F03F8012B0134F2E7039BD3F8A080B3
:1083DC000AE0039BD3F8E48006E0039BD3F89C806F
:1083EC0002E0039BD3F89880404600F099FB98F884
:1083FC000030002B00F07F832B46424693E0B649B9
:10840C00D5F814B08B45ACBF00210121BBF1000F96
:10841C0004DB64209BFBF0F0133008E00BF26C7073
:10842C00079100F011FF0799642390FBF3F0BAF168
:10843C00000F08D0632809DDA84BA94ABAF12B0F0D
:10844C0018BF134603E0A64BA64A01E0A44BA64A6C
:10845C000190B8F1010F98BF4FF00208C1EB080171
:10846C0000919D48A1498345B8BF0B461EE2A04A26
:10847C00A049EB68642808BF0A46311B3819FDF780
:10848C0063FE002880F2028340E368692B690028B0
:10849C0003F1010B07EB0408C4EB060AEB6805DBE0
:1084AC00642290FBF2F102FB11000AE000F26C7006
:1084BC00079300F0C9FE6422079B90FBF2F101FBCD
:1084CC0012008D4A0190009351465B464046FDF7E1
:1084DC003BFED6E725238DF82830BAF1000F07D0E4
:1084EC00B8F1050F8DF829A098BF4FF0060804E0ED
:1084FC002B238DF829304FF00A08B8F1060302D16E
:10850C000DF12A000AE07D4A1E210DF12A00FDF72B
:10851C001BFE0028F4DD0DF12A0318447849FFF7FF
:10852C00E3FD2B460AAA311B3819FFF745FE00283C
:10853C0040F3EC820444DEE22846FFF7DDFD804682
:10854C006869002805DB642290FBF2F102FB110044
:10855C0008E000F26C7000F077FE642290FBF2F3FE
:10856C0003FB1200B8F1000F06DA6A69654B9A42F8
:10857C00B8BF4FF0010806E005D06A69564B9A4225
:10858C00B8BF4FF0FF386423404490FBF3F203FB79
:10859C0012001844F9E1504B696908919942ACBF3B
:1085AC000023012328460793FFF7A6FD089900290D
:1085BC00834604DB642391FBF3F3133308E001F2ED
:1085CC006C70089100F040FE0899642390FBF3F363
:1085DC006869002806DB4FF0640E90FBFEFC0EFB76
:1085EC001C000DE000F26C700991089300F02CFE59
:1085FC004FF0640E0999089B90FBFEFC0CFB1E00CF
:10860C00BBF1000F08DA69693E4A91420ADA4FF071
:10861C00010BCDF81CB005E004D02F4A9142B8BF35
:10862C004FF0FF3B0BEB0002501C02D1013B6322CD
:10863C0003E0642A04BF01330022642000FB0323FF
:10864C00079A42B12D228DF82820B8F1000F13D0D3
:10865C0008F1FF3810E0BAF12B0F10D142F20F7273
:10866C0093420CD98DF828A0B8F1000FF0D112AAC2
:10867C00252102F81F1D0AE00DF1290200E00AAACB
:10868C0025211170BAF1000F01D1501C02E03021EC
:10869C00901C51701C490793FFF726FD079B009314
:1086AC00ADE1144A1249AB686B2808BF0A46E4E6F0
:1086BC00A9680C2331B199420EBF0B4691FBF3F222
:1086CC0003FB12130A4A0B49492808BF0A46D4E691
:1086DC00EB690E4A0133D0E694F8FFFFB3AB0D0003
:1086EC0075A20D00A4AB0D00ABAB0D00B5AB0D002E
:1086FC00B7AB0D00C5AB0D00BBAB0D00CAAB0D008D
:10870C00CEAB0D0095F8FFFFD6AB0D00DAAB0D002C
:10871C002B6901333DE16B683BE1029B9C4280F08D
:10872C00F5810A23E5E1AB68039A0B2BCCBFA4239C
:10873C00A0231344D3F80480404600F0F1F9B24B67
:10874C00D3F800E0391942462044844200F0D3812A
:10875C00029B9C4280F0DA8199F80030502B04F196
:10876C00010413780AD10EEB030C9CF801C00CF039
:10877C00030CBCF1010F08BF2033DBB201F8013B45
:10878C000132E2E76B680093A04AAB6839E12B6ACF
:10879C00002B17DB00F0D0FB069B1BB900F0CEFBC7
:1087AC000123069300F098FD2B6A002BD4BF002305
:1087BC0001231C2202FB0300036AC3F1000800F032
:1087CC00BCFB01E04FF00008D5F814E07046BEF198
:1087DC0045024FEAE07141F1FF33002A73F1000BBF
:1087EC00C4EB060C07EB040A03DABEF1420241F1BA
:1087FC00FF33910841EA83719B10049105930EF1AC
:10880C00FF31642391FBF3F1DDE90423521A63EB8E
:10881C00E1730EF22B104FF4C87190FBF1F152186A
:10882C0043EBE173AEF1460E40F26D1101FB0EFE0F
:10883C00E96912EB0E0243EBEE7352184FF0180E6F
:10884C0043EBE173A2FB0E010EFB0311AB684FF07F
:10885C003C0EC01841EBE371A0FB0E230EFB013361
:10886C006968521843EBE173A2FB0E010EFB031176
:10887C002B68674AC01841EBE371B0EB080061EB61
:10888C00E871CDE9000161465046FDF75DFCF8E565
:10889C002B687EE0029B9C4280F03881092328E102
:1088AC002B6801936B6800935A4AAB68311B3819DB
:1088BC000DE6029B9C4280F02981AB69621C0BB9CE
:1088CC00372300E030333B55144614E1EB69AA69B9
:1088DC0007339B1A072293FBF2F35AE02846FFF763
:1088EC000BFCAA690AB1531E00E0062300282FDCFA
:1088FC00EA6901D10A323BE09A1A6B6940F26B715A
:10890C00002BB4BF08466FF064001844810707D1F0
:10891C0001464FF0640E90FBFEF00EFB101181B976
:10892C00002B40F26B71A8BF6FF0640119444FF437
:10893C00C87391FBF3F003FB1011B1FA81F14909F3
:10894C0000E00121521A052AB4BF3523342320E05C
:10895C0001231EE0029B9C4280F0D880AB6930332F
:10896C00C7E0AA690AB1531E00E00623EA69073280
:10897C00D21A072392FBF3F30BE06869002803DAA1
:10898C0000F26C7000F060FC642390FBF3F202FBCD
:10899C001303214A71E56B69204A934203F26C7B05
:1089AC0005DA2D238DF82830CBF1000B08E0BAF155
:1089BC002B0F0DD142F20F739B4511D98DF828A0C6
:1089CC00B8F1000F01D008F1FF380DF1290300E0D8
:1089DC000AAB25221A70BAF1000F08D1581C09E015
:1089EC00B8F1000FF4D125238DF828300AAB3022D2
:1089FC00981C5A700A49FFF777FBCDF800B0434634
:108A0C000AAA311B38193EE08C490320E9AB0D0052
:108A1C00DFAB0D00E4AB0D00C5AB0D0094F8FFFF10
:108A2C00D6AB0D002B6A002B65DB00F085FA069B9C
:108A3C001BB900F083FA0123069300F04DFC2B6A5E
:108A4C00002BD4BF002301231C2202FB030007EBE5
:108A5C00040A036AC3F1000800F06FFA3C2398FB88
:108A6C00F3F0079300F0D4FC079B90FBF3F2C4EBFC
:108A7C00060B02FB1300284A0090594650464FF44F
:108A8C00616398FBF3F3FDF75FFBFAE40444A64241
:108A9C0031D83BE02B6A002B2DDB00F04DFA069B06
:108AAC001BB900F04BFA012306932B6A1B4A002BCF
:108ABC00D4BF0023012352F82380404600F030F845
:108ACC0008F1FF383B19204484420BD0029A94429F
:108ADC0005D218F8012F03F8012B0134F4E700F04C
:108AEC002CFA13E000F029FA05E0029B9C420DD20F
:108AFC0025233B55013499F800301BB109F10109CC
:108B0C00FFF769BB26B100233B5501E0002000E0D4
:108B1C00204613B0BDE8F08FF3AB0D00F4490320F1
:108B2C00034613F8012B002AFBD1181A01387047A1
:108B3C0030B582B1451E013915F8013F11F8014FCE
:108B4C00A34206D1EC431444E04201D0002BF3D1F4
:108B5C001C46181B30BD104630BD10B5034642B143
:108B6C0011F8014B03F8014B013A002CF7D11A44D0
:108B7C0000E010BD934202D003F8014BFAE710BDA0
:108B8C002DE9F04780464048D0F800900F463D460E
:108B9C0015F8014B09EB0400407800F0080000F0D8
:108BAC00FF0608B12F46F2E72D2C03D1BD1C7C78B3
:108BBC00012603E02B2C04BF7C78BD1C13B1102BB9
:108BCC000AD15BE0302C57D1287800F0DF00582810
:108BDC004DD16C7810230235002E14BF4FF0004C91
:108BEC006FF0004C0027BCFBF3FA384603FB1ACCA1
:108BFC0009EB040E9EF801E01EF0040F01D0303C8E
:108C0C000BE01EF0030E1BD0BEF1010F0CBF4FF09A
:108C1C00370E4FF0570ECEEB0404A34210DDB7F124
:108C2C00FF3F0AD0504506D801D1644503DC03FB55
:108C3C000040012701E04FF0FF3715F8014BD7E753
:108C4C007B1C0CD1002E4FF0220314BF4FF00040C0
:108C5C006FF00040C8F800302AB9BDE8F08706B1C3
:108C6C00404272B107B1691E1160BDE8F087302433
:108C7C00002BB1D10823AFE70A23ADE7302CA3D0EA
:108C8C00AAE7BDE8F08700BF8C49032013460A46CB
:108C9C00014602480068FFF773BF00BFF04903208C
:108CAC002DE9F04780463C48D0F800900E463546FA
:108CBC0015F8014B09EB0400407800F0080000F0B7
:108CCC00FF0708B12E46F2E72D2C03D1B51C7478A2
:108CDC00012703E02B2C04BF7478B51C13B1102BA7
:108CEC000AD153E0302C4FD1287800F0DF005828FF
:108CFC0045D16C78102302354FF0FF3C0026BCFBAD
:108D0C00F3FC03FB0CFA6FEA0A0A304609EB040E7B
:108D1C009EF801E01EF0040F01D0303C0BE01EF079
:108D2C00030E1AD0BEF1010F0CBF4FF0370E4FF0EF
:108D3C00570ECEEB0404A3420FDD002E08DB60457A
:108D4C0006D801D1544503DC03FB0040012601E0A9
:108D5C004FF0FF3615F8014BD8E7002E07DA222327
:108D6C00C8F800304FF0FF302AB9BDE8F08707B1E2
:108D7C00404272B106B1691E1160BDE8F087302423
:108D8C00002BB9D10823B7E70A23B5E7302CABD0B9
:108D9C00B2E7BDE8F08700BF8C49032013460A46B2
:108DAC00014602480068FFF77BBF00BFF049032073
:108DBC00044B054A1868054B002814BF104618468A
:108DCC00704700BFC8E60320CCE6032030AD0D0091
:108DDC00044B1B6803445B7803F00303012B08BFAF
:108DEC00203070478C4903202DE9F74F044600F0E2
:108DFC0073FA40F2B1739C4240F396806FF4F663C1
:108E0C00E318A4F2B2729B1040F26D1505FB02350B
:108E1C00A4F26D726FF0630392FBF3F36FF4C8620C
:108E2C002B44A5184FF4C87295FBF2F51D4464232E
:108E3C0094FBF2F794FBF3F602FB174703FB164681
:108E4C0000F13803B7FA87FE019304F00303446082
:108E5C004FEA5E1E014600934FF0070C0B7A4A2B2B
:108E6C000ED14B69009AEC1802B906B927B93B2B05
:108E7C00D4BF0023012300E000232344013B3FE047
:108E8C00442B02D14B692B443AE0009B2BB9002EAA
:108E9C000CBFF0464FF0010800E0F046244BCC68C4
:108EAC00302202FB0838A8F1040AA9460123A34288
:108EBC0004DA5AF804BF0133D944F8E709F1040382
:108ECC0093FBFCFBCBEBCB0A012CCAEB030A4B69E3
:108EDC00B8BF012404F18044B3EB0A0A0B6904F116
:108EEC00FF3403F1FF3348BF0AF1070AC3EBC30396
:108EFC0058F824405344A34201DB073BFBE74B44A7
:108F0C008C690C4A02FB03430C6A234441F81C3F56
:108F1C00019B9942A2D1C369826B9342ACBF0023DF
:108F2C0001230360012000E0002003B0BDE8F08FB6
:108F3C0044AB0D008051010070477047014B18681D
:108F4C0000F002B8F04903202DE9F04F8DB0074630
:108F5C0000F0C2F9B049B14E0446384600F0B4F9FD
:108F6C00054660B9AE4BAF4A1860AF4B1860AF4BBB
:108F7C0030681A605A60FDF7B7F8356048E131681F
:108F8C0079B93068FDF7B0F82846FFF7C9FD411CE8
:108F9C003846FDF7E1F8306048B12946FFF7A4F8F0
:108FAC0005E0FFF797F8002800F03281E9E72B780D
:108FBC009F4AA0493A2B08BF01350AAE33462846D2
:108FCC00FDF7B2F8002840F323810A9BEF18EB5C05
:108FDC002D2B03D101374FF0FF3503E02B2B08BFAE
:108FEC00013701250DF1200A0DF11E0B4FF0000881
:108FFC000396CDF808A00196CDF800B0334607AA29
:10900C008D49ADF81E803846ADF82080FDF78CF800
:10901C00404540F3FD80BDF81E20BDF82030DFF840
:10902C0024923C2101FB0233BDF81C204FF46161FA
:10903C0001FB02335D4325627C4D7D4B2B600A9B0B
:10904C007C491F444A4633463846FDF76DF8404587
:10905C0008DC2B686B60724B226A1A60724BC3F887
:10906C000080D5E00A9BC5F80490FD18FB5C2D2B05
:10907C0003D101354FF0FF3703E02B2B08BF01352F
:10908C0001270023ADF81C30ADF81E30ADF82030B0
:10909C000A930396CDF808A00196CDF800B033469C
:1090AC0007AA65492846FDF73FF8002804DC236A27
:1090BC00A3F56163E3630EE0BDF81E20BDF820301C
:1090CC003C2101FB0233BDF81C204FF4616101FB14
:1090DC0002335F43E7630A9B27461D444FF00009A8
:1090EC002B782C2B08BF013595F80080B8F14D0F6B
:1090FC0026D10DF12603029309AB0093039601963A
:10910C0033460DF122024D492846FDF70DF8032890
:10911C007ED1BDF822104B1E0B2B79D8BDF8242024
:10912C00531E042B74D8BDF82630062B70D887F844
:10913C000880F9603A617B610A9B05EB03082AE021
:10914C00B8F14A0F06BF0135434644230A220BA946
:10915C0028460593FFF722FEDDF82C80ADF826009B
:10916C004545059B14D14D23B9F1000F07D123724E
:10917C000323E36002232361C4F814900BE084F80A
:10918C0024300B23A3620123E3620023236302E058
:10919C0080B23B7278610223ADF81C300023ADF82D
:1091AC001E30ADF820300A9398F800302F2B0BD1DD
:1091BC000396CDF808A00196CDF800B0334607AA67
:1091CC001F494046FCF7B0FFBDF81E20BDF820300B
:1091DC003C2101FB0233BDF81C204FF4616101FB03
:1091EC000233BB610A9D09F10109B9F1020F454433
:1091FC0007F11C077FF474AF6068FFF7F5FD084BAF
:10920C00226A1A60E36B9B1A074A18BF012313608A
:10921C000DB0BDE8F08F00BF2CAE0D00E0E70320D1
:10922C00E8E703202FAE0D00E4E70320F449032008
:10923C00D3E7032033AE0D0056AE0D0042AE0D0049
:10924C0055AE0D00C8E703200028B8BF4042704758
:10925C002DE9F84F07468B46904600F0DDF8194B88
:10926C001D689A463DB15C46234613F8012B42B16A
:10927C003D2A1C46F8D1384600F0CFF80020BDE856
:10928C00F88FCBEB0404A94659F8040B0028F2D054
:10929C0022465946FFF74CFC88B959F8043C1E1974
:1092AC001B5D3D2B0BD1DAF80030ED1AAD103846B2
:1092BC00C8F8005000F0B1F8701CBDE8F88F4D46AE
:1092CC00E1E700BF3C4A032007B501AAFFF7C0FF46
:1092DC0003B05DF804FB000000487047FC49032014
:1092EC000268474BF0B592FBF3F403FB1422002AFF
:1092FC00BCBF02F5A83202F5C0724FF4616004F5F0
:10930C002F2492FBF0F300FB13224FF03C00ACBF78
:10931C0004F66C2404F66B248B6092FBF0F300FBD8
:10932C0013224B600A600723E21C92FBF3F3C3EB9E
:10933C00C303D31A8B61334B334D94FBF5F503FB0D
:10934C00054448F6AC62B4FBF2F2224440F2B45746
:10935C00B4FBF7F3D21A2D48B4FBF0F048F6946640
:10936C00131AB3FBF6F6344440F26D12B3FBF2F071
:10937C00B3FBF7F3E31A02FB1033992403EB8302DC
:10938C000232B2FBF4F20A2A04FB02F404F10206E4
:10939C004FF00504B6FBF4F434BF02266FF0090657
:1093AC0016444FF4C87202FB05055F1C012E98BFD2
:1093BC000135B3F5997FA7EB040702D3A3F5997296
:1093CC0014E0820705D16424B0FBF4F204FB120212
:1093DC004AB94FF4C872B0FBF2F402FB1400B0FAB5
:1093EC0080F2520900E001223B331A44A5F26C755D
:1093FC000023CA614D610E61CF600B620846F0BD5F
:10940C00805101004FC5FDFFB13A0200B03A020095
:10941C000028B8BF40427047704770471D400D0090
:10942C0059400D0085400D0089400D0000000000E2
:10943C003C2F626F64793E3C2F68746D6C3E004823
:10944C005454502F312E302034303020426164205F
:10945C00526571756573740D0A003C68746D6C3ED1
:10946C003C686561643E3C6D657461206368617243
:10947C007365743D277574662D38272F3E3C7469CF
:10948C00746C653E7543616D4949492044656D6F47
:10949C003C2F7469746C653E3C2F686561643E3C7E
:1094AC00626F64793E0A0074616B65536E61707310
:1094BC00686F7400626D70486561646572007365F5
:1094CC00744342450000000100010010100200012D
:1094DC00000100B000000016000000280000001081
:1094EC00000000200000000100010000000000004E
:1094FC000000000000000000000000000000000060
:10950C0000000000000000FF000000FFFF0000FF53
:10951C00FF0000FFFF0000CFBF0000C7BF0000C36B
:10952C00BF0000C1BF0000C0BF000000000000C0B1
:10953C00BF0000C1BF0000C3BF0000C7BF0000CF09
:10954C00BF0000FFFF0000FFFF0000000000000054
:10955C0000000000000000000000000000000000FF
:10956C0000000000000000000000000000000000EF
:10957C0000000000000000000000000000000000DF
:10958C0000000000000000000000006465766963C4
:10959C00657348616E646C657200696D61676543E3
:1095AC006D6400557365722D6167656E743A202A7F
:1095BC000D0A446973616C6C6F773A202F0D0A00A9
:1095CC00436F6E74656E742D547970653A207465B2
:1095DC0078742F68746D6C0D0A0D0A3C68313E4529
:1095EC00504943204641494C3C2F68313E0073653D
:1095FC00745061636B61676553697A65003C736392
:10960C00726970743E646F63756D656E742E6765F8
:10961C0074456C656D656E744279496428274354B2
:10962C0027292E76616C75653D2725303264273BE2
:10963C00646F63756D656E742E676574456C656DCE
:10964C00656E74427949642827525227292E766117
:10965C006C75653D2725303264273B646F63756DEF
:10966C00656E742E676574456C656D656E744279B4
:10967C00496428274A5227292E76616C75653D2747
:10968C0025303264273B646F63756D656E742E678D
:10969C006574456C656D656E744279496428276301
:1096AC0062654327292E76616C75653D272530321E
:1096BC0064273B646F63756D656E742E67657445C6
:1096CC006C656D656E7442794964282763626542E6
:1096DC0027292E76616C75653D2725303264273B32
:1096EC00646F63756D656E742E676574456C656D1E
:1096FC00656E744279496428276362654527292E73
:10970C0076616C75653D2725303264273B646F6349
:10971C00756D656E742E676574456C656D656E74DC
:10972C0042794964282774696D657374616D70277B
:10973C00292E696E6E657248544D4C3D2725732554
:10974C002B3033643A25303264273B3C2F736372E1
:10975C006970743E005365727665723A2057656283
:10976C006475696E6F2F312E370D0A00736574495D
:10977C006D616765466F726D617400696E69740026
:10978C0000000000000000008D410D00BD410D00E7
:10979C0031410D0043440D0074616B65536E617073
:1097AC0073686F7400485454502F312E302032306F
:1097BC0030204F4B0D0A004163636573732D436F6B
:1097CC006E74726F6C2D416C6C6F772D4F72696774
:1097DC00696E3A202A0D0A436F6E74656E742D54AF
:1097EC007970653A20003C666F726D2069643D2784
:1097FC0073657474696E677327206F6E636C69632D
:10980C006B3D27636C69636B273E3C7461626C65CE
:10981C00207374796C653D2777696474683A2031DC
:10982C00303025273E3C74723E3C7464207769646A
:10983C0074683D27313025273E3C6C6162656C3E77
:10984C00436F6C6F7220547970653C2F6C6162654C
:10985C006C3E3C2F74643E3C746420636F6C73707C
:10986C00616E3D2733273E3C73656C6563742069DC
:10987C00643D27435427206E616D653D2743542773
:10988C00207374796C653D2777696474683A20316C
:10989C0030302527203E3C6F7074696F6E207661E6
:1098AC006C75653D273037273E4A5045473C2F6F36
:1098BC007074696F6E3E3C6F7074696F6E20766168
:1098CC006C75653D273033273E5261774772617363
:1098DC0063616C65386269743C2F6F7074696F6E6C
:1098EC003E3C6F7074696F6E2076616C75653D27B8
:1098FC003036273E526177436F6C6F723136626936
:10990C00745247423536353C2F6F7074696F6E3E1A
:10991C003C6F7074696F6E2076616C75653D273095
:10992C0038273E526177436F6C6F723136626974BF
:10993C004372594362593C2F6F7074696F6E3E3C91
:10994C002F73656C6563743E3C7464207769647432
:10995C00683D27313025273E3C6C6162656C3E4387
:10996C006F6E74726173743C2F6C6162656C3E3CFB
:10997C002F74643E3C74643E3C73656C6563742068
:10998C0069643D276362654327206E616D653D27E1
:10999C006362654327207374796C653D277769642E
:1099AC0074683A203130302527203E3C6F70746942
:1099BC006F6E2076616C75653D273030273E4D69A2
:1099CC006E3C2F6F7074696F6E3E3C6F7074696F74
:1099DC006E2076616C75653D273031273E4C6F7774
:1099EC003C2F6F7074696F6E3E3C6F7074696F6E54
:1099FC002076616C75653D273032272073656C6568
:109A0C00637465643D2774727565273E44656661B1
:109A1C00756C743C2F6F7074696F6E3E3C6F707414
:109A2C00696F6E2076616C75653D273033273E4833
:109A3C006967683C2F6F7074696F6E3E3C6F707411
:109A4C00696F6E2076616C75653D273034273E4D0D
:109A5C0061783C2F6F7074696F6E3E3C2F73656C30
:109A6C006563743E3C2F74643E3C746420726F7763
:109A7C007370616E3D2733273E3C696E70757420A0
:109A8C0069643D27636C69636B2720747970653D4D
:109A9C00277375626D6974272076616C75653D2737
:109AAC00436C69636B2127207374796C653D277750
:109ABC00696474683A31323070783B206865696744
:109ACC0068743A3630707827202F3E3C2F74643EF1
