:02000002D0002C
:1040000000400D00D4530D00000006000C00050117
:084010000401E80500000000B6
:04401800FC4F0D004C
:10401C0009480A49884208B505D0094A824202D0AB
:10402C00121A00F0A1FF0748074A0021121A00F0EB
:10403C00A6FF014808BD00BF8CE3032044530D00CC
:10404C00F4E30320F4E30320F0E7032070B500F061
:10405C00EDFA074C074BE41AA40800251E46A542AE
:10406C0004D056F8253098470135F8E770BD00BFED
:10407C0040530D00C4520D0000F013B808B500F009
:10408C0011F8BDE8084000F093BA00F07DB900F0DB
:10409C007BB90078B0FA80F04009704701230370B7
:1040AC0070477047704700F043B800F041B800F01B
:1040BC003FB800F03DB800F03BB800F039B800F064
:1040CC0037B800F035B870B505460C46084649B10E
:1040DC0000F086FF2B68024621462846DB68BDE8C7
:1040EC007040184770BD00F023B800F021B800F004
:1040FC001FB800F01DB800F01BB800F019B800F0A4
:10410C0017B800F015B800F013B800F011B80000A3
:10411C0008B5024B1B689B68019308BD680203003D
:10412C0008B5024B1B68DB68019308BD68020300ED
:10413C0008B5024B1B681B68019308BD2C020300D9
:10414C0008B5024B1B685B68019308BD180203009D
:10415C0008B5024B1B685B69019308BD180203008C
:10416C0008B5024B1B689B68019308BD480203000D
:10417C0008B5024B1B681B69019308BD480203007C
:10418C0008B5024B1B685B69019308BD480203002C
:10419C0008B5024B1B685B6C019308BD4802030019
:1041AC0008B5024B1B689B6C019308BD48020300C9
:1041BC0008B5024B1B685B69019308BD64020300E0
:1041CC0008B5024B1B681B68019308BD3C02030039
:1041DC0008B5024B1B68DB68019308BD3C02030069
:1041EC0008B5024B1B681B69019308BD3C02030018
:1041FC0008B5024B1B685B69019308BD3C020300C8
:10420C0008B5024B1B689B69019308BD3C02030077
:10421C0008B5024B1B68DB69019308BD3C02030027
:10422C0008B5024B1B689B6A019308BD3C02030056
:10423C0008B5024B1B681B68019308BD4C020300B8
:10424C0008B5024B1B681B69019308BD4C020300A7
:10425C0008B5024B1B685B69019308BD4C02030057
:10426C0008B5024B1B689B69019308BD4C02030007
:10427C0008B5024B1B68DB69019308BD4C020300B7
:10428C0008B5024B1B681B6A019308BD4C02030066
:10429C0008B5024B1B685B68019308BD2002030044
:1042AC0008B5034B1B68D3F88830019308BD000098
:1042BC002002030008B5034B1B68D3F8943001931C
:1042CC0008BD00002002030008B5024B1B685B68A8
:1042DC00019308BD4002030008B5024B1B689B68A4
:1042EC00019308BD4002030008B5024B1B68DB6854
:1042FC00019308BD4002030008B5024B1B681B6903
:10430C00019308BD4002030008B5024B1B685B69B2
:10431C00019308BD4002030008B5024B1B689B6962
:10432C00019308BD4002030008B5024B1B68DB6912
:10433C00019308BD4002030008B5024B1B681B6AC1
:10434C00019308BD4002030008B5024B1B681B6BB0
:10435C00019308BD4002030008B5024B1B685B6B60
:10436C00019308BD4002030008B5024B1B68DB6BD0
:10437C00019308BD4402030008B5024B1B681B687F
:10438C00019308BD1C02030008B5024B1B685B6857
:10439C00019308BD1C020300002211464068FFF780
:1043AC00CBBF002211464068FFF7D6BF0022406801
:1043BC00FFF7CABF002281F001014068FFF7B4BFCC
:1043CC0000231A4619464068FFF7A6BF00231A4679
:1043DC0019464068FFF798BF002211464068FFF766
:1043EC008BBF002211464068FFF776BF00220221E6
:1043FC004068FFF779BF00231A464068FFF764BF97
:10440C00024B03225A60024A1A607047F8E30320F9
:10441C0018500D0010B50446006818B1FFF7B4FF32
:10442C000023236010BD10B50446FFF7F3FF2046B0
:10443C0010BD000010B5094C00204FF6FF73206032
:10444C00A080A07120816381FFF722FF2046044ADF
:10445C000449BDE8104000F029BC00BF00E4032073
:10446C00F4E3032033440D0010B50446006808B192
:10447C00FFF796FE204610BD10B5064C00232046D3
:10448C002360FFF785FE2046034A0449BDE810402F
:10449C0000F00CBC0CE40320F4E3032075440D0085
:1044AC00F8B506460D468F180024BD420CD0336873
:1044BC0015F8011B9B6830469847002801DB044423
:1044CC00F3E7002C08BF04462046F8BD03689B6840
:1044DC00184730B58BB00B4600218DF82410012AFB
:1044EC0098BF0A220DF12304B3FBF2F505FB12333E
:1044FC0003F0FF03092B94BF30333733DBB2214673
:10450C0004F801392B46002DEED1FFF7DCFD0BB082
:10451C0030BD0000014B024A1A60704710E40320C2
:10452C00B7500D00024B1A68024B1A60704700BF5F
:10453C008CE3032014E4032010B58368044613B104
:10454C00032201469847204610BD10B50446FFF7DC
:10455C00F3FF204610BD00000348044A0449002321
:10456C00836000F0A3BB00BF18E40320F4E3032036
:10457C0057450D0008B50C4B33B100F053F90368E7
:10458C001B699847002809DC084B63B100F0C8F997
:10459C0003681B699847002803DC08BDAFF3008053
:1045AC00F2E7AFF3008008BD00000000000000003F
:1045BC0008B5FFF7DFFFFFF7CBFD014B186008BD17
:1045CC004CE703200248034A0349121A00F0CCBC02
:1045DC0000F4032004F4032040530D0007B500231E
:1045EC0000931A466FF07701FFF764FE03B05DF895
:1045FC0004FB000007B543880A2B08D0502B09D1C7
:10460C00094B1B683BB103B05DF804EB1847FFF78F
:10461C00E5FF06E0002300931A466FF07701FFF7E1
:10462C0049FE03B05DF804FB28E4032038B5104CB8
:10463C00104D2368AB42104B0CBF012200221A70A4
:10464C0002D0FFF7BFFF2560FFF77AFD044600F0AC
:10465C009FFC0A4B13B12046AFF3008000210748A2
:10466C00FFF782FE00210648BDE83840FFF718BE70
:10467C0000F403201E1C279A2CE4032000000000E9
:10468C0001460D00704710B51821044600F013FBCD
:10469C00204610BDF0B5037D062B8DB00E4600F103
:1046AC0004074FF0000402D000F1080518E00CAD2F
:1046BC00394605F8304D2F232A460A20FFF778FD9E
:1046CC00284600F08DFC33680246DB6829463046EC
:1046DC0098470FE024B12E213046FFF7F7FE044433
:1046EC0015F8011D0A223046FFF7F3FEBD420444C3
:1046FC00F0D120460DB0F0BD10B5054B044611228B
:10470C0040F8043B002100F03AFC204610BD00BFED
:10471C0058510D000346074A10B543F8042B01F11C
:10472C00100251F8044B43F8044B9142F9D10A782A
:10473C001A7010BD58510D0010B59DF8084044EA90
:10474C00032343EA024242EA0161042341600375F8
:10475C0010BD37B50D788B784A78C9780091294609
:10476C00FFF7EAFF03B030BD41747047704708B5DE
:10477C000021007CFFF774FD30EA200028BF4FF0C9
:10478C00FF3008BD08B50121007CFFF769FD30EA58
:10479C00200028BF4FF0FF3008BD08B5007CFFF7A4
:1047AC0057FD20EAE07008BD08B5007CFFF748FD16
:1047BC0020EAE07008BD007CFFF762BD10B5142143
:1047CC00044600F078FA204610BD38B50446007C4B
:1047DC000D46FFF73DFD002801DC607C28B1294621
:1047EC00207CFFF745FD20EAE07038BD10B504468B
:1047FC00002363604FF47A73A360054B236001239D
:10480C000846217463741146FFF712FD204610BD53
:10481C006C510D0010B514220446002100F0AFFBC2
:10482C00204610BD30B50E4D87B001A8FFF7F2FF42
:10483C00296811F0010410D12846FFF72AFC60B159
:10484C0001AA21460748FFF7D1FF2846FFF726FCAF
:10485C00054A0649034800F029FA024807B030BD62
:10486C0030E4032034E40320F4E3032079470D0003
:10487C0070474174704708B5007CFFF7D1FC20EA03
:10488C00E07008BD08B5007CFFF7AAFC20EAE070D8
:10489C0008BD08B5007CFFF7B3FC30EA200028BF48
:1048AC004FF0FF3008BD08B5007CFFF7A1FC30EAE3
:1048BC00200028BF4FF0FF3008BD007CFFF7A8BCDC
:1048CC0010B51421044600F0F6F9204610BD70B561
:1048DC00457C04460E4625B9007CFFF7A1FC002858
:1048EC0005DD3146207CBDE87040FFF771BC2846E1
:1048FC0070BD000010B504460846114600226260E7
:10490C004FF47A72A260054A22600122207462740C
:10491C001A46FFF755FC204610BD00BF9C510D00F8
:10492C0038B50C4D296811F0010411D12846FFF758
:10493C00B0FB68B1084A094B09482146FFF7DAFF7A
:10494C002846FFF7ABFB074A0749054800F0AEF9CC
:10495C00034838BDE0E40320E4E403205CE40320D6
:10496C0048E40320F4E303207D480D0000221146A7
:10497C004068FFF7E1BC002211464068FFF7ECBC31
:10498C0000224068FFF7E0BC002281F00101406882
:10499C00FFF7CABC00231A4601214068FFF7BCBCD4
:1049AC0000231A4619464068FFF7AEBC0022114698
:1049BC004068FFF7A1BC002211464068FFF78CBC91
:1049CC00002202214068FFF78FBC00231A46406882
:1049DC00FFF77ABC38B5054688B104684CB1A368BA
:1049EC001BB103222146204698471021204600F097
:1049FC0062F928461421BDE8384000F05CB938BD96
:104A0C0010B103685B681847704710B5036804461B
:104A1C00BBB15868FFF7A4FB78B923685A7C12B96C
:104A2C005868FFF7A5FB23685868FFF7A9FB2068B7
:104A3C000023236028B1FFF7CDFF206808B1FFF7F2
:104A4C00C9FF204610BD38B50446D0F8C40108B1E2
:104A5C00FFF71DFBD4F8C00108B1FFF7A1FBD4F898
:104A6C00BC5135B12846FFF7D0FF0421284600F091
:104A7C0022F9206808B1FFF7C3FF204638BD0000BB
:104A8C0010B5044B044640F8083BFFF7DCFF20460A
:104A9C0010BD00BFCC510D0038B50E4C0E4B236031
:104AAC000025022304F5E4706360A560C4F8C451CA
:104ABC00C4F8C851FFF76CFB084BC4F8CC5184F810
:104ACC00D05123602046064A0649BDE8384000F024
:104ADC00EDB800BF68E5032034520D00CC510D0039
:104AEC00F4E303208D4A0D00002211464068FFF7C5
:104AFC0003BC002211464068FFF71EBC0022114681
:104B0C004068FFF729BC00224068FFF71DBC00225B
:104B1C0081F001014068FFF707BC00231A461946D3
:104B2C004068FFF7F9BB00231A4619464068FFF7A7
:104B3C00EBBB002211464068FFF7CEBB00220221DE
:104B4C004068FFF7D1BB00231A464068FFF7BCBB97
:104B5C00024B04225A60024A1A6070473CE7032059
:104B6C0000520D0000231A464068FFF7ADBB00222F
:104B7C0002214068FFF7B8BB002211464068FFF7DE
:104B8C00ABBB002211464068FFF7B6BB00231A46A8
:104B9C0019464068FFF7B8BB00231A46194640680F
:104BAC00FFF7BABB002281F001014068FFF7BCBBE4
:104BBC0000224068FFF7C8BB002211464068FFF78F
:104BCC00CBBB002211464068FFF7B6BB2DE9F04382
:104BDC00002495B016460D460746FFF78DFD21467D
:104BEC0020220CA8009400F0CAF940230C93214613
:104BFC006B460CAA3046FFF793FA0446002844D1C2
:104C0C00024601216868FFF777FB022180462246A5
:104C1C006868FFF771FB009E81462146002E34D058
:104C2C00002932D17368022B02D00A2B09D02AE05A
:104C3C00B8F1000F27D0716938460431FFF789FDB0
:104C4C0020E0B9F1000F1ED07469112201A800F008
:104C5C0096F906238DF8143001AD04F108031834CD
:104C6C00186859682A4603C20833A3421546F7D17F
:104C7C0001A906A807ADFFF74DFD0FCD3C1D0FC4D4
:104C8C002B6823700121F669C8E70098FFF740FAFA
:104C9C00384615B0BDE8F083024B034A1A60002277
:104CAC005A60704744E7032034520D000B4601460E
:104CBC00184600F04BB9FFF7E8B90000184B1A681A
:104CCC00D1075CBF01221A60164B1A68D2075CBF71
:104CDC0001221A60144B1A68D0075CBF01221A60BB
:104CEC00124B1A68D1075CBF01221A60104B1A686C
:104CFC00D2075CBF01221A600E4B1A68D0075CBF4A
:104D0C0001221A600C4B1A68D1075CBF01221A6091
:104D1C000A4B1A68D2075CBF01221A60704700BFA9
:104D2C006CE7032068E7032064E7032060E70320B7
:104D3C005CE7032058E7032054E7032050E70320E7
:104D4C00244B1A68D0075CBF01221A60224B1A68E8
:104D5C00D1075CBF01221A60204B1A68D2075CBFD6
:104D6C0001221A601E4B1A68D0075CBF01221A6020
:104D7C001C4B1A68D1075CBF01221A601A4B1A68C7
:104D8C00D2075CBF01221A60184B1A68D0075CBFAF
:104D9C0001221A60164B1A68D1075CBF01221A60F7
:104DAC00144B1A68D2075CBF01221A60124B1A68A6
:104DBC00D0075CBF01221A60104B1A68D1075CBF88
:104DCC0001221A600E4B1A68D2075CBF01221A60CE
:104DDC00704700BF9CE7032098E7032094E703206B
:104DEC0090E703208CE7032088E7032084E7032067
:104DFC0080E703207CE7032078E7032074E7032097
:104E0C0070E70320244B1A68D0075CBF01221A609C
:104E1C00224B1A68D1075CBF01221A60204B1A681A
:104E2C00D2075CBF01221A601E4B1A68D0075CBF08
:104E3C0001221A601C4B1A68D1075CBF01221A6050
:104E4C001A4B1A68D2075CBF01221A60184B1A68F9
:104E5C00D0075CBF01221A60164B1A68D1075CBFE1
:104E6C0001221A60144B1A68D2075CBF01221A6027
:104E7C00124B1A68D0075CBF01221A60104B1A68DB
:104E8C00D1075CBF01221A600E4B1A68D2075CBFB7
:104E9C0001221A60704700BFCCE70320C8E703204B
:104EAC00C4E70320C0E70320BCE70320B8E70320D6
:104EBC00B4E70320B0E70320ACE70320A8E7032006
:104ECC00A4E70320A0E70320184B1A68D1075CBFA6
:104EDC0001221A60164B1A68D2075CBF01221A60B5
:104EEC00144B1A68D0075CBF01221A60124B1A6867
:104EFC00D1075CBF01221A60104B1A68D2075CBF45
:104F0C0001221A600E4B1A68D0075CBF01221A608E
:104F1C000C4B1A68D1075CBF01221A600A4B1A6845
:104F2C00D2075CBF01221A60704700BFECE7032078
:104F3C00E8E70320E4E70320E0E70320DCE70320B5
:104F4C00D8E70320D4E70320D0E7032010B5054CA5
:104F5C0013462CB10A4601460220AFF3008010BD67
:104F6C00204610BD0000000010B5431E0A449142BB
:104F7C0004D011F8014B03F8014FF8E710BD0244BF
:104F8C000346934202D003F8011BFAE77047000076
:104F9C0038B5124B1C68A36B0546D3B91820FFF724
:104FAC00EBF943F20E33A06303804AF6CD33438012
:104FBC0041F2342383804EF26D63C3804DF6EC6373
:104FCC000381052343810B23838101220023C0E944
:104FDC000423A36B00221D615A6138BDF0E303204A
:104FEC00034613F8012B002AFBD1181A013870471D
:104FFC001D400D0059400D0085400D0089400D00ED
:10500C0000000000000000000000000003440D0040
:10501C00F9430D00EF430D00E5430D00D9430D009E
:10502C00CD430D00C1430D00B9430D00AF430D003E
:10503C00A5430D00D94B0D00626175640053657278
:10504C0069616C0053657269616C310074797065CB
:10505C0000706172616D00636D6400696400686E5C
:10506C0064007374726D0066696C74006C766C000D
:10507C0061646448616E646C65720072656D6F7614
:10508C006548616E646C657200656E756D48616E25
:10509C00646C657273004A534F4E53747265616D44
:1050AC004C6F6748616E646C6572006170700025AE
:1050BC003031307520005D20002564002C20002844
:1050CC00293A2000205B00636F6465203D20002599
:1050DC00690064657461696C73203D20000D0A00E1
:1050EC0066006C6E00666E00636F646500646574C8
:1050FC0061696C006E6F6E65007472616365006946
:10510C006E666F007761726E006572726F720070FE
:10511C00616E696300616C6C005A00252B3033643E
:10512C003A253032750025592D256D2D25645425D1
:10513C00483A254D3A2553257A0061736374696D9D
:10514C00650000000000000000000000A1460D00FA
:10515C0091460D0093460D00000000000000000079
:10516C0079470D00C9470D00D7470D00AD440D0020
:10517C00B5470D007B470D0091470D00C3470D004F
:10518C00A7470D0075470D0000000000000000004F
:10519C007D480D00CD480D00DB480D00AD440D00E1
:1051AC0091480D00B3480D009F480D00C7480D00F5
:1051BC007F480D0083480D00000000000000000037
:1051CC00D7490D00CD490D00C3490D00B9490D005B
:1051DC00AD490D00A1490D0095490D008D490D00FB
:1051EC0083490D0079490D00D94B0D0000000000DA
:1051FC0000000000534B0D00494B0D003F4B0D00C0
:10520C00F54A0D00334B0D00274B0D001B4B0D00C9
:10521C00134B0D00094B0D00FF4A0D00D94B0D002F
:10522C000000000000000000714B0D007B4B0D00D6
:10523C00854B0D008F4B0D00994B0D00A54B0D00B0
:10524C00B14B0D00BD4B0D00C54B0D00CF4B0D00F0
:10525C00D94B0D0000000000000000000000000011
:10526C000000000000000000000000000000000032
:10527C000000000000000000000000000000000022
:10528C000000000000000000000000000000000012
:10529C000000000000000000000000000000000002
:1052AC0000000000000000000000000000000000F2
:1052BC000000000043000000B3400D00B7400D009B
:1052CC00BB400D00BF400D00C3400D00C7400D009A
:1052DC00CB400D00CF400D00F3400D00F7400D000A
:1052EC00FB400D00FF400D0003410D0007410D0078
:1052FC000B410D000F410D0013410D0017410D0026
:10530C000D440D0041440D0085440D0021450D0058
:10531C0031450D0065450D00A54A0D005D4B0D0096
:10532C00A54C0D00C94C0D004D4D0D00114E0D003E
:04533C00D54E0D003D
:045340000000000069
:1053440046510D000000000060520D0080520D0017
:10535400A0520D000000000000000000000000004A
:1053640000000000C0520D0000000000000000001A
:105374000000000000000000000000000000000029
:105384000000000000000000000000000000000019
:105394000000000000000000000000000000000009
:0853A4000000000090E303206B
:1053AC00FFFFFFFF00000102030405060708090ABE
:1053BC000B0C0D0E0F101112131415161718191AB9
:0853CC001B1C1D1E1F20280000
:0453D40078563412C1
:04000003D000401CCD
:00000001FF
