:02000002D0002C
:1040000000400D00047C0D00000006000C000501BE
:084010000401E80500000000B6
:04401800F0740D0033
:10401C0009480A49884208B505D0094A824202D0AB
:10402C00121A03F0E2F90748074A0021121A03F0AA
:10403C00E7F9014808BD00BF70DE0320647B0D006A
:10404C00E8DE0320E8DE0320F0E7032070B502F081
:10405C00FDFB074C074BE41AA40800251E46A5429D
:10406C0004D056F8253098470135F8E770BD00BFED
:10407C005C7B0D00E07A0D0000F0C8B908B500F0CB
:10408C006AF8BDE8084002F0A3BB02F037B902F0B1
:10409C0035B90078B0FA80F04009704701230370FD
:1040AC00704770477FB5024608461379956833B15F
:1040BC003DB90C4904B0BDE8704002F08FBA0A4B10
:1040CC0000E00A4B167B0A4C0A49527B0292012EE5
:1040DC0008BF214601910095074A002102F0C1FA60
:1040EC0004B070BD4B750D00DB780D003A750D00FA
:1040FC0043750D0047750D0061750D00083000F01B
:10410C00E1BF10B52C21044602F0F6FF204610BD8D
:10411C0007B502AB012203F8011D0830194600F067
:10412C00D1FF03B05DF804FB0EB400B58CB00DAA42
:10413C00202352F8041B03928DE8060004930168B7
:10414C00002304AA0120059302F044F80CB05DF89A
:10415C0004EB03B07047704710B502F077FC0B49C5
:10416C0002F03CFA05210A4801F082FE041E05DA31
:10417C002D21084802F036FA614200E021460A225D
:10418C000448BDE8104002F04CBA00BF7F750D002A
:10419C0024DF0320F8DE032008B5044602F056FCA9
:1041AC0094F8603405462BB31A4902F038FA94F8A7
:1041BC006034202B03D11849284602F030FA94F8C9
:1041CC0060341BB31549284602F00FFA102294F8FC
:1041DC006014284602F025FA1149284602F005FA27
:1041EC00102294F86914284602F01BFA284602F0B3
:1041FC0000FA0BE0E3790BB90A4905E094F83C347A
:10420C000BB9094900E0094902F009FA01F0F2FE84
:10421C00FCE700BF98750D00BF750D00EF750D0024
:10422C0000760D0004760D0021760D003C760D0015
:10423C000A46002102F015BA70B53C4C23788AB0BE
:10424C00002B70D002F002FC39493A4DFFF7F0FF19
:10425C0000260023374A38498DF8046001A88DF8F0
:10426C00056000F0E0FE98B16B79392B02D0013378
:10427C006B71EEE72B79392B04D0302201336A7144
:10428C002B71E6E702F0E2FB2C4902F0BEF9FEE7E7
:10429C002B49284A09682B4840F6012300F0C3FE3D
:1042AC0020B902F0D3FB284902F0AFF902F0CEFBA3
:1042BC00204B264A264D002102F0D3F901F082FE54
:1042CC00244B1860237873B302F0C0FB224902F030
:1042DC0085F9FFF741FF1B4800F068FEE8B16B7AE7
:1042EC00DB071AD44FF4FA71642002F0AEFC02F032
:1042FC0031FA00231348237000F08EFE02F0A6FB67
:10430C001649FFF795FF4FF4FA6002F023FA02F01A
:10431C009DFB1349FFF78CFFD4E702F097FB114983
:10432C00FFF786FFDEE70AB070BD00BF40DF032059
:10433C004C760D0070DE032080E3032064760D00C4
:10434C00CCE3032000DF03207B760D0085760D0087
:10435C00F8DE0320C8E303201F760D0096760D00CF
:10436C009D760D00B7760D007FB5214A214C0023B8
:10437C001370214A009204F58C66204A8DF80430A3
:10438C00029201258DF80D300E226B4604F26C4121
:10439C0030468DF80C5001F0DDF930B304F23C409E
:1043AC00266000F039FE2946204601F07CF80146D3
:1043BC0040B1104C04F23C452146284600F057FC15
:1043CC0098B105E0204601F06EF80028F1D10CE020
:1043DC0094F83C3413F0700F07D0094B09490A4884
:1043EC001D60FFF725FF04B070BD0248FFF7D4FE37
:1043FC0040DF032044DF03200C750D0080F0FA022F
:10440C00CCE30320C5760D00F8DE032037B502F0AF
:10441C001DFB4FF4165102F00DFB244D244C02F001
:10442C00A1FB4FF4165102F093FBFFF79DFF012106
:10443C00072002F0E9FD1F4A1F492846FFF774FECA
:10444C00A06902F088FB642002F084F9A0694FF4A3
:10445C00E13102F07DFBA168A06902F051F9642002
:10446C0002F078F9204601F0EDFC28461349FFF7DD
:10447C005BFE07230193009300220121204601F0EB
:10448C007BFC28460E49FFF74FFE0022019200925A
:10449C0001230521204601F06FFCA06802F05AF9B7
:1044AC0003B0BDE83040FFF7C7BE00BFF4E3032004
:1044BC0024DF032035750D00E1760D00ED760D003F
:1044CC0028750D0070B501F005FD02F04BFB234B78
:1044DC00234E186013225A604FF4FA729A604021EE
:1044EC0000221982DA605A821A7598611D4B642178
:1044FC0083F860141C49C3F87014012183F87414F8
:10450C003168DA7111F0010583F83C2483F83D24FD
:10451C0083F86A24C3F8782483F87C2483F87D24F8
:10452C001C460AD13046FFF7B4FD30B129460F487E
:10453C0001F038FF3046FFF7B1FD0D480B4BC4F8C6
:10454C006C3400230372437243600A4B03600A4AC3
:10455C000A49BDE8704002F0C1BD00BF24DF032052
:10456C00ECDE032044DF03200C750D00F0DE03208D
:10457C00F8DE032018750D00E8DE0320AF400D00B7
:10458C0001F0A8BC01F0A6BC10B50446243000F024
:10459C007BFE28B104F50C70BDE8104000F074BE31
:1045AC0010BD411E00F10A020020430843EAC0106E
:1045BC0011F8013F53FA80F08A42C0B2F5D170472E
:1045CC002DE9F0470378202B00F1010401D120469E
:1045DC00F8E7704F886005462C1A2E4615F8013BFB
:1045EC000BB32F2B01D1031917E05C2B02D1002048
:1045FC00BDE8F087A3F12204E4B21D2C03D827FAFE
:10460C0004F4E407F3D403F0BF043C2CEFD0203BBC
:10461C005E2BE1D9EBE72F2D05D11E4613F8015B7C
:10462C00202DF8D1F9E7166003199842C0EB030866
:10463C0009D013F8012D2E2AF7D0202AF5D0B8F185
:10464C00FF0FD4DC01E04FF00008C1F8048001F149
:10465C000C0301F11702202403F8014F9342FBD104
:10466C0003461A1A13F8014B2E2CFAD0202CF8D032
:10467C00B2FA82F4640908F1FF36731C07D10027E3
:10468C004FF0070E3D46BA464FF0080909E0835D2E
:10469C002E2BF4D0013EF0E7835C202B04D10024B8
:1046AC0001324245F8DB4BE02E2B02D1B242F6D15F
:1046BC0003E0222B17D07C2B15D0A3F12A0CBCF1D4
:1046CC00050F01D82D2B0ED1A3F13A0CBCF1050F1F
:1046DC0009D9A3F15B0CBCF1020F04D9A3F1210C95
:1046EC00BCF15D0F02D9B2420ED149E0B24247D0C3
:1046FC00754521D8A3F1610CBCF1190F08D8203BEA
:10470C00DBB249EA07070AE0754515D800245F2398
:10471C00A3F1410CBCF1190F98BF49EA0A0A05F143
:10472C00010C5FFA8CFC0D44BCF1060F6B7301D8C5
:10473C0081F80CC06546B3E7BEF10A0F17D100240F
:10474C004B7B202B3FF453AF3CB11AEA070F18BF39
:10475C0002270F700120BDE8F0870B7B0120087049
:10476C0019447E234B7331238B73BDE8F087B2421F
:10477C00E5DC32464FF00A0E08254FF010098EE7A3
:10478C00BEF10A0FDBD032464FF00A0E08254FF06F
:10479C00100985E7010100312DE9F84391F80C90DF
:1047AC0006460D4602247E2701F10D086968AA68A9
:1047BC0063189BB21144914206D012F8010B03EB23
:1047CC00431343409BB2F6E7B9F1030F28BF4FF0F8
:1047DC00030909F10402D2B203F00F01A818013A3F
:1047EC000929D2B294BF30313731914541734FEA28
:1047FC001313F1D305EB090300215F73304600F06E
:10480C001EFB0121304600F0FDFA014628B97078F4
:10481C00B0FA80F04009BDE8F88303784BB1C37A55
:10482C001B07EED40B22404602F0D0FD0028E8D145
:10483C0002E00120BDE8F8830134A4B2642CB5D1A8
:10484C00BDE8F8832DE9F04F9B460B7889B013F047
:10485C00700F05900E46914601D10020A0E1059BFA
:10486C001B78002BF9D15368029313789B0700F047
:10487C008D81029B0D270C33B3FBF7F70137FFB289
:10488C000021304600F0DBFA4FF0000809F10D0270
:10489C00CDF80C80434644464546CDF81080069230
:1048AC007269079301213046C2F34F1A00F0AAFA3D
:1048BC00079B20B97378002B00F09080CDE702782D
:1048CC00E52A00D042B9002C08BFD046BC423CBF00
:1048DC000134E4B222B981E0BC4238BF002403E0C9
:1048EC00E52A01D10025DBE72E2AFBD0C17A0F295E
:1048FC0052D13DB95106D3D5437B039302F01F052A
:10490C002B4607E0013BDBB29A42EBD1427B039989
:10491C009142E7D15A1E4FF00D0C0CFB02FC029A8F
:10492C006245DFD94FF0000EBEF1040F5FFA8EF234
:10493C0004D800EB4E02B2F801200CE00A2A95BF15
:10494C000EF1FF320EF1010200EB420200EB4202CB
:10495C0094BFD28892880299614503D1002A18BF6E
:10496C0000259DE7FF2ABDD8D2B2A2F14101192939
:10497C00D9F8081011F80C1098BF20320CF1010A6C
:10498C00A1F1410C98BFD2B2BCF1190F9CBF2031E0
:10499C00C9B29142A6D1FBE00907A3D44DB1012BBA
:1049AC007FF45BAFFFF7FDFD039B83427FF455AFB4
:1049BC000FE00B220699079302F008FD079B0028D5
:1049CC007FF46EAF99F80020D20702D50122049231
:1049DC0066E71BF4006F00F0D1803EE71BF4007F0C
:1049EC003FF43BAF0BF00303013B012B3FF635AF1C
:1049FC00002C08BFD046BC4202D3049BCBB91FE0AD
:104A0C000021304600F0FEF910B973785BB124E751
:104A1C000134E4B2EFE7B3681B79012BEDD8103405
:104A2C00E4B2A742E9D9304600F0D2F80028F2D11E
:104A3C0013E749463046FFF7AFFE00283FF40DAFB1
:104A4C004FEA4811304600F0FAF900283FF405AF60
:104A5C007D1EEDB22C464FF0000A4FF00F0841E0DE
:104A6C000021304600F0CEF9074600283FF4F5AEA1
:104A7C00B26892F82430AC4243F0010382F824303F
:104A8C000CBF44F040022246027080F80B8080F884
:104A9C000CA009F10D000392FFF783FD039A7873C4
:104AAC0087F81AA087F81BA002F01F020D23013A09
:104ABC00D9F808E05A4300230299914215D91EF8FF
:104ACC000210042B5FFA83FC03F1010013D807EBEF
:104ADC004303A3F801100D2802F101020346EBD1A8
:104AEC00013CE4B2002CBBD10EE014BF4FF0FF31FF
:104AFC00002189B2E5E7BCF10A0F94BF07EB430331
:104B0C0007EB40039980E6E7736921463046C3F30F
:104B1C004F1A00F077F9074600283FF49EAE20228A
:104B2C00214602F06DFC4B4653F80D2F3A605A6843
:104B3C007A601A893A819B7ABB7299F8003003F03B
:104B4C0018033B73184B1B682BB107F10E0107F1CF
:104B5C001000984706E021233B7428237B7408231C
:104B6C00BC73FB733B8A7B823B83FB89FB82B26801
:104B7C0092F8243043F0010382F8243000955B4610
:104B8C0052463146059800F0A3F909E0012777E673
:104B9C000EF1010EBEF10D0F3FF482AED446C3E60A
:104BAC0009B0BDE8F08F00BFD0E3032001F092B94B
:104BBC0001F090B901F08EB901F08CB983780169DC
:104BCC0043F00403837000F11002806800F012BC03
:104BDC002DE9F041037803F02003044603F0FF05B0
:104BEC000BB100262EE04269184B9A42F9D8FFF718
:104BFC00E5FF06460028F4D02169A06800F08FFB81
:104C0C000746A06805223946243000F064FB804634
:104C1C000028E6D029464FF4007202F0F1FB012582
:104C2C00A3681A79AA4209D94246E919186800F012
:104C3C00CFFE0028D5D00135EDB2F1E7636903EB67
:104C4C00422363613046BDE8F08100BFFFFD1F00C9
:104C5C0010B5044680680A462430A16900F03BFB7D
:104C6C0020B1A38803F00F0300EB431010BD70B507
:104C7C00047805460E4684B92422214602F0C0FB76
:104C8C00AE60F379102B03D0202B06D1402300E02B
:104C9C00202301202B70A87070BD002070BD2DE961
:104CAC00F74F03780446894615464BB18278D107F5
:104CBC0006D50CE05A46216900F037FB00283DDA96
:104CCC00637843F0020363704FF0FF3097E01A07EC
:104CDC0003D5E36962699B1A07E09A0608D5A368B5
:104CEC001A896369C3EB42139BB29D4228BF1D46D0
:104CFC002E464FF0000804F1100B002E35D0227810
:104D0C006369A06812F0200FC3F3080A4FEA53211D
:104D1C0002D0036A19441DE090F8058001EA0808E6
:104D2C00BAF1000F10D1B8F1000F0DD1002BC1D189
:104D3C0053064CBF036A236A236105E004D1237830
:104D4C0013F0700F11D1BBE72169A06800F0E7FAEE
:104D5C0008EB0001A068BAF1000F35D1B6F5007F61
:104D6C0032D3C36A994202D12EE0A81B47E0B6F5B4
:104D7C00806F1BD3227897064FEA562A06D4027905
:104D8C00C8EB0202D2B2924528BF924699424FEA32
:104D9C004A2707D2A06853464A46006800F0D6FD61
:104DAC0060B98DE75344994221D3F3E74A46006832
:104DBC0000F084FD002883D04FF4007763693B44F6
:104DCC00B9446361F61B98E70022243000F083FAA3
:104DDC0000283FF475AFCAF50077B74228BF3746B5
:104DEC0000EB0A013A46484602F0FFFAE6E72430A7
:104DFC00019100F049FA01990028CBD160E703B08A
:104E0C00BDE8F08F37B54369C3F34315044605B1CC
:104E1C0069B901220DF107012046FFF740FF40B2AE
:104E2C00012801D0002008E063691F3300E0203323
:104E3C00A0686361303000EB451003B030BD2DE944
:104E4C00F0410E46017807690446002939D04569BE
:104E5C00B5423AD00EB9066131E00B0703D5C369F0
:104E6C009E422ED807E0880605D5A3681B89B6EBB1
:104E7C00431F26D823E0D4F808E09EF806306A1EBB
:104E8C0003F10900731EC240C3409A4200D84DB9C9
:104E9C004A064CBFDEF82020226A22611D4604F12E
:104EAC0010080AE09B1AF9E742462169A06800F055
:104EBC003CFA002805F1FF3503DD002DF4D16661C5
:104ECC0003E027610020BDE8F0810120BDE8F081FE
:104EDC00F8B50F4615460021242204461E4602F062
:104EEC008FFAB868A06005F00F02A58000F13001C0
:104EFC0052013B6AE3601144CB7A1D074CD48318F2
:104F0C0093F83B3003F017032370C97A11F0180F94
:104F1C0004BF43F0080323709DF81830E37006F0CB
:104F2C000303012B09D0022B05D0002B34D17105C2
:104F3C0032D4012302E0032300E00223A370A17802
:104F4C008B0703D5237813F0110F25D14BB216F430
:104F5C00005F06F0080114BF6FF07F0700271943AC
:104F6C003943A170C36AA36102447505B2F84410B9
:104F7C00B2F84A3043EA014104D581B100F075FA28
:104F8C0068B909E02162D36CE36173040CD5E16963
:104F9C002046FFF754FF38B900202070F8BDA378E5
:104FAC0043F00403A370F0E70120F8BD38B5037893
:104FBC0004460BB9012038BD83785A0723D501214B
:104FCC00FFF746FE054628B9637843F0010363708A
:104FDC00002038BD0378E52BF6D023781B0744BF9F
:104FEC00E369C361238C4383638C8382094B1B6805
:104FFC002BB100F11601183098472B8B6B82A378DC
:10500C0023F00403A370A068FFF7BEFA0028DBD0DE
:10501C00D0E700BFD0E3032010B50446FFF7C6FF6E
:10502C000023237010BDF0B593B01F4600238DF8FC
:10503C0024308DF825300378019206460C460BB1CE
:10504C0000203DE00B7813F0700FF9D013782F2B64
:10505C0012D1019B1A782F2A02D101330193F8E760
:10506C00A1681AB93046FFF702FE29E009A8FFF73C
:10507C00FEFD0028E4D009AC01AA03A90198FFF7B2
:10508C009FFA0028DCD0019B1B789BB1002303AA5C
:10509C0021463046FFF7D6FB0028D1D035460FCD40
:1050AC0009AC0FC40FCD0FC42B6823603046FFF73B
:1050BC00B3FFE0E73B4603AA21463046FFF7C2FBAD
:1050CC0013B0F0BD2DE9F047037889461907044663
:1050DC00904608D583789A0705D51B070BD5E1694F
:1050EC00FFF7ADFE38B9637843F0010363704FF0FE
:1050FC00FF30BDE8F0876369DB439845F3D846463B
:10510C004FF0000A6369002E00F08180A06842799C
:10511C0012EA5325C3F308071CD1DFB9216971B119
:10512C0004F1100200F001F90028DCDB40F08E8065
:10513C002046FFF743FD002840F08880D3E7236A20
:10514C003BB92046FFF73AFD0028CCD023692362F7
:10515C0000E023612169A06800F0E1F8291817B973
:10516C00B6F5007F21D2C7F50075B54228BF35468C
:10517C0037B96369E269934234BF0122052200E02A
:10518C000122A068243000F0A6F80028ABD03844E7
:10519C002A4649462F4402F028F9B7F5007F30D152
:1051AC00A068243000F070F817E0B6F5806FA068A6
:1051BC0015D30279521B730AD2B2934228BF1346FD
:1051CC00C26A91424FEA432502D31A44914237D323
:1051DC00A7684A46386800F06DFC90B983E7C36A4B
:1051EC00994202BF4FF0FF3380F824A0C362A3683A
:1051FC004A46186800F0ECFB00283FF474AF4FF4FB
:10520C00007563692B446361A944761B7AE7E269F4
:10521C00934201D9E36102E00F4B1B681BB1A378E9
:10522C0043F00403A37094F90230002B02DB4046D8
:10523C00BDE8F0872046FFF7B9FE0028F7D152E70A
:10524C004FF0FF3280F824A0C262C1E72169A06848
:10525C0000F065F8014683E7D0E3032000F03ABE86
:10526C0070B505460C46084649B102F033F92B6877
:10527C00024621462846DB68BDE87040184770BDE1
:10528C0000F028BE00F026BE70B50378DA0704469D
:10529C001ED54368816800F10C063246186800F090
:1052AC0097FB054608B9002513E023789B0704D427
:1052BC00237823F0010323700BE06368A06819695D
:1052CC0032460144186800F083FB0028F0D1EAE76D
:1052DC000125284670BD70B583688B4204460E4686
:1052EC00154614D0FFF7D0FF08B9002070BD6B072E
:1052FC0003D500232370A66009E0636804F10C0257
:10530C003146186800F0DAFA0028F2D1EDE723787C
:10531C00204605F003051D4300F80C5B70BD837936
:10532C0040690239994008447047012970B5054617
:10533C000C46164602D84FF0FF3070BDC369994237
:10534C00F9D8C379202B10D18169022201EBD41139
:10535C0000F50C70FFF7BFFF0028ECD004F07F04C1
:10536C0050F8243023F070430FE0102BE3D1836905
:10537C00C1F307210222194400F50C70FFF7ABFFB3
:10538C000028D8D0E4B230F81430EA6993429ABFBE
:10539C0033600120002070BD012938B50C4615463C
:1053AC0001D8002038BDC3699942FAD8C379202BA3
:1053BC000ED18169032201EBD41100F50C70FFF7BB
:1053CC008AFF0028EDD004F07F0440F824500FE051
:1053DC00102BE6D18369C1F307210322194400F590
:1053EC000C70FFF778FF0028DBD0E4B220F81450E3
:1053FC00012038BD2DE9F341C4688C4205460E46A8
:10540C00904607D20C460027EB6901349C4203D925
:10541C00CFB9EC680127F7E7A64214D001AA2146C0
:10542C002846FFF782FF00280DDBEDD0019B002BF7
:10543C00EAD107B1EC606FF0704221462846FFF7C5
:10544C00ABFF074608B900270BE016B9C8F80040B7
:10545C0007E0224631462846FFF79EFF0028F5D18B
:10546C00F1E7384602B0BDE8F08173B505460C464D
:10547C0001AA21462846FFF758FF061E01DA002034
:10548C000FE0002221462846FFF786FF0028F6D0C1
:10549C00EB689C429CBF04F1FF34EC60019C002E35
:1054AC00E6D102B070BD70B5012304460022C36082
:1054BC004FF0FF33C2710D46A06280F82420C36206
:1054CC00C4F8340280F83022C0F83832A1B1042973
:1054DC005DD811462430FFF7FEFE002857D000EBB4
:1054EC00051393F8AE315B0651D11B3500EB051556
:1054FC00D5F80650002D4AD00022294604F124008C
:10550C00FFF7E9FE002842D0B0F80B30B3F5007F6E
:10551C003DD1037C022B3AD1C389002B37D0417B80
:10552C0021714B1E63710023A371092601238B4249
:10553C0007D0013E2BD0A2795B000132DBB2A27105
:10554C00F5E7C28A02B9426A2261C6892E44A66175
:10555C00B0F81130238106EB42012162B0F8112022
:10556C00520102F2FF1201EB62226261B0F81330B9
:10557C0003B9036AAD1A2B44A57923FA05F56B1C04
:10558C00E36140F6F4739D4203D80C23E3710020D1
:10559C0070BD4FF6F4739D4285BFC36A236210231E
:1055AC002023E371012070BD00F094BC00F092BC8C
:1055BC0000F090BC70B50E4C0E46154600F002FD86
:1055CC002368C01A0B4B984208D900F003FD0A4B14
:1055DC00186000F07BFE00F0F5FC206000F0FAFC97
:1055EC0080B2801BA842D4BF0020012070BD00BF38
:1055FC00D4E30320A086010030E7032038B5057AF8
:10560C0004464DB9406800F07DFA63682946187D60
:10561C0001F00BFD0123237238BD10B5037A04464B
:10562C006BB143680121187D01F0FFFCFF2160681C
:10563C0000F09AFA606800F079FA0023237210BD2A
:10564C00F8B504460D46164600F0C4FC87B26068F7
:10565C0000F06FFAFF28607209D14FF47A72394664
:10566C002046FFF7A7FF0028F1D055230BE0FE28BA
:10567C0001D0502307E032462946606800F05EFAFC
:10568C00607230B1602320462370FFF7C6FF002004
:10569C00F8BD606800F04DFA606800F04AFA01202D
:1056AC00F8BD70B504460E4600F094FC85B2324647
:1056BC0029462046FFF77EFF30B9606800F039FAC2
:1056CC00FF28F4D1012070BD002070BDF7B5037A1E
:1056DC00019204460D460BB9FFF790FF25B14FF42C
:1056EC0096712046FFF7DDFF45F04001606800F041
:1056FC003BFA0DF107060DF1030716F80119606866
:10570C0000F032FABE42F8D1002D0CBF9521872152
:10571C00606800F029FA606800F00BFA0B256068ED
:10572C0000F007FA0306607203D5013D15F0FF0582
:10573C00F5D103B0F0BD70B504460D4616463721C1
:10574C000022FFF7C3FF324629462046BDE87040D1
:10575C00FFF7BCBF2DE9F04100250572057085727D
:10576C004160044690461E4600F034FC4146074614
:10577C00606800F0CBF963684F4A1D724FF0010866
:10578C00DA605D7483F810802046FFF737FF63689A
:10579C004146187D01F049FC0A25FF216068013D56
:1057AC0000F0E2F915F0FF05F7D163682946187D82
:1057BC0001F03BFC0A25002211462046FFF786FF2C
:1057CC000128804612D0013D15F0FF0501D12023A0
:1057DC0057E0FD21606800F0C7F94FF4027860686B
:1057EC0000F0A7F9B8F10108F9D1E4E74FF4D5724C
:1057FC0008212046FFF76AFF052802D184F80A80A9
:10580C000FE00425606800F094F9013D15F0FF05E8
:10581C006072F7D1AA2802D10223A37201E02523DA
:10582C002FE0A37A022B0CBF4FF080450025BFB2AE
:10583C002A4629212046FFF77EFF024648B14FF445
:10584C00FA6239462046FFF7B5FE0028F0D0432314
:10585C0017E0A37A022B0ED02046FFF7DEFE63681A
:10586C00B0683479317B727B5A74D8601C721974AD
:10587C000120BDE8F0813A212046FFF727FF38B11F
:10588C00372320462370FFF7C8FE0020BDE8F081C7
:10589C00606800F04EF900F0C000C02804BF03237C
:1058AC00A372606800F045F9606800F042F9606826
:1058BC0000F03FF9D0E700BF90D0030038B5837AF1
:1058CC00032B18BF490215460A4611210446FFF75F
:1058DC00FDFE10B1302323700BE029464FF400720B
:1058EC002046FFF7ADFE054618B12046FFF795FEA2
:1058FC0003E02046FFF791FE0025284638BD10B581
:10590C00837A032B0A4618BF4A0212210446FFF77A
:10591C00DDFE30B1312320462370FFF77EFE0020E0
:10592C0010BD012010BD10B500220C210446FFF75C
:10593C00CDFE30B1282320462370FFF76EFE0020E9
:10594C0010BD2046FFF769FE012010BDF8B50546D5
:10595C0016461F46FFF7D3FF98B10024A3B29F420F
:10596C0006EB442108D94FF400722846FFF768FE75
:10597C0001340028F2D104E02846BDE8F840FFF7D6
:10598C00D2BF0020F8BD38B504461546406800F07B
:10599C00EBF84FF400722946606800F0E9F8FF213B
:1059AC00606800F0E1F8FF21606800F0DDF86068E5
:1059BC0000F0BFF8607200F01F00052806D05723D6
:1059CC0020462370FFF729FE002038BD012038BD8A
:1059DC0070B5837A032B18BF490215460A46182165
:1059EC000446FFF773FE064608B132231DE02A4633
:1059FC00FE212046FFF7C7FFC0B14FF4FA612046E5
:105A0C00FFF74FFE054608B95A230EE032460D212A
:105A1C002046FFF75BFE38B9606800F08AF818B9C9
:105A2C002046FFF7FAFD05E0292323702046FFF7F7
:105A3C00F4FD0025284670BD38B50D464FF4FA61CB
:105A4C000446FFF72EFE10B95B23237005E02A46AF
:105A5C00FC212046FFF797FF18B92046FFF7DDFD24
:105A6C00002038BD10B5837A032B0A4618BF4A02B2
:105A7C0019210446FFF72AFE30B133232046237048
:105A8C00FFF7CBFD002010BD012010BD38B54FF441
:105A9C00FA610446FFF705FE054620B1FD2160685A
:105AAC0000F062F801E0562323702046FFF7B5FDA5
:105ABC00284638BDF8B5054616461F46FFF7D2FFF7
:105ACC0070B10024BC4206EB4421284604D0FFF7F9
:105ADC00B3FF28B10134F5E7BDE8F840FFF7D6BFB6
:105AEC002846FFF79AFD0020F8BD00F0F3B900F04E
:105AFC00F1B900F0EFB90000014B01221A707047A8
:105B0C00D8E30320011D006800F080BC10B50446EA
:105B1C000175006800F050FC207D012101F074FA41
:105B2C00207D0121BDE8104001F07FBA006800F033
:105B3C0054BCFF21006800F0D9BC000037B5084BFD
:105B4C0000930025074C0068257013460A46294629
:105B5C0000F0D2FC2378002BFCD0002003B030BD29
:105B6C00055B0D00D8E30320006800F0BFBC00000B
:105B7C0037B5074B00930025064C0068257013467B
:105B8C002A4600F0B9FC2378002BFCD003B030BDC2
:105B9C00055B0D00D8E3032000F09CB910B58AB06A
:105BAC008DE80C000C4620210291002103910B463C
:105BBC0002AA0168204600F00DFB0AB010BD0EB41D
:105BCC0003B503AB1E2153F8042B0193FFF7E6FF3B
:105BDC0002B05DF804EB03B070470EB403B503AB31
:105BEC00282153F8042B0193FFF7D8FF02B05DF87E
:105BFC0004EB03B07047000010B504460D490E4885
:105C0C00FEF792FA6068002813DD012180B201F0E2
:105C1C00FBF90021A08801F008FA0A2000F09AFD97
:105C2C00A088002101F0F0F90A20BDE8104000F036
:105C3C0091BD10BDED770D00F4E303202DE9F04785
:105C4C0086B0154C9DF838809DF83C9016461F4642
:105C5C000D46824611492046FEF766FAAA222B46CB
:105C6C0020468DE8C0030E498DF810208DF8115098
:105C7C008DF812608DF813708DF814808DF81590D6
:105C8C00FFF79DFFDAF8000003680622DB6804A921
:105C9C00984706B0BDE8F087F4E30320FC760D00CE
:105CAC0022770D00F0B589B004460B4600922D48C2
:105CBC000F4615462C492D4AFEF736FA00260622C9
:105CCC0006A920680696ADF81C6000F01BFD06289E
:105CDC002ED19DF81D1003919DF81C1002919DF87A
:105CEC001B1001919DF81A109DF819309DF8182081
:105CFC00009126751E491B48FEF716FA9DF81920CF
:105D0C009DF81C30974210D19DF81A10A94201D071
:105D1C00FF2D0AD19DF81B0040F0807040EA032053
:105D2C009DF81D3040EA034019E00F2A08BF237587
:105D3C00A16804919DF81D1003919DF81C1002910F
:105D4C009DF81B1001919DF81A10009105489DF8C3
:105D5C0019309DF818200749FFF73FFF002009B0C4
:105D6C00F0BD00BFF4E3032049770D0009770D0067
:105D7C0057770D007F770D002DE9F7439DF82880AC
:105D8C009DF82C9004460D4616461F4609490A48B4
:105D9C00FEF7CAF9324629468DE800033B462046F9
:105DAC00FFF74CFF2A460E21204603B0BDE8F04316
:105DBC00FFF778BFDE770D00F4E303202DE9F34104
:105DCC0005460E461B481C49FEF7AEF9D5F808806F
:105DDC0001240027B4420CDA631DAB600023019749
:105DEC0000971A460D212846FFF7C6FF08B9013463
:105DFC00F0E7B442C5F8088014DA22460F490D4882
:105E0C00FFF7DDFEFF220D212846FFF74BFF48B1BF
:105E1C000023019300930D220E212846FFF70EFF5D
:105E2C00204604E003480649FFF7D7FE002002B0E5
:105E3C00BDE8F081F4E3032004770D00AC770D008E
:105E4C00C0770D0010B50749074A04460748FEF70E
:105E5C006BF92046FFF7D0FE20463C21BDE81040F0
:105E6C00FFF7ACBFC8770D00D9770D00F4E3032022
:105E7C0073B5002504460E460B480C49FEF754F941
:105E8C00019500952B46324604212046FFF774FFFE
:105E9C0040B1658232460A212046FFF703FF20F00D
:105EAC007F40E06002B070BDF4E3032017770D0073
:105EBC0000F010B808B5024B1B689B68019308BD35
:105ECC006802030008B5024B1B68DB68019308BD30
:105EDC006802030008B5024B1B681B68019308BDE0
:105EEC002C02030008B5024B1B689B68019308BD8C
:105EFC002C02030008B5024B1B68DB68019308BD3C
:105F0C002C02030008B5024B1B681B69019308BDEA
:105F1C002C02030008B5024B1B681B68019308BDDB
:105F2C003002030008B5024B1B685B69019308BD86
:105F3C003002030008B5024B1B68DB69019308BDF6
:105F4C003002030008B5024B1B681B6A019308BDA5
:105F5C003002030008B5024B1B685B6A019308BD55
:105F6C003002030008B5024B1B689B6A019308BD05
:105F7C003002030008B5024B1B689B6B019308BDF4
:105F8C003002030008B5024B1B68DB6B019308BDA4
:105F9C003002030008B5024B1B681B6C019308BD53
:105FAC003002030008B5024B1B685B6C019308BD03
:105FBC003002030008B5024B1B685B68019308BDF7
:105FCC001802030008B5024B1B681B69019308BD3E
:105FDC001802030008B5024B1B685B69019308BDEE
:105FEC001802030008B5024B1B689B68019308BD9F
:105FFC004802030008B5024B1B68DB68019308BD1F
:10600C004802030008B5024B1B681B69019308BDCD
:10601C004802030008B5024B1B685B69019308BD7D
:10602C004802030008B5024B1B685B6C019308BD6A
:10603C004802030008B5024B1B689B6C019308BD1A
:10604C004802030008B5024B1B685B69019308BD4D
:10605C006402030008B5024B1B681B68019308BD62
:10606C003C02030008B5024B1B689B68019308BDFA
:10607C003C02030008B5024B1B68DB68019308BDAA
:10608C003C02030008B5024B1B681B69019308BD59
:10609C003C02030008B5024B1B685B69019308BD09
:1060AC003C02030008B5024B1B689B69019308BDB9
:1060BC003C02030008B5024B1B68DB69019308BD69
:1060CC003C02030008B5024B1B681B6A019308BD18
:1060DC003C02030008B5024B1B689B6A019308BD88
:1060EC003C02030008B5024B1B68DB6A019308BD38
:1060FC003C02030008B5024B1B681B6A019308BDE8
:10610C002802030008B5024B1B685B6A019308BDAB
:10611C002802030008B5024B1B689B6A019308BD5B
:10612C002802030008B5024B1B68DB6A019308BD0B
:10613C002802030008B5024B1B681B6B019308BDBA
:10614C002802030008B5024B1B685B6B019308BD6A
:10615C002802030008B5024B1B681B6C019308BD99
:10616C002802030008B5024B1B681B68019308BD8D
:10617C004C02030008B5024B1B685B68019308BD19
:10618C004C02030008B5024B1B681B69019308BD48
:10619C004C02030008B5024B1B685B69019308BDF8
:1061AC004C02030008B5024B1B689B69019308BDA8
:1061BC004C02030008B5024B1B68DB69019308BD58
:1061CC004C02030008B5024B1B681B6A019308BD07
:1061DC004C02030008B5024B1B685B6D019308BDB4
:1061EC006002030008B5024B1B685B68019308BD95
:1061FC002002030008B5024B1B685B69019308BDC4
:10620C002002030008B5034B1B68D3F888300193B8
:10621C0008BD00002002030008B5034B1B68D3F82F
:10622C009430019308BD00002002030008B5024B16
:10623C001B685B68019308BD4002030008B5024B64
:10624C001B689B68019308BD4002030008B5024B14
:10625C001B68DB68019308BD4002030008B5024BC4
:10626C001B681B69019308BD4002030008B5024B73
:10627C001B685B69019308BD4002030008B5024B23
:10628C001B689B69019308BD4002030008B5024BD3
:10629C001B68DB69019308BD4002030008B5024B83
:1062AC001B681B6A019308BD4002030008B5024B32
:1062BC001B681B6B019308BD4002030008B5024B21
:1062CC001B685B6B019308BD4002030008B5024BD1
:1062DC001B689B68019308BD4402030008B5024B80
:1062EC001B68DB6B019308BD4402030008B5024B2D
:1062FC001B681B68019308BD1C02030008B5024B08
:10630C001B685B68019308BD1C02030008B5024BB7
:10631C001B685B6A019308BD1C0203000022114636
:10632C004068FFF7BBBF002211464068FFF7C6BFAD
:10633C0000224068FFF7BABF002281F001014068DB
:10634C00FFF7A4BF00231A4619464068FFF796BF13
:10635C0000231A4619464068FFF788BF00221146F1
:10636C004068FFF77BBF002211464068FFF766BF0D
:10637C00002202214068FFF769BF00231A464068DB
:10638C00FFF754BF024B03225A60024A1A6070474F
:10639C00DCE3032000780D000021FFF7FBBD00219A
:1063AC00FFF700BE10B5044601700846FFF7C2FDAA
:1063BC0000236360204610BD10B504460078FFF73B
:1063CC00EBFF48B920784FF6FF71FFF7A3FD20785B
:1063DC00BDE81040FFF7E3BF10BD0078FFF7DFBF4B
:1063EC00400830B51860002418688842E5B206D918
:1063FC000134082C02D040081860F5E70725024B41
:10640C005B5D137030BD00BF2C780D002DE9F0439F
:10641C0007468FB000780E46FFF7BEFF002862DB00
:10642C003C781422002109A800F0EAFF0B23204637
:10643C00002209A9ADF82430FFF78CFD9DF82D4002
:10644C0054B19DF82C5035B9DDF830809DF834905E
:10645C009DF8354003E00024A146A0460125337980
:10646C0005B1BBB99D420BD1B268424508D18DF83C
:10647C0020908DF82140BDF82010B289914209D0AE
:10648C0053B100243878019400942346224601210C
:10649C00FFF778FD002026E08DF80F30B1680A98E0
:1064AC0004AB0DF10F02FFF79BFF317905B1B1B9C8
:1064BC00A94208D0002438780194747B337B9DF872
:1064CC000F200094E4E7B3684345F3D38DF8209094
:1064DC008DF82140BDF82020B3899A42EAD1049B63
:1064EC004345E7D1D6E70FB0BDE8F08308B5007897
:1064FC00FFF718FDC0B208BD30B587B004460A9D41
:10650C0000780095FFF72EFD3DB902A92078FFF722
:10651C0031FD9DF81430DB07F7D407B030BD00789F
:10652C00FFF710BD10B50446006818B1FFF7E6FE82
:10653C000023236010BD10B50446FFF7F3FF20467F
:10654C0010BD000010B5094C00204FF6FF73206001
:10655C00A080A07120816381FFF744FE2046044A8D
:10656C000449BDE8104000F0B9BD00BFE4E30320CE
:10657C00E8DE032043650D0010B50446006808B141
:10658C00FFF758FD204610BD10B5064C00232046E1
:10659C002360FFF747FD2046034A0449BDE810403D
:1065AC0000F09CBDF0E30320E8DE032085650D00C0
:1065BC00F8B506460D468F180024BD420CD0336842
:1065CC0015F8011B9B6830469847002801DB0444F2
:1065DC00F3E7002C08BF04462046F8BD08B5FEF7CB
:1065EC003FFE08BD03689B68184708B5FEF738FEE8
:1065FC0008BD38B50D210546FFF7F4FF0A21044606
:10660C002846FFF7EFFF204438BD38B50546FEF7A6
:10661C0027FE04462846FFF7ECFF204438BDFFF761
:10662C00F4BF30B58BB00B4600218DF82410012A35
:10663C0098BF0A220DF12304B3FBF2F505FB1233CC
:10664C0003F0FF03092B94BF30333733DBB2214601
:10665C0004F801392B46002DEED1FEF701FE0BB0EC
:10666C0030BD0CB42DE9F04387B000AF07F138040E
:10667C00054654F8049B3C600E4623464A461421BA
:10668C00381DFFF743FE132805D8391D2846FEF7A1
:10669C00E7FD044613E000F1080323F00703E84686
:1066AC00ADEB030D411C23464A4668463C60FFF7A0
:1066BC002DFE69462846FEF7D3FD0446C5461EB19D
:1066CC002846FFF796FF044420461C37BD46BDE81C
:1066DC00F04302B0704710B50446FFF77BFCE06056
:1066EC00236820465B699847002808DAFFF772FC9C
:1066FC00E368C01AA3689842F2D34FF0FF3010BD84
:10670C00816070472DE9F04180460D468F180C468C
:10671C00BC42A4EB050607D04046FFF7DCFF00287F
:10672C0002DB04F8010BF3E73046BDE8F081000012
:10673C00014B024A1A607047F4E30320A7780D005E
:10674C00024B1A68024B1A60704700BF80DE0320B0
:10675C00F8E303200021FFF74DBD10B58368044614
:10676C0013B1032201469847204610BD10B50446CC
:10677C00FFF7F3FF204610BD0348044A04490023E9
:10678C00836000F0ABBC00BFFCE30320E8DE032019
:10679C0079670D0008B50C4B33B100F057F903685D
:1067AC001B699847002809DC084B63B100F0DAF943
:1067BC0003681B699847002803DC08BDAFF3008011
:1067CC00F2E7AFF3008008BD0000000000000000FD
:1067DC0008B5FFF7DFFFFFF7FDFB014B186008BDA5
:1067EC0030E703200248034A0349121A00F0FDBDAA
:1067FC0000F4032004F40320607B0D0007B5002394
:10680C0000931A466FF07701FFF706FD03B05DF8B1
:10681C0004FB000007B543880A2B08D0502B09D184
:10682C00094B1B683BB103B05DF804EB1847FFF74D
:10683C00E5FF06E0002300931A466FF07701FFF79F
:10684C00EBFC03B05DF804FB0CE4032038B5104CF2
:10685C00104D2368AB42104B0CBF012200221A7062
:10686C0002D0FFF7BFFF2560FFF7A4FB044600F042
:10687C00CFFD0A4B13B12046AFF30080002107482F
:10688C00FFF72CFD00210648BDE83840FFF7BABCE5
:10689C0000F403201E1C279A10E4032000000000C3
:1068AC0021680D00704710B51821044600F024FC37
:1068BC00204610BDF0B5037D062B8DB00E4600F1C1
:1068CC0004074FF0000402D000F1080518E00CADED
:1068DC00394605F8304D2F232A460A20FFF7B2FB24
:1068EC00284600F0F7FD33680246DB68294630463F
:1068FC0098470FE024B12E213046FFF773FE044475
:10690C0015F8011D0A223046FFF78BFEBD420444E8
:10691C00F0D120460DB0F0BD10B5054B0446112248
:10692C0040F8043B002100F06BFD204610BD00BF79
:10693C0048790D000346074A10B543F8042B01F1C2
:10694C00100251F8044B43F8044B9142F9D10A78E8
:10695C001A7010BD48790D0010B59DF8084044EA36
:10696C00032343EA024242EA0161042341600375B6
:10697C0010BD37B50D788B784A78C97800912946C7
:10698C00FFF7EAFF03B030BD41747047704708B59C
:10699C000021007CFFF706FC30EA200028BF4FF0F6
:1069AC00FF3008BD08B50121007CFFF7FBFB30EA86
:1069BC00200028BF4FF0FF3008BD08B5007CFFF762
:1069CC00E9FB20EAE07008BD08B5007CFFF7DAFBB4
:1069DC0020EAE07008BD007CFFF7F4BB10B5142171
:1069EC00044600F089FB204610BD38B50446007CF7
:1069FC000D46FFF7CFFB002801DC607C28B129464F
:106A0C00207CFFF7D7FB20EAE07038BD10B50446B8
:106A1C00002363604FF47A73A360054B236001235A
:106A2C000846217463741146FFF79CFB204610BD89
:106A3C005C790D000022007CFFF79CBB10B5142282
:106A4C000446002100F0DCFC204610BD30B50E4D94
:106A5C0087B001A8FFF7F2FF296811F0010410D1EB
:106A6C002846FDF716FB60B101AA21460748FFF73F
:106A7C00CDFF2846FDF712FB054A0649034800F0F6
:106A8C002DFB024807B030BD14E4032018E40320AA
:106A9C00E8DE032099690D0070474174704708B512
:106AAC00007CFFF717FB20EAE07008BD08B5007CFE
:106ABC00FFF7E8FA20EAE07008BD08B5007CFFF7A4
:106ACC00F1FA30EA200028BF4FF0FF3008BD08B5BE
:106ADC00007CFFF7DFFA30EA200028BF4FF0FF30D0
:106AEC0008BD007CFFF7E6BA10B51421044600F08F
:106AFC0003FB204610BD70B5457C04460E4625B9F7
:106B0C00007CFFF7E7FA002805DD3146207CBDE864
:106B1C007040FFF7AFBA284670BD000010B50446B0
:106B2C0008461146002262604FF47A72A260054A50
:106B3C0022600122207462741A46FFF78BFA2046F9
:106B4C0010BD00BF8C790D000023007CFFF7CABA82
:106B5C000022FFF7F9BF007CFFF784BA007CFFF737
:106B6C00B1BA000038B50C4D296811F0010411D1EF
:106B7C002846FDF78EFA68B1084A094B09482146A8
:106B8C00FFF7CCFF2846FDF789FA074A0749054865
:106B9C0000F0A4FA034838BDC4E40320C8E4032081
:106BAC0040E403202CE40320E8DE0320A56A0D005A
:106BBC007047F8B5064615460C468F18BC4206D0F1
:106BCC00336814F8011B9B6830469847F6E7284653
:106BDC00F8BD0022007CFFF78DBA0021007CFFF786
:106BEC0091BA0021007CFFF795BA0021007CFFF7D9
:106BFC0099BA0021007CFFF79DBA10B51421044608
:106C0C0000F07AFA204610BD10B5044600236360EC
:106C1C004FF47A73A360044B217408462360114629
:106C2C00FFF798FA204610BDBC790D000021007CBE
:106C3C00FFF788BA10B5044630B100F011FC90FB98
:106C4C00F4F303FB140010BD10BD884210B50446CC
:106C5C0004DA081AFFF7EEFF204410BD10BD002225
:106C6C0011464068FFF71ABB002211464068FFF737
:106C7C0025BB00224068FFF719BB002281F00101FF
:106C8C004068FFF703BB00231A4601214068FFF759
:106C9C00F5BA00231A4619464068FFF7E7BA0022F6
:106CAC0011464068FFF7DABA002211464068FFF738
:106CBC00C5BA002202214068FFF7C8BA00231A4661
:106CCC004068FFF7B3BA38B5054688B104684CB1D3
:106CDC00A3681BB103222146204698471021204669
:106CEC0000F00AFA28461421BDE8384000F004BA36
:106CFC0038BD10B103685B681847704710B503685E
:106D0C000446BBB15868FFF76DF978B923685A7C13
:106D1C0012B95868FFF776F923685868FFF77AF9C3
:106D2C0020680023236028B1FFF7CDFF206808B14D
:106D3C00FFF7C9FF204610BD38B50446D0F8C40192
:106D4C0008B1FDF7A4F9D4F8C00108B1FFF772F946
:106D5C00D4F8BC5135B12846FFF7D0FF04212846A2
:106D6C0000F0CAF9206808B1FFF7C3FF204638BD10
:106D7C0010B5044B044640F8083BFFF7DDFF2046F6
:106D8C0010BD00BFE4790D0038B50E4C0E4B2360DE
:106D9C000025022304F5E4706360A560C4F8C451B7
:106DAC00C4F8C851FFF73EF9084BC4F8CC5184F82D
:106DBC00D05123602046064A0649BDE8384000F011
:106DCC008DB900BF4CE503204C7A0D00E4790D0021
:106DDC00E8DE03207D6D0D00002211464068FFF7B0
:106DEC003DBA002211464068FFF758BA00221146FE
:106DFC004068FFF763BA00224068FFF757BA0022D9
:106E0C0081F001014068FFF741BA00231A46194688
:106E1C004068FFF733BA00231A4619464068FFF75B
:106E2C0025BA002211464068FFF708BA0022022159
:106E3C004068FFF70BBA00231A464068FFF7F6B913
:106E4C00024B04225A60024A1A60704720E7032062
:106E5C00187A0D0000231A464068FFF7E7B90022A4
:106E6C0002214068FFF7F2B9002211464068FFF793
:106E7C00E5B9002211464068FFF7F0B900231A4625
:106E8C0019464068FFF7F2B900231A4619464068C4
:106E9C00FFF7F4B9002281F001014068FFF7F6B961
:106EAC0000224068FFF702BA002211464068FFF743
:106EBC0005BA002211464068FFF7F0B92DE9F043FE
:106ECC00002495B016460D460746FFF725FD2146D2
:106EDC0020220CA8009400F093FA40230C93214636
:106EEC006B460CAA3046FEF7EDFF0446002844D151
:106EFC00024601216868FFF7B1F90221804622465B
:106F0C006868FFF7ABF9009E81462146002E34D00D
:106F1C00002932D17368022B02D00A2B09D02AE047
:106F2C00B8F1000F27D0716938460431FFF721FD05
:106F3C0020E0B9F1000F1ED07469112201A800F0F5
:106F4C005FFA06238DF8143001AD04F108031834F0
:106F5C00186859682A4603C20833A3421546F7D16C
:106F6C0001A906A807ADFFF7E5FC0FCD3C1D0FC42A
:106F7C002B6823700121F669C8E70098FEF79AFF89
:106F8C00384615B0BDE8F083024B034A1A60002264
:106F9C005A60704728E703204C7A0D0070B5184EE4
:106FAC00316811F0010504460AD13046FDF771F83D
:106FBC0030B129461348FFF7F5F93046FDF76EF866
:106FCC001048FFF7ACFA28B1A4F10B03022B01D83F
:106FDC00002070BD00F05CF8FFF728FE08B1012C12
:106FEC00F6D9FFF7BFFDFFF7B9FD18B1A4F10903FE
:106FFC00012BEDD9232C8CBF0020012070BD00BFCC
:10700C00ECDE0320F0DE0320232838B504460D46C1
:10701C000AD8FF2908D0FFF7C1FF28B1294620461E
:10702C00BDE83840FEF75EBF38BD38B504460D46A6
:10703C00FEF760FFFF2810D0062804D84D2323FA52
:10704C0000F0C30709D42046FFF7A8FF28B1294652
:10705C002046BDE83840FEF755BF38BD70B5044634
:10706C0014252A46094E002100F0CAF92580202556
:10707C003146A5602561284600F040F83146606035
:10708C00284600F03BF8E060204670BD787A0D0091
:10709C0030B50E4D296811F0010487B013D1284684
:1070AC00FCF7F7FF78B101A8FFF7D8FF01AA21463A
:1070BC000748FFF7A9FD2846FCF7F0FF054A0649EB
:1070CC00034800F00BF8024807B030BD34E703204A
:1070DC0038E70320E8DE0320BD6B0D000B460146AC
:1070EC00184600F065B90000024B1868BFF35F8FBB
:1070FC00704700BF4CE70320FCF7C7BF00F000B897
:10710C0010B5002814BF044601242046FFF7EEF802
:10711C0020B9FFF7E9FF08B18047F6E710BD000082
:10712C00184B1A68D1075CBF01221A60164B1A68FB
:10713C00D2075CBF01221A60144B1A68D0075CBFDF
:10714C0001221A60124B1A68D1075CBF01221A6027
:10715C00104B1A68D2075CBF01221A600E4B1A68DA
:10716C00D0075CBF01221A600C4B1A68D1075CBFB8
:10717C0001221A600A4B1A68D2075CBF01221A60FE
:10718C00704700BF6CE7032068E7032064E7032027
:10719C0060E703205CE7032058E7032054E7032053
:1071AC0050E70320244B1A68D0075CBF01221A60F9
:1071BC00224B1A68D1075CBF01221A60204B1A6857
:1071CC00D2075CBF01221A601E4B1A68D0075CBF45
:1071DC0001221A601C4B1A68D1075CBF01221A608D
:1071EC001A4B1A68D2075CBF01221A60184B1A6836
:1071FC00D0075CBF01221A60164B1A68D1075CBF1E
:10720C0001221A60144B1A68D2075CBF01221A6063
:10721C00124B1A68D0075CBF01221A60104B1A6817
:10722C00D1075CBF01221A600E4B1A68D2075CBFF3
:10723C0001221A60704700BF9CE7032098E70320E7
:10724C0094E7032090E703208CE7032088E70320D2
:10725C0084E7032080E703207CE7032078E7032002
:10726C0074E7032070E70320244B1A68D0075CBF37
:10727C0001221A60224B1A68D1075CBF01221A60E6
:10728C00204B1A68D2075CBF01221A601E4B1A6889
:10729C00D0075CBF01221A601C4B1A68D1075CBF77
:1072AC0001221A601A4B1A68D2075CBF01221A60BD
:1072BC00184B1A68D0075CBF01221A60164B1A686B
:1072CC00D1075CBF01221A60144B1A68D2075CBF4D
:1072DC0001221A60124B1A68D0075CBF01221A6097
:1072EC00104B1A68D1075CBF01221A600E4B1A684A
:1072FC00D2075CBF01221A60704700BFCCE70320A5
:10730C00C8E70320C4E70320C0E70320BCE7032041
:10731C00B8E70320B4E70320B0E70320ACE7032071
:10732C00A8E70320A4E70320A0E70320184B1A6862
:10733C00D1075CBF01221A60164B1A68D2075CBFDA
:10734C0001221A60144B1A68D0075CBF01221A6024
:10735C00124B1A68D1075CBF01221A60104B1A68D5
:10736C00D2075CBF01221A600E4B1A68D0075CBFB3
:10737C0001221A600C4B1A68D1075CBF01221A60FB
:10738C000A4B1A68D2075CBF01221A60704700BF13
:10739C00ECE70320E8E70320E4E70320E0E7032021
:1073AC00DCE70320D8E70320D4E70320D0E7032051
:1073BC0010B5054C13462CB10A4601460220AFF31A
:1073CC00008010BD204610BD0000000010B5013932
:1073DC000244904207D010F8013B11F8014FA34230
:1073EC00F7D0181B10BD002010BD10B5431E0A4469
:1073FC00914204D011F8014B03F8014FF8E710BD8E
:10740C0002440346934202D003F8011BFAE770478B
:10741C0038B5124B1C68A36B0546D3B91820FEF780
:10742C0065FF43F20E33A06303804AF6CD334380ED
:10743C0041F2342383804EF26D63C3804DF6EC63CE
:10744C000381052343810B23838101220023C0E99F
:10745C000423A36B00221D615A6138BDE4DE0320B6
:10746C00194B10B51C68A36BD3B91820FEF73EFF5F
:10747C0043F20E33A06303804AF6CD33438041F2CE
:10748C00342383804EF26D63C3804DF6EC6303812D
:10749C00052343810B23838101220023C0E90423AC
:1074AC00A16B0A4C0B694869094A5C4302FB00401A
:1074BC00A3FB02230132034443F10003C1E904237B
:1074CC0023F0004010BD00BFE4DE03202DF4515822
:1074DC002D7F954C034613F8012B002AFBD1181A6B
:1074EC00013870471D400D0059400D0085400D00BE
:1074FC0089400D00000000000000000000000000AA
:10750C00B1400D000000000000000000AF400D0075
:10751C000F410D001D410D0009410D0074616B659B
:10752C00536E617073686F7400696E697400646582
:10753C006661756C7420004D5342004C5342003C04
:10754C0053504953657474696E6773206465666142
:10755C00756C743E003C53504953657474696E6786
:10756C0073202573256C75202573204D4F444525BC
:10757C00643E0057726974696E672064617461209F
:10758C00746F20534463617264200A0043616E2758
:10759C007420616363657373205344206361726468
:1075AC002E20446F206E6F74207265666F726D6151
:1075BC00742E004E6F20636172642C2077726F6E94
:1075CC006720636869702073656C656374207069EB
:1075DC006E2C206F72205350492070726F626C6554
:1075EC006D3F005344206572726F72436F64653A4D
:1075FC00203058002C305800496E76616C6964203C
:10760C00666F726D61742C207265666F726D617439
:10761C002053442E0043616E2774206F70656E20DA
:10762C00726F6F74206469726563746F72792E0067
:10763C004E6F206572726F7220666F756E642E00CD
:10764C005374617274696E672044617461204C6F6D
:10765C006767696E67200A0043616E277420637246
:10766C00656174652066696C65206E616D65006688
:10767C00696C652E6F70656E004C6F6767696E671D
:10768C0020746F3A202573200A00446F6E65200A1F
:10769C0000526561647920666F72206E6578742083
:1076AC0064617461206C6F67200A0077726974657D
:1076BC00206572726F72200A0054696D6553746193
:1076CC006D702C2052616E646F6D2044617461206A
:1076DC002569200A007543414D4949493A202573D3
:1076EC0000736574496D616765466F726D617400F6
:1076FC0073656E64436D640073796E6300657870B6
:10770C006563745061636B6167650067657450698C
:10771C0063747572650073656E64436D643A2025FD
:10772C003032582025303258202530325820253020
:10773C0032582025303258202530325800257328F5
:10774C00253032782C2530327829007265636569D2
:10775C007665643A20253032582025303258202561
:10776C0030325820253032582025303258202530E0
:10777C0032580074696D656F75743A202530325833
:10778C0020253032582025303258202530325820D0
:10779C002530325820253032582028256C75290088
:1077AC0073796E632061667465722025642074722F
:1077BC00696573006E6F2073796E63007543414D7C
:1077CC004949495F426173653A20257300696E69C6
:1077DC00740073656E64436D645769746841636BC0
:1077EC0000686172645265736574000000000000EB
:1077FC000000000087630D007D630D0073630D00B6
:10780C0069630D005D630D0051630D0045630D0050
:10781C003D630D0033630D0029630D00C96E0D002F
:10782C0000081018202830386261756400536572A6
:10783C0069616C0053657269616C310074797065B3
:10784C0000706172616D00636D6400696400686E44
:10785C0064007374726D0066696C74006C766C00F5
:10786C0061646448616E646C65720072656D6F76FC
:10787C006548616E646C657200656E756D48616E0D
:10788C00646C657273004A534F4E53747265616D2C
:10789C004C6F6748616E646C657200617070002596
:1078AC003031307520005D20002564002C2000282C
:1078BC00293A2000205B00636F6465203D20002581
:1078CC00690064657461696C73203D20000D0A00C9
:1078DC0066006C6E00666E00636F646500646574B0
:1078EC0061696C006E6F6E6500747261636500692E
:1078FC006E666F007761726E006572726F720070E7
:10790C00616E696300616C6C005A00252B30336426
:10791C003A253032750025592D256D2D25645425B9
:10792C00483A254D3A2553257A0061736374696D85
:10793C00650000000000000000000000C1680D00A0
:10794C00B1680D00B3680D000000000000000000DD
:10795C0099690D00E9690D00F7690D00BD650D0011
:10796C00D5690D009B690D00B1690D00E3690D002F
:10797C00C7690D0095690D000000000000000000B3
:10798C00A56A0D00F56A0D00036B0D00BD650D00B9
:10799C00B96A0D00DB6A0D00C76A0D00EF6A0D00B5
:1079AC00A76A0D00AB6A0D0000000000000000008B
:1079BC00BD6B0D00076C0D00DF6B0D00BF6B0D0078
:1079CC00E76B0D00EF6B0D00F76B0D00FF6B0D00FF
:1079DC000000000000000000C96C0D00BF6C0D0021
:1079EC00B56C0D00AB6C0D009F6C0D00936C0D0015
:1079FC00876C0D007F6C0D00756C0D006B6C0D00B1
:107A0C00C96E0D000000000000000000436E0D0068
:107A1C00396E0D002F6E0D00E56D0D00236E0D00FF
:107A2C00176E0D000B6E0D00036E0D00F96D0D0041
:107A3C00EF6D0D00C96E0D0000000000000000008D
:107A4C00616E0D006B6E0D00756E0D007F6E0D007E
:107A5C00896E0D00956E0D00A16E0D00AD6E0D00C2
:107A6C00B56E0D00BF6E0D00C96E0D00000000005C
:107A7C0000000000000000000000000000000000FA
:107A8C0000000000000000000000000000000000EA
:107A9C0000000000000000000000000000000000DA
:107AAC0000000000000000000000000000000000CA
:107ABC0000000000000000000000000000000000BA
:107ACC0000000000000000000000000000000000AA
:107ADC0043000000D1440D008D450D0091450D0073
:107AEC00B94B0D00BD4B0D00C14B0D00C54B0D002E
:107AFC0069520D008D520D0091520D00B5550D00BF
:107B0C00B9550D00BD550D00F75A0D00FB5A0D006F
:107B1C00FF5A0D00A55B0D00BD5E0D0091630D00BD
:107B2C0051650D0095650D003D670D004D670D000D
:107B3C0085670D00956D0D004D6E0D00956F0D0058
:107B4C002D710D00B1710D0075720D0039730D00A2
:047B5C000000000025
:047B60000000000021
:107B64004A50454730302E6A70670000000000001C
:107B740036790D00000000007C7A0D009C7A0D001F
:107B8400BC7A0D00000000000000000000000000AE
:107B940000000000DC7A0D0000000000000000007E
:107BA40000000000000000000000000000000000D1
:107BB40000000000000000000000000000000000C1
:107BC40000000000000000000000000000000000B1
:087BD4000000000084DE032024
:107BDC00FFFFFFFF00000102030405060708090A66
:107BEC000B0C0D0E0F101112131415161718191A61
:087BFC001B1C1D1E1F202800A8
:047C04007856341268
:04000003D000401CCD
:00000001FF
