:02000002D0002C
:1040000000400D00B8670D00000006000C0005011F
:084010000401E80500000000B6
:0440180070620D00C5
:1040200009480A49884208B505D0094A824202D0A7
:10403000121A02F023F80748074A0021121A02F068
:1040400028F8014808BD00BFA0E2032024670D0046
:104050000CE303200CE30320F0E7032070B500F02D
:1040600045FF074C074BE41AA40800251E46A5424D
:1040700004D056F8253098470135F8E770BD00BFE9
:1040800014670D00CC660D0000F014B808B500F000
:10409000D5F8BDE8084000F0EBBE00F081BD00F0AF
:1040A0007FBD0078B0FA80F04009704701230370AB
:1040B0007047000008B501F019F84FF4165101F0EF
:1040C00009F801F099F84FF4165101F091F800F059
:1040D00033FC034B1860034B01221A7008BD00BF6C
:1040E000ECE30320E8E303202DE9F0474A4CA6B0B7
:1040F00000F022FC2368C01A41F28733984240F254
:104100008880DFF834A1454D00F016FC9AF80030A5
:10411000206043B100F010FCDAF83430C01A42F2EB
:104120000F7398420ED93E4906A801F0EDFF2B7897
:10413000002B6ED1394B01221A7000F0FDFB394B78
:10414000186066E0504600F08BF951EC100B01F05E
:1041500033FF0646504600F0ABF951EC100B01F06E
:104160002BFF00238AF879300746DAF8800001F047
:10417000ABFC00222C4B01F037FE01F01DFF804606
:104180000AF1480000F0E0F904460AF1480000F0A6
:10419000E5F981460AF1480000F0EEF9072C824665
:1041A00001D9063C00E01234E4B200F09FFF234640
:1041B0001E4A00218DE8000600F0DBFD00F096FFAE
:1041C0000446404601F092FCCDE90401384601F076
:1041D0008DFCCDE90201304601F088FC144ACDE99E
:1041E00000010021204600F0C4FD2B788BB10B4B61
:1041F00000221A7000F0A0FB0A4B1C68041B00F0A0
:1042000075FF0C4A2346012126B0BDE8F04700F0B7
:10421000B0BD26B0BDE8F087F0E30320E8E303205B
:10422000DB620D00ECE303200000594084620D00C6
:104230009E620D00BB620D0010E3032008B500F084
:10424000DBFF03681B69984700280DDD00F0D4FFF1
:1042500003685B699847C1B2044800F0F3FA00288C
:10426000EDD0FFF741FFEAE708BD00BF10E30320F0
:1042700008B500F051FB0120002100F015FC0248B8
:10428000BDE8084000F018B810E3032000F044BB7C
:1042900000F042BB10B58368044613B10322014607
:1042A0009847204610BD0000024B01221A7000F012
:1042B00033BB00BFF4E303200022022102704270EE
:1042C000828082600273028242610276828302628D
:1042D00080F824200285C26280F8302080F83820DF
:1042E00080F83920C26380F8482080F84920C264F1
:1042F00080F8582080F85920026680F8682080F8FD
:104300006920026780F8782080F87920C0F8802042
:1043100080F8882080F88920C0F8902080F89820C4
:1043200080F89920C0F8A02080F8A82080F8A92063
:1043300080F8B91080F8BA2080F8BB2080F8BC2043
:10434000C0F8C020C0F8C420C0F8C820C0F8CC20F5
:10435000C0F8D020C0F8D42080F8AA207047A1F17E
:104360004103052B02D8A1F137007047A1F1610389
:10437000052B94BFA1F15700A1F13000704738B56B
:10438000057804462D2D08BF0134204601F064FE57
:1043900064235843224614F8013BA3F13001092954
:1043A000F8D92E2B0BD15378303B092B07D80A2193
:1043B00001FB03009378303B092B98BFC0182D2DCB
:1043C00008BF404238BD000038B504460D4601F034
:1043D00043FE6423B0FBF3F203FB1200114B2A806F
:1043E000434320460278A2F130010929044600F136
:1043F0000100F7D92E2A0BD10A490A2014F8012FFF
:10440000303A092A04D8B1FBF0F101FB0233F5E799
:1044100003EB830301330322B3FBF2F36B6000234E
:104420002B7238BD8096980010B50346044653F8A9
:104430001C2F42605A6882601B7A0373034653F84C
:10444000282F02615A6842611B7A037600F074FAE1
:10445000012360636370237010BD00000000000042
:10446000D0B5002304464370806801F01DFB0EA305
:10447000D3E9002301F0B8FC0646A0880F4601F0FE
:1044800023FB0B4602463946304601F0D1F9237B27
:104490001BB1024601F1004301E002460B4643EC2A
:1044A000102BD0BDAFF300800000000065CDCD41E2
:1044B000D0B5002304464370406901F0F5FA0EA31D
:1044C000D3E9002301F090FC0646208A0F4601F054
:1044D000FBFA0B4602463946304601F0A9F9237E25
:1044E0001BB1024601F1004301E002460B4643ECDA
:1044F000102BD0BDAFF300800000000065CDCD4192
:1045000010B583684360044600F016FA0123E060AA
:104510006370237010BD10B583684360044600F0DB
:104520000BFA0123E0606370237010BD10B50446E0
:104530000846FFF724FFA06010BD10B504460846EA
:1045400001F08AFDA06010BD00234370436802485B
:10455000B3FBF0F0C0B2704740420F00002343703D
:10456000436842F21070B3FBF0F36420B3FBF0F247
:1045700000FB1230C0B270470023437043686420D0
:10458000B3FBF0F3B3FBF0F200FB1230C0B27047A4
:1045900010B5C3688360044600F0CEF90123606063
:1045A0006370237010BD10B504460846FFF7E7FEA0
:1045B000E06010BD10B5C3688360044600F0BCF92C
:1045C000012360606370237010BD10B50446084677
:1045D00001F042FDE06010BD10B501460446103008
:1045E00001F092FD00F0A8F90123206284F8253043
:1045F00084F8243010BD102201F096BDF8B590F873
:10460000A9500446002D67D090F8AA10FFF7A7FE26
:1046100094F8AB1002462046FFF7A1FE94F8A830AC
:1046200000EB0210C0B283424FD1D4F8D430013332
:10463000C4F8D43094F8BC3023B1D4F8CC30013372
:10464000C4F8CC3094F8B930B3B1012B2AD104F1BD
:104650003800FFF755FF04F14800FFF75CFF94F8BE
:10466000BC30FBB12046FFF7DFFE04F15800FFF736
:104670008FFF04F1680013E004F14800FFF74BFFDF
:1046800094F8BC3033B12046FFF7CEFE04F1780039
:10469000FFF77EFF04F18800FFF78CFF04F198001C
:1046A000FFF776FFD4F8C460002E00F0C580D4F880
:1046B000C430B06A996A01F01DFD002840F0BC804A
:1046C0003046FFF789FF366BEEE7D4F8D030013380
:1046D000C4F8D0300025AFE090F8BA202ABB00F132
:1046E000AA075649384601F005FD08B9012308E03C
:1046F0005349384601F0FEFC10B984F8B95002E085
:10470000022384F8B930D4F8C030C4F8C430D4F8E7
:10471000C460002E00F090803946B06A01F0EAFCD7
:10472000002880F28580336BEFE790F8B9100229FA
:1047300066D090F8AA30002B62D042EA4112013ACA
:10474000282A5DD8DFE802F01520232A31464D5390
:10475000575C5C5C5C5C5C5C5C5C5C5C5C5C5C5C9E
:104760005C5C5C5C5C5C5C5C151B20232A31383C27
:10477000400000F1AA014830FFF7D8FE40E0A3F165
:1047800041004342434129E000F11C0108E0A3F14C
:1047900053014B424B4180F8243031E000F12801B5
:1047A00004F1AA00FFF710FE2AE0A3F157025342DA
:1047B000534180F8303023E000F1AA0158301DE069
:1047C00000F1AA01683019E000F1AA013830FFF7C2
:1047D000B4FE15E0302B94BF0023012384F8BC30D5
:1047E0000EE000F1AA018830FFF7EFFE08E000F1CB
:1047F000AA01983002E000F1AA017830FFF7D3FE59
:10480000D4F8C46004F1AA07B6B1D4F8C430B06AD1
:10481000996A01F06FFC78B9F26A94F8BA309A425A
:104820000ADC03D139463046FFF7E5FE366BEBE78D
:1048300002D00023C4F8C4302846F8BDE7620D005A
:10484000ED620D0038B5D0F8C830242903F101031A
:1048500004460D46C0F8C8302AD090F8BB3004D8C2
:104860000A290CD00D2932D109E02A2907D02C2998
:104870002DD190F8A82082F02C0280F8A8200E2BD1
:104880004FF0000005D8234483F8AA002046FFF724
:10489000B5FE94F8BA30013384F8BA30002384F8B6
:1048A000BB30A5F12A035D425D4184F8A95038BDB3
:1048B0000020022384F8BB0084F8BA0084F8A80022
:1048C00084F8B93084F8A90084F8BC0038BD0D2BF9
:1048D0009FBF5A1C1B1984F8BB2083F8AA5094F878
:1048E000A90028B994F8A8104D4084F8A85038BD04
:1048F000002038BD00F010B808B5024B1B689B685B
:10490000019308BD6802030008B5024B1B68DB6811
:10491000019308BD6802030008B5024B1B681B68C1
:10492000019308BD2C02030008B5024B1B685B68AD
:10493000019308BD1802030008B5024B1B685B69B0
:10494000019308BD1802030008B5024B1B689B6861
:10495000019308BD4802030008B5024B1B681B69A0
:10496000019308BD4802030008B5024B1B685B6950
:10497000019308BD4802030008B5024B1B685B6C3D
:10498000019308BD4802030008B5024B1B689B6CED
:10499000019308BD4802030008B5024B1B685B6920
:1049A000019308BD6402030008B5024B1B681B6835
:1049B000019308BD3C02030008B5024B1B68DB688D
:1049C000019308BD3C02030008B5024B1B681B693C
:1049D000019308BD3C02030008B5024B1B685B69EC
:1049E000019308BD3C02030008B5024B1B689B699C
:1049F000019308BD3C02030008B5024B1B68DB694C
:104A0000019308BD3C02030008B5024B1B689B6A7A
:104A1000019308BD3C02030008B5024B1B68DB6A2A
:104A2000019308BD3C02030008B5024B1B681B68DC
:104A3000019308BD4C02030008B5024B1B685B687C
:104A4000019308BD4C02030008B5024B1B681B69AB
:104A5000019308BD4C02030008B5024B1B685B695B
:104A6000019308BD4C02030008B5024B1B689B690B
:104A7000019308BD4C02030008B5024B1B68DB69BB
:104A8000019308BD4C02030008B5024B1B681B6A6A
:104A9000019308BD4C02030008B5024B1B685B681C
:104AA000019308BD2002030008B5024B1B68DB6AB6
:104AB000019308BD2002030008B5034B1B68D3F81F
:104AC0008830019308BD00002002030008B5034BA5
:104AD0001B68D3F89430019308BD00002002030046
:104AE00008B5024B1B685B68019308BD40020300D8
:104AF00008B5024B1B689B68019308BD4002030088
:104B000008B5024B1B68DB68019308BD4002030037
:104B100008B5024B1B681B69019308BD40020300E6
:104B200008B5024B1B685B69019308BD4002030096
:104B300008B5024B1B689B69019308BD4002030046
:104B400008B5024B1B68DB69019308BD40020300F6
:104B500008B5024B1B681B6A019308BD40020300A5
:104B600008B5024B1B681B6B019308BD4002030094
:104B700008B5024B1B685B6B019308BD4002030044
:104B800008B5024B1B68DB6B019308BD44020300B0
:104B900008B5024B1B681B68019308BD1C0203008B
:104BA00008B5024B1B685B68019308BD1C0203003B
:104BB00008B5024B1B685B6A019308BD1C02030029
:104BC000002211464068FFF7C3BF0022114640682B
:104BD000FFF7CEBF00224068FFF7C2BF002281F07E
:104BE00001014068FFF7ACBF00231A461946406830
:104BF000FFF79EBF00231A4619464068FFF790BF93
:104C0000002211464068FFF783BF0022114640682A
:104C1000FFF76EBF002202214068FFF771BF00233B
:104C20001A464068FFF75CBF024B03225A60024AF3
:104C30001A607047F8E3032020630D0010B50446A6
:104C4000006818B1FFF7ACFF0023236010BD10B55A
:104C50000446FFF7F3FF204610BD000010B5094CD5
:104C600000204FF6FF732060A080A0712081638137
:104C7000FFF712FF2046044A0449BDE8104000F047
:104C800081BC00BF00E403200CE303204F4C0D0067
:104C900010B50446006808B1FFF776FE204610BD47
:104CA00010B5064C002320462360FFF765FE204622
:104CB000034A0449BDE8104000F064BC0CE4032042
:104CC0000CE30320914C0D00F8B506460D468F18F5
:104CD0000024BD420CD0336815F8011B9B68304698
:104CE0009847002801DB0444F3E7002C08BF044682
:104CF0002046F8BD70B505460C46084649B101F09E
:104D00000BFA2B68024621462846DB68BDE8704056
:104D1000184770BD03689B68184738B50D210546D4
:104D2000FFF7F8FF0A2104462846FFF7F3FF204467
:104D300038BD30B58BB00B4600218DF82410012A08
:104D400098BF0A220DF12304B3FBF2F505FB1233E1
:104D500003F0FF03092B94BF30333733DBB2214616
:104D600004F801392B46002DEED1FFF7C3FF0BB03D
:104D700030BD0CB42DE9F04387B000AF07F1380423
:104D8000054654F8049B3C600E4623464A461421CF
:104D9000381DFFF70DFF132805D8391D2846FFF7EA
:104DA000A9FF044613E000F1080323F00703E846D7
:104DB000ADEB030D411C23464A4668463C60FFF7B5
:104DC000F7FE69462846FFF795FF0446C5461EB123
:104DD0002846FFF7A2FF044420461C37BD46BDE825
:104DE000F04302B070470000014B024A1A6070475E
:104DF00010E40320BF630D00024B1A68024B1A60D7
:104E0000704700BFA0E2032014E4032010B504465D
:104E1000FFF740FA204610BD0348044A0449002326
:104E2000836000F0AFBB00BF18E403200CE3032055
:104E30000D4E0D0008B50C4B33B100F057F9036867
:104E40001B699847002809DC084B63B100F0D4F9CE
:104E500003681B699847002803DC08BDAFF3008096
:104E6000F2E7AFF3008008BD000000000000000082
:104E700008B5FFF7DFFFFFF75FFD014B186008BDC6
:104E80004CE703200248034A0349121A01F0F6B81E
:104E900000F4032004F4032020670D0007B500236D
:104EA00000931A466FF07701FFF710FE03B05DF82C
:104EB00004FB000007B543880A2B08D0502B09D10A
:104EC000094B1B683BB103B05DF804EB1847FFF7D3
:104ED000E5FF06E0002300931A466FF07701FFF725
:104EE000F5FD03B05DF804FB28E4032038B5104C51
:104EF000104D2368AB42104B0CBF012200221A70E8
:104F000002D0FFF7BFFF2560FFF70EFD044601F05A
:104F1000C9F80A4B13B12046AFF3008000210748BF
:104F2000FFF72EFE00210648BDE83840FFF7C4BD5C
:104F300000F403201E1C279A2CE40320000000002C
:104F4000B54E0D00704710B51821044600F01FFB48
:104F5000204610BDF0B5037D062B8DB00E4600F146
:104F600004074FF0000402D000F1080518E00CAD72
:104F7000394605F8304D2F232A460A20FFF70CFD4D
:104F8000284601F0C9F833680246DB6829463046F6
:104F900098470FE024B12E213046FFF7BBFE0444B2
:104FA00015F8011D0A223046FFF7C3FEBD42044436
:104FB000F0D120460DB0F0BD10B5054B04461122CE
:104FC00040F8043B002101F064F8204610BD00BF0A
:104FD00060640D000346074A10B543F8042B01F145
:104FE000100251F8044B43F8044B9142F9D10A786E
:104FF0001A7010BD60640D0010B59DF8084044EAB9
:10500000032343EA024242EA01610423416003753B
:1050100010BD37B50D788B784A78C978009129464C
:10502000FFF7EAFF03B030BD41747047704708B521
:105030000021007CFFF718FD30EA200028BF4FF068
:10504000FF3008BD08B50121007CFFF70DFD30EAF7
:10505000200028BF4FF0FF3008BD08B5007CFFF7E7
:10506000FBFC20EAE07008BD08B5007CFFF7ECFC13
:1050700020EAE07008BD007CFFF706BD10B51421E2
:10508000044600F084FA204610BD38B50446007C82
:105090000D46FFF7E1FC002801DC607C28B12946C1
:1050A000207CFFF7E9FC20EAE07038BD10B504462B
:1050B000002363604FF47A73A360054B23600123E0
:1050C0000846217463741146FFF7AEFC204610BDFC
:1050D00074640D000022007CFFF7AEBC10B51422F2
:1050E0000446002100F0D5FF204610BD30B50E4D1E
:1050F00087B001A8FFF7F2FF296811F0010410D171
:105100002846FEF7CEFF60B101AA21460748FFF707
:10511000CDFF2846FEF7CAFF054A0649034800F0BE
:1051200031FA024807B030BD30E4032034E40320F4
:105130000CE303202D500D0070474174704708B5F3
:10514000007CFFF761FC20EAE07008BD08B5007C38
:10515000FFF73AFC20EAE07008BD08B5007CFFF7D5
:1051600043FC30EA200028BF4FF0FF3008BD08B5EF
:10517000007CFFF731FC30EA200028BF4FF0FF3001
:1051800008BD007CFFF738BC10B51421044600F0C0
:10519000FEF9204610BD70B5457C04460E4625B983
:1051A000007CFFF731FC002805DD3146207CBDE89E
:1051B0007040FFF701BC284670BD000010B50446E2
:1051C00008461146002262604FF47A72A260054AD6
:1051D00022600122207462741A46FFF7E5FB204624
:1051E00010BD00BFA4640D000023007CFFF714BCB9
:1051F0000022FFF7F9BF000038B50C4D296811F007
:10520000010411D12846FEF74CFF68B1084A094B4A
:1052100009482146FFF7D2FF2846FEF747FF074A15
:105220000749054800F0AEF9034838BDE0E4032023
:10523000E4E403205CE4032048E403200CE30320BF
:1052400039510D00002211464068FFF781BC002251
:1052500011464068FFF78CBC00224068FFF780BC15
:10526000002281F001014068FFF76ABC00231A4662
:1052700001214068FFF75CBC00231A4619464068CC
:10528000FFF74EBC002211464068FFF741BC0022E8
:1052900011464068FFF72CBC002202214068FFF74E
:1052A0002FBC00231A464068FFF71ABC38B50546E4
:1052B00088B104684CB1A3681BB103222146204683
:1052C00098471021204600F062F928461421BDE8D5
:1052D000384000F05CB938BD10B103685B6818470E
:1052E000704710B503680446BBB15868FFF72CFB44
:1052F00078B923685A7C12B95868FFF72DFB2368E8
:105300005868FFF731FB20680023236028B1FFF7BE
:10531000CDFF206808B1FFF7C9FF204610BD38B5A2
:105320000446D0F8C40108B1FEF7B9FED4F8C001B4
:1053300008B1FFF729FBD4F8BC5135B12846FFF777
:10534000D0FF0421284600F022F9206808B1FFF7B9
:10535000C3FF204638BD000010B5044B044640F89A
:10536000083BFFF7DCFF204610BD00BFD4640D00F2
:1053700038B50E4C0E4B23600025022304F5E47073
:105380006360A560C4F8C451C4F8C851FFF7F4FACB
:10539000084BC4F8CC5184F8D05123602046064A0B
:1053A0000649BDE8384000F0EDB800BF68E50320CD
:1053B0003C650D00D4640D000CE3032059530D002F
:1053C000002211464068FFF7A3BB00221146406847
:1053D000FFF7BEBB002211464068FFF7C9BB0022A1
:1053E0004068FFF7BDBB002281F001014068FFF774
:1053F000A7BB00231A4619464068FFF799BB002354
:105400001A4619464068FFF78BBB002211464068D8
:10541000FFF76EBB002202214068FFF771BB00233B
:105420001A464068FFF75CBB024B04225A60024AEE
:105430001A6070473CE7032008650D0000231A46F8
:105440004068FFF74DBB002202214068FFF758BBC0
:10545000002211464068FFF74BBB0022114640680E
:10546000FFF756BB00231A4619464068FFF758BBA2
:1054700000231A4619464068FFF75ABB002281F004
:1054800001014068FFF75CBB00224068FFF768BB82
:10549000002211464068FFF76BBB002211464068AE
:1054A000FFF756BB2DE9F043002495B016460D4694
:1054B0000746FFF781FD214620220CA8009400F04A
:1054C000E8FD40230C9321466B460CAA3046FFF7BB
:1054D0001BFA0446002844D1024601216868FFF700
:1054E00017FB0221804622466868FFF711FB009EE9
:1054F00081462146002E34D0002932D17368022B18
:1055000002D00A2B09D02AE0B8F1000F27D0716928
:1055100038460431FFF77DFD20E0B9F1000F1ED0C1
:105520007469112201A800F0B4FD06238DF814302F
:1055300001AD04F108031834186859682A4603C2FB
:105540000833A3421546F7D101A906A807ADFFF716
:1055500041FD0FCD3C1D0FC42B6823700121F6695E
:10556000C8E70098FFF7C8F9384615B0BDE8F083E2
:10557000024B034A1A6000225A60704744E7032036
:105580003C650D000B460146184600F069BDFEF76C
:1055900084BD0000184B1A68D1075CBF01221A6055
:1055A000164B1A68D2075CBF01221A60144B1A68A6
:1055B000D0075CBF01221A60124B1A68D1075CBF8A
:1055C00001221A60104B1A68D2075CBF01221A60D0
:1055D0000E4B1A68D0075CBF01221A600C4B1A6888
:1055E000D1075CBF01221A600A4B1A68D2075CBF60
:1055F00001221A60704700BF6CE7032068E70320B0
:1056000064E7032060E703205CE7032058E70320FA
:1056100054E7032050E70320244B1A68D0075CBFEF
:1056200001221A60224B1A68D1075CBF01221A605E
:10563000204B1A68D2075CBF01221A601E4B1A6801
:10564000D0075CBF01221A601C4B1A68D1075CBFEF
:1056500001221A601A4B1A68D2075CBF01221A6035
:10566000184B1A68D0075CBF01221A60164B1A68E3
:10567000D1075CBF01221A60144B1A68D2075CBFC5
:1056800001221A60124B1A68D0075CBF01221A600F
:10569000104B1A68D1075CBF01221A600E4B1A68C2
:1056A000D2075CBF01221A60704700BF9CE703204D
:1056B00098E7032094E7032090E703208CE703207A
:1056C00088E7032084E7032080E703207CE70320AA
:1056D00078E7032074E7032070E70320244B1A685F
:1056E000D0075CBF01221A60224B1A68D1075CBF49
:1056F00001221A60204B1A68D2075CBF01221A608F
:105700001E4B1A68D0075CBF01221A601C4B1A6836
:10571000D1075CBF01221A601A4B1A68D2075CBF1E
:1057200001221A60184B1A68D0075CBF01221A6068
:10573000164B1A68D1075CBF01221A60144B1A6815
:10574000D2075CBF01221A60124B1A68D0075CBFF7
:1057500001221A60104B1A68D1075CBF01221A603F
:105760000E4B1A68D2075CBF01221A60704700BF57
:10577000CCE70320C8E70320C4E70320C0E70320E9
:10578000BCE70320B8E70320B4E70320B0E7032019
:10579000ACE70320A8E70320A4E70320A0E7032049
:1057A000184B1A68D1075CBF01221A60164B1A68A1
:1057B000D2075CBF01221A60144B1A68D0075CBF85
:1057C00001221A60124B1A68D1075CBF01221A60CD
:1057D000104B1A68D2075CBF01221A600E4B1A6880
:1057E000D0075CBF01221A600C4B1A68D1075CBF5E
:1057F00001221A600A4B1A68D2075CBF01221A60A4
:10580000704700BFECE70320E8E70320E4E703204C
:10581000E0E70320DCE70320D8E70320D4E70320F8
:10582000D0E7032081F0004102E000BF83F0004395
:1058300030B54FEA41044FEA430594EA050F08BF2B
:1058400090EA020F1FBF54EA000C55EA020C7FEAEF
:10585000645C7FEA655C00F0E2804FEA5454D4EB6C
:105860005555B8BF6D420CDD2C4480EA020281EA36
:10587000030382EA000083EA010180EA020281EA6E
:105880000303362D88BF30BD11F0004F4FEA0131C0
:105890004FF4801C4CEA113102D0404261EB4101CF
:1058A00013F0004F4FEA03334CEA133302D0524255
:1058B00063EB430394EA050F00F0A780A4F1010411
:1058C000D5F1200E0DDB02FA0EFC22FA05F280184B
:1058D00041F1000103FA0EF2801843FA05F3594131
:1058E0000EE0A5F120050EF1200E012A03FA0EFCB0
:1058F00028BF4CF0020C43FA05F3C01851EBE371DA
:1059000001F0004507D54FF0000EDCF1000C7EEBF6
:1059100000006EEB0101B1F5801F1BD3B1F5001F34
:105920000CD349085FEA30004FEA3C0C04F1010453
:105930004FEA445212F5800F80F09A80BCF1004F7C
:1059400008BF5FEA500C50F1000041EB045141EAFE
:10595000050130BD5FEA4C0C404141EB010111F4FF
:10596000801FA4F10104E9D191F0000F04BF0146AA
:105970000020B1FA81F308BF2033A3F10B03B3F188
:1059800020020CDA0C3208DD02F1140CC2F10C0218
:1059900001FA0CF021FA02F10CE002F11402D8BF76
:1059A000C2F1200C01FA02F120FA0CFCDCBF41EA42
:1059B0000C019040E41AA2BF01EB0451294330BD11
:1059C0006FEA04041F3C1CDA0C340EDC04F11404EE
:1059D000C4F1200220FA04F001FA02F340EA0300C5
:1059E00021FA04F345EA030130BDC4F10C04C4F10B
:1059F000200220FA02F001FA04F340EA03002946EB
:105A000030BD21FA04F0294630BD94F0000F83F434
:105A1000801306BF81F480110134013D4EE77FEA17
:105A2000645C18BF7FEA655C29D094EA050F08BF63
:105A300090EA020F05D054EA000C04BF1946104644
:105A400030BD91EA030F1EBF0021002030BD5FEA88
:105A5000545C05D14000494128BF41F0004130BDB0
:105A600014F580043CBF01F5801130BD01F0004504
:105A700045F0FE4141F470014FF0000030BD7FEA77
:105A8000645C1ABF194610467FEA655C1CBF0B4672
:105A9000024650EA013406BF52EA033591EA030F89
:105AA00041F4002130BD00BF90F0000F04BF002181
:105AB000704730B54FF4806404F132044FF00005B4
:105AC0004FF0000150E700BF90F0000F04BF00212D
:105AD000704730B54FF4806404F1320410F0004593
:105AE00048BF40424FF000013EE700BF42004FEA8E
:105AF000E2014FEA31014FEA02701FBF12F07F430B
:105B000093F07F4F81F06051704792F0000F14BF07
:105B100093F07F4F704730B54FF4607401F000454B
:105B200021F0004120E700BF50EA010208BF7047A2
:105B300030B54FF000050AE050EA010208BF704797
:105B400030B511F0004502D5404261EB41014FF400
:105B5000806404F132045FEA915C3FF4DCAE4FF004
:105B600003025FEADC0C18BF03325FEADC0C18BFEB
:105B7000033202EBDC02C2F1200300FA03FC20FA3C
:105B800002F001FA03FE40EA0E0021FA02F1144489
:105B9000C1E600BF70B54FF0FF0C4CF4E06C1CEA9E
:105BA00011541DBF1CEA135594EA0C0F95EA0C0F13
:105BB00000F0DEF82C4481EA030621EA4C5123EA86
:105BC0004C5350EA013518BF52EA033541F48011B5
:105BD00043F4801338D0A0FB02CE4FF00005E1FB68
:105BE00002E506F00042E0FB03E54FF00006E1FBB2
:105BF00003569CF0000F18BF4EF0010EA4F1FF04F5
:105C0000B6F5007F64F5407404D25FEA4E0E6D4134
:105C100046EB060642EAC62141EA55514FEAC52045
:105C200040EA5E504FEACE2EB4F1FD0C88BFBCF5C1
:105C3000E06F1ED8BEF1004F08BF5FEA500E50F172
:105C4000000041EB045170BD06F0004646EA010138
:105C500040EA020081EA0301B4EB5C04C2BFD4EB6A
:105C60000C0541EA045170BD41F480114FF0000E63
:105C7000013C00F3AB8014F1360FDEBF002001F0D1
:105C8000004170BDC4F10004203C35DA0C341BDC4B
:105C900004F11404C4F1200500FA05F320FA04F01D
:105CA00001FA05F240EA020001F0004221F0004151
:105CB00010EBD37021FA04F642EB06015EEA430EC4
:105CC00008BF20EAD37070BDC4F10C04C4F12005F4
:105CD00000FA04F320FA05F001FA04F240EA0200A7
:105CE00001F0004110EBD37041F100015EEA430E78
:105CF00008BF20EAD37070BDC4F1200500FA05F298
:105D00004EEA020E20FA04F301FA05F243EA020316
:105D100021FA04F001F0004121FA04F220EA020025
:105D200000EBD3705EEA430E08BF20EAD37070BD6B
:105D300094F0000F0FD101F00046400041EB01014B
:105D400011F4801F08BF013CF7D041EA060195F02D
:105D5000000F18BF704703F00046520043EB0303E7
:105D600013F4801F08BF013DF7D043EA06037047D4
:105D700094EA0C0F0CEA135518BF95EA0C0F0CD0DF
:105D800050EA410618BF52EA4306D1D181EA030125
:105D900001F000414FF0000070BD50EA410606BF1F
:105DA0001046194652EA430619D094EA0C0F02D164
:105DB00050EA013613D195EA0C0F05D152EA0336A9
:105DC0001CBF104619460AD181EA030101F00041C7
:105DD00041F0FE4141F470014FF0000070BD41F010
:105DE000FE4141F4780170BD70B54FF0FF0C4CF4EA
:105DF000E06C1CEA11541DBF1CEA135594EA0C0F09
:105E000095EA0C0F00F0A7F8A4EB050481EA030E55
:105E100052EA03354FEA013100F088804FEA03333C
:105E20004FF0805545EA131343EA12634FEA02220A
:105E300045EA111545EA10654FEA00260EF00041CB
:105E40009D4208BF964244F1FD0404F5407402D21D
:105E50005B084FEA3202B61A65EB03055B084FEAAE
:105E600032024FF480104FF4002CB6EB020E75EBAB
:105E7000030E22BFB61A754640EA0C005B084FEAD3
:105E80003202B6EB020E75EB030E22BFB61A754650
:105E900040EA5C005B084FEA3202B6EB020E75EB9B
:105EA000030E22BFB61A754640EA9C005B084FEA13
:105EB0003202B6EB020E75EB030E22BFB61A754620
:105EC00040EADC0055EA060E18D04FEA051545EA0F
:105ED00016754FEA06164FEAC30343EA52734FEAB8
:105EE000C2025FEA1C1CC0D111F4801F0BD141EA31
:105EF00000014FF000004FF0004CB6E711F4801F96
:105F000004BF01430020B4F1FD0C88BFBCF5E06F75
:105F10003FF6AFAEB5EB030C04BFB6EB020C5FEA85
:105F2000500C50F1000041EB045170BD0EF0004EDA
:105F30004EEA113114EB5C04C2BFD4EB0C0541EA0C
:105F4000045170BD41F480114FF0000E013C90E609
:105F500045EA060E8DE60CEA135594EA0C0F08BFCD
:105F600095EA0C0F3FF43BAF94EA0C0F0AD150EACC
:105F700001347FF434AF95EA0C0F7FF425AF10465F
:105F800019462CE795EA0C0F06D152EA03353FF487
:105F9000FDAE1046194622E750EA410618BF52EA04
:105FA00043067FF4C5AE50EA41047FF40DAF52EAD8
:105FB00043057FF4EBAE12E74FEA4102B2F1E04352
:105FC00024BFB3F5001CDCF1FE5C0DD901F0004CE0
:105FD0004FEAC0024CEA5070B2F1004F40EB830030
:105FE00008BF20F00100704711F0804F21D113F15C
:105FF0003872BCBF01F00040704741F480114FEA95
:106000005252C2F11802C2F1200C10FA0CF320FA1D
:1060100002F018BF40F001004FEAC1234FEAD3233A
:1060200003FA0CFC40EA0C0023FA02F34FEA4303A4
:10603000CCE77FEA625307D150EA01331EBF4FF02D
:10604000FE4040F44000704701F0004040F0FE4048
:1060500040F40000704700BF0A22002100F0FEB8A3
:1060600010B5054C13462CB10A4601460220AFF389
:10607000008010BD204610BD0000000010B5431E7A
:106080000A44914204D011F8014B03F8014FF8E79C
:1060900010BD02440346934202D003F8011BFAE705
:1060A0007047000038B5124B1C68A36B0546D3B986
:1060B0001820FEF76DFD43F20E33A06303804AF60D
:1060C000CD33438041F2342383804EF26D63C3802D
:1060D0004DF6EC630381052343810B238381012269
:1060E0000023C0E90423A36B00221D615A6138BD5F
:1060F00008E3032010F8012B11F8013B012A28BF07
:106100009A42F7D0D01A7047034611F8012B03F8D2
:10611000012B002AF9D17047034613F8012B002AFE
:10612000FBD1181A0138704710B5034642B111F877
:10613000014B03F8014B013A002CF7D11A4400E05F
:1061400010BD934202D003F8014BFAE710BD0000E6
:106150002DE9F04780464048D0F800900F463D4674
:1061600015F8014B09EB0400407800F0080000F03E
:10617000FF0608B12F46F2E72D2C03D1BD1C7C7819
:10618000012603E02B2C04BF7C78BD1C13B1102B1F
:106190000AD15BE0302C57D1287800F0DF00582876
:1061A0004DD16C7810230235002E14BF4FF0004CF7
:1061B0006FF0004C0027BCFBF3FA384603FB1ACC07
:1061C00009EB040E9EF801E01EF0040F01D0303CF4
:1061D0000BE01EF0030E1BD0BEF1010F0CBF4FF001
:1061E000370E4FF0570ECEEB0404A34210DDB7F18B
:1061F000FF3F0AD0504506D801D1644503DC03FBBC
:106200000040012701E04FF0FF3715F8014BD7E7B9
:106210007B1C0CD1002E4FF0220314BF4FF0004026
:106220006FF00040C8F800302AB9BDE8F08706B129
:10623000404272B107B1691E1160BDE8F087302499
:10624000002BB1D10823AFE70A23ADE7302CA3D050
:10625000AAE7BDE8F08700BFA4E2032013460A4680
:10626000014602480068FFF773BF00BF08E3032040
:1062700021400D005D400D0089400D008D400D0056
:106280000000000054696D653A20253032693A25D6
:106290003032693A25303269202D2D2D20006C6175
:1062A000743A2025662C206C6F6E673A2025662C88
:1062B00020616C743A202566200A00256C75206DDB
:1062C000696C6C697365636F6E647320746F2067AB
:1062D00065742047505320666978006E6F206C6F9C
:1062E000636174696F6E004750524D4300475047D9
:1062F0004741004E004E4E4500454E450045534532
:1063000000535345005300535357005753570057FA
:106310004E57004E4E5700000000000000000000E5
:106320001F4C0D00154C0D000B4C0D00014C0D00C9
:10633000F54B0D00E94B0D00DD4B0D00D54B0D006D
:10634000CB4B0D00C14B0D00A5540D00626175646F
:106350000053657269616C0053657269616C31004C
:106360007479706500706172616D00636D640069BD
:106370006400686E64007374726D0066696C74000A
:106380006C766C0061646448616E646C6572007266
:10639000656D6F766548616E646C657200656E75DB
:1063A0006D48616E646C657273004A534F4E53744E
:1063B0007265616D4C6F6748616E646C65720061F7
:1063C000707000253031307520005D20002564009C
:1063D0002C200028293A2000205B00636F64652090
:1063E0003D200025690064657461696C73203D205F
:1063F000000D0A0066006C6E00666E00636F6465D7
:106400000064657461696C006E6F6E650074726122
:10641000636500696E666F007761726E0065727207
:106420006F720070616E696300616C6C005A0025C8
:106430002B3033643A253032750025592D256D2DCA
:1064400025645425483A254D3A2553257A00617331
:106450006374696D6500000000000000000000002A
:10646000554F0D00454F0D00474F0D000000000037
:10647000000000002D500D007D500D008B500D00D0
:10648000C94C0D0069500D002F500D0045500D00F6
:1064900077500D005B500D0029500D0000000000EA
:1064A0000000000039510D0089510D0097510D0079
:1064B000C94C0D004D510D006F510D005B510D0089
:1064C00083510D003B510D003F510D0000000000B5
:1064D00000000000A3520D0099520D008F520D00D4
:1064E00085520D0079520D006D520D0061520D0064
:1064F00059520D004F520D0045520D00A5540D008C
:1065000000000000000000001F540D0015540D0095
:106510000B540D00C1530D00FF530D00F3530D003C
:10652000E7530D00DF530D00D5530D00CB530D0085
:10653000A5540D0000000000000000003D540D00B7
:1065400047540D0051540D005B540D0065540D006F
:1065500071540D007D540D0089540D0091540D00AF
:106560009B540D00A5540D00002020202020202049
:1065700020202828282828202020202020202020F3
:106580002020202020202020208810101010101003
:10659000101010101010101010040404040404044F
:1065A00004040410101010101010414141414141E9
:1065B00001010101010101010101010101010101CB
:1065C00001010101101010101010424242424242DB
:1065D000020202020202020202020202020202029B
:1065E0000202020210101010200000000000000043
:1065F000000000000000000000000000000000009B
:10660000000000000000000000000000000000008A
:10661000000000000000000000000000000000007A
:10662000000000000000000000000000000000006A
:10663000000000000000000000000000000000005A
:10664000000000000000000000000000000000004A
:10665000000000000000000000000000000000003A
:10666000000000000000000000000000000000002A
:10667000000000000000000000000000000000001A
:10668000000000000000000000000000000000000A
:1066900000000000000000000000000000000000FA
:1066A00000000000000000000000000000000000EA
:1066B00000000000000000000000000000000000DA
:1066C00000000000000000000000000071420D000A
:1066D0008D420D0091420D00A9420D00F5480D00BC
:1066E000294C0D005D4C0D00A14C0D00E94D0D0035
:1066F000F94D0D00194E0D0071530D0029540D0078
:1067000071550D0095550D0019560D00DD560D0003
:10671000A1570D0000000000000000000000000074
:046720000000000075
:106724004E640D0068650D00000000006C660D00ED
:106734008C660D00AC660D00000000000000000037
:106744000000000000000000EB620D0000000000EB
:106754000000000000000000000000000000000035
:106764000000000000000000000000000000000025
:106774000000000000000000000000000000000015
:0C6784000000000000000000A8E203205C
:10679000FFFFFFFF00000102030405060708090AC6
:1067A0000B0C0D0E0F101112131415161718191AC1
:0867B0001B1C1D1E1F20280008
:0467B80078563412C9
:04000003D0004020C9
:00000001FF
